{"contracts/ContentManager.sol":{"ContentManager":{"abi":[{"inputs":[{"internalType":"address","name":"_scoin","type":"address"}],"stateMutability":"nonpayable","type":"constructor"},{"inputs":[],"name":"AccessControlBadConfirmation","type":"error"},{"inputs":[{"internalType":"address","name":"account","type":"address"},{"internalType":"bytes32","name":"neededRole","type":"bytes32"}],"name":"AccessControlUnauthorizedAccount","type":"error"},{"inputs":[],"name":"EnforcedPause","type":"error"},{"inputs":[],"name":"ExpectedPause","type":"error"},{"inputs":[],"name":"ReentrancyGuardReentrantCall","type":"error"},{"anonymous":false,"inputs":[{"indexed":true,"internalType":"address","name":"user","type":"address"},{"indexed":false,"internalType":"uint256","name":"amount","type":"uint256"}],"name":"BandwidthPurchased","type":"event"},{"anonymous":false,"inputs":[{"indexed":true,"internalType":"string","name":"cid","type":"string"},{"indexed":false,"internalType":"bool","name":"approved","type":"bool"},{"indexed":false,"internalType":"uint256","name":"confidence","type":"uint256"},{"indexed":false,"internalType":"bool","name":"isAIModerated","type":"bool"}],"name":"ContentModerated","type":"event"},{"anonymous":false,"inputs":[{"indexed":true,"internalType":"string","name":"cid","type":"string"},{"indexed":true,"internalType":"address","name":"owner","type":"address"},{"indexed":false,"internalType":"uint256","name":"timestamp","type":"uint256"}],"name":"ContentSubmitted","type":"event"},{"anonymous":false,"inputs":[{"indexed":false,"internalType":"address","name":"account","type":"address"}],"name":"Paused","type":"event"},{"anonymous":false,"inputs":[{"indexed":true,"internalType":"address","name":"user","type":"address"},{"indexed":false,"internalType":"uint256","name":"newScore","type":"uint256"}],"name":"ReputationUpdated","type":"event"},{"anonymous":false,"inputs":[{"indexed":true,"internalType":"bytes32","name":"role","type":"bytes32"},{"indexed":true,"internalType":"bytes32","name":"previousAdminRole","type":"bytes32"},{"indexed":true,"internalType":"bytes32","name":"newAdminRole","type":"bytes32"}],"name":"RoleAdminChanged","type":"event"},{"anonymous":false,"inputs":[{"indexed":true,"internalType":"bytes32","name":"role","type":"bytes32"},{"indexed":true,"internalType":"address","name":"account","type":"address"},{"indexed":true,"internalType":"address","name":"sender","type":"address"}],"name":"RoleGranted","type":"event"},{"anonymous":false,"inputs":[{"indexed":true,"internalType":"bytes32","name":"role","type":"bytes32"},{"indexed":true,"internalType":"address","name":"account","type":"address"},{"indexed":true,"internalType":"address","name":"sender","type":"address"}],"name":"RoleRevoked","type":"event"},{"anonymous":false,"inputs":[{"indexed":false,"internalType":"address","name":"account","type":"address"}],"name":"Unpaused","type":"event"},{"inputs":[],"name":"AI_MODERATOR_ROLE","outputs":[{"internalType":"bytes32","name":"","type":"bytes32"}],"stateMutability":"view","type":"function"},{"inputs":[],"name":"BANDWIDTH_DURATION","outputs":[{"internalType":"uint64","name":"","type":"uint64"}],"stateMutability":"view","type":"function"},{"inputs":[],"name":"BANDWIDTH_PRICE","outputs":[{"internalType":"uint128","name":"","type":"uint128"}],"stateMutability":"view","type":"function"},{"inputs":[],"name":"DEFAULT_ADMIN_ROLE","outputs":[{"internalType":"bytes32","name":"","type":"bytes32"}],"stateMutability":"view","type":"function"},{"inputs":[],"name":"VALIDATOR_ROLE","outputs":[{"internalType":"bytes32","name":"","type":"bytes32"}],"stateMutability":"view","type":"function"},{"inputs":[],"name":"contentQuery","outputs":[{"internalType":"contract ContentQuery","name":"","type":"address"}],"stateMutability":"view","type":"function"},{"inputs":[{"internalType":"string","name":"","type":"string"}],"name":"contents","outputs":[{"internalType":"string","name":"cid","type":"string"},{"internalType":"address","name":"owner","type":"address"},{"internalType":"uint256","name":"timestamp","type":"uint256"},{"internalType":"bool","name":"isModerated","type":"bool"},{"internalType":"bool","name":"isApproved","type":"bool"},{"internalType":"uint256","name":"bandwidthAllocation","type":"uint256"},{"internalType":"uint256","name":"reputationScore","type":"uint256"}],"stateMutability":"view","type":"function"},{"inputs":[{"internalType":"address","name":"validator","type":"address"},{"internalType":"uint256","name":"amount","type":"uint256"}],"name":"distributeValidatorRewards","outputs":[],"stateMutability":"nonpayable","type":"function"},{"inputs":[{"internalType":"string","name":"cid","type":"string"}],"name":"getContentDetails","outputs":[{"internalType":"address","name":"owner","type":"address"},{"internalType":"uint256","name":"timestamp","type":"uint256"},{"internalType":"bool","name":"isModerated","type":"bool"},{"internalType":"bool","name":"isApproved","type":"bool"},{"internalType":"uint256","name":"bandwidthAllocation","type":"uint256"},{"internalType":"uint256","name":"reputationScore","type":"uint256"}],"stateMutability":"view","type":"function"},{"inputs":[{"internalType":"string","name":"cid","type":"string"}],"name":"getModerationDecisions","outputs":[{"components":[{"internalType":"address","name":"moderator","type":"address"},{"internalType":"bool","name":"approved","type":"bool"},{"internalType":"uint256","name":"confidence","type":"uint256"},{"internalType":"uint256","name":"timestamp","type":"uint256"},{"internalType":"bool","name":"isAI","type":"bool"}],"internalType":"struct ContentManager.ModerationDecision[]","name":"","type":"tuple[]"}],"stateMutability":"view","type":"function"},{"inputs":[{"internalType":"bytes32","name":"role","type":"bytes32"}],"name":"getRoleAdmin","outputs":[{"internalType":"bytes32","name":"","type":"bytes32"}],"stateMutability":"view","type":"function"},{"inputs":[{"internalType":"address","name":"user","type":"address"}],"name":"getUserContent","outputs":[{"internalType":"string[]","name":"","type":"string[]"}],"stateMutability":"view","type":"function"},{"inputs":[{"internalType":"bytes32","name":"role","type":"bytes32"},{"internalType":"address","name":"account","type":"address"}],"name":"grantRole","outputs":[],"stateMutability":"nonpayable","type":"function"},{"inputs":[{"internalType":"bytes32","name":"role","type":"bytes32"},{"internalType":"address","name":"account","type":"address"}],"name":"hasRole","outputs":[{"internalType":"bool","name":"","type":"bool"}],"stateMutability":"view","type":"function"},{"inputs":[{"internalType":"string","name":"","type":"string"},{"internalType":"uint256","name":"","type":"uint256"}],"name":"moderationDecisions","outputs":[{"internalType":"address","name":"moderator","type":"address"},{"internalType":"bool","name":"approved","type":"bool"},{"internalType":"uint256","name":"confidence","type":"uint256"},{"internalType":"uint256","name":"timestamp","type":"uint256"},{"internalType":"bool","name":"isAI","type":"bool"}],"stateMutability":"view","type":"function"},{"inputs":[],"name":"pause","outputs":[],"stateMutability":"nonpayable","type":"function"},{"inputs":[],"name":"paused","outputs":[{"internalType":"bool","name":"","type":"bool"}],"stateMutability":"view","type":"function"},{"inputs":[{"internalType":"uint256","name":"amount","type":"uint256"}],"name":"purchaseBandwidth","outputs":[],"stateMutability":"nonpayable","type":"function"},{"inputs":[{"internalType":"bytes32","name":"role","type":"bytes32"},{"internalType":"address","name":"callerConfirmation","type":"address"}],"name":"renounceRole","outputs":[],"stateMutability":"nonpayable","type":"function"},{"inputs":[],"name":"requiredAIDecisions","outputs":[{"internalType":"uint256","name":"","type":"uint256"}],"stateMutability":"view","type":"function"},{"inputs":[{"internalType":"bytes32","name":"role","type":"bytes32"},{"internalType":"address","name":"account","type":"address"}],"name":"revokeRole","outputs":[],"stateMutability":"nonpayable","type":"function"},{"inputs":[],"name":"scoin","outputs":[{"internalType":"contract Scoin","name":"","type":"address"}],"stateMutability":"view","type":"function"},{"inputs":[{"internalType":"address","name":"_contentQuery","type":"address"}],"name":"setContentQuery","outputs":[],"stateMutability":"nonpayable","type":"function"},{"inputs":[{"internalType":"string","name":"cid","type":"string"},{"internalType":"bool","name":"approved","type":"bool"},{"internalType":"uint256","name":"confidence","type":"uint256"}],"name":"submitAIModeration","outputs":[],"stateMutability":"nonpayable","type":"function"},{"inputs":[{"internalType":"string","name":"cid","type":"string"},{"internalType":"uint256","name":"size","type":"uint256"}],"name":"submitContent","outputs":[],"stateMutability":"nonpayable","type":"function"},{"inputs":[{"internalType":"bytes4","name":"interfaceId","type":"bytes4"}],"name":"supportsInterface","outputs":[{"internalType":"bool","name":"","type":"bool"}],"stateMutability":"view","type":"function"},{"inputs":[],"name":"unpause","outputs":[],"stateMutability":"nonpayable","type":"function"},{"inputs":[{"internalType":"address","name":"","type":"address"}],"name":"userBandwidth","outputs":[{"internalType":"uint256","name":"","type":"uint256"}],"stateMutability":"view","type":"function"},{"inputs":[{"internalType":"address","name":"","type":"address"},{"internalType":"uint256","name":"","type":"uint256"}],"name":"userContent","outputs":[{"internalType":"string","name":"","type":"string"}],"stateMutability":"view","type":"function"}],"evm":{"bytecode":{"linkReferences":{},"object":"60a06040523480156200001157600080fd5b50604051620023c8380380620023c8833981016040819052620000349162000112565b6001805460ff191681556002556001600160a01b0381166080526200005b60003362000063565b505062000144565b6000828152602081815260408083206001600160a01b038516845290915281205460ff1662000108576000838152602081815260408083206001600160a01b03861684529091529020805460ff19166001179055620000bf3390565b6001600160a01b0316826001600160a01b0316847f2f8788117e7eff1d82e926ec794901d17c78024a50270940304540a733656f0d60405160405180910390a45060016200010c565b5060005b92915050565b6000602082840312156200012557600080fd5b81516001600160a01b03811681146200013d57600080fd5b9392505050565b60805161224c6200017c6000396000818161028d0152818161094101528181610a1c01528181610b2001526114e4015261224c6000f3fe608060405234801561001057600080fd5b50600436106101cf5760003560e01c80638789848911610104578063c49baebe116100a2578063d547741f11610071578063d547741f146104e3578063dad3fc13146104f6578063e33245b014610509578063f371d1191461051c57600080fd5b8063c49baebe1461042d578063cbcb458d14610454578063ce9bff8b1461049b578063d2543b21146104bb57600080fd5b8063a6acce35116100de578063a6acce35146103b5578063a9cc4467146103db578063b46b2691146103e3578063bf5648ac1461040a57600080fd5b8063878984891461037a57806391d148541461039a578063a217fddf146103ad57600080fd5b80633f4ba83a116101715780636b0302231161014b5780636b030223146102ed57806378866bdb1461033f5780638456cb591461035f578063867217341461036757600080fd5b80633f4ba83a146102c7578063531f7d1f146102cf5780635c975abb146102e257600080fd5b8063248a9ca3116101ad578063248a9ca3146102315780632f2ff15d1461026257806336568abe146102755780633ccc3ec81461028857600080fd5b806301ffc9a7146101d457806306e20b69146101fc578063122faf0a1461021c575b600080fd5b6101e76101e2366004611a15565b61052f565b60405190151581526020015b60405180910390f35b61020f61020a366004611a8f565b610566565b6040516101f39190611ad1565b61022f61022a366004611b5a565b61062a565b005b61025461023f366004611bb7565b60009081526020819052604090206001015490565b6040519081526020016101f3565b61022f610270366004611bec565b610840565b61022f610283366004611bec565b61086b565b6102af7f000000000000000000000000000000000000000000000000000000000000000081565b6040516001600160a01b0390911681526020016101f3565b61022f6108a3565b61022f6102dd366004611bb7565b6108b9565b60015460ff166101e7565b6103006102fb366004611a8f565b610bc4565b604080516001600160a01b03909716875260208701959095529215159385019390935215156060840152608083019190915260a082015260c0016101f3565b61035261034d366004611c18565b610d21565b6040516101f39190611c92565b61022f610dda565b61022f610375366004611ca5565b610ded565b61038d610388366004611ca5565b610e74565b6040516101f39190611cc0565b6101e76103a8366004611bec565b610f63565b610254600081565b6103c86103c3366004611dc5565b610f8c565b6040516101f39796959493929190611e02565b610254600381565b6102547fae9d6a7ca654743bc3938ec59651368f1da5622dcfa609b64a54af7abdd55d5081565b61041462278d0081565b60405167ffffffffffffffff90911681526020016101f3565b6102547f21702c8af46127c7fa207f89d0b0a8441bb32959a0ac7df790e9ab1a25c9892681565b610467610462366004611e4f565b61106b565b604080516001600160a01b03909616865293151560208601529284019190915260608301521515608082015260a0016101f3565b6102546104a9366004611ca5565b60076020526000908152604090205481565b6104cb68056bc75e2d6310000081565b6040516001600160801b0390911681526020016101f3565b61022f6104f1366004611bec565b6110d9565b61022f610504366004611e94565b6110fe565b61022f610517366004611c18565b61143b565b6003546102af906001600160a01b031681565b60006001600160e01b03198216637965db0b60e01b148061056057506301ffc9a760e01b6001600160e01b03198316145b92915050565b60606006838360405161057a929190611ee0565b9081526020016040518091039020805480602002602001604051908101604052809291908181526020016000905b8282101561061e5760008481526020908190206040805160a0810182526004860290920180546001600160a01b038116845260ff600160a01b90910481161515848601526001808301549385019390935260028201546060850152600390910154161515608083015290835290920191016105a8565b50505050905092915050565b7fae9d6a7ca654743bc3938ec59651368f1da5622dcfa609b64a54af7abdd55d5061065481611545565b61065c61154f565b8361069c5760405162461bcd60e51b815260206004820152600b60248201526a125b9d985b1a590810d25160aa1b60448201526064015b60405180910390fd5b600485856040516106ae929190611ee0565b9081526040519081900360200190206003015460ff16156107115760405162461bcd60e51b815260206004820152601960248201527f436f6e74656e7420616c7265616479206d6f64657261746564000000000000006044820152606401610693565b6040805160a081018252338152841515602082015280820184905242606082015260016080820152905160069061074b9088908890611ee0565b908152604080516020928190038301812080546001808201835560009283529185902086516004909202018054958701516001600160a01b039092166001600160a81b031990961695909517600160a01b9115159190910217845591840151918301919091556060830151600283015560808301516003928301805460ff19169115159190911790556006906107e49089908990611ee0565b90815260405190819003602001902054106108385761083886868080601f01602080910402602001604051908101604052809392919081815260200183838082843760009201919091525061157592505050565b505050505050565b60008281526020819052604090206001015461085b81611545565b610865838361178d565b50505050565b6001600160a01b03811633146108945760405163334bd91960e11b815260040160405180910390fd5b61089e828261181f565b505050565b60006108ae81611545565b6108b661188a565b50565b6108c161154f565b6108c96118dc565b6000811161090a5760405162461bcd60e51b815260206004820152600e60248201526d125b9d985b1a5908185b5bdd5b9d60921b6044820152606401610693565b600061091f68056bc75e2d6310000083611f06565b6040516370a0823160e01b815233600482015290915081906001600160a01b037f000000000000000000000000000000000000000000000000000000000000000016906370a0823190602401602060405180830381865afa158015610988573d6000803e3d6000fd5b505050506040513d601f19601f820116820180604052508101906109ac9190611f1d565b10156109fa5760405162461bcd60e51b815260206004820152601a60248201527f496e73756666696369656e742053434f494e2062616c616e63650000000000006044820152606401610693565b6040516323b872dd60e01b8152336004820152306024820152604481018290527f00000000000000000000000000000000000000000000000000000000000000006001600160a01b0316906323b872dd906064016020604051808303816000875af1158015610a6d573d6000803e3d6000fd5b505050506040513d601f19601f82011682018060405250810190610a919190611f36565b610acf5760405162461bcd60e51b815260206004820152600f60248201526e151c985b9cd9995c8819985a5b1959608a1b6044820152606401610693565b3360009081526007602052604081208054849290610aee908490611f53565b90915550506040516334d8734160e01b81523360048201526001600160801b038316602482015262278d0060448201527f00000000000000000000000000000000000000000000000000000000000000006001600160a01b0316906334d8734190606401600060405180830381600087803b158015610b6c57600080fd5b505af1158015610b80573d6000803e3d6000fd5b50506040518481523392507f93d1fb1ead613e69d70de843f026006d39242c27aa08f0fde2676cbc4b15637c915060200160405180910390a2506108b66001600255565b600080600080600080600060048989604051610be1929190611ee0565b90815260200160405180910390206040518060e0016040529081600082018054610c0a90611f66565b80601f0160208091040260200160405190810160405280929190818152602001828054610c3690611f66565b8015610c835780601f10610c5857610100808354040283529160200191610c83565b820191906000526020600020905b815481529060010190602001808311610c6657829003601f168201915b505050918352505060018201546001600160a01b03166020808301919091526002830154604080840191909152600384015460ff8082161515606080870191909152610100909204161515608080860191909152600486015460a08087019190915260059096015460c09586015292860151918601519086015192860151948601519590930151909e929d50909b5091995091975095509350505050565b60056020528160005260406000208181548110610d3d57600080fd5b90600052602060002001600091509150508054610d5990611f66565b80601f0160208091040260200160405190810160405280929190818152602001828054610d8590611f66565b8015610dd25780601f10610da757610100808354040283529160200191610dd2565b820191906000526020600020905b815481529060010190602001808311610db557829003601f168201915b505050505081565b6000610de581611545565b6108b6611904565b6000610df881611545565b6003546001600160a01b031615610e515760405162461bcd60e51b815260206004820152601860248201527f436f6e74656e74517565727920616c72656164792073657400000000000000006044820152606401610693565b50600380546001600160a01b0319166001600160a01b0392909216919091179055565b6001600160a01b0381166000908152600560209081526040808320805482518185028101850190935280835260609492939192909184015b82821015610f58578382906000526020600020018054610ecb90611f66565b80601f0160208091040260200160405190810160405280929190818152602001828054610ef790611f66565b8015610f445780601f10610f1957610100808354040283529160200191610f44565b820191906000526020600020905b815481529060010190602001808311610f2757829003601f168201915b505050505081526020019060010190610eac565b505050509050919050565b6000918252602082815260408084206001600160a01b0393909316845291905290205460ff1690565b8051602081830181018051600482529282019190930120915280548190610fb290611f66565b80601f0160208091040260200160405190810160405280929190818152602001828054610fde90611f66565b801561102b5780601f106110005761010080835404028352916020019161102b565b820191906000526020600020905b81548152906001019060200180831161100e57829003601f168201915b50505050600183015460028401546003850154600486015460059096015494956001600160a01b039093169491935060ff80821693610100909204169187565b8151602081840181018051600682529282019185019190912091905280548290811061109657600080fd5b600091825260209091206004909102018054600182015460028301546003909301546001600160a01b038316955060ff600160a01b909304831694509092911685565b6000828152602081905260409020600101546110f481611545565b610865838361181f565b61110661154f565b61110e6118dc565b816111495760405162461bcd60e51b815260206004820152600b60248201526a125b9d985b1a590810d25160aa1b6044820152606401610693565b6004838360405161115b929190611ee0565b9081526040519081900360200190206003015460ff16156111b75760405162461bcd60e51b8152602060048201526016602482015275436f6e74656e7420616c72656164792065786973747360501b6044820152606401610693565b3360009081526007602052604090205481111561120f5760405162461bcd60e51b8152602060048201526016602482015275092dce6eaccccd2c6d2cadce840c4c2dcc8eed2c8e8d60531b6044820152606401610693565b6040518060e0016040528084848080601f016020809104026020016040519081016040528093929190818152602001838380828437600092018290525093855250503360208401525042604080840191909152606083018290526080830182905260a0830185905260c0909201525160049061128e9086908690611ee0565b908152604051908190036020019020815181906112ab9082611fe6565b50602082810151600180840180546001600160a01b039093166001600160a01b03199093169290921790915560408085015160028501556060850151600385018054608088015115156101000261ff00199315159390931661ffff199091161791909117905560a0850151600485015560c09094015160059384015533600090815292825292822080549384018155825290200161134a8385836120a6565b50336000908152600760205260408120805483929061136a908490612167565b90915550506003546001600160a01b0316156113e55760035460405163869dea3960e01b81526001600160a01b039091169063869dea39906113b2908690869060040161217a565b600060405180830381600087803b1580156113cc57600080fd5b505af11580156113e0573d6000803e3d6000fd5b505050505b60405133906113f79085908590611ee0565b604051908190038120428252907f26d4161f9a739fde113fb6251ced0802b44aaa90d0cafd98efa66286e521c63c9060200160405180910390a361089e6001600255565b600061144681611545565b61144e61154f565b6114787f21702c8af46127c7fa207f89d0b0a8441bb32959a0ac7df790e9ab1a25c9892684610f63565b6114b65760405162461bcd60e51b815260206004820152600f60248201526e2737ba1030903b30b634b230ba37b960891b6044820152606401610693565b60405163a8a09ac360e01b81526001600160a01b0384811660048301526001600160801b03841660248301527f0000000000000000000000000000000000000000000000000000000000000000169063a8a09ac390604401600060405180830381600087803b15801561152857600080fd5b505af115801561153c573d6000803e3d6000fd5b50505050505050565b6108b6813361193f565b60015460ff16156115735760405163d93c066560e01b815260040160405180910390fd5b565b600060068260405161158791906121a9565b9081526020016040518091039020905060008060005b8354811015611629578381815481106115b8576115b86121c5565b6000918252602090912060049091020154600160a01b900460ff16156115e657826115e2816121db565b9350505b8381815481106115f8576115f86121c5565b906000526020600020906004020160010154826116159190611f53565b915080611621816121db565b91505061159d565b50825460009061163990836121f4565b845490915060009061164d906002906121f4565b84119050600060048760405161166391906121a9565b908152604051908190036020019020600381018054841580156101000261ffff19909216919091176001179091559091506116b7576005810183905560018101546116b7906001600160a01b03168461197c565b6003546001600160a01b03161561172b5760035460405163869dea3960e01b81526001600160a01b039091169063869dea39906116f8908a90600401611c92565b600060405180830381600087803b15801561171257600080fd5b505af1158015611726573d6000803e3d6000fd5b505050505b8660405161173991906121a9565b60408051918290038220841515835260208301869052600183830152905190917f0780aeef211af1fb7d0a699002c58938ae92313f0ee899b213f92d02a4364d35919081900360600190a250505050505050565b60006117998383610f63565b611817576000838152602081815260408083206001600160a01b03861684529091529020805460ff191660011790556117cf3390565b6001600160a01b0316826001600160a01b0316847f2f8788117e7eff1d82e926ec794901d17c78024a50270940304540a733656f0d60405160405180910390a4506001610560565b506000610560565b600061182b8383610f63565b15611817576000838152602081815260408083206001600160a01b0386168085529252808320805460ff1916905551339286917ff6391f5c32d9c69d2a47ea670b442974b53935d1edc7fd64eb21e047a839171b9190a4506001610560565b6118926119f2565b6001805460ff191690557f5db9ee0a495bf2e6ff9c91a7834c1ba4fdd244a5e8aa4e537bd38aeae4b073aa335b6040516001600160a01b03909116815260200160405180910390a1565b60028054036118fe57604051633ee5aeb560e01b815260040160405180910390fd5b60028055565b61190c61154f565b6001805460ff1916811790557f62e78cea01bee320cd4e420270b5ea74000d11b0c9f74754ebdbfc544b05a258336118bf565b6119498282610f63565b6119785760405163e2517d3f60e01b81526001600160a01b038216600482015260248101839052604401610693565b5050565b6119a67f21702c8af46127c7fa207f89d0b0a8441bb32959a0ac7df790e9ab1a25c9892683610f63565b1561197857816001600160a01b03167ffc577563f1b9a0461e24abef1e1fcc0d33d3d881f20b5df6dda59de4aae2c821826040516119e691815260200190565b60405180910390a25050565b60015460ff1661157357604051638dfc202b60e01b815260040160405180910390fd5b600060208284031215611a2757600080fd5b81356001600160e01b031981168114611a3f57600080fd5b9392505050565b60008083601f840112611a5857600080fd5b50813567ffffffffffffffff811115611a7057600080fd5b602083019150836020828501011115611a8857600080fd5b9250929050565b60008060208385031215611aa257600080fd5b823567ffffffffffffffff811115611ab957600080fd5b611ac585828601611a46565b90969095509350505050565b602080825282518282018190526000919060409081850190868401855b82811015611b3f57815180516001600160a01b031685528681015115158786015285810151868601526060808201519086015260809081015115159085015260a09093019290850190600101611aee565b5091979650505050505050565b80151581146108b657600080fd5b60008060008060608587031215611b7057600080fd5b843567ffffffffffffffff811115611b8757600080fd5b611b9387828801611a46565b9095509350506020850135611ba781611b4c565b9396929550929360400135925050565b600060208284031215611bc957600080fd5b5035919050565b80356001600160a01b0381168114611be757600080fd5b919050565b60008060408385031215611bff57600080fd5b82359150611c0f60208401611bd0565b90509250929050565b60008060408385031215611c2b57600080fd5b611c3483611bd0565b946020939093013593505050565b60005b83811015611c5d578181015183820152602001611c45565b50506000910152565b60008151808452611c7e816020860160208601611c42565b601f01601f19169290920160200192915050565b602081526000611a3f6020830184611c66565b600060208284031215611cb757600080fd5b611a3f82611bd0565b6000602080830181845280855180835260408601915060408160051b870101925083870160005b82811015611d1557603f19888603018452611d03858351611c66565b94509285019290850190600101611ce7565b5092979650505050505050565b634e487b7160e01b600052604160045260246000fd5b600082601f830112611d4957600080fd5b813567ffffffffffffffff80821115611d6457611d64611d22565b604051601f8301601f19908116603f01168101908282118183101715611d8c57611d8c611d22565b81604052838152866020858801011115611da557600080fd5b836020870160208301376000602085830101528094505050505092915050565b600060208284031215611dd757600080fd5b813567ffffffffffffffff811115611dee57600080fd5b611dfa84828501611d38565b949350505050565b60e081526000611e1560e083018a611c66565b6001600160a01b039890981660208301525060408101959095529215156060850152901515608084015260a083015260c090910152919050565b60008060408385031215611e6257600080fd5b823567ffffffffffffffff811115611e7957600080fd5b611e8585828601611d38565b95602094909401359450505050565b600080600060408486031215611ea957600080fd5b833567ffffffffffffffff811115611ec057600080fd5b611ecc86828701611a46565b909790965060209590950135949350505050565b8183823760009101908152919050565b634e487b7160e01b600052601160045260246000fd5b808202811582820484141761056057610560611ef0565b600060208284031215611f2f57600080fd5b5051919050565b600060208284031215611f4857600080fd5b8151611a3f81611b4c565b8082018082111561056057610560611ef0565b600181811c90821680611f7a57607f821691505b602082108103611f9a57634e487b7160e01b600052602260045260246000fd5b50919050565b601f82111561089e57600081815260208120601f850160051c81016020861015611fc75750805b601f850160051c820191505b8181101561083857828155600101611fd3565b815167ffffffffffffffff81111561200057612000611d22565b6120148161200e8454611f66565b84611fa0565b602080601f83116001811461204957600084156120315750858301515b600019600386901b1c1916600185901b178555610838565b600085815260208120601f198616915b8281101561207857888601518255948401946001909101908401612059565b50858210156120965787850151600019600388901b60f8161c191681555b5050505050600190811b01905550565b67ffffffffffffffff8311156120be576120be611d22565b6120d2836120cc8354611f66565b83611fa0565b6000601f84116001811461210657600085156120ee5750838201355b600019600387901b1c1916600186901b178355612160565b600083815260209020601f19861690835b828110156121375786850135825560209485019460019092019101612117565b50868210156121545760001960f88860031b161c19848701351681555b505060018560011b0183555b5050505050565b8181038181111561056057610560611ef0565b60208152816020820152818360408301376000818301604090810191909152601f909201601f19160101919050565b600082516121bb818460208701611c42565b9190910192915050565b634e487b7160e01b600052603260045260246000fd5b6000600182016121ed576121ed611ef0565b5060010190565b60008261221157634e487b7160e01b600052601260045260246000fd5b50049056fea2646970667358221220e0065156a871fcbc447d779a99d2c97ae51c5ca57f97ab71d5fc4773ca25d22b64736f6c63430008140033","opcodes":"PUSH1 0xA0 PUSH1 0x40 MSTORE CALLVALUE DUP1 ISZERO PUSH3 0x11 JUMPI PUSH1 0x0 DUP1 REVERT JUMPDEST POP PUSH1 0x40 MLOAD PUSH3 0x23C8 CODESIZE SUB DUP1 PUSH3 0x23C8 DUP4 CODECOPY DUP2 ADD PUSH1 0x40 DUP2 SWAP1 MSTORE PUSH3 0x34 SWAP2 PUSH3 0x112 JUMP JUMPDEST PUSH1 0x1 DUP1 SLOAD PUSH1 0xFF NOT AND DUP2 SSTORE PUSH1 0x2 SSTORE PUSH1 0x1 PUSH1 0x1 PUSH1 0xA0 SHL SUB DUP2 AND PUSH1 0x80 MSTORE PUSH3 0x5B PUSH1 0x0 CALLER PUSH3 0x63 JUMP JUMPDEST POP POP PUSH3 0x144 JUMP JUMPDEST PUSH1 0x0 DUP3 DUP2 MSTORE PUSH1 0x20 DUP2 DUP2 MSTORE PUSH1 0x40 DUP1 DUP4 KECCAK256 PUSH1 0x1 PUSH1 0x1 PUSH1 0xA0 SHL SUB DUP6 AND DUP5 MSTORE SWAP1 SWAP2 MSTORE DUP2 KECCAK256 SLOAD PUSH1 0xFF AND PUSH3 0x108 JUMPI PUSH1 0x0 DUP4 DUP2 MSTORE PUSH1 0x20 DUP2 DUP2 MSTORE PUSH1 0x40 DUP1 DUP4 KECCAK256 PUSH1 0x1 PUSH1 0x1 PUSH1 0xA0 SHL SUB DUP7 AND DUP5 MSTORE SWAP1 SWAP2 MSTORE SWAP1 KECCAK256 DUP1 SLOAD PUSH1 0xFF NOT AND PUSH1 0x1 OR SWAP1 SSTORE PUSH3 0xBF CALLER SWAP1 JUMP JUMPDEST PUSH1 0x1 PUSH1 0x1 PUSH1 0xA0 SHL SUB AND DUP3 PUSH1 0x1 PUSH1 0x1 PUSH1 0xA0 SHL SUB AND DUP5 PUSH32 0x2F8788117E7EFF1D82E926EC794901D17C78024A50270940304540A733656F0D PUSH1 0x40 MLOAD PUSH1 0x40 MLOAD DUP1 SWAP2 SUB SWAP1 LOG4 POP PUSH1 0x1 PUSH3 0x10C JUMP JUMPDEST POP PUSH1 0x0 JUMPDEST SWAP3 SWAP2 POP POP JUMP JUMPDEST PUSH1 0x0 PUSH1 0x20 DUP3 DUP5 SUB SLT ISZERO PUSH3 0x125 JUMPI PUSH1 0x0 DUP1 REVERT JUMPDEST DUP2 MLOAD PUSH1 0x1 PUSH1 0x1 PUSH1 0xA0 SHL SUB DUP2 AND DUP2 EQ PUSH3 0x13D JUMPI PUSH1 0x0 DUP1 REVERT JUMPDEST SWAP4 SWAP3 POP POP POP JUMP JUMPDEST PUSH1 0x80 MLOAD PUSH2 0x224C PUSH3 0x17C PUSH1 0x0 CODECOPY PUSH1 0x0 DUP2 DUP2 PUSH2 0x28D ADD MSTORE DUP2 DUP2 PUSH2 0x941 ADD MSTORE DUP2 DUP2 PUSH2 0xA1C ADD MSTORE DUP2 DUP2 PUSH2 0xB20 ADD MSTORE PUSH2 0x14E4 ADD MSTORE PUSH2 0x224C PUSH1 0x0 RETURN INVALID PUSH1 0x80 PUSH1 0x40 MSTORE CALLVALUE DUP1 ISZERO PUSH2 0x10 JUMPI PUSH1 0x0 DUP1 REVERT JUMPDEST POP PUSH1 0x4 CALLDATASIZE LT PUSH2 0x1CF JUMPI PUSH1 0x0 CALLDATALOAD PUSH1 0xE0 SHR DUP1 PUSH4 0x87898489 GT PUSH2 0x104 JUMPI DUP1 PUSH4 0xC49BAEBE GT PUSH2 0xA2 JUMPI DUP1 PUSH4 0xD547741F GT PUSH2 0x71 JUMPI DUP1 PUSH4 0xD547741F EQ PUSH2 0x4E3 JUMPI DUP1 PUSH4 0xDAD3FC13 EQ PUSH2 0x4F6 JUMPI DUP1 PUSH4 0xE33245B0 EQ PUSH2 0x509 JUMPI DUP1 PUSH4 0xF371D119 EQ PUSH2 0x51C JUMPI PUSH1 0x0 DUP1 REVERT JUMPDEST DUP1 PUSH4 0xC49BAEBE EQ PUSH2 0x42D JUMPI DUP1 PUSH4 0xCBCB458D EQ PUSH2 0x454 JUMPI DUP1 PUSH4 0xCE9BFF8B EQ PUSH2 0x49B JUMPI DUP1 PUSH4 0xD2543B21 EQ PUSH2 0x4BB JUMPI PUSH1 0x0 DUP1 REVERT JUMPDEST DUP1 PUSH4 0xA6ACCE35 GT PUSH2 0xDE JUMPI DUP1 PUSH4 0xA6ACCE35 EQ PUSH2 0x3B5 JUMPI DUP1 PUSH4 0xA9CC4467 EQ PUSH2 0x3DB JUMPI DUP1 PUSH4 0xB46B2691 EQ PUSH2 0x3E3 JUMPI DUP1 PUSH4 0xBF5648AC EQ PUSH2 0x40A JUMPI PUSH1 0x0 DUP1 REVERT JUMPDEST DUP1 PUSH4 0x87898489 EQ PUSH2 0x37A JUMPI DUP1 PUSH4 0x91D14854 EQ PUSH2 0x39A JUMPI DUP1 PUSH4 0xA217FDDF EQ PUSH2 0x3AD JUMPI PUSH1 0x0 DUP1 REVERT JUMPDEST DUP1 PUSH4 0x3F4BA83A GT PUSH2 0x171 JUMPI DUP1 PUSH4 0x6B030223 GT PUSH2 0x14B JUMPI DUP1 PUSH4 0x6B030223 EQ PUSH2 0x2ED JUMPI DUP1 PUSH4 0x78866BDB EQ PUSH2 0x33F JUMPI DUP1 PUSH4 0x8456CB59 EQ PUSH2 0x35F JUMPI DUP1 PUSH4 0x86721734 EQ PUSH2 0x367 JUMPI PUSH1 0x0 DUP1 REVERT JUMPDEST DUP1 PUSH4 0x3F4BA83A EQ PUSH2 0x2C7 JUMPI DUP1 PUSH4 0x531F7D1F EQ PUSH2 0x2CF JUMPI DUP1 PUSH4 0x5C975ABB EQ PUSH2 0x2E2 JUMPI PUSH1 0x0 DUP1 REVERT JUMPDEST DUP1 PUSH4 0x248A9CA3 GT PUSH2 0x1AD JUMPI DUP1 PUSH4 0x248A9CA3 EQ PUSH2 0x231 JUMPI DUP1 PUSH4 0x2F2FF15D EQ PUSH2 0x262 JUMPI DUP1 PUSH4 0x36568ABE EQ PUSH2 0x275 JUMPI DUP1 PUSH4 0x3CCC3EC8 EQ PUSH2 0x288 JUMPI PUSH1 0x0 DUP1 REVERT JUMPDEST DUP1 PUSH4 0x1FFC9A7 EQ PUSH2 0x1D4 JUMPI DUP1 PUSH4 0x6E20B69 EQ PUSH2 0x1FC JUMPI DUP1 PUSH4 0x122FAF0A EQ PUSH2 0x21C JUMPI JUMPDEST PUSH1 0x0 DUP1 REVERT JUMPDEST PUSH2 0x1E7 PUSH2 0x1E2 CALLDATASIZE PUSH1 0x4 PUSH2 0x1A15 JUMP JUMPDEST PUSH2 0x52F JUMP JUMPDEST PUSH1 0x40 MLOAD SWAP1 ISZERO ISZERO DUP2 MSTORE PUSH1 0x20 ADD JUMPDEST PUSH1 0x40 MLOAD DUP1 SWAP2 SUB SWAP1 RETURN JUMPDEST PUSH2 0x20F PUSH2 0x20A CALLDATASIZE PUSH1 0x4 PUSH2 0x1A8F JUMP JUMPDEST PUSH2 0x566 JUMP JUMPDEST PUSH1 0x40 MLOAD PUSH2 0x1F3 SWAP2 SWAP1 PUSH2 0x1AD1 JUMP JUMPDEST PUSH2 0x22F PUSH2 0x22A CALLDATASIZE PUSH1 0x4 PUSH2 0x1B5A JUMP JUMPDEST PUSH2 0x62A JUMP JUMPDEST STOP JUMPDEST PUSH2 0x254 PUSH2 0x23F CALLDATASIZE PUSH1 0x4 PUSH2 0x1BB7 JUMP JUMPDEST PUSH1 0x0 SWAP1 DUP2 MSTORE PUSH1 0x20 DUP2 SWAP1 MSTORE PUSH1 0x40 SWAP1 KECCAK256 PUSH1 0x1 ADD SLOAD SWAP1 JUMP JUMPDEST PUSH1 0x40 MLOAD SWAP1 DUP2 MSTORE PUSH1 0x20 ADD PUSH2 0x1F3 JUMP JUMPDEST PUSH2 0x22F PUSH2 0x270 CALLDATASIZE PUSH1 0x4 PUSH2 0x1BEC JUMP JUMPDEST PUSH2 0x840 JUMP JUMPDEST PUSH2 0x22F PUSH2 0x283 CALLDATASIZE PUSH1 0x4 PUSH2 0x1BEC JUMP JUMPDEST PUSH2 0x86B JUMP JUMPDEST PUSH2 0x2AF PUSH32 0x0 DUP2 JUMP JUMPDEST PUSH1 0x40 MLOAD PUSH1 0x1 PUSH1 0x1 PUSH1 0xA0 SHL SUB SWAP1 SWAP2 AND DUP2 MSTORE PUSH1 0x20 ADD PUSH2 0x1F3 JUMP JUMPDEST PUSH2 0x22F PUSH2 0x8A3 JUMP JUMPDEST PUSH2 0x22F PUSH2 0x2DD CALLDATASIZE PUSH1 0x4 PUSH2 0x1BB7 JUMP JUMPDEST PUSH2 0x8B9 JUMP JUMPDEST PUSH1 0x1 SLOAD PUSH1 0xFF AND PUSH2 0x1E7 JUMP JUMPDEST PUSH2 0x300 PUSH2 0x2FB CALLDATASIZE PUSH1 0x4 PUSH2 0x1A8F JUMP JUMPDEST PUSH2 0xBC4 JUMP JUMPDEST PUSH1 0x40 DUP1 MLOAD PUSH1 0x1 PUSH1 0x1 PUSH1 0xA0 SHL SUB SWAP1 SWAP8 AND DUP8 MSTORE PUSH1 0x20 DUP8 ADD SWAP6 SWAP1 SWAP6 MSTORE SWAP3 ISZERO ISZERO SWAP4 DUP6 ADD SWAP4 SWAP1 SWAP4 MSTORE ISZERO ISZERO PUSH1 0x60 DUP5 ADD MSTORE PUSH1 0x80 DUP4 ADD SWAP2 SWAP1 SWAP2 MSTORE PUSH1 0xA0 DUP3 ADD MSTORE PUSH1 0xC0 ADD PUSH2 0x1F3 JUMP JUMPDEST PUSH2 0x352 PUSH2 0x34D CALLDATASIZE PUSH1 0x4 PUSH2 0x1C18 JUMP JUMPDEST PUSH2 0xD21 JUMP JUMPDEST PUSH1 0x40 MLOAD PUSH2 0x1F3 SWAP2 SWAP1 PUSH2 0x1C92 JUMP JUMPDEST PUSH2 0x22F PUSH2 0xDDA JUMP JUMPDEST PUSH2 0x22F PUSH2 0x375 CALLDATASIZE PUSH1 0x4 PUSH2 0x1CA5 JUMP JUMPDEST PUSH2 0xDED JUMP JUMPDEST PUSH2 0x38D PUSH2 0x388 CALLDATASIZE PUSH1 0x4 PUSH2 0x1CA5 JUMP JUMPDEST PUSH2 0xE74 JUMP JUMPDEST PUSH1 0x40 MLOAD PUSH2 0x1F3 SWAP2 SWAP1 PUSH2 0x1CC0 JUMP JUMPDEST PUSH2 0x1E7 PUSH2 0x3A8 CALLDATASIZE PUSH1 0x4 PUSH2 0x1BEC JUMP JUMPDEST PUSH2 0xF63 JUMP JUMPDEST PUSH2 0x254 PUSH1 0x0 DUP2 JUMP JUMPDEST PUSH2 0x3C8 PUSH2 0x3C3 CALLDATASIZE PUSH1 0x4 PUSH2 0x1DC5 JUMP JUMPDEST PUSH2 0xF8C JUMP JUMPDEST PUSH1 0x40 MLOAD PUSH2 0x1F3 SWAP8 SWAP7 SWAP6 SWAP5 SWAP4 SWAP3 SWAP2 SWAP1 PUSH2 0x1E02 JUMP JUMPDEST PUSH2 0x254 PUSH1 0x3 DUP2 JUMP JUMPDEST PUSH2 0x254 PUSH32 0xAE9D6A7CA654743BC3938EC59651368F1DA5622DCFA609B64A54AF7ABDD55D50 DUP2 JUMP JUMPDEST PUSH2 0x414 PUSH3 0x278D00 DUP2 JUMP JUMPDEST PUSH1 0x40 MLOAD PUSH8 0xFFFFFFFFFFFFFFFF SWAP1 SWAP2 AND DUP2 MSTORE PUSH1 0x20 ADD PUSH2 0x1F3 JUMP JUMPDEST PUSH2 0x254 PUSH32 0x21702C8AF46127C7FA207F89D0B0A8441BB32959A0AC7DF790E9AB1A25C98926 DUP2 JUMP JUMPDEST PUSH2 0x467 PUSH2 0x462 CALLDATASIZE PUSH1 0x4 PUSH2 0x1E4F JUMP JUMPDEST PUSH2 0x106B JUMP JUMPDEST PUSH1 0x40 DUP1 MLOAD PUSH1 0x1 PUSH1 0x1 PUSH1 0xA0 SHL SUB SWAP1 SWAP7 AND DUP7 MSTORE SWAP4 ISZERO ISZERO PUSH1 0x20 DUP7 ADD MSTORE SWAP3 DUP5 ADD SWAP2 SWAP1 SWAP2 MSTORE PUSH1 0x60 DUP4 ADD MSTORE ISZERO ISZERO PUSH1 0x80 DUP3 ADD MSTORE PUSH1 0xA0 ADD PUSH2 0x1F3 JUMP JUMPDEST PUSH2 0x254 PUSH2 0x4A9 CALLDATASIZE PUSH1 0x4 PUSH2 0x1CA5 JUMP JUMPDEST PUSH1 0x7 PUSH1 0x20 MSTORE PUSH1 0x0 SWAP1 DUP2 MSTORE PUSH1 0x40 SWAP1 KECCAK256 SLOAD DUP2 JUMP JUMPDEST PUSH2 0x4CB PUSH9 0x56BC75E2D63100000 DUP2 JUMP JUMPDEST PUSH1 0x40 MLOAD PUSH1 0x1 PUSH1 0x1 PUSH1 0x80 SHL SUB SWAP1 SWAP2 AND DUP2 MSTORE PUSH1 0x20 ADD PUSH2 0x1F3 JUMP JUMPDEST PUSH2 0x22F PUSH2 0x4F1 CALLDATASIZE PUSH1 0x4 PUSH2 0x1BEC JUMP JUMPDEST PUSH2 0x10D9 JUMP JUMPDEST PUSH2 0x22F PUSH2 0x504 CALLDATASIZE PUSH1 0x4 PUSH2 0x1E94 JUMP JUMPDEST PUSH2 0x10FE JUMP JUMPDEST PUSH2 0x22F PUSH2 0x517 CALLDATASIZE PUSH1 0x4 PUSH2 0x1C18 JUMP JUMPDEST PUSH2 0x143B JUMP JUMPDEST PUSH1 0x3 SLOAD PUSH2 0x2AF SWAP1 PUSH1 0x1 PUSH1 0x1 PUSH1 0xA0 SHL SUB AND DUP2 JUMP JUMPDEST PUSH1 0x0 PUSH1 0x1 PUSH1 0x1 PUSH1 0xE0 SHL SUB NOT DUP3 AND PUSH4 0x7965DB0B PUSH1 0xE0 SHL EQ DUP1 PUSH2 0x560 JUMPI POP PUSH4 0x1FFC9A7 PUSH1 0xE0 SHL PUSH1 0x1 PUSH1 0x1 PUSH1 0xE0 SHL SUB NOT DUP4 AND EQ JUMPDEST SWAP3 SWAP2 POP POP JUMP JUMPDEST PUSH1 0x60 PUSH1 0x6 DUP4 DUP4 PUSH1 0x40 MLOAD PUSH2 0x57A SWAP3 SWAP2 SWAP1 PUSH2 0x1EE0 JUMP JUMPDEST SWAP1 DUP2 MSTORE PUSH1 0x20 ADD PUSH1 0x40 MLOAD DUP1 SWAP2 SUB SWAP1 KECCAK256 DUP1 SLOAD DUP1 PUSH1 0x20 MUL PUSH1 0x20 ADD PUSH1 0x40 MLOAD SWAP1 DUP2 ADD PUSH1 0x40 MSTORE DUP1 SWAP3 SWAP2 SWAP1 DUP2 DUP2 MSTORE PUSH1 0x20 ADD PUSH1 0x0 SWAP1 JUMPDEST DUP3 DUP3 LT ISZERO PUSH2 0x61E JUMPI PUSH1 0x0 DUP5 DUP2 MSTORE PUSH1 0x20 SWAP1 DUP2 SWAP1 KECCAK256 PUSH1 0x40 DUP1 MLOAD PUSH1 0xA0 DUP2 ADD DUP3 MSTORE PUSH1 0x4 DUP7 MUL SWAP1 SWAP3 ADD DUP1 SLOAD PUSH1 0x1 PUSH1 0x1 PUSH1 0xA0 SHL SUB DUP2 AND DUP5 MSTORE PUSH1 0xFF PUSH1 0x1 PUSH1 0xA0 SHL SWAP1 SWAP2 DIV DUP2 AND ISZERO ISZERO DUP5 DUP7 ADD MSTORE PUSH1 0x1 DUP1 DUP4 ADD SLOAD SWAP4 DUP6 ADD SWAP4 SWAP1 SWAP4 MSTORE PUSH1 0x2 DUP3 ADD SLOAD PUSH1 0x60 DUP6 ADD MSTORE PUSH1 0x3 SWAP1 SWAP2 ADD SLOAD AND ISZERO ISZERO PUSH1 0x80 DUP4 ADD MSTORE SWAP1 DUP4 MSTORE SWAP1 SWAP3 ADD SWAP2 ADD PUSH2 0x5A8 JUMP JUMPDEST POP POP POP POP SWAP1 POP SWAP3 SWAP2 POP POP JUMP JUMPDEST PUSH32 0xAE9D6A7CA654743BC3938EC59651368F1DA5622DCFA609B64A54AF7ABDD55D50 PUSH2 0x654 DUP2 PUSH2 0x1545 JUMP JUMPDEST PUSH2 0x65C PUSH2 0x154F JUMP JUMPDEST DUP4 PUSH2 0x69C JUMPI PUSH1 0x40 MLOAD PUSH3 0x461BCD PUSH1 0xE5 SHL DUP2 MSTORE PUSH1 0x20 PUSH1 0x4 DUP3 ADD MSTORE PUSH1 0xB PUSH1 0x24 DUP3 ADD MSTORE PUSH11 0x125B9D985B1A590810D251 PUSH1 0xAA SHL PUSH1 0x44 DUP3 ADD MSTORE PUSH1 0x64 ADD JUMPDEST PUSH1 0x40 MLOAD DUP1 SWAP2 SUB SWAP1 REVERT JUMPDEST PUSH1 0x4 DUP6 DUP6 PUSH1 0x40 MLOAD PUSH2 0x6AE SWAP3 SWAP2 SWAP1 PUSH2 0x1EE0 JUMP JUMPDEST SWAP1 DUP2 MSTORE PUSH1 0x40 MLOAD SWAP1 DUP2 SWAP1 SUB PUSH1 0x20 ADD SWAP1 KECCAK256 PUSH1 0x3 ADD SLOAD PUSH1 0xFF AND ISZERO PUSH2 0x711 JUMPI PUSH1 0x40 MLOAD PUSH3 0x461BCD PUSH1 0xE5 SHL DUP2 MSTORE PUSH1 0x20 PUSH1 0x4 DUP3 ADD MSTORE PUSH1 0x19 PUSH1 0x24 DUP3 ADD MSTORE PUSH32 0x436F6E74656E7420616C7265616479206D6F6465726174656400000000000000 PUSH1 0x44 DUP3 ADD MSTORE PUSH1 0x64 ADD PUSH2 0x693 JUMP JUMPDEST PUSH1 0x40 DUP1 MLOAD PUSH1 0xA0 DUP2 ADD DUP3 MSTORE CALLER DUP2 MSTORE DUP5 ISZERO ISZERO PUSH1 0x20 DUP3 ADD MSTORE DUP1 DUP3 ADD DUP5 SWAP1 MSTORE TIMESTAMP PUSH1 0x60 DUP3 ADD MSTORE PUSH1 0x1 PUSH1 0x80 DUP3 ADD MSTORE SWAP1 MLOAD PUSH1 0x6 SWAP1 PUSH2 0x74B SWAP1 DUP9 SWAP1 DUP9 SWAP1 PUSH2 0x1EE0 JUMP JUMPDEST SWAP1 DUP2 MSTORE PUSH1 0x40 DUP1 MLOAD PUSH1 0x20 SWAP3 DUP2 SWAP1 SUB DUP4 ADD DUP2 KECCAK256 DUP1 SLOAD PUSH1 0x1 DUP1 DUP3 ADD DUP4 SSTORE PUSH1 0x0 SWAP3 DUP4 MSTORE SWAP2 DUP6 SWAP1 KECCAK256 DUP7 MLOAD PUSH1 0x4 SWAP1 SWAP3 MUL ADD DUP1 SLOAD SWAP6 DUP8 ADD MLOAD PUSH1 0x1 PUSH1 0x1 PUSH1 0xA0 SHL SUB SWAP1 SWAP3 AND PUSH1 0x1 PUSH1 0x1 PUSH1 0xA8 SHL SUB NOT SWAP1 SWAP7 AND SWAP6 SWAP1 SWAP6 OR PUSH1 0x1 PUSH1 0xA0 SHL SWAP2 ISZERO ISZERO SWAP2 SWAP1 SWAP2 MUL OR DUP5 SSTORE SWAP2 DUP5 ADD MLOAD SWAP2 DUP4 ADD SWAP2 SWAP1 SWAP2 SSTORE PUSH1 0x60 DUP4 ADD MLOAD PUSH1 0x2 DUP4 ADD SSTORE PUSH1 0x80 DUP4 ADD MLOAD PUSH1 0x3 SWAP3 DUP4 ADD DUP1 SLOAD PUSH1 0xFF NOT AND SWAP2 ISZERO ISZERO SWAP2 SWAP1 SWAP2 OR SWAP1 SSTORE PUSH1 0x6 SWAP1 PUSH2 0x7E4 SWAP1 DUP10 SWAP1 DUP10 SWAP1 PUSH2 0x1EE0 JUMP JUMPDEST SWAP1 DUP2 MSTORE PUSH1 0x40 MLOAD SWAP1 DUP2 SWAP1 SUB PUSH1 0x20 ADD SWAP1 KECCAK256 SLOAD LT PUSH2 0x838 JUMPI PUSH2 0x838 DUP7 DUP7 DUP1 DUP1 PUSH1 0x1F ADD PUSH1 0x20 DUP1 SWAP2 DIV MUL PUSH1 0x20 ADD PUSH1 0x40 MLOAD SWAP1 DUP2 ADD PUSH1 0x40 MSTORE DUP1 SWAP4 SWAP3 SWAP2 SWAP1 DUP2 DUP2 MSTORE PUSH1 0x20 ADD DUP4 DUP4 DUP1 DUP3 DUP5 CALLDATACOPY PUSH1 0x0 SWAP3 ADD SWAP2 SWAP1 SWAP2 MSTORE POP PUSH2 0x1575 SWAP3 POP POP POP JUMP JUMPDEST POP POP POP POP POP POP JUMP JUMPDEST PUSH1 0x0 DUP3 DUP2 MSTORE PUSH1 0x20 DUP2 SWAP1 MSTORE PUSH1 0x40 SWAP1 KECCAK256 PUSH1 0x1 ADD SLOAD PUSH2 0x85B DUP2 PUSH2 0x1545 JUMP JUMPDEST PUSH2 0x865 DUP4 DUP4 PUSH2 0x178D JUMP JUMPDEST POP POP POP POP JUMP JUMPDEST PUSH1 0x1 PUSH1 0x1 PUSH1 0xA0 SHL SUB DUP2 AND CALLER EQ PUSH2 0x894 JUMPI PUSH1 0x40 MLOAD PUSH4 0x334BD919 PUSH1 0xE1 SHL DUP2 MSTORE PUSH1 0x4 ADD PUSH1 0x40 MLOAD DUP1 SWAP2 SUB SWAP1 REVERT JUMPDEST PUSH2 0x89E DUP3 DUP3 PUSH2 0x181F JUMP JUMPDEST POP POP POP JUMP JUMPDEST PUSH1 0x0 PUSH2 0x8AE DUP2 PUSH2 0x1545 JUMP JUMPDEST PUSH2 0x8B6 PUSH2 0x188A JUMP JUMPDEST POP JUMP JUMPDEST PUSH2 0x8C1 PUSH2 0x154F JUMP JUMPDEST PUSH2 0x8C9 PUSH2 0x18DC JUMP JUMPDEST PUSH1 0x0 DUP2 GT PUSH2 0x90A JUMPI PUSH1 0x40 MLOAD PUSH3 0x461BCD PUSH1 0xE5 SHL DUP2 MSTORE PUSH1 0x20 PUSH1 0x4 DUP3 ADD MSTORE PUSH1 0xE PUSH1 0x24 DUP3 ADD MSTORE PUSH14 0x125B9D985B1A5908185B5BDD5B9D PUSH1 0x92 SHL PUSH1 0x44 DUP3 ADD MSTORE PUSH1 0x64 ADD PUSH2 0x693 JUMP JUMPDEST PUSH1 0x0 PUSH2 0x91F PUSH9 0x56BC75E2D63100000 DUP4 PUSH2 0x1F06 JUMP JUMPDEST PUSH1 0x40 MLOAD PUSH4 0x70A08231 PUSH1 0xE0 SHL DUP2 MSTORE CALLER PUSH1 0x4 DUP3 ADD MSTORE SWAP1 SWAP2 POP DUP2 SWAP1 PUSH1 0x1 PUSH1 0x1 PUSH1 0xA0 SHL SUB PUSH32 0x0 AND SWAP1 PUSH4 0x70A08231 SWAP1 PUSH1 0x24 ADD PUSH1 0x20 PUSH1 0x40 MLOAD DUP1 DUP4 SUB DUP2 DUP7 GAS STATICCALL ISZERO DUP1 ISZERO PUSH2 0x988 JUMPI RETURNDATASIZE PUSH1 0x0 DUP1 RETURNDATACOPY RETURNDATASIZE PUSH1 0x0 REVERT JUMPDEST POP POP POP POP PUSH1 0x40 MLOAD RETURNDATASIZE PUSH1 0x1F NOT PUSH1 0x1F DUP3 ADD AND DUP3 ADD DUP1 PUSH1 0x40 MSTORE POP DUP2 ADD SWAP1 PUSH2 0x9AC SWAP2 SWAP1 PUSH2 0x1F1D JUMP JUMPDEST LT ISZERO PUSH2 0x9FA JUMPI PUSH1 0x40 MLOAD PUSH3 0x461BCD PUSH1 0xE5 SHL DUP2 MSTORE PUSH1 0x20 PUSH1 0x4 DUP3 ADD MSTORE PUSH1 0x1A PUSH1 0x24 DUP3 ADD MSTORE PUSH32 0x496E73756666696369656E742053434F494E2062616C616E6365000000000000 PUSH1 0x44 DUP3 ADD MSTORE PUSH1 0x64 ADD PUSH2 0x693 JUMP JUMPDEST PUSH1 0x40 MLOAD PUSH4 0x23B872DD PUSH1 0xE0 SHL DUP2 MSTORE CALLER PUSH1 0x4 DUP3 ADD MSTORE ADDRESS PUSH1 0x24 DUP3 ADD MSTORE PUSH1 0x44 DUP2 ADD DUP3 SWAP1 MSTORE PUSH32 0x0 PUSH1 0x1 PUSH1 0x1 PUSH1 0xA0 SHL SUB AND SWAP1 PUSH4 0x23B872DD SWAP1 PUSH1 0x64 ADD PUSH1 0x20 PUSH1 0x40 MLOAD DUP1 DUP4 SUB DUP2 PUSH1 0x0 DUP8 GAS CALL ISZERO DUP1 ISZERO PUSH2 0xA6D JUMPI RETURNDATASIZE PUSH1 0x0 DUP1 RETURNDATACOPY RETURNDATASIZE PUSH1 0x0 REVERT JUMPDEST POP POP POP POP PUSH1 0x40 MLOAD RETURNDATASIZE PUSH1 0x1F NOT PUSH1 0x1F DUP3 ADD AND DUP3 ADD DUP1 PUSH1 0x40 MSTORE POP DUP2 ADD SWAP1 PUSH2 0xA91 SWAP2 SWAP1 PUSH2 0x1F36 JUMP JUMPDEST PUSH2 0xACF JUMPI PUSH1 0x40 MLOAD PUSH3 0x461BCD PUSH1 0xE5 SHL DUP2 MSTORE PUSH1 0x20 PUSH1 0x4 DUP3 ADD MSTORE PUSH1 0xF PUSH1 0x24 DUP3 ADD MSTORE PUSH15 0x151C985B9CD9995C8819985A5B1959 PUSH1 0x8A SHL PUSH1 0x44 DUP3 ADD MSTORE PUSH1 0x64 ADD PUSH2 0x693 JUMP JUMPDEST CALLER PUSH1 0x0 SWAP1 DUP2 MSTORE PUSH1 0x7 PUSH1 0x20 MSTORE PUSH1 0x40 DUP2 KECCAK256 DUP1 SLOAD DUP5 SWAP3 SWAP1 PUSH2 0xAEE SWAP1 DUP5 SWAP1 PUSH2 0x1F53 JUMP JUMPDEST SWAP1 SWAP2 SSTORE POP POP PUSH1 0x40 MLOAD PUSH4 0x34D87341 PUSH1 0xE0 SHL DUP2 MSTORE CALLER PUSH1 0x4 DUP3 ADD MSTORE PUSH1 0x1 PUSH1 0x1 PUSH1 0x80 SHL SUB DUP4 AND PUSH1 0x24 DUP3 ADD MSTORE PUSH3 0x278D00 PUSH1 0x44 DUP3 ADD MSTORE PUSH32 0x0 PUSH1 0x1 PUSH1 0x1 PUSH1 0xA0 SHL SUB AND SWAP1 PUSH4 0x34D87341 SWAP1 PUSH1 0x64 ADD PUSH1 0x0 PUSH1 0x40 MLOAD DUP1 DUP4 SUB DUP2 PUSH1 0x0 DUP8 DUP1 EXTCODESIZE ISZERO DUP1 ISZERO PUSH2 0xB6C JUMPI PUSH1 0x0 DUP1 REVERT JUMPDEST POP GAS CALL ISZERO DUP1 ISZERO PUSH2 0xB80 JUMPI RETURNDATASIZE PUSH1 0x0 DUP1 RETURNDATACOPY RETURNDATASIZE PUSH1 0x0 REVERT JUMPDEST POP POP PUSH1 0x40 MLOAD DUP5 DUP2 MSTORE CALLER SWAP3 POP PUSH32 0x93D1FB1EAD613E69D70DE843F026006D39242C27AA08F0FDE2676CBC4B15637C SWAP2 POP PUSH1 0x20 ADD PUSH1 0x40 MLOAD DUP1 SWAP2 SUB SWAP1 LOG2 POP PUSH2 0x8B6 PUSH1 0x1 PUSH1 0x2 SSTORE JUMP JUMPDEST PUSH1 0x0 DUP1 PUSH1 0x0 DUP1 PUSH1 0x0 DUP1 PUSH1 0x0 PUSH1 0x4 DUP10 DUP10 PUSH1 0x40 MLOAD PUSH2 0xBE1 SWAP3 SWAP2 SWAP1 PUSH2 0x1EE0 JUMP JUMPDEST SWAP1 DUP2 MSTORE PUSH1 0x20 ADD PUSH1 0x40 MLOAD DUP1 SWAP2 SUB SWAP1 KECCAK256 PUSH1 0x40 MLOAD DUP1 PUSH1 0xE0 ADD PUSH1 0x40 MSTORE SWAP1 DUP2 PUSH1 0x0 DUP3 ADD DUP1 SLOAD PUSH2 0xC0A SWAP1 PUSH2 0x1F66 JUMP JUMPDEST DUP1 PUSH1 0x1F ADD PUSH1 0x20 DUP1 SWAP2 DIV MUL PUSH1 0x20 ADD PUSH1 0x40 MLOAD SWAP1 DUP2 ADD PUSH1 0x40 MSTORE DUP1 SWAP3 SWAP2 SWAP1 DUP2 DUP2 MSTORE PUSH1 0x20 ADD DUP3 DUP1 SLOAD PUSH2 0xC36 SWAP1 PUSH2 0x1F66 JUMP JUMPDEST DUP1 ISZERO PUSH2 0xC83 JUMPI DUP1 PUSH1 0x1F LT PUSH2 0xC58 JUMPI PUSH2 0x100 DUP1 DUP4 SLOAD DIV MUL DUP4 MSTORE SWAP2 PUSH1 0x20 ADD SWAP2 PUSH2 0xC83 JUMP JUMPDEST DUP3 ADD SWAP2 SWAP1 PUSH1 0x0 MSTORE PUSH1 0x20 PUSH1 0x0 KECCAK256 SWAP1 JUMPDEST DUP2 SLOAD DUP2 MSTORE SWAP1 PUSH1 0x1 ADD SWAP1 PUSH1 0x20 ADD DUP1 DUP4 GT PUSH2 0xC66 JUMPI DUP3 SWAP1 SUB PUSH1 0x1F AND DUP3 ADD SWAP2 JUMPDEST POP POP POP SWAP2 DUP4 MSTORE POP POP PUSH1 0x1 DUP3 ADD SLOAD PUSH1 0x1 PUSH1 0x1 PUSH1 0xA0 SHL SUB AND PUSH1 0x20 DUP1 DUP4 ADD SWAP2 SWAP1 SWAP2 MSTORE PUSH1 0x2 DUP4 ADD SLOAD PUSH1 0x40 DUP1 DUP5 ADD SWAP2 SWAP1 SWAP2 MSTORE PUSH1 0x3 DUP5 ADD SLOAD PUSH1 0xFF DUP1 DUP3 AND ISZERO ISZERO PUSH1 0x60 DUP1 DUP8 ADD SWAP2 SWAP1 SWAP2 MSTORE PUSH2 0x100 SWAP1 SWAP3 DIV AND ISZERO ISZERO PUSH1 0x80 DUP1 DUP7 ADD SWAP2 SWAP1 SWAP2 MSTORE PUSH1 0x4 DUP7 ADD SLOAD PUSH1 0xA0 DUP1 DUP8 ADD SWAP2 SWAP1 SWAP2 MSTORE PUSH1 0x5 SWAP1 SWAP7 ADD SLOAD PUSH1 0xC0 SWAP6 DUP7 ADD MSTORE SWAP3 DUP7 ADD MLOAD SWAP2 DUP7 ADD MLOAD SWAP1 DUP7 ADD MLOAD SWAP3 DUP7 ADD MLOAD SWAP5 DUP7 ADD MLOAD SWAP6 SWAP1 SWAP4 ADD MLOAD SWAP1 SWAP15 SWAP3 SWAP14 POP SWAP1 SWAP12 POP SWAP2 SWAP10 POP SWAP2 SWAP8 POP SWAP6 POP SWAP4 POP POP POP POP JUMP JUMPDEST PUSH1 0x5 PUSH1 0x20 MSTORE DUP2 PUSH1 0x0 MSTORE PUSH1 0x40 PUSH1 0x0 KECCAK256 DUP2 DUP2 SLOAD DUP2 LT PUSH2 0xD3D JUMPI PUSH1 0x0 DUP1 REVERT JUMPDEST SWAP1 PUSH1 0x0 MSTORE PUSH1 0x20 PUSH1 0x0 KECCAK256 ADD PUSH1 0x0 SWAP2 POP SWAP2 POP POP DUP1 SLOAD PUSH2 0xD59 SWAP1 PUSH2 0x1F66 JUMP JUMPDEST DUP1 PUSH1 0x1F ADD PUSH1 0x20 DUP1 SWAP2 DIV MUL PUSH1 0x20 ADD PUSH1 0x40 MLOAD SWAP1 DUP2 ADD PUSH1 0x40 MSTORE DUP1 SWAP3 SWAP2 SWAP1 DUP2 DUP2 MSTORE PUSH1 0x20 ADD DUP3 DUP1 SLOAD PUSH2 0xD85 SWAP1 PUSH2 0x1F66 JUMP JUMPDEST DUP1 ISZERO PUSH2 0xDD2 JUMPI DUP1 PUSH1 0x1F LT PUSH2 0xDA7 JUMPI PUSH2 0x100 DUP1 DUP4 SLOAD DIV MUL DUP4 MSTORE SWAP2 PUSH1 0x20 ADD SWAP2 PUSH2 0xDD2 JUMP JUMPDEST DUP3 ADD SWAP2 SWAP1 PUSH1 0x0 MSTORE PUSH1 0x20 PUSH1 0x0 KECCAK256 SWAP1 JUMPDEST DUP2 SLOAD DUP2 MSTORE SWAP1 PUSH1 0x1 ADD SWAP1 PUSH1 0x20 ADD DUP1 DUP4 GT PUSH2 0xDB5 JUMPI DUP3 SWAP1 SUB PUSH1 0x1F AND DUP3 ADD SWAP2 JUMPDEST POP POP POP POP POP DUP2 JUMP JUMPDEST PUSH1 0x0 PUSH2 0xDE5 DUP2 PUSH2 0x1545 JUMP JUMPDEST PUSH2 0x8B6 PUSH2 0x1904 JUMP JUMPDEST PUSH1 0x0 PUSH2 0xDF8 DUP2 PUSH2 0x1545 JUMP JUMPDEST PUSH1 0x3 SLOAD PUSH1 0x1 PUSH1 0x1 PUSH1 0xA0 SHL SUB AND ISZERO PUSH2 0xE51 JUMPI PUSH1 0x40 MLOAD PUSH3 0x461BCD PUSH1 0xE5 SHL DUP2 MSTORE PUSH1 0x20 PUSH1 0x4 DUP3 ADD MSTORE PUSH1 0x18 PUSH1 0x24 DUP3 ADD MSTORE PUSH32 0x436F6E74656E74517565727920616C7265616479207365740000000000000000 PUSH1 0x44 DUP3 ADD MSTORE PUSH1 0x64 ADD PUSH2 0x693 JUMP JUMPDEST POP PUSH1 0x3 DUP1 SLOAD PUSH1 0x1 PUSH1 0x1 PUSH1 0xA0 SHL SUB NOT AND PUSH1 0x1 PUSH1 0x1 PUSH1 0xA0 SHL SUB SWAP3 SWAP1 SWAP3 AND SWAP2 SWAP1 SWAP2 OR SWAP1 SSTORE JUMP JUMPDEST PUSH1 0x1 PUSH1 0x1 PUSH1 0xA0 SHL SUB DUP2 AND PUSH1 0x0 SWAP1 DUP2 MSTORE PUSH1 0x5 PUSH1 0x20 SWAP1 DUP2 MSTORE PUSH1 0x40 DUP1 DUP4 KECCAK256 DUP1 SLOAD DUP3 MLOAD DUP2 DUP6 MUL DUP2 ADD DUP6 ADD SWAP1 SWAP4 MSTORE DUP1 DUP4 MSTORE PUSH1 0x60 SWAP5 SWAP3 SWAP4 SWAP2 SWAP3 SWAP1 SWAP2 DUP5 ADD JUMPDEST DUP3 DUP3 LT ISZERO PUSH2 0xF58 JUMPI DUP4 DUP3 SWAP1 PUSH1 0x0 MSTORE PUSH1 0x20 PUSH1 0x0 KECCAK256 ADD DUP1 SLOAD PUSH2 0xECB SWAP1 PUSH2 0x1F66 JUMP JUMPDEST DUP1 PUSH1 0x1F ADD PUSH1 0x20 DUP1 SWAP2 DIV MUL PUSH1 0x20 ADD PUSH1 0x40 MLOAD SWAP1 DUP2 ADD PUSH1 0x40 MSTORE DUP1 SWAP3 SWAP2 SWAP1 DUP2 DUP2 MSTORE PUSH1 0x20 ADD DUP3 DUP1 SLOAD PUSH2 0xEF7 SWAP1 PUSH2 0x1F66 JUMP JUMPDEST DUP1 ISZERO PUSH2 0xF44 JUMPI DUP1 PUSH1 0x1F LT PUSH2 0xF19 JUMPI PUSH2 0x100 DUP1 DUP4 SLOAD DIV MUL DUP4 MSTORE SWAP2 PUSH1 0x20 ADD SWAP2 PUSH2 0xF44 JUMP JUMPDEST DUP3 ADD SWAP2 SWAP1 PUSH1 0x0 MSTORE PUSH1 0x20 PUSH1 0x0 KECCAK256 SWAP1 JUMPDEST DUP2 SLOAD DUP2 MSTORE SWAP1 PUSH1 0x1 ADD SWAP1 PUSH1 0x20 ADD DUP1 DUP4 GT PUSH2 0xF27 JUMPI DUP3 SWAP1 SUB PUSH1 0x1F AND DUP3 ADD SWAP2 JUMPDEST POP POP POP POP POP DUP2 MSTORE PUSH1 0x20 ADD SWAP1 PUSH1 0x1 ADD SWAP1 PUSH2 0xEAC JUMP JUMPDEST POP POP POP POP SWAP1 POP SWAP2 SWAP1 POP JUMP JUMPDEST PUSH1 0x0 SWAP2 DUP3 MSTORE PUSH1 0x20 DUP3 DUP2 MSTORE PUSH1 0x40 DUP1 DUP5 KECCAK256 PUSH1 0x1 PUSH1 0x1 PUSH1 0xA0 SHL SUB SWAP4 SWAP1 SWAP4 AND DUP5 MSTORE SWAP2 SWAP1 MSTORE SWAP1 KECCAK256 SLOAD PUSH1 0xFF AND SWAP1 JUMP JUMPDEST DUP1 MLOAD PUSH1 0x20 DUP2 DUP4 ADD DUP2 ADD DUP1 MLOAD PUSH1 0x4 DUP3 MSTORE SWAP3 DUP3 ADD SWAP2 SWAP1 SWAP4 ADD KECCAK256 SWAP2 MSTORE DUP1 SLOAD DUP2 SWAP1 PUSH2 0xFB2 SWAP1 PUSH2 0x1F66 JUMP JUMPDEST DUP1 PUSH1 0x1F ADD PUSH1 0x20 DUP1 SWAP2 DIV MUL PUSH1 0x20 ADD PUSH1 0x40 MLOAD SWAP1 DUP2 ADD PUSH1 0x40 MSTORE DUP1 SWAP3 SWAP2 SWAP1 DUP2 DUP2 MSTORE PUSH1 0x20 ADD DUP3 DUP1 SLOAD PUSH2 0xFDE SWAP1 PUSH2 0x1F66 JUMP JUMPDEST DUP1 ISZERO PUSH2 0x102B JUMPI DUP1 PUSH1 0x1F LT PUSH2 0x1000 JUMPI PUSH2 0x100 DUP1 DUP4 SLOAD DIV MUL DUP4 MSTORE SWAP2 PUSH1 0x20 ADD SWAP2 PUSH2 0x102B JUMP JUMPDEST DUP3 ADD SWAP2 SWAP1 PUSH1 0x0 MSTORE PUSH1 0x20 PUSH1 0x0 KECCAK256 SWAP1 JUMPDEST DUP2 SLOAD DUP2 MSTORE SWAP1 PUSH1 0x1 ADD SWAP1 PUSH1 0x20 ADD DUP1 DUP4 GT PUSH2 0x100E JUMPI DUP3 SWAP1 SUB PUSH1 0x1F AND DUP3 ADD SWAP2 JUMPDEST POP POP POP POP PUSH1 0x1 DUP4 ADD SLOAD PUSH1 0x2 DUP5 ADD SLOAD PUSH1 0x3 DUP6 ADD SLOAD PUSH1 0x4 DUP7 ADD SLOAD PUSH1 0x5 SWAP1 SWAP7 ADD SLOAD SWAP5 SWAP6 PUSH1 0x1 PUSH1 0x1 PUSH1 0xA0 SHL SUB SWAP1 SWAP4 AND SWAP5 SWAP2 SWAP4 POP PUSH1 0xFF DUP1 DUP3 AND SWAP4 PUSH2 0x100 SWAP1 SWAP3 DIV AND SWAP2 DUP8 JUMP JUMPDEST DUP2 MLOAD PUSH1 0x20 DUP2 DUP5 ADD DUP2 ADD DUP1 MLOAD PUSH1 0x6 DUP3 MSTORE SWAP3 DUP3 ADD SWAP2 DUP6 ADD SWAP2 SWAP1 SWAP2 KECCAK256 SWAP2 SWAP1 MSTORE DUP1 SLOAD DUP3 SWAP1 DUP2 LT PUSH2 0x1096 JUMPI PUSH1 0x0 DUP1 REVERT JUMPDEST PUSH1 0x0 SWAP2 DUP3 MSTORE PUSH1 0x20 SWAP1 SWAP2 KECCAK256 PUSH1 0x4 SWAP1 SWAP2 MUL ADD DUP1 SLOAD PUSH1 0x1 DUP3 ADD SLOAD PUSH1 0x2 DUP4 ADD SLOAD PUSH1 0x3 SWAP1 SWAP4 ADD SLOAD PUSH1 0x1 PUSH1 0x1 PUSH1 0xA0 SHL SUB DUP4 AND SWAP6 POP PUSH1 0xFF PUSH1 0x1 PUSH1 0xA0 SHL SWAP1 SWAP4 DIV DUP4 AND SWAP5 POP SWAP1 SWAP3 SWAP2 AND DUP6 JUMP JUMPDEST PUSH1 0x0 DUP3 DUP2 MSTORE PUSH1 0x20 DUP2 SWAP1 MSTORE PUSH1 0x40 SWAP1 KECCAK256 PUSH1 0x1 ADD SLOAD PUSH2 0x10F4 DUP2 PUSH2 0x1545 JUMP JUMPDEST PUSH2 0x865 DUP4 DUP4 PUSH2 0x181F JUMP JUMPDEST PUSH2 0x1106 PUSH2 0x154F JUMP JUMPDEST PUSH2 0x110E PUSH2 0x18DC JUMP JUMPDEST DUP2 PUSH2 0x1149 JUMPI PUSH1 0x40 MLOAD PUSH3 0x461BCD PUSH1 0xE5 SHL DUP2 MSTORE PUSH1 0x20 PUSH1 0x4 DUP3 ADD MSTORE PUSH1 0xB PUSH1 0x24 DUP3 ADD MSTORE PUSH11 0x125B9D985B1A590810D251 PUSH1 0xAA SHL PUSH1 0x44 DUP3 ADD MSTORE PUSH1 0x64 ADD PUSH2 0x693 JUMP JUMPDEST PUSH1 0x4 DUP4 DUP4 PUSH1 0x40 MLOAD PUSH2 0x115B SWAP3 SWAP2 SWAP1 PUSH2 0x1EE0 JUMP JUMPDEST SWAP1 DUP2 MSTORE PUSH1 0x40 MLOAD SWAP1 DUP2 SWAP1 SUB PUSH1 0x20 ADD SWAP1 KECCAK256 PUSH1 0x3 ADD SLOAD PUSH1 0xFF AND ISZERO PUSH2 0x11B7 JUMPI PUSH1 0x40 MLOAD PUSH3 0x461BCD PUSH1 0xE5 SHL DUP2 MSTORE PUSH1 0x20 PUSH1 0x4 DUP3 ADD MSTORE PUSH1 0x16 PUSH1 0x24 DUP3 ADD MSTORE PUSH22 0x436F6E74656E7420616C726561647920657869737473 PUSH1 0x50 SHL PUSH1 0x44 DUP3 ADD MSTORE PUSH1 0x64 ADD PUSH2 0x693 JUMP JUMPDEST CALLER PUSH1 0x0 SWAP1 DUP2 MSTORE PUSH1 0x7 PUSH1 0x20 MSTORE PUSH1 0x40 SWAP1 KECCAK256 SLOAD DUP2 GT ISZERO PUSH2 0x120F JUMPI PUSH1 0x40 MLOAD PUSH3 0x461BCD PUSH1 0xE5 SHL DUP2 MSTORE PUSH1 0x20 PUSH1 0x4 DUP3 ADD MSTORE PUSH1 0x16 PUSH1 0x24 DUP3 ADD MSTORE PUSH22 0x92DCE6EACCCCD2C6D2CADCE840C4C2DCC8EED2C8E8D PUSH1 0x53 SHL PUSH1 0x44 DUP3 ADD MSTORE PUSH1 0x64 ADD PUSH2 0x693 JUMP JUMPDEST PUSH1 0x40 MLOAD DUP1 PUSH1 0xE0 ADD PUSH1 0x40 MSTORE DUP1 DUP5 DUP5 DUP1 DUP1 PUSH1 0x1F ADD PUSH1 0x20 DUP1 SWAP2 DIV MUL PUSH1 0x20 ADD PUSH1 0x40 MLOAD SWAP1 DUP2 ADD PUSH1 0x40 MSTORE DUP1 SWAP4 SWAP3 SWAP2 SWAP1 DUP2 DUP2 MSTORE PUSH1 0x20 ADD DUP4 DUP4 DUP1 DUP3 DUP5 CALLDATACOPY PUSH1 0x0 SWAP3 ADD DUP3 SWAP1 MSTORE POP SWAP4 DUP6 MSTORE POP POP CALLER PUSH1 0x20 DUP5 ADD MSTORE POP TIMESTAMP PUSH1 0x40 DUP1 DUP5 ADD SWAP2 SWAP1 SWAP2 MSTORE PUSH1 0x60 DUP4 ADD DUP3 SWAP1 MSTORE PUSH1 0x80 DUP4 ADD DUP3 SWAP1 MSTORE PUSH1 0xA0 DUP4 ADD DUP6 SWAP1 MSTORE PUSH1 0xC0 SWAP1 SWAP3 ADD MSTORE MLOAD PUSH1 0x4 SWAP1 PUSH2 0x128E SWAP1 DUP7 SWAP1 DUP7 SWAP1 PUSH2 0x1EE0 JUMP JUMPDEST SWAP1 DUP2 MSTORE PUSH1 0x40 MLOAD SWAP1 DUP2 SWAP1 SUB PUSH1 0x20 ADD SWAP1 KECCAK256 DUP2 MLOAD DUP2 SWAP1 PUSH2 0x12AB SWAP1 DUP3 PUSH2 0x1FE6 JUMP JUMPDEST POP PUSH1 0x20 DUP3 DUP2 ADD MLOAD PUSH1 0x1 DUP1 DUP5 ADD DUP1 SLOAD PUSH1 0x1 PUSH1 0x1 PUSH1 0xA0 SHL SUB SWAP1 SWAP4 AND PUSH1 0x1 PUSH1 0x1 PUSH1 0xA0 SHL SUB NOT SWAP1 SWAP4 AND SWAP3 SWAP1 SWAP3 OR SWAP1 SWAP2 SSTORE PUSH1 0x40 DUP1 DUP6 ADD MLOAD PUSH1 0x2 DUP6 ADD SSTORE PUSH1 0x60 DUP6 ADD MLOAD PUSH1 0x3 DUP6 ADD DUP1 SLOAD PUSH1 0x80 DUP9 ADD MLOAD ISZERO ISZERO PUSH2 0x100 MUL PUSH2 0xFF00 NOT SWAP4 ISZERO ISZERO SWAP4 SWAP1 SWAP4 AND PUSH2 0xFFFF NOT SWAP1 SWAP2 AND OR SWAP2 SWAP1 SWAP2 OR SWAP1 SSTORE PUSH1 0xA0 DUP6 ADD MLOAD PUSH1 0x4 DUP6 ADD SSTORE PUSH1 0xC0 SWAP1 SWAP5 ADD MLOAD PUSH1 0x5 SWAP4 DUP5 ADD SSTORE CALLER PUSH1 0x0 SWAP1 DUP2 MSTORE SWAP3 DUP3 MSTORE SWAP3 DUP3 KECCAK256 DUP1 SLOAD SWAP4 DUP5 ADD DUP2 SSTORE DUP3 MSTORE SWAP1 KECCAK256 ADD PUSH2 0x134A DUP4 DUP6 DUP4 PUSH2 0x20A6 JUMP JUMPDEST POP CALLER PUSH1 0x0 SWAP1 DUP2 MSTORE PUSH1 0x7 PUSH1 0x20 MSTORE PUSH1 0x40 DUP2 KECCAK256 DUP1 SLOAD DUP4 SWAP3 SWAP1 PUSH2 0x136A SWAP1 DUP5 SWAP1 PUSH2 0x2167 JUMP JUMPDEST SWAP1 SWAP2 SSTORE POP POP PUSH1 0x3 SLOAD PUSH1 0x1 PUSH1 0x1 PUSH1 0xA0 SHL SUB AND ISZERO PUSH2 0x13E5 JUMPI PUSH1 0x3 SLOAD PUSH1 0x40 MLOAD PUSH4 0x869DEA39 PUSH1 0xE0 SHL DUP2 MSTORE PUSH1 0x1 PUSH1 0x1 PUSH1 0xA0 SHL SUB SWAP1 SWAP2 AND SWAP1 PUSH4 0x869DEA39 SWAP1 PUSH2 0x13B2 SWAP1 DUP7 SWAP1 DUP7 SWAP1 PUSH1 0x4 ADD PUSH2 0x217A JUMP JUMPDEST PUSH1 0x0 PUSH1 0x40 MLOAD DUP1 DUP4 SUB DUP2 PUSH1 0x0 DUP8 DUP1 EXTCODESIZE ISZERO DUP1 ISZERO PUSH2 0x13CC JUMPI PUSH1 0x0 DUP1 REVERT JUMPDEST POP GAS CALL ISZERO DUP1 ISZERO PUSH2 0x13E0 JUMPI RETURNDATASIZE PUSH1 0x0 DUP1 RETURNDATACOPY RETURNDATASIZE PUSH1 0x0 REVERT JUMPDEST POP POP POP POP JUMPDEST PUSH1 0x40 MLOAD CALLER SWAP1 PUSH2 0x13F7 SWAP1 DUP6 SWAP1 DUP6 SWAP1 PUSH2 0x1EE0 JUMP JUMPDEST PUSH1 0x40 MLOAD SWAP1 DUP2 SWAP1 SUB DUP2 KECCAK256 TIMESTAMP DUP3 MSTORE SWAP1 PUSH32 0x26D4161F9A739FDE113FB6251CED0802B44AAA90D0CAFD98EFA66286E521C63C SWAP1 PUSH1 0x20 ADD PUSH1 0x40 MLOAD DUP1 SWAP2 SUB SWAP1 LOG3 PUSH2 0x89E PUSH1 0x1 PUSH1 0x2 SSTORE JUMP JUMPDEST PUSH1 0x0 PUSH2 0x1446 DUP2 PUSH2 0x1545 JUMP JUMPDEST PUSH2 0x144E PUSH2 0x154F JUMP JUMPDEST PUSH2 0x1478 PUSH32 0x21702C8AF46127C7FA207F89D0B0A8441BB32959A0AC7DF790E9AB1A25C98926 DUP5 PUSH2 0xF63 JUMP JUMPDEST PUSH2 0x14B6 JUMPI PUSH1 0x40 MLOAD PUSH3 0x461BCD PUSH1 0xE5 SHL DUP2 MSTORE PUSH1 0x20 PUSH1 0x4 DUP3 ADD MSTORE PUSH1 0xF PUSH1 0x24 DUP3 ADD MSTORE PUSH15 0x2737BA1030903B30B634B230BA37B9 PUSH1 0x89 SHL PUSH1 0x44 DUP3 ADD MSTORE PUSH1 0x64 ADD PUSH2 0x693 JUMP JUMPDEST PUSH1 0x40 MLOAD PUSH4 0xA8A09AC3 PUSH1 0xE0 SHL DUP2 MSTORE PUSH1 0x1 PUSH1 0x1 PUSH1 0xA0 SHL SUB DUP5 DUP2 AND PUSH1 0x4 DUP4 ADD MSTORE PUSH1 0x1 PUSH1 0x1 PUSH1 0x80 SHL SUB DUP5 AND PUSH1 0x24 DUP4 ADD MSTORE PUSH32 0x0 AND SWAP1 PUSH4 0xA8A09AC3 SWAP1 PUSH1 0x44 ADD PUSH1 0x0 PUSH1 0x40 MLOAD DUP1 DUP4 SUB DUP2 PUSH1 0x0 DUP8 DUP1 EXTCODESIZE ISZERO DUP1 ISZERO PUSH2 0x1528 JUMPI PUSH1 0x0 DUP1 REVERT JUMPDEST POP GAS CALL ISZERO DUP1 ISZERO PUSH2 0x153C JUMPI RETURNDATASIZE PUSH1 0x0 DUP1 RETURNDATACOPY RETURNDATASIZE PUSH1 0x0 REVERT JUMPDEST POP POP POP POP POP POP POP JUMP JUMPDEST PUSH2 0x8B6 DUP2 CALLER PUSH2 0x193F JUMP JUMPDEST PUSH1 0x1 SLOAD PUSH1 0xFF AND ISZERO PUSH2 0x1573 JUMPI PUSH1 0x40 MLOAD PUSH4 0xD93C0665 PUSH1 0xE0 SHL DUP2 MSTORE PUSH1 0x4 ADD PUSH1 0x40 MLOAD DUP1 SWAP2 SUB SWAP1 REVERT JUMPDEST JUMP JUMPDEST PUSH1 0x0 PUSH1 0x6 DUP3 PUSH1 0x40 MLOAD PUSH2 0x1587 SWAP2 SWAP1 PUSH2 0x21A9 JUMP JUMPDEST SWAP1 DUP2 MSTORE PUSH1 0x20 ADD PUSH1 0x40 MLOAD DUP1 SWAP2 SUB SWAP1 KECCAK256 SWAP1 POP PUSH1 0x0 DUP1 PUSH1 0x0 JUMPDEST DUP4 SLOAD DUP2 LT ISZERO PUSH2 0x1629 JUMPI DUP4 DUP2 DUP2 SLOAD DUP2 LT PUSH2 0x15B8 JUMPI PUSH2 0x15B8 PUSH2 0x21C5 JUMP JUMPDEST PUSH1 0x0 SWAP2 DUP3 MSTORE PUSH1 0x20 SWAP1 SWAP2 KECCAK256 PUSH1 0x4 SWAP1 SWAP2 MUL ADD SLOAD PUSH1 0x1 PUSH1 0xA0 SHL SWAP1 DIV PUSH1 0xFF AND ISZERO PUSH2 0x15E6 JUMPI DUP3 PUSH2 0x15E2 DUP2 PUSH2 0x21DB JUMP JUMPDEST SWAP4 POP POP JUMPDEST DUP4 DUP2 DUP2 SLOAD DUP2 LT PUSH2 0x15F8 JUMPI PUSH2 0x15F8 PUSH2 0x21C5 JUMP JUMPDEST SWAP1 PUSH1 0x0 MSTORE PUSH1 0x20 PUSH1 0x0 KECCAK256 SWAP1 PUSH1 0x4 MUL ADD PUSH1 0x1 ADD SLOAD DUP3 PUSH2 0x1615 SWAP2 SWAP1 PUSH2 0x1F53 JUMP JUMPDEST SWAP2 POP DUP1 PUSH2 0x1621 DUP2 PUSH2 0x21DB JUMP JUMPDEST SWAP2 POP POP PUSH2 0x159D JUMP JUMPDEST POP DUP3 SLOAD PUSH1 0x0 SWAP1 PUSH2 0x1639 SWAP1 DUP4 PUSH2 0x21F4 JUMP JUMPDEST DUP5 SLOAD SWAP1 SWAP2 POP PUSH1 0x0 SWAP1 PUSH2 0x164D SWAP1 PUSH1 0x2 SWAP1 PUSH2 0x21F4 JUMP JUMPDEST DUP5 GT SWAP1 POP PUSH1 0x0 PUSH1 0x4 DUP8 PUSH1 0x40 MLOAD PUSH2 0x1663 SWAP2 SWAP1 PUSH2 0x21A9 JUMP JUMPDEST SWAP1 DUP2 MSTORE PUSH1 0x40 MLOAD SWAP1 DUP2 SWAP1 SUB PUSH1 0x20 ADD SWAP1 KECCAK256 PUSH1 0x3 DUP2 ADD DUP1 SLOAD DUP5 ISZERO DUP1 ISZERO PUSH2 0x100 MUL PUSH2 0xFFFF NOT SWAP1 SWAP3 AND SWAP2 SWAP1 SWAP2 OR PUSH1 0x1 OR SWAP1 SWAP2 SSTORE SWAP1 SWAP2 POP PUSH2 0x16B7 JUMPI PUSH1 0x5 DUP2 ADD DUP4 SWAP1 SSTORE PUSH1 0x1 DUP2 ADD SLOAD PUSH2 0x16B7 SWAP1 PUSH1 0x1 PUSH1 0x1 PUSH1 0xA0 SHL SUB AND DUP5 PUSH2 0x197C JUMP JUMPDEST PUSH1 0x3 SLOAD PUSH1 0x1 PUSH1 0x1 PUSH1 0xA0 SHL SUB AND ISZERO PUSH2 0x172B JUMPI PUSH1 0x3 SLOAD PUSH1 0x40 MLOAD PUSH4 0x869DEA39 PUSH1 0xE0 SHL DUP2 MSTORE PUSH1 0x1 PUSH1 0x1 PUSH1 0xA0 SHL SUB SWAP1 SWAP2 AND SWAP1 PUSH4 0x869DEA39 SWAP1 PUSH2 0x16F8 SWAP1 DUP11 SWAP1 PUSH1 0x4 ADD PUSH2 0x1C92 JUMP JUMPDEST PUSH1 0x0 PUSH1 0x40 MLOAD DUP1 DUP4 SUB DUP2 PUSH1 0x0 DUP8 DUP1 EXTCODESIZE ISZERO DUP1 ISZERO PUSH2 0x1712 JUMPI PUSH1 0x0 DUP1 REVERT JUMPDEST POP GAS CALL ISZERO DUP1 ISZERO PUSH2 0x1726 JUMPI RETURNDATASIZE PUSH1 0x0 DUP1 RETURNDATACOPY RETURNDATASIZE PUSH1 0x0 REVERT JUMPDEST POP POP POP POP JUMPDEST DUP7 PUSH1 0x40 MLOAD PUSH2 0x1739 SWAP2 SWAP1 PUSH2 0x21A9 JUMP JUMPDEST PUSH1 0x40 DUP1 MLOAD SWAP2 DUP3 SWAP1 SUB DUP3 KECCAK256 DUP5 ISZERO ISZERO DUP4 MSTORE PUSH1 0x20 DUP4 ADD DUP7 SWAP1 MSTORE PUSH1 0x1 DUP4 DUP4 ADD MSTORE SWAP1 MLOAD SWAP1 SWAP2 PUSH32 0x780AEEF211AF1FB7D0A699002C58938AE92313F0EE899B213F92D02A4364D35 SWAP2 SWAP1 DUP2 SWAP1 SUB PUSH1 0x60 ADD SWAP1 LOG2 POP POP POP POP POP POP POP JUMP JUMPDEST PUSH1 0x0 PUSH2 0x1799 DUP4 DUP4 PUSH2 0xF63 JUMP JUMPDEST PUSH2 0x1817 JUMPI PUSH1 0x0 DUP4 DUP2 MSTORE PUSH1 0x20 DUP2 DUP2 MSTORE PUSH1 0x40 DUP1 DUP4 KECCAK256 PUSH1 0x1 PUSH1 0x1 PUSH1 0xA0 SHL SUB DUP7 AND DUP5 MSTORE SWAP1 SWAP2 MSTORE SWAP1 KECCAK256 DUP1 SLOAD PUSH1 0xFF NOT AND PUSH1 0x1 OR SWAP1 SSTORE PUSH2 0x17CF CALLER SWAP1 JUMP JUMPDEST PUSH1 0x1 PUSH1 0x1 PUSH1 0xA0 SHL SUB AND DUP3 PUSH1 0x1 PUSH1 0x1 PUSH1 0xA0 SHL SUB AND DUP5 PUSH32 0x2F8788117E7EFF1D82E926EC794901D17C78024A50270940304540A733656F0D PUSH1 0x40 MLOAD PUSH1 0x40 MLOAD DUP1 SWAP2 SUB SWAP1 LOG4 POP PUSH1 0x1 PUSH2 0x560 JUMP JUMPDEST POP PUSH1 0x0 PUSH2 0x560 JUMP JUMPDEST PUSH1 0x0 PUSH2 0x182B DUP4 DUP4 PUSH2 0xF63 JUMP JUMPDEST ISZERO PUSH2 0x1817 JUMPI PUSH1 0x0 DUP4 DUP2 MSTORE PUSH1 0x20 DUP2 DUP2 MSTORE PUSH1 0x40 DUP1 DUP4 KECCAK256 PUSH1 0x1 PUSH1 0x1 PUSH1 0xA0 SHL SUB DUP7 AND DUP1 DUP6 MSTORE SWAP3 MSTORE DUP1 DUP4 KECCAK256 DUP1 SLOAD PUSH1 0xFF NOT AND SWAP1 SSTORE MLOAD CALLER SWAP3 DUP7 SWAP2 PUSH32 0xF6391F5C32D9C69D2A47EA670B442974B53935D1EDC7FD64EB21E047A839171B SWAP2 SWAP1 LOG4 POP PUSH1 0x1 PUSH2 0x560 JUMP JUMPDEST PUSH2 0x1892 PUSH2 0x19F2 JUMP JUMPDEST PUSH1 0x1 DUP1 SLOAD PUSH1 0xFF NOT AND SWAP1 SSTORE PUSH32 0x5DB9EE0A495BF2E6FF9C91A7834C1BA4FDD244A5E8AA4E537BD38AEAE4B073AA CALLER JUMPDEST PUSH1 0x40 MLOAD PUSH1 0x1 PUSH1 0x1 PUSH1 0xA0 SHL SUB SWAP1 SWAP2 AND DUP2 MSTORE PUSH1 0x20 ADD PUSH1 0x40 MLOAD DUP1 SWAP2 SUB SWAP1 LOG1 JUMP JUMPDEST PUSH1 0x2 DUP1 SLOAD SUB PUSH2 0x18FE JUMPI PUSH1 0x40 MLOAD PUSH4 0x3EE5AEB5 PUSH1 0xE0 SHL DUP2 MSTORE PUSH1 0x4 ADD PUSH1 0x40 MLOAD DUP1 SWAP2 SUB SWAP1 REVERT JUMPDEST PUSH1 0x2 DUP1 SSTORE JUMP JUMPDEST PUSH2 0x190C PUSH2 0x154F JUMP JUMPDEST PUSH1 0x1 DUP1 SLOAD PUSH1 0xFF NOT AND DUP2 OR SWAP1 SSTORE PUSH32 0x62E78CEA01BEE320CD4E420270B5EA74000D11B0C9F74754EBDBFC544B05A258 CALLER PUSH2 0x18BF JUMP JUMPDEST PUSH2 0x1949 DUP3 DUP3 PUSH2 0xF63 JUMP JUMPDEST PUSH2 0x1978 JUMPI PUSH1 0x40 MLOAD PUSH4 0xE2517D3F PUSH1 0xE0 SHL DUP2 MSTORE PUSH1 0x1 PUSH1 0x1 PUSH1 0xA0 SHL SUB DUP3 AND PUSH1 0x4 DUP3 ADD MSTORE PUSH1 0x24 DUP2 ADD DUP4 SWAP1 MSTORE PUSH1 0x44 ADD PUSH2 0x693 JUMP JUMPDEST POP POP JUMP JUMPDEST PUSH2 0x19A6 PUSH32 0x21702C8AF46127C7FA207F89D0B0A8441BB32959A0AC7DF790E9AB1A25C98926 DUP4 PUSH2 0xF63 JUMP JUMPDEST ISZERO PUSH2 0x1978 JUMPI DUP2 PUSH1 0x1 PUSH1 0x1 PUSH1 0xA0 SHL SUB AND PUSH32 0xFC577563F1B9A0461E24ABEF1E1FCC0D33D3D881F20B5DF6DDA59DE4AAE2C821 DUP3 PUSH1 0x40 MLOAD PUSH2 0x19E6 SWAP2 DUP2 MSTORE PUSH1 0x20 ADD SWAP1 JUMP JUMPDEST PUSH1 0x40 MLOAD DUP1 SWAP2 SUB SWAP1 LOG2 POP POP JUMP JUMPDEST PUSH1 0x1 SLOAD PUSH1 0xFF AND PUSH2 0x1573 JUMPI PUSH1 0x40 MLOAD PUSH4 0x8DFC202B PUSH1 0xE0 SHL DUP2 MSTORE PUSH1 0x4 ADD PUSH1 0x40 MLOAD DUP1 SWAP2 SUB SWAP1 REVERT JUMPDEST PUSH1 0x0 PUSH1 0x20 DUP3 DUP5 SUB SLT ISZERO PUSH2 0x1A27 JUMPI PUSH1 0x0 DUP1 REVERT JUMPDEST DUP2 CALLDATALOAD PUSH1 0x1 PUSH1 0x1 PUSH1 0xE0 SHL SUB NOT DUP2 AND DUP2 EQ PUSH2 0x1A3F JUMPI PUSH1 0x0 DUP1 REVERT JUMPDEST SWAP4 SWAP3 POP POP POP JUMP JUMPDEST PUSH1 0x0 DUP1 DUP4 PUSH1 0x1F DUP5 ADD SLT PUSH2 0x1A58 JUMPI PUSH1 0x0 DUP1 REVERT JUMPDEST POP DUP2 CALLDATALOAD PUSH8 0xFFFFFFFFFFFFFFFF DUP2 GT ISZERO PUSH2 0x1A70 JUMPI PUSH1 0x0 DUP1 REVERT JUMPDEST PUSH1 0x20 DUP4 ADD SWAP2 POP DUP4 PUSH1 0x20 DUP3 DUP6 ADD ADD GT ISZERO PUSH2 0x1A88 JUMPI PUSH1 0x0 DUP1 REVERT JUMPDEST SWAP3 POP SWAP3 SWAP1 POP JUMP JUMPDEST PUSH1 0x0 DUP1 PUSH1 0x20 DUP4 DUP6 SUB SLT ISZERO PUSH2 0x1AA2 JUMPI PUSH1 0x0 DUP1 REVERT JUMPDEST DUP3 CALLDATALOAD PUSH8 0xFFFFFFFFFFFFFFFF DUP2 GT ISZERO PUSH2 0x1AB9 JUMPI PUSH1 0x0 DUP1 REVERT JUMPDEST PUSH2 0x1AC5 DUP6 DUP3 DUP7 ADD PUSH2 0x1A46 JUMP JUMPDEST SWAP1 SWAP7 SWAP1 SWAP6 POP SWAP4 POP POP POP POP JUMP JUMPDEST PUSH1 0x20 DUP1 DUP3 MSTORE DUP3 MLOAD DUP3 DUP3 ADD DUP2 SWAP1 MSTORE PUSH1 0x0 SWAP2 SWAP1 PUSH1 0x40 SWAP1 DUP2 DUP6 ADD SWAP1 DUP7 DUP5 ADD DUP6 JUMPDEST DUP3 DUP2 LT ISZERO PUSH2 0x1B3F JUMPI DUP2 MLOAD DUP1 MLOAD PUSH1 0x1 PUSH1 0x1 PUSH1 0xA0 SHL SUB AND DUP6 MSTORE DUP7 DUP2 ADD MLOAD ISZERO ISZERO DUP8 DUP7 ADD MSTORE DUP6 DUP2 ADD MLOAD DUP7 DUP7 ADD MSTORE PUSH1 0x60 DUP1 DUP3 ADD MLOAD SWAP1 DUP7 ADD MSTORE PUSH1 0x80 SWAP1 DUP2 ADD MLOAD ISZERO ISZERO SWAP1 DUP6 ADD MSTORE PUSH1 0xA0 SWAP1 SWAP4 ADD SWAP3 SWAP1 DUP6 ADD SWAP1 PUSH1 0x1 ADD PUSH2 0x1AEE JUMP JUMPDEST POP SWAP2 SWAP8 SWAP7 POP POP POP POP POP POP POP JUMP JUMPDEST DUP1 ISZERO ISZERO DUP2 EQ PUSH2 0x8B6 JUMPI PUSH1 0x0 DUP1 REVERT JUMPDEST PUSH1 0x0 DUP1 PUSH1 0x0 DUP1 PUSH1 0x60 DUP6 DUP8 SUB SLT ISZERO PUSH2 0x1B70 JUMPI PUSH1 0x0 DUP1 REVERT JUMPDEST DUP5 CALLDATALOAD PUSH8 0xFFFFFFFFFFFFFFFF DUP2 GT ISZERO PUSH2 0x1B87 JUMPI PUSH1 0x0 DUP1 REVERT JUMPDEST PUSH2 0x1B93 DUP8 DUP3 DUP9 ADD PUSH2 0x1A46 JUMP JUMPDEST SWAP1 SWAP6 POP SWAP4 POP POP PUSH1 0x20 DUP6 ADD CALLDATALOAD PUSH2 0x1BA7 DUP2 PUSH2 0x1B4C JUMP JUMPDEST SWAP4 SWAP7 SWAP3 SWAP6 POP SWAP3 SWAP4 PUSH1 0x40 ADD CALLDATALOAD SWAP3 POP POP JUMP JUMPDEST PUSH1 0x0 PUSH1 0x20 DUP3 DUP5 SUB SLT ISZERO PUSH2 0x1BC9 JUMPI PUSH1 0x0 DUP1 REVERT JUMPDEST POP CALLDATALOAD SWAP2 SWAP1 POP JUMP JUMPDEST DUP1 CALLDATALOAD PUSH1 0x1 PUSH1 0x1 PUSH1 0xA0 SHL SUB DUP2 AND DUP2 EQ PUSH2 0x1BE7 JUMPI PUSH1 0x0 DUP1 REVERT JUMPDEST SWAP2 SWAP1 POP JUMP JUMPDEST PUSH1 0x0 DUP1 PUSH1 0x40 DUP4 DUP6 SUB SLT ISZERO PUSH2 0x1BFF JUMPI PUSH1 0x0 DUP1 REVERT JUMPDEST DUP3 CALLDATALOAD SWAP2 POP PUSH2 0x1C0F PUSH1 0x20 DUP5 ADD PUSH2 0x1BD0 JUMP JUMPDEST SWAP1 POP SWAP3 POP SWAP3 SWAP1 POP JUMP JUMPDEST PUSH1 0x0 DUP1 PUSH1 0x40 DUP4 DUP6 SUB SLT ISZERO PUSH2 0x1C2B JUMPI PUSH1 0x0 DUP1 REVERT JUMPDEST PUSH2 0x1C34 DUP4 PUSH2 0x1BD0 JUMP JUMPDEST SWAP5 PUSH1 0x20 SWAP4 SWAP1 SWAP4 ADD CALLDATALOAD SWAP4 POP POP POP JUMP JUMPDEST PUSH1 0x0 JUMPDEST DUP4 DUP2 LT ISZERO PUSH2 0x1C5D JUMPI DUP2 DUP2 ADD MLOAD DUP4 DUP3 ADD MSTORE PUSH1 0x20 ADD PUSH2 0x1C45 JUMP JUMPDEST POP POP PUSH1 0x0 SWAP2 ADD MSTORE JUMP JUMPDEST PUSH1 0x0 DUP2 MLOAD DUP1 DUP5 MSTORE PUSH2 0x1C7E DUP2 PUSH1 0x20 DUP7 ADD PUSH1 0x20 DUP7 ADD PUSH2 0x1C42 JUMP JUMPDEST PUSH1 0x1F ADD PUSH1 0x1F NOT AND SWAP3 SWAP1 SWAP3 ADD PUSH1 0x20 ADD SWAP3 SWAP2 POP POP JUMP JUMPDEST PUSH1 0x20 DUP2 MSTORE PUSH1 0x0 PUSH2 0x1A3F PUSH1 0x20 DUP4 ADD DUP5 PUSH2 0x1C66 JUMP JUMPDEST PUSH1 0x0 PUSH1 0x20 DUP3 DUP5 SUB SLT ISZERO PUSH2 0x1CB7 JUMPI PUSH1 0x0 DUP1 REVERT JUMPDEST PUSH2 0x1A3F DUP3 PUSH2 0x1BD0 JUMP JUMPDEST PUSH1 0x0 PUSH1 0x20 DUP1 DUP4 ADD DUP2 DUP5 MSTORE DUP1 DUP6 MLOAD DUP1 DUP4 MSTORE PUSH1 0x40 DUP7 ADD SWAP2 POP PUSH1 0x40 DUP2 PUSH1 0x5 SHL DUP8 ADD ADD SWAP3 POP DUP4 DUP8 ADD PUSH1 0x0 JUMPDEST DUP3 DUP2 LT ISZERO PUSH2 0x1D15 JUMPI PUSH1 0x3F NOT DUP9 DUP7 SUB ADD DUP5 MSTORE PUSH2 0x1D03 DUP6 DUP4 MLOAD PUSH2 0x1C66 JUMP JUMPDEST SWAP5 POP SWAP3 DUP6 ADD SWAP3 SWAP1 DUP6 ADD SWAP1 PUSH1 0x1 ADD PUSH2 0x1CE7 JUMP JUMPDEST POP SWAP3 SWAP8 SWAP7 POP POP POP POP POP POP POP JUMP JUMPDEST PUSH4 0x4E487B71 PUSH1 0xE0 SHL PUSH1 0x0 MSTORE PUSH1 0x41 PUSH1 0x4 MSTORE PUSH1 0x24 PUSH1 0x0 REVERT JUMPDEST PUSH1 0x0 DUP3 PUSH1 0x1F DUP4 ADD SLT PUSH2 0x1D49 JUMPI PUSH1 0x0 DUP1 REVERT JUMPDEST DUP2 CALLDATALOAD PUSH8 0xFFFFFFFFFFFFFFFF DUP1 DUP3 GT ISZERO PUSH2 0x1D64 JUMPI PUSH2 0x1D64 PUSH2 0x1D22 JUMP JUMPDEST PUSH1 0x40 MLOAD PUSH1 0x1F DUP4 ADD PUSH1 0x1F NOT SWAP1 DUP2 AND PUSH1 0x3F ADD AND DUP2 ADD SWAP1 DUP3 DUP3 GT DUP2 DUP4 LT OR ISZERO PUSH2 0x1D8C JUMPI PUSH2 0x1D8C PUSH2 0x1D22 JUMP JUMPDEST DUP2 PUSH1 0x40 MSTORE DUP4 DUP2 MSTORE DUP7 PUSH1 0x20 DUP6 DUP9 ADD ADD GT ISZERO PUSH2 0x1DA5 JUMPI PUSH1 0x0 DUP1 REVERT JUMPDEST DUP4 PUSH1 0x20 DUP8 ADD PUSH1 0x20 DUP4 ADD CALLDATACOPY PUSH1 0x0 PUSH1 0x20 DUP6 DUP4 ADD ADD MSTORE DUP1 SWAP5 POP POP POP POP POP SWAP3 SWAP2 POP POP JUMP JUMPDEST PUSH1 0x0 PUSH1 0x20 DUP3 DUP5 SUB SLT ISZERO PUSH2 0x1DD7 JUMPI PUSH1 0x0 DUP1 REVERT JUMPDEST DUP2 CALLDATALOAD PUSH8 0xFFFFFFFFFFFFFFFF DUP2 GT ISZERO PUSH2 0x1DEE JUMPI PUSH1 0x0 DUP1 REVERT JUMPDEST PUSH2 0x1DFA DUP5 DUP3 DUP6 ADD PUSH2 0x1D38 JUMP JUMPDEST SWAP5 SWAP4 POP POP POP POP JUMP JUMPDEST PUSH1 0xE0 DUP2 MSTORE PUSH1 0x0 PUSH2 0x1E15 PUSH1 0xE0 DUP4 ADD DUP11 PUSH2 0x1C66 JUMP JUMPDEST PUSH1 0x1 PUSH1 0x1 PUSH1 0xA0 SHL SUB SWAP9 SWAP1 SWAP9 AND PUSH1 0x20 DUP4 ADD MSTORE POP PUSH1 0x40 DUP2 ADD SWAP6 SWAP1 SWAP6 MSTORE SWAP3 ISZERO ISZERO PUSH1 0x60 DUP6 ADD MSTORE SWAP1 ISZERO ISZERO PUSH1 0x80 DUP5 ADD MSTORE PUSH1 0xA0 DUP4 ADD MSTORE PUSH1 0xC0 SWAP1 SWAP2 ADD MSTORE SWAP2 SWAP1 POP JUMP JUMPDEST PUSH1 0x0 DUP1 PUSH1 0x40 DUP4 DUP6 SUB SLT ISZERO PUSH2 0x1E62 JUMPI PUSH1 0x0 DUP1 REVERT JUMPDEST DUP3 CALLDATALOAD PUSH8 0xFFFFFFFFFFFFFFFF DUP2 GT ISZERO PUSH2 0x1E79 JUMPI PUSH1 0x0 DUP1 REVERT JUMPDEST PUSH2 0x1E85 DUP6 DUP3 DUP7 ADD PUSH2 0x1D38 JUMP JUMPDEST SWAP6 PUSH1 0x20 SWAP5 SWAP1 SWAP5 ADD CALLDATALOAD SWAP5 POP POP POP POP JUMP JUMPDEST PUSH1 0x0 DUP1 PUSH1 0x0 PUSH1 0x40 DUP5 DUP7 SUB SLT ISZERO PUSH2 0x1EA9 JUMPI PUSH1 0x0 DUP1 REVERT JUMPDEST DUP4 CALLDATALOAD PUSH8 0xFFFFFFFFFFFFFFFF DUP2 GT ISZERO PUSH2 0x1EC0 JUMPI PUSH1 0x0 DUP1 REVERT JUMPDEST PUSH2 0x1ECC DUP7 DUP3 DUP8 ADD PUSH2 0x1A46 JUMP JUMPDEST SWAP1 SWAP8 SWAP1 SWAP7 POP PUSH1 0x20 SWAP6 SWAP1 SWAP6 ADD CALLDATALOAD SWAP5 SWAP4 POP POP POP POP JUMP JUMPDEST DUP2 DUP4 DUP3 CALLDATACOPY PUSH1 0x0 SWAP2 ADD SWAP1 DUP2 MSTORE SWAP2 SWAP1 POP JUMP JUMPDEST PUSH4 0x4E487B71 PUSH1 0xE0 SHL PUSH1 0x0 MSTORE PUSH1 0x11 PUSH1 0x4 MSTORE PUSH1 0x24 PUSH1 0x0 REVERT JUMPDEST DUP1 DUP3 MUL DUP2 ISZERO DUP3 DUP3 DIV DUP5 EQ OR PUSH2 0x560 JUMPI PUSH2 0x560 PUSH2 0x1EF0 JUMP JUMPDEST PUSH1 0x0 PUSH1 0x20 DUP3 DUP5 SUB SLT ISZERO PUSH2 0x1F2F JUMPI PUSH1 0x0 DUP1 REVERT JUMPDEST POP MLOAD SWAP2 SWAP1 POP JUMP JUMPDEST PUSH1 0x0 PUSH1 0x20 DUP3 DUP5 SUB SLT ISZERO PUSH2 0x1F48 JUMPI PUSH1 0x0 DUP1 REVERT JUMPDEST DUP2 MLOAD PUSH2 0x1A3F DUP2 PUSH2 0x1B4C JUMP JUMPDEST DUP1 DUP3 ADD DUP1 DUP3 GT ISZERO PUSH2 0x560 JUMPI PUSH2 0x560 PUSH2 0x1EF0 JUMP JUMPDEST PUSH1 0x1 DUP2 DUP2 SHR SWAP1 DUP3 AND DUP1 PUSH2 0x1F7A JUMPI PUSH1 0x7F DUP3 AND SWAP2 POP JUMPDEST PUSH1 0x20 DUP3 LT DUP2 SUB PUSH2 0x1F9A JUMPI PUSH4 0x4E487B71 PUSH1 0xE0 SHL PUSH1 0x0 MSTORE PUSH1 0x22 PUSH1 0x4 MSTORE PUSH1 0x24 PUSH1 0x0 REVERT JUMPDEST POP SWAP2 SWAP1 POP JUMP JUMPDEST PUSH1 0x1F DUP3 GT ISZERO PUSH2 0x89E JUMPI PUSH1 0x0 DUP2 DUP2 MSTORE PUSH1 0x20 DUP2 KECCAK256 PUSH1 0x1F DUP6 ADD PUSH1 0x5 SHR DUP2 ADD PUSH1 0x20 DUP7 LT ISZERO PUSH2 0x1FC7 JUMPI POP DUP1 JUMPDEST PUSH1 0x1F DUP6 ADD PUSH1 0x5 SHR DUP3 ADD SWAP2 POP JUMPDEST DUP2 DUP2 LT ISZERO PUSH2 0x838 JUMPI DUP3 DUP2 SSTORE PUSH1 0x1 ADD PUSH2 0x1FD3 JUMP JUMPDEST DUP2 MLOAD PUSH8 0xFFFFFFFFFFFFFFFF DUP2 GT ISZERO PUSH2 0x2000 JUMPI PUSH2 0x2000 PUSH2 0x1D22 JUMP JUMPDEST PUSH2 0x2014 DUP2 PUSH2 0x200E DUP5 SLOAD PUSH2 0x1F66 JUMP JUMPDEST DUP5 PUSH2 0x1FA0 JUMP JUMPDEST PUSH1 0x20 DUP1 PUSH1 0x1F DUP4 GT PUSH1 0x1 DUP2 EQ PUSH2 0x2049 JUMPI PUSH1 0x0 DUP5 ISZERO PUSH2 0x2031 JUMPI POP DUP6 DUP4 ADD MLOAD JUMPDEST PUSH1 0x0 NOT PUSH1 0x3 DUP7 SWAP1 SHL SHR NOT AND PUSH1 0x1 DUP6 SWAP1 SHL OR DUP6 SSTORE PUSH2 0x838 JUMP JUMPDEST PUSH1 0x0 DUP6 DUP2 MSTORE PUSH1 0x20 DUP2 KECCAK256 PUSH1 0x1F NOT DUP7 AND SWAP2 JUMPDEST DUP3 DUP2 LT ISZERO PUSH2 0x2078 JUMPI DUP9 DUP7 ADD MLOAD DUP3 SSTORE SWAP5 DUP5 ADD SWAP5 PUSH1 0x1 SWAP1 SWAP2 ADD SWAP1 DUP5 ADD PUSH2 0x2059 JUMP JUMPDEST POP DUP6 DUP3 LT ISZERO PUSH2 0x2096 JUMPI DUP8 DUP6 ADD MLOAD PUSH1 0x0 NOT PUSH1 0x3 DUP9 SWAP1 SHL PUSH1 0xF8 AND SHR NOT AND DUP2 SSTORE JUMPDEST POP POP POP POP POP PUSH1 0x1 SWAP1 DUP2 SHL ADD SWAP1 SSTORE POP JUMP JUMPDEST PUSH8 0xFFFFFFFFFFFFFFFF DUP4 GT ISZERO PUSH2 0x20BE JUMPI PUSH2 0x20BE PUSH2 0x1D22 JUMP JUMPDEST PUSH2 0x20D2 DUP4 PUSH2 0x20CC DUP4 SLOAD PUSH2 0x1F66 JUMP JUMPDEST DUP4 PUSH2 0x1FA0 JUMP JUMPDEST PUSH1 0x0 PUSH1 0x1F DUP5 GT PUSH1 0x1 DUP2 EQ PUSH2 0x2106 JUMPI PUSH1 0x0 DUP6 ISZERO PUSH2 0x20EE JUMPI POP DUP4 DUP3 ADD CALLDATALOAD JUMPDEST PUSH1 0x0 NOT PUSH1 0x3 DUP8 SWAP1 SHL SHR NOT AND PUSH1 0x1 DUP7 SWAP1 SHL OR DUP4 SSTORE PUSH2 0x2160 JUMP JUMPDEST PUSH1 0x0 DUP4 DUP2 MSTORE PUSH1 0x20 SWAP1 KECCAK256 PUSH1 0x1F NOT DUP7 AND SWAP1 DUP4 JUMPDEST DUP3 DUP2 LT ISZERO PUSH2 0x2137 JUMPI DUP7 DUP6 ADD CALLDATALOAD DUP3 SSTORE PUSH1 0x20 SWAP5 DUP6 ADD SWAP5 PUSH1 0x1 SWAP1 SWAP3 ADD SWAP2 ADD PUSH2 0x2117 JUMP JUMPDEST POP DUP7 DUP3 LT ISZERO PUSH2 0x2154 JUMPI PUSH1 0x0 NOT PUSH1 0xF8 DUP9 PUSH1 0x3 SHL AND SHR NOT DUP5 DUP8 ADD CALLDATALOAD AND DUP2 SSTORE JUMPDEST POP POP PUSH1 0x1 DUP6 PUSH1 0x1 SHL ADD DUP4 SSTORE JUMPDEST POP POP POP POP POP JUMP JUMPDEST DUP2 DUP2 SUB DUP2 DUP2 GT ISZERO PUSH2 0x560 JUMPI PUSH2 0x560 PUSH2 0x1EF0 JUMP JUMPDEST PUSH1 0x20 DUP2 MSTORE DUP2 PUSH1 0x20 DUP3 ADD MSTORE DUP2 DUP4 PUSH1 0x40 DUP4 ADD CALLDATACOPY PUSH1 0x0 DUP2 DUP4 ADD PUSH1 0x40 SWAP1 DUP2 ADD SWAP2 SWAP1 SWAP2 MSTORE PUSH1 0x1F SWAP1 SWAP3 ADD PUSH1 0x1F NOT AND ADD ADD SWAP2 SWAP1 POP JUMP JUMPDEST PUSH1 0x0 DUP3 MLOAD PUSH2 0x21BB DUP2 DUP5 PUSH1 0x20 DUP8 ADD PUSH2 0x1C42 JUMP JUMPDEST SWAP2 SWAP1 SWAP2 ADD SWAP3 SWAP2 POP POP JUMP JUMPDEST PUSH4 0x4E487B71 PUSH1 0xE0 SHL PUSH1 0x0 MSTORE PUSH1 0x32 PUSH1 0x4 MSTORE PUSH1 0x24 PUSH1 0x0 REVERT JUMPDEST PUSH1 0x0 PUSH1 0x1 DUP3 ADD PUSH2 0x21ED JUMPI PUSH2 0x21ED PUSH2 0x1EF0 JUMP JUMPDEST POP PUSH1 0x1 ADD SWAP1 JUMP JUMPDEST PUSH1 0x0 DUP3 PUSH2 0x2211 JUMPI PUSH4 0x4E487B71 PUSH1 0xE0 SHL PUSH1 0x0 MSTORE PUSH1 0x12 PUSH1 0x4 MSTORE PUSH1 0x24 PUSH1 0x0 REVERT JUMPDEST POP DIV SWAP1 JUMP INVALID LOG2 PUSH5 0x6970667358 0x22 SLT KECCAK256 0xE0 MOD MLOAD JUMP 0xA8 PUSH18 0xFCBC447D779A99D2C97AE51C5CA57F97AB71 0xD5 0xFC SELFBALANCE PUSH20 0xCA25D22B64736F6C634300081400330000000000 "},"methodIdentifiers":{"AI_MODERATOR_ROLE()":"b46b2691","BANDWIDTH_DURATION()":"bf5648ac","BANDWIDTH_PRICE()":"d2543b21","DEFAULT_ADMIN_ROLE()":"a217fddf","VALIDATOR_ROLE()":"c49baebe","contentQuery()":"f371d119","contents(string)":"a6acce35","distributeValidatorRewards(address,uint256)":"e33245b0","getContentDetails(string)":"6b030223","getModerationDecisions(string)":"06e20b69","getRoleAdmin(bytes32)":"248a9ca3","getUserContent(address)":"87898489","grantRole(bytes32,address)":"2f2ff15d","hasRole(bytes32,address)":"91d14854","moderationDecisions(string,uint256)":"cbcb458d","pause()":"8456cb59","paused()":"5c975abb","purchaseBandwidth(uint256)":"531f7d1f","renounceRole(bytes32,address)":"36568abe","requiredAIDecisions()":"a9cc4467","revokeRole(bytes32,address)":"d547741f","scoin()":"3ccc3ec8","setContentQuery(address)":"86721734","submitAIModeration(string,bool,uint256)":"122faf0a","submitContent(string,uint256)":"dad3fc13","supportsInterface(bytes4)":"01ffc9a7","unpause()":"3f4ba83a","userBandwidth(address)":"ce9bff8b","userContent(address,uint256)":"78866bdb"}}}}}