{"contracts/Scoin.sol":{"Scoin":{"abi":[{"inputs":[],"stateMutability":"nonpayable","type":"constructor"},{"inputs":[],"name":"AccessControlBadConfirmation","type":"error"},{"inputs":[{"internalType":"address","name":"account","type":"address"},{"internalType":"bytes32","name":"neededRole","type":"bytes32"}],"name":"AccessControlUnauthorizedAccount","type":"error"},{"inputs":[],"name":"ECDSAInvalidSignature","type":"error"},{"inputs":[{"internalType":"uint256","name":"length","type":"uint256"}],"name":"ECDSAInvalidSignatureLength","type":"error"},{"inputs":[{"internalType":"bytes32","name":"s","type":"bytes32"}],"name":"ECDSAInvalidSignatureS","type":"error"},{"inputs":[{"internalType":"address","name":"spender","type":"address"},{"internalType":"uint256","name":"allowance","type":"uint256"},{"internalType":"uint256","name":"needed","type":"uint256"}],"name":"ERC20InsufficientAllowance","type":"error"},{"inputs":[{"internalType":"address","name":"sender","type":"address"},{"internalType":"uint256","name":"balance","type":"uint256"},{"internalType":"uint256","name":"needed","type":"uint256"}],"name":"ERC20InsufficientBalance","type":"error"},{"inputs":[{"internalType":"address","name":"approver","type":"address"}],"name":"ERC20InvalidApprover","type":"error"},{"inputs":[{"internalType":"address","name":"receiver","type":"address"}],"name":"ERC20InvalidReceiver","type":"error"},{"inputs":[{"internalType":"address","name":"sender","type":"address"}],"name":"ERC20InvalidSender","type":"error"},{"inputs":[{"internalType":"address","name":"spender","type":"address"}],"name":"ERC20InvalidSpender","type":"error"},{"inputs":[{"internalType":"uint256","name":"deadline","type":"uint256"}],"name":"ERC2612ExpiredSignature","type":"error"},{"inputs":[{"internalType":"address","name":"signer","type":"address"},{"internalType":"address","name":"owner","type":"address"}],"name":"ERC2612InvalidSigner","type":"error"},{"inputs":[],"name":"EnforcedPause","type":"error"},{"inputs":[],"name":"ExpectedPause","type":"error"},{"inputs":[{"internalType":"address","name":"account","type":"address"},{"internalType":"uint256","name":"currentNonce","type":"uint256"}],"name":"InvalidAccountNonce","type":"error"},{"inputs":[],"name":"InvalidShortString","type":"error"},{"inputs":[{"internalType":"string","name":"str","type":"string"}],"name":"StringTooLong","type":"error"},{"anonymous":false,"inputs":[{"indexed":true,"internalType":"address","name":"owner","type":"address"},{"indexed":true,"internalType":"address","name":"spender","type":"address"},{"indexed":false,"internalType":"uint256","name":"value","type":"uint256"}],"name":"Approval","type":"event"},{"anonymous":false,"inputs":[{"indexed":true,"internalType":"address","name":"user","type":"address"},{"indexed":false,"internalType":"uint128","name":"amount","type":"uint128"},{"indexed":false,"internalType":"uint64","name":"expiry","type":"uint64"}],"name":"BandwidthAllocated","type":"event"},{"anonymous":false,"inputs":[],"name":"EIP712DomainChanged","type":"event"},{"anonymous":false,"inputs":[{"indexed":false,"internalType":"address","name":"account","type":"address"}],"name":"Paused","type":"event"},{"anonymous":false,"inputs":[{"indexed":true,"internalType":"address","name":"validator","type":"address"},{"indexed":false,"internalType":"uint128","name":"amount","type":"uint128"}],"name":"RewardDistributed","type":"event"},{"anonymous":false,"inputs":[{"indexed":true,"internalType":"bytes32","name":"role","type":"bytes32"},{"indexed":true,"internalType":"bytes32","name":"previousAdminRole","type":"bytes32"},{"indexed":true,"internalType":"bytes32","name":"newAdminRole","type":"bytes32"}],"name":"RoleAdminChanged","type":"event"},{"anonymous":false,"inputs":[{"indexed":true,"internalType":"bytes32","name":"role","type":"bytes32"},{"indexed":true,"internalType":"address","name":"account","type":"address"},{"indexed":true,"internalType":"address","name":"sender","type":"address"}],"name":"RoleGranted","type":"event"},{"anonymous":false,"inputs":[{"indexed":true,"internalType":"bytes32","name":"role","type":"bytes32"},{"indexed":true,"internalType":"address","name":"account","type":"address"},{"indexed":true,"internalType":"address","name":"sender","type":"address"}],"name":"RoleRevoked","type":"event"},{"anonymous":false,"inputs":[{"indexed":true,"internalType":"address","name":"user","type":"address"},{"indexed":false,"internalType":"uint128","name":"amount","type":"uint128"}],"name":"Staked","type":"event"},{"anonymous":false,"inputs":[{"indexed":true,"internalType":"address","name":"from","type":"address"},{"indexed":true,"internalType":"address","name":"to","type":"address"},{"indexed":false,"internalType":"uint256","name":"value","type":"uint256"}],"name":"Transfer","type":"event"},{"anonymous":false,"inputs":[{"indexed":false,"internalType":"address","name":"account","type":"address"}],"name":"Unpaused","type":"event"},{"anonymous":false,"inputs":[{"indexed":true,"internalType":"address","name":"user","type":"address"},{"indexed":false,"internalType":"uint128","name":"amount","type":"uint128"}],"name":"Unstaked","type":"event"},{"anonymous":false,"inputs":[{"indexed":true,"internalType":"address","name":"validator","type":"address"}],"name":"ValidatorRegistered","type":"event"},{"anonymous":false,"inputs":[{"indexed":true,"internalType":"address","name":"validator","type":"address"}],"name":"ValidatorRemoved","type":"event"},{"inputs":[],"name":"DEFAULT_ADMIN_ROLE","outputs":[{"internalType":"bytes32","name":"","type":"bytes32"}],"stateMutability":"view","type":"function"},{"inputs":[],"name":"DOMAIN_SEPARATOR","outputs":[{"internalType":"bytes32","name":"","type":"bytes32"}],"stateMutability":"view","type":"function"},{"inputs":[],"name":"MINIMUM_STAKE","outputs":[{"internalType":"uint128","name":"","type":"uint128"}],"stateMutability":"view","type":"function"},{"inputs":[],"name":"MINTER_ROLE","outputs":[{"internalType":"bytes32","name":"","type":"bytes32"}],"stateMutability":"view","type":"function"},{"inputs":[],"name":"PAUSER_ROLE","outputs":[{"internalType":"bytes32","name":"","type":"bytes32"}],"stateMutability":"view","type":"function"},{"inputs":[],"name":"STAKE_LOCK_PERIOD","outputs":[{"internalType":"uint64","name":"","type":"uint64"}],"stateMutability":"view","type":"function"},{"inputs":[],"name":"STAKING_ROLE","outputs":[{"internalType":"bytes32","name":"","type":"bytes32"}],"stateMutability":"view","type":"function"},{"inputs":[],"name":"VALIDATOR_THRESHOLD","outputs":[{"internalType":"uint128","name":"","type":"uint128"}],"stateMutability":"view","type":"function"},{"inputs":[{"internalType":"address","name":"user","type":"address"},{"internalType":"uint128","name":"amount","type":"uint128"},{"internalType":"uint64","name":"duration","type":"uint64"}],"name":"allocateBandwidth","outputs":[],"stateMutability":"nonpayable","type":"function"},{"inputs":[{"internalType":"address","name":"owner","type":"address"},{"internalType":"address","name":"spender","type":"address"}],"name":"allowance","outputs":[{"internalType":"uint256","name":"","type":"uint256"}],"stateMutability":"view","type":"function"},{"inputs":[{"internalType":"address","name":"spender","type":"address"},{"internalType":"uint256","name":"value","type":"uint256"}],"name":"approve","outputs":[{"internalType":"bool","name":"","type":"bool"}],"stateMutability":"nonpayable","type":"function"},{"inputs":[{"internalType":"address","name":"account","type":"address"}],"name":"balanceOf","outputs":[{"internalType":"uint256","name":"","type":"uint256"}],"stateMutability":"view","type":"function"},{"inputs":[{"internalType":"address","name":"","type":"address"}],"name":"bandwidthAllocations","outputs":[{"internalType":"uint128","name":"amount","type":"uint128"},{"internalType":"uint64","name":"expiry","type":"uint64"}],"stateMutability":"view","type":"function"},{"inputs":[{"internalType":"uint256","name":"value","type":"uint256"}],"name":"burn","outputs":[],"stateMutability":"nonpayable","type":"function"},{"inputs":[{"internalType":"address","name":"account","type":"address"},{"internalType":"uint256","name":"value","type":"uint256"}],"name":"burnFrom","outputs":[],"stateMutability":"nonpayable","type":"function"},{"inputs":[],"name":"decimals","outputs":[{"internalType":"uint8","name":"","type":"uint8"}],"stateMutability":"view","type":"function"},{"inputs":[{"internalType":"address","name":"validator","type":"address"},{"internalType":"uint128","name":"amount","type":"uint128"}],"name":"distributeRewards","outputs":[],"stateMutability":"nonpayable","type":"function"},{"inputs":[],"name":"eip712Domain","outputs":[{"internalType":"bytes1","name":"fields","type":"bytes1"},{"internalType":"string","name":"name","type":"string"},{"internalType":"string","name":"version","type":"string"},{"internalType":"uint256","name":"chainId","type":"uint256"},{"internalType":"address","name":"verifyingContract","type":"address"},{"internalType":"bytes32","name":"salt","type":"bytes32"},{"internalType":"uint256[]","name":"extensions","type":"uint256[]"}],"stateMutability":"view","type":"function"},{"inputs":[{"internalType":"address","name":"user","type":"address"}],"name":"getBandwidthAllocation","outputs":[{"internalType":"uint128","name":"amount","type":"uint128"},{"internalType":"uint64","name":"expiry","type":"uint64"}],"stateMutability":"view","type":"function"},{"inputs":[{"internalType":"bytes32","name":"role","type":"bytes32"}],"name":"getRoleAdmin","outputs":[{"internalType":"bytes32","name":"","type":"bytes32"}],"stateMutability":"view","type":"function"},{"inputs":[{"internalType":"address","name":"validator","type":"address"}],"name":"getValidatorInfo","outputs":[{"internalType":"uint128","name":"stakedAmount","type":"uint128"},{"internalType":"uint64","name":"reputationScore","type":"uint64"},{"internalType":"bool","name":"isActive","type":"bool"}],"stateMutability":"view","type":"function"},{"inputs":[],"name":"getValidators","outputs":[{"internalType":"address[]","name":"","type":"address[]"}],"stateMutability":"view","type":"function"},{"inputs":[{"internalType":"bytes32","name":"role","type":"bytes32"},{"internalType":"address","name":"account","type":"address"}],"name":"grantRole","outputs":[],"stateMutability":"nonpayable","type":"function"},{"inputs":[{"internalType":"bytes32","name":"role","type":"bytes32"},{"internalType":"address","name":"account","type":"address"}],"name":"hasRole","outputs":[{"internalType":"bool","name":"","type":"bool"}],"stateMutability":"view","type":"function"},{"inputs":[],"name":"name","outputs":[{"internalType":"string","name":"","type":"string"}],"stateMutability":"view","type":"function"},{"inputs":[{"internalType":"address","name":"owner","type":"address"}],"name":"nonces","outputs":[{"internalType":"uint256","name":"","type":"uint256"}],"stateMutability":"view","type":"function"},{"inputs":[],"name":"pause","outputs":[],"stateMutability":"nonpayable","type":"function"},{"inputs":[],"name":"paused","outputs":[{"internalType":"bool","name":"","type":"bool"}],"stateMutability":"view","type":"function"},{"inputs":[{"internalType":"address","name":"owner","type":"address"},{"internalType":"address","name":"spender","type":"address"},{"internalType":"uint256","name":"value","type":"uint256"},{"internalType":"uint256","name":"deadline","type":"uint256"},{"internalType":"uint8","name":"v","type":"uint8"},{"internalType":"bytes32","name":"r","type":"bytes32"},{"internalType":"bytes32","name":"s","type":"bytes32"}],"name":"permit","outputs":[],"stateMutability":"nonpayable","type":"function"},{"inputs":[{"internalType":"bytes32","name":"role","type":"bytes32"},{"internalType":"address","name":"callerConfirmation","type":"address"}],"name":"renounceRole","outputs":[],"stateMutability":"nonpayable","type":"function"},{"inputs":[{"internalType":"bytes32","name":"role","type":"bytes32"},{"internalType":"address","name":"account","type":"address"}],"name":"revokeRole","outputs":[],"stateMutability":"nonpayable","type":"function"},{"inputs":[{"internalType":"uint128","name":"amount","type":"uint128"}],"name":"stake","outputs":[],"stateMutability":"nonpayable","type":"function"},{"inputs":[{"internalType":"address","name":"","type":"address"}],"name":"stakes","outputs":[{"internalType":"uint128","name":"amount","type":"uint128"},{"internalType":"uint64","name":"since","type":"uint64"},{"internalType":"bool","name":"isActive","type":"bool"}],"stateMutability":"view","type":"function"},{"inputs":[{"internalType":"bytes4","name":"interfaceId","type":"bytes4"}],"name":"supportsInterface","outputs":[{"internalType":"bool","name":"","type":"bool"}],"stateMutability":"view","type":"function"},{"inputs":[],"name":"symbol","outputs":[{"internalType":"string","name":"","type":"string"}],"stateMutability":"view","type":"function"},{"inputs":[],"name":"totalStaked","outputs":[{"internalType":"uint128","name":"","type":"uint128"}],"stateMutability":"view","type":"function"},{"inputs":[],"name":"totalSupply","outputs":[{"internalType":"uint256","name":"","type":"uint256"}],"stateMutability":"view","type":"function"},{"inputs":[{"internalType":"address","name":"to","type":"address"},{"internalType":"uint256","name":"value","type":"uint256"}],"name":"transfer","outputs":[{"internalType":"bool","name":"","type":"bool"}],"stateMutability":"nonpayable","type":"function"},{"inputs":[{"internalType":"address","name":"from","type":"address"},{"internalType":"address","name":"to","type":"address"},{"internalType":"uint256","name":"value","type":"uint256"}],"name":"transferFrom","outputs":[{"internalType":"bool","name":"","type":"bool"}],"stateMutability":"nonpayable","type":"function"},{"inputs":[],"name":"unpause","outputs":[],"stateMutability":"nonpayable","type":"function"},{"inputs":[],"name":"unstake","outputs":[],"stateMutability":"nonpayable","type":"function"},{"inputs":[],"name":"validatorCount","outputs":[{"internalType":"uint256","name":"","type":"uint256"}],"stateMutability":"view","type":"function"},{"inputs":[{"internalType":"address","name":"","type":"address"}],"name":"validators","outputs":[{"internalType":"uint128","name":"totalStaked","type":"uint128"},{"internalType":"uint64","name":"reputationScore","type":"uint64"},{"internalType":"bool","name":"isActive","type":"bool"},{"internalType":"address","name":"addr","type":"address"}],"stateMutability":"view","type":"function"}],"evm":{"bytecode":{"linkReferences":{},"object":"6101606040523480156200001257600080fd5b506040518060400160405280600581526020016429b1b7b4b760d91b81525080604051806040016040528060018152602001603160f81b8152506040518060400160405280600581526020016429b1b7b4b760d91b8152506040518060400160405280600581526020016429a1a7a4a760d91b8152508160039081620000999190620005b8565b506004620000a88282620005b8565b50506005805460ff1916905550620000c28260076200022e565b61012052620000d38160086200022e565b61014052815160208084019190912060e052815190820120610100524660a0526200016160e05161010051604080517f8b73c3c69bb8fe3d512ecc4cf759cc79239f7b179b0ffacaa9a75d522b39400f60208201529081019290925260608201524660808201523060a082015260009060c00160405160208183030381529060405280519060200120905090565b60805250503060c052506200017860003362000267565b50620001a57f65d7a28e3265b37a6474929f336521b332c1681b933f6cb9f3376673440d862a3362000267565b50620001d27f9f2df0fed2c77648de5860a4cc508cd0818c85b8b8a1ab4ceeef8d981c8956a63362000267565b50620001ff7ff18246d2e788c2a885ec6aeee43fc7c89077b8b7a1e52e99f27f5889e429e2f53362000267565b506200022833620002136012600a62000797565b6200022290620f4240620007af565b62000319565b62000854565b60006020835110156200024e5762000246836200035b565b905062000261565b816200025b8482620005b8565b5060ff90505b92915050565b60008281526006602090815260408083206001600160a01b038516845290915281205460ff16620003105760008381526006602090815260408083206001600160a01b03861684529091529020805460ff19166001179055620002c73390565b6001600160a01b0316826001600160a01b0316847f2f8788117e7eff1d82e926ec794901d17c78024a50270940304540a733656f0d60405160405180910390a450600162000261565b50600062000261565b6001600160a01b038216620003495760405163ec442f0560e01b8152600060048201526024015b60405180910390fd5b62000357600083836200039e565b5050565b600080829050601f8151111562000389578260405163305a27a960e01b8152600401620003409190620007c9565b8051620003968262000819565b179392505050565b620003a8620003ba565b620003b5838383620003e1565b505050565b60055460ff1615620003df5760405163d93c066560e01b815260040160405180910390fd5b565b6001600160a01b038316620004105780600260008282546200040491906200083e565b90915550620004849050565b6001600160a01b03831660009081526020819052604090205481811015620004655760405163391434e360e21b81526001600160a01b0385166004820152602481018290526044810183905260640162000340565b6001600160a01b03841660009081526020819052604090209082900390555b6001600160a01b038216620004a257600280548290039055620004c1565b6001600160a01b03821660009081526020819052604090208054820190555b816001600160a01b0316836001600160a01b03167fddf252ad1be2c89b69c2b068fc378daa952ba7f163c4a11628f55a4df523b3ef836040516200050791815260200190565b60405180910390a3505050565b634e487b7160e01b600052604160045260246000fd5b600181811c908216806200053f57607f821691505b6020821081036200056057634e487b7160e01b600052602260045260246000fd5b50919050565b601f821115620003b557600081815260208120601f850160051c810160208610156200058f5750805b601f850160051c820191505b81811015620005b0578281556001016200059b565b505050505050565b81516001600160401b03811115620005d457620005d462000514565b620005ec81620005e584546200052a565b8462000566565b602080601f8311600181146200062457600084156200060b5750858301515b600019600386901b1c1916600185901b178555620005b0565b600085815260208120601f198616915b82811015620006555788860151825594840194600190910190840162000634565b5085821015620006745787850151600019600388901b60f8161c191681555b5050505050600190811b01905550565b634e487b7160e01b600052601160045260246000fd5b600181815b80851115620006db578160001904821115620006bf57620006bf62000684565b80851615620006cd57918102915b93841c93908002906200069f565b509250929050565b600082620006f45750600162000261565b81620007035750600062000261565b81600181146200071c5760028114620007275762000747565b600191505062000261565b60ff8411156200073b576200073b62000684565b50506001821b62000261565b5060208310610133831016604e8410600b84101617156200076c575081810a62000261565b6200077883836200069a565b80600019048211156200078f576200078f62000684565b029392505050565b6000620007a860ff841683620006e3565b9392505050565b808202811582820484141762000261576200026162000684565b600060208083528351808285015260005b81811015620007f857858101830151858201604001528201620007da565b506000604082860101526040601f19601f8301168501019250505092915050565b80516020808301519190811015620005605760001960209190910360031b1b16919050565b8082018082111562000261576200026162000684565b60805160a05160c05160e0516101005161012051610140516123b0620008af60003960006118380152600061180b0152600061168101526000611659015260006115b4015260006115de0152600061160801526123b06000f3fe608060405234801561001057600080fd5b50600436106102695760003560e01c806379cc679011610151578063a217fddf116100c3578063d539139311610087578063d539139314610677578063d547741f1461069e578063dd62ed3e146106b1578063e63ab1e9146106ea578063f8d8aa7214610711578063fa52c7d81461076b57600080fd5b8063a217fddf14610621578063a8a09ac314610629578063a9059cbb1461063c578063b7ab4db51461064f578063d505accf1461066457600080fd5b806384b0196e1161011557806384b0196e1461053057806388fe2be81461054b5780638a11d7c91461055e57806391052816146105df57806391d148541461060657806395d89b411461061957600080fd5b806379cc6790146104de5780637a6eea37146104f15780637ecebe0014610502578063817b1cd2146105155780638456cb591461052857600080fd5b8063248a9ca3116101ea5780633644e515116101ae5780633644e5151461047457806336568abe1461047c5780633f4ba83a1461048f57806342966c68146104975780635c975abb146104aa57806370a08231146104b557600080fd5b8063248a9ca3146104125780632def6620146104355780632f2ff15d1461043f578063313ce5671461045257806334d873411461046157600080fd5b80630f43a677116102315780630f43a6771461034857806316934fc41461035f57806318160ddd146103d45780631932526d146103dc57806323b872dd146103ff57600080fd5b806301ffc9a71461026e57806306fdde031461029657806308dbbb03146102ab5780630933baa9146102d3578063095ea7b314610335575b600080fd5b61028161027c366004611ef2565b610804565b60405190151581526020015b60405180910390f35b61029e61083b565b60405161028d9190611f69565b6102bb683635c9adc5dea0000081565b6040516001600160801b03909116815260200161028d565b61030e6102e1366004611f98565b600f602052600090815260409020546001600160801b03811690600160801b90046001600160401b031682565b604080516001600160801b0390931683526001600160401b0390911660208301520161028d565b610281610343366004611fb3565b6108cd565b610351600d5481565b60405190815260200161028d565b6103a561036d366004611f98565b600a602052600090815260409020546001600160801b03811690600160801b81046001600160401b031690600160c01b900460ff1683565b604080516001600160801b0390941684526001600160401b03909216602084015215159082015260600161028d565b600254610351565b6103e76301e1338081565b6040516001600160401b03909116815260200161028d565b61028161040d366004611fdd565b6108e5565b610351610420366004612019565b60009081526006602052604090206001015490565b61043d610909565b005b61043d61044d366004612032565b610a9f565b6040516012815260200161028d565b61043d61046f366004612075565b610aca565b610351610c48565b61043d61048a366004612032565b610c57565b61043d610c8f565b61043d6104a5366004612019565b610cc4565b60055460ff16610281565b6103516104c3366004611f98565b6001600160a01b031660009081526020819052604090205490565b61043d6104ec366004611fb3565b610cce565b6102bb69021e19e0c9bab240000081565b610351610510366004611f98565b610ce7565b600e546102bb906001600160801b031681565b61043d610d05565b610538610d37565b60405161028d97969594939291906120c8565b61043d61055936600461215e565b610d7d565b6103a561056c366004611f98565b6001600160a01b039081166000908152600b6020908152604091829020825160808101845281546001600160801b038116808352600160801b82046001600160401b0316948301859052600160c01b90910460ff1615159482018590526001909201549094166060909401939093529192565b6103517ff18246d2e788c2a885ec6aeee43fc7c89077b8b7a1e52e99f27f5889e429e2f581565b610281610614366004612032565b610f97565b61029e610fc2565b610351600081565b61043d610637366004612179565b610fd1565b61028161064a366004611fb3565b6110c8565b6106576110d6565b60405161028d91906121a3565b61043d6106723660046121e4565b611182565b6103517f9f2df0fed2c77648de5860a4cc508cd0818c85b8b8a1ab4ceeef8d981c8956a681565b61043d6106ac366004612032565b6112bc565b6103516106bf366004612257565b6001600160a01b03918216600090815260016020908152604080832093909416825291909152205490565b6103517f65d7a28e3265b37a6474929f336521b332c1681b933f6cb9f3376673440d862a81565b61030e61071f366004611f98565b6001600160a01b03166000908152600f60209081526040918290208251808401909352546001600160801b038116808452600160801b9091046001600160401b03169290910182905291565b6107c3610779366004611f98565b600b60205260009081526040902080546001909101546001600160801b03821691600160801b81046001600160401b031691600160c01b90910460ff16906001600160a01b031684565b604080516001600160801b0390951685526001600160401b039093166020850152901515918301919091526001600160a01b0316606082015260800161028d565b60006001600160e01b03198216637965db0b60e01b148061083557506301ffc9a760e01b6001600160e01b03198316145b92915050565b60606003805461084a90612281565b80601f016020809104026020016040519081016040528092919081815260200182805461087690612281565b80156108c35780601f10610898576101008083540402835291602001916108c3565b820191906000526020600020905b8154815290600101906020018083116108a657829003601f168201915b5050505050905090565b6000336108db8185856112e1565b5060019392505050565b6000336108f38582856112ee565b6108fe858585611366565b506001949350505050565b336000908152600a602052604090208054600160c01b900460ff166109675760405162461bcd60e51b815260206004820152600f60248201526e4e6f20616374697665207374616b6560881b60448201526064015b60405180910390fd5b8054610988906301e1338090600160801b90046001600160401b03166122cb565b6001600160401b0316426001600160401b031610156109d85760405162461bcd60e51b815260206004820152600c60248201526b14dd185ad9481b1bd8dad95960a21b604482015260640161095e565b805478ff0000000000000000ffffffffffffffffffffffffffffffff1981168255600e80546001600160801b039283168184168190039093166001600160801b031991909116179055336000908152600b6020526040902054600160c01b900460ff1615610a4957610a49336113c5565b610a5d3033836001600160801b0316611366565b6040516001600160801b038216815233907f23eb338ed2df691870bc931bf6328c55b2708178ecf1f1b3e889afca4418adea9060200160405180910390a25050565b600082815260066020526040902060010154610aba816114e3565b610ac483836114ed565b50505050565b7ff18246d2e788c2a885ec6aeee43fc7c89077b8b7a1e52e99f27f5889e429e2f5610af4816114e3565b610afc611581565b6000836001600160801b031611610b465760405162461bcd60e51b815260206004820152600e60248201526d125b9d985b1a5908185b5bdd5b9d60921b604482015260640161095e565b6000826001600160401b031611610b925760405162461bcd60e51b815260206004820152601060248201526f24b73b30b634b210323ab930ba34b7b760811b604482015260640161095e565b6000610b9e83426122cb565b6040805180820182526001600160801b038781168083526001600160401b0385811660208086018281526001600160a01b038e166000818152600f8452899020975188549251909516600160801b026001600160c01b031990921694909616939093179290921790945584519182528101929092529293507fea99fcbdf778191ee2bc9d4bfd39b57b3b6794ad3c3a2a8eeec68b475c3e8bf9910160405180910390a25050505050565b6000610c526115a7565b905090565b6001600160a01b0381163314610c805760405163334bd91960e11b815260040160405180910390fd5b610c8a82826116d2565b505050565b7f65d7a28e3265b37a6474929f336521b332c1681b933f6cb9f3376673440d862a610cb9816114e3565b610cc161173f565b50565b610cc13382611791565b610cd98233836112ee565b610ce38282611791565b5050565b6001600160a01b038116600090815260096020526040812054610835565b7f65d7a28e3265b37a6474929f336521b332c1681b933f6cb9f3376673440d862a610d2f816114e3565b610cc16117c7565b600060608060008060006060610d4b611804565b610d53611831565b60408051600080825260208201909252600f60f81b9b939a50919850469750309650945092509050565b610d85611581565b683635c9adc5dea000006001600160801b0382161015610ddd5760405162461bcd60e51b815260206004820152601360248201527242656c6f77206d696e696d756d207374616b6560681b604482015260640161095e565b336000908152602081905260409020546001600160801b0382161115610e3c5760405162461bcd60e51b8152602060048201526014602482015273496e73756666696369656e742062616c616e636560601b604482015260640161095e565b610e503330836001600160801b0316611366565b336000908152600a602052604090208054600160c01b900460ff1615610eb657805482908290600090610e8d9084906001600160801b0316612308565b92506101000a8154816001600160801b0302191690836001600160801b03160217905550610ef3565b805460ff60c01b196001600160401b034216600160801b026001600160c01b03199092166001600160801b038516179190911716600160c01b1781555b600e80546001600160801b031981166001600160801b039182168501821617909155604051908316815233907f2eefbcc6809174727cb788be082c392be6c822829c56ab5eb44d528e9d9f37f99060200160405180910390a2805469021e19e0c9bab24000006001600160801b0390911610801590610f895750336000908152600b6020526040902054600160c01b900460ff16155b15610ce357610ce33361185e565b60009182526006602090815260408084206001600160a01b0393909316845291905290205460ff1690565b60606004805461084a90612281565b7ff18246d2e788c2a885ec6aeee43fc7c89077b8b7a1e52e99f27f5889e429e2f5610ffb816114e3565b611003611581565b6001600160a01b0383166000908152600b6020526040902054600160c01b900460ff166110695760405162461bcd60e51b81526020600482015260146024820152732737ba1030b1ba34bb32903b30b634b230ba37b960611b604482015260640161095e565b61107c83836001600160801b0316611959565b6040516001600160801b03831681526001600160a01b038416907ff77751a151636203dcb1527a92b63cd167dbd6e61f35882b08d51188b59ba26b9060200160405180910390a2505050565b6000336108db818585611366565b60606000600d546001600160401b038111156110f4576110f46122f2565b60405190808252806020026020018201604052801561111d578160200160208202803683370190505b50905060005b600d5481101561117c576000818152600c602052604090205482516001600160a01b039091169083908390811061115c5761115c612328565b6001600160a01b0390921660209283029190910190910152600101611123565b50919050565b834211156111a65760405163313c898160e11b81526004810185905260240161095e565b60007f6e71edae12b1b97f4d1f60370fef10105fa2faae0126114a169c64845d6126c98888886111f38c6001600160a01b0316600090815260096020526040902080546001810190915590565b6040805160208101969096526001600160a01b0394851690860152929091166060840152608083015260a082015260c0810186905260e001604051602081830303815290604052805190602001209050600061124e8261198f565b9050600061125e828787876119bc565b9050896001600160a01b0316816001600160a01b0316146112a5576040516325c0072360e11b81526001600160a01b0380831660048301528b16602482015260440161095e565b6112b08a8a8a6112e1565b50505050505050505050565b6000828152600660205260409020600101546112d7816114e3565b610ac483836116d2565b610c8a83838360016119ea565b6001600160a01b038381166000908152600160209081526040808320938616835292905220546000198114610ac4578181101561135757604051637dc7a0d960e11b81526001600160a01b0384166004820152602481018290526044810183905260640161095e565b610ac4848484840360006119ea565b6001600160a01b03831661139057604051634b637e8f60e11b81526000600482015260240161095e565b6001600160a01b0382166113ba5760405163ec442f0560e01b81526000600482015260240161095e565b610c8a838383611abf565b6001600160a01b0381166000908152600b60205260408120805460ff60c01b191690555b600d548110156114ab576000818152600c60205260409020546001600160a01b038084169116036114a357600c60006001600d54611427919061233e565b81526020808201929092526040908101600090812054848252600c9384905291812080546001600160a01b0319166001600160a01b0390931692909217909155600d546114769060019061233e565b8152602081019190915260400160002080546001600160a01b0319169055600d80546000190190556114ab565b6001016113e9565b506040516001600160a01b038216907fe1434e25d6611e0db941968fdc97811c982ac1602e951637d206f5fdda9dd8f190600090a250565b610cc18133611ad2565b60006114f98383610f97565b6115795760008381526006602090815260408083206001600160a01b03861684529091529020805460ff191660011790556115313390565b6001600160a01b0316826001600160a01b0316847f2f8788117e7eff1d82e926ec794901d17c78024a50270940304540a733656f0d60405160405180910390a4506001610835565b506000610835565b60055460ff16156115a55760405163d93c066560e01b815260040160405180910390fd5b565b6000306001600160a01b037f00000000000000000000000000000000000000000000000000000000000000001614801561160057507f000000000000000000000000000000000000000000000000000000000000000046145b1561162a57507f000000000000000000000000000000000000000000000000000000000000000090565b610c52604080517f8b73c3c69bb8fe3d512ecc4cf759cc79239f7b179b0ffacaa9a75d522b39400f60208201527f0000000000000000000000000000000000000000000000000000000000000000918101919091527f000000000000000000000000000000000000000000000000000000000000000060608201524660808201523060a082015260009060c00160405160208183030381529060405280519060200120905090565b60006116de8383610f97565b156115795760008381526006602090815260408083206001600160a01b0386168085529252808320805460ff1916905551339286917ff6391f5c32d9c69d2a47ea670b442974b53935d1edc7fd64eb21e047a839171b9190a4506001610835565b611747611b0b565b6005805460ff191690557f5db9ee0a495bf2e6ff9c91a7834c1ba4fdd244a5e8aa4e537bd38aeae4b073aa335b6040516001600160a01b03909116815260200160405180910390a1565b6001600160a01b0382166117bb57604051634b637e8f60e11b81526000600482015260240161095e565b610ce382600083611abf565b6117cf611581565b6005805460ff191660011790557f62e78cea01bee320cd4e420270b5ea74000d11b0c9f74754ebdbfc544b05a2586117743390565b6060610c527f00000000000000000000000000000000000000000000000000000000000000006007611b2e565b6060610c527f00000000000000000000000000000000000000000000000000000000000000006008611b2e565b604080516080810182526001600160a01b038084166000818152600a6020908152858220546001600160801b0390811686526064828701908152600187890181815260608901878152878752600b86528a872099518a54945192511515600160c01b0260ff60c01b196001600160401b0394909416600160801b026001600160c01b031990961691909616179390931716929092178755519581018054969095166001600160a01b031996871617909455600d80548352600c909152858220805490951683179094558354909201909255915190917fd09501348473474a20c772c79c653e1fd7e8b437e418fe235d277d2c8885325191a250565b6001600160a01b0382166119835760405163ec442f0560e01b81526000600482015260240161095e565b610ce360008383611abf565b600061083561199c6115a7565b8360405161190160f01b8152600281019290925260228201526042902090565b6000806000806119ce88888888611bd9565b9250925092506119de8282611ca8565b50909695505050505050565b6001600160a01b038416611a145760405163e602df0560e01b81526000600482015260240161095e565b6001600160a01b038316611a3e57604051634a1406b160e11b81526000600482015260240161095e565b6001600160a01b0380851660009081526001602090815260408083209387168352929052208290558015610ac457826001600160a01b0316846001600160a01b03167f8c5be1e5ebec7d5bd14f71427d1e84f3dd0314c0f7b2291e5b200ac8c7c3b92584604051611ab191815260200190565b60405180910390a350505050565b611ac7611581565b610c8a838383611d61565b611adc8282610f97565b610ce35760405163e2517d3f60e01b81526001600160a01b03821660048201526024810183905260440161095e565b60055460ff166115a557604051638dfc202b60e01b815260040160405180910390fd5b606060ff8314611b4857611b4183611e8b565b9050610835565b818054611b5490612281565b80601f0160208091040260200160405190810160405280929190818152602001828054611b8090612281565b8015611bcd5780601f10611ba257610100808354040283529160200191611bcd565b820191906000526020600020905b815481529060010190602001808311611bb057829003601f168201915b50505050509050610835565b600080807f7fffffffffffffffffffffffffffffff5d576e7357a4501ddfe92f46681b20a0841115611c145750600091506003905082611c9e565b604080516000808252602082018084528a905260ff891692820192909252606081018790526080810186905260019060a0016020604051602081039080840390855afa158015611c68573d6000803e3d6000fd5b5050604051601f1901519150506001600160a01b038116611c9457506000925060019150829050611c9e565b9250600091508190505b9450945094915050565b6000826003811115611cbc57611cbc612351565b03611cc5575050565b6001826003811115611cd957611cd9612351565b03611cf75760405163f645eedf60e01b815260040160405180910390fd5b6002826003811115611d0b57611d0b612351565b03611d2c5760405163fce698f760e01b81526004810182905260240161095e565b6003826003811115611d4057611d40612351565b03610ce3576040516335e2f38360e21b81526004810182905260240161095e565b6001600160a01b038316611d8c578060026000828254611d819190612367565b90915550611dfe9050565b6001600160a01b03831660009081526020819052604090205481811015611ddf5760405163391434e360e21b81526001600160a01b0385166004820152602481018290526044810183905260640161095e565b6001600160a01b03841660009081526020819052604090209082900390555b6001600160a01b038216611e1a57600280548290039055611e39565b6001600160a01b03821660009081526020819052604090208054820190555b816001600160a01b0316836001600160a01b03167fddf252ad1be2c89b69c2b068fc378daa952ba7f163c4a11628f55a4df523b3ef83604051611e7e91815260200190565b60405180910390a3505050565b60606000611e9883611eca565b604080516020808252818301909252919250600091906020820181803683375050509182525060208101929092525090565b600060ff8216601f81111561083557604051632cd44ac360e21b815260040160405180910390fd5b600060208284031215611f0457600080fd5b81356001600160e01b031981168114611f1c57600080fd5b9392505050565b6000815180845260005b81811015611f4957602081850181015186830182015201611f2d565b506000602082860101526020601f19601f83011685010191505092915050565b602081526000611f1c6020830184611f23565b80356001600160a01b0381168114611f9357600080fd5b919050565b600060208284031215611faa57600080fd5b611f1c82611f7c565b60008060408385031215611fc657600080fd5b611fcf83611f7c565b946020939093013593505050565b600080600060608486031215611ff257600080fd5b611ffb84611f7c565b925061200960208501611f7c565b9150604084013590509250925092565b60006020828403121561202b57600080fd5b5035919050565b6000806040838503121561204557600080fd5b8235915061205560208401611f7c565b90509250929050565b80356001600160801b0381168114611f9357600080fd5b60008060006060848603121561208a57600080fd5b61209384611f7c565b92506120a16020850161205e565b915060408401356001600160401b03811681146120bd57600080fd5b809150509250925092565b60ff60f81b881681526000602060e0818401526120e860e084018a611f23565b83810360408501526120fa818a611f23565b606085018990526001600160a01b038816608086015260a0850187905284810360c0860152855180825283870192509083019060005b8181101561214c57835183529284019291840191600101612130565b50909c9b505050505050505050505050565b60006020828403121561217057600080fd5b611f1c8261205e565b6000806040838503121561218c57600080fd5b61219583611f7c565b91506120556020840161205e565b6020808252825182820181905260009190848201906040850190845b818110156119de5783516001600160a01b0316835292840192918401916001016121bf565b600080600080600080600060e0888a0312156121ff57600080fd5b61220888611f7c565b965061221660208901611f7c565b95506040880135945060608801359350608088013560ff8116811461223a57600080fd5b9699959850939692959460a0840135945060c09093013592915050565b6000806040838503121561226a57600080fd5b61227383611f7c565b915061205560208401611f7c565b600181811c9082168061229557607f821691505b60208210810361117c57634e487b7160e01b600052602260045260246000fd5b634e487b7160e01b600052601160045260246000fd5b6001600160401b038181168382160190808211156122eb576122eb6122b5565b5092915050565b634e487b7160e01b600052604160045260246000fd5b6001600160801b038181168382160190808211156122eb576122eb6122b5565b634e487b7160e01b600052603260045260246000fd5b81810381811115610835576108356122b5565b634e487b7160e01b600052602160045260246000fd5b80820180821115610835576108356122b556fea2646970667358221220dbc325ccd9ef19c692488d98781192f5882931873d91dd3bf7d476266084590764736f6c63430008140033","opcodes":"PUSH2 0x160 PUSH1 0x40 MSTORE CALLVALUE DUP1 ISZERO PUSH3 0x12 JUMPI PUSH1 0x0 DUP1 REVERT JUMPDEST POP PUSH1 0x40 MLOAD DUP1 PUSH1 0x40 ADD PUSH1 0x40 MSTORE DUP1 PUSH1 0x5 DUP2 MSTORE PUSH1 0x20 ADD PUSH5 0x29B1B7B4B7 PUSH1 0xD9 SHL DUP2 MSTORE POP DUP1 PUSH1 0x40 MLOAD DUP1 PUSH1 0x40 ADD PUSH1 0x40 MSTORE DUP1 PUSH1 0x1 DUP2 MSTORE PUSH1 0x20 ADD PUSH1 0x31 PUSH1 0xF8 SHL DUP2 MSTORE POP PUSH1 0x40 MLOAD DUP1 PUSH1 0x40 ADD PUSH1 0x40 MSTORE DUP1 PUSH1 0x5 DUP2 MSTORE PUSH1 0x20 ADD PUSH5 0x29B1B7B4B7 PUSH1 0xD9 SHL DUP2 MSTORE POP PUSH1 0x40 MLOAD DUP1 PUSH1 0x40 ADD PUSH1 0x40 MSTORE DUP1 PUSH1 0x5 DUP2 MSTORE PUSH1 0x20 ADD PUSH5 0x29A1A7A4A7 PUSH1 0xD9 SHL DUP2 MSTORE POP DUP2 PUSH1 0x3 SWAP1 DUP2 PUSH3 0x99 SWAP2 SWAP1 PUSH3 0x5B8 JUMP JUMPDEST POP PUSH1 0x4 PUSH3 0xA8 DUP3 DUP3 PUSH3 0x5B8 JUMP JUMPDEST POP POP PUSH1 0x5 DUP1 SLOAD PUSH1 0xFF NOT AND SWAP1 SSTORE POP PUSH3 0xC2 DUP3 PUSH1 0x7 PUSH3 0x22E JUMP JUMPDEST PUSH2 0x120 MSTORE PUSH3 0xD3 DUP2 PUSH1 0x8 PUSH3 0x22E JUMP JUMPDEST PUSH2 0x140 MSTORE DUP2 MLOAD PUSH1 0x20 DUP1 DUP5 ADD SWAP2 SWAP1 SWAP2 KECCAK256 PUSH1 0xE0 MSTORE DUP2 MLOAD SWAP1 DUP3 ADD KECCAK256 PUSH2 0x100 MSTORE CHAINID PUSH1 0xA0 MSTORE PUSH3 0x161 PUSH1 0xE0 MLOAD PUSH2 0x100 MLOAD PUSH1 0x40 DUP1 MLOAD PUSH32 0x8B73C3C69BB8FE3D512ECC4CF759CC79239F7B179B0FFACAA9A75D522B39400F PUSH1 0x20 DUP3 ADD MSTORE SWAP1 DUP2 ADD SWAP3 SWAP1 SWAP3 MSTORE PUSH1 0x60 DUP3 ADD MSTORE CHAINID PUSH1 0x80 DUP3 ADD MSTORE ADDRESS PUSH1 0xA0 DUP3 ADD MSTORE PUSH1 0x0 SWAP1 PUSH1 0xC0 ADD PUSH1 0x40 MLOAD PUSH1 0x20 DUP2 DUP4 SUB SUB DUP2 MSTORE SWAP1 PUSH1 0x40 MSTORE DUP1 MLOAD SWAP1 PUSH1 0x20 ADD KECCAK256 SWAP1 POP SWAP1 JUMP JUMPDEST PUSH1 0x80 MSTORE POP POP ADDRESS PUSH1 0xC0 MSTORE POP PUSH3 0x178 PUSH1 0x0 CALLER PUSH3 0x267 JUMP JUMPDEST POP PUSH3 0x1A5 PUSH32 0x65D7A28E3265B37A6474929F336521B332C1681B933F6CB9F3376673440D862A CALLER PUSH3 0x267 JUMP JUMPDEST POP PUSH3 0x1D2 PUSH32 0x9F2DF0FED2C77648DE5860A4CC508CD0818C85B8B8A1AB4CEEEF8D981C8956A6 CALLER PUSH3 0x267 JUMP JUMPDEST POP PUSH3 0x1FF PUSH32 0xF18246D2E788C2A885EC6AEEE43FC7C89077B8B7A1E52E99F27F5889E429E2F5 CALLER PUSH3 0x267 JUMP JUMPDEST POP PUSH3 0x228 CALLER PUSH3 0x213 PUSH1 0x12 PUSH1 0xA PUSH3 0x797 JUMP JUMPDEST PUSH3 0x222 SWAP1 PUSH3 0xF4240 PUSH3 0x7AF JUMP JUMPDEST PUSH3 0x319 JUMP JUMPDEST PUSH3 0x854 JUMP JUMPDEST PUSH1 0x0 PUSH1 0x20 DUP4 MLOAD LT ISZERO PUSH3 0x24E JUMPI PUSH3 0x246 DUP4 PUSH3 0x35B JUMP JUMPDEST SWAP1 POP PUSH3 0x261 JUMP JUMPDEST DUP2 PUSH3 0x25B DUP5 DUP3 PUSH3 0x5B8 JUMP JUMPDEST POP PUSH1 0xFF SWAP1 POP JUMPDEST SWAP3 SWAP2 POP POP JUMP JUMPDEST PUSH1 0x0 DUP3 DUP2 MSTORE PUSH1 0x6 PUSH1 0x20 SWAP1 DUP2 MSTORE PUSH1 0x40 DUP1 DUP4 KECCAK256 PUSH1 0x1 PUSH1 0x1 PUSH1 0xA0 SHL SUB DUP6 AND DUP5 MSTORE SWAP1 SWAP2 MSTORE DUP2 KECCAK256 SLOAD PUSH1 0xFF AND PUSH3 0x310 JUMPI PUSH1 0x0 DUP4 DUP2 MSTORE PUSH1 0x6 PUSH1 0x20 SWAP1 DUP2 MSTORE PUSH1 0x40 DUP1 DUP4 KECCAK256 PUSH1 0x1 PUSH1 0x1 PUSH1 0xA0 SHL SUB DUP7 AND DUP5 MSTORE SWAP1 SWAP2 MSTORE SWAP1 KECCAK256 DUP1 SLOAD PUSH1 0xFF NOT AND PUSH1 0x1 OR SWAP1 SSTORE PUSH3 0x2C7 CALLER SWAP1 JUMP JUMPDEST PUSH1 0x1 PUSH1 0x1 PUSH1 0xA0 SHL SUB AND DUP3 PUSH1 0x1 PUSH1 0x1 PUSH1 0xA0 SHL SUB AND DUP5 PUSH32 0x2F8788117E7EFF1D82E926EC794901D17C78024A50270940304540A733656F0D PUSH1 0x40 MLOAD PUSH1 0x40 MLOAD DUP1 SWAP2 SUB SWAP1 LOG4 POP PUSH1 0x1 PUSH3 0x261 JUMP JUMPDEST POP PUSH1 0x0 PUSH3 0x261 JUMP JUMPDEST PUSH1 0x1 PUSH1 0x1 PUSH1 0xA0 SHL SUB DUP3 AND PUSH3 0x349 JUMPI PUSH1 0x40 MLOAD PUSH4 0xEC442F05 PUSH1 0xE0 SHL DUP2 MSTORE PUSH1 0x0 PUSH1 0x4 DUP3 ADD MSTORE PUSH1 0x24 ADD JUMPDEST PUSH1 0x40 MLOAD DUP1 SWAP2 SUB SWAP1 REVERT JUMPDEST PUSH3 0x357 PUSH1 0x0 DUP4 DUP4 PUSH3 0x39E JUMP JUMPDEST POP POP JUMP JUMPDEST PUSH1 0x0 DUP1 DUP3 SWAP1 POP PUSH1 0x1F DUP2 MLOAD GT ISZERO PUSH3 0x389 JUMPI DUP3 PUSH1 0x40 MLOAD PUSH4 0x305A27A9 PUSH1 0xE0 SHL DUP2 MSTORE PUSH1 0x4 ADD PUSH3 0x340 SWAP2 SWAP1 PUSH3 0x7C9 JUMP JUMPDEST DUP1 MLOAD PUSH3 0x396 DUP3 PUSH3 0x819 JUMP JUMPDEST OR SWAP4 SWAP3 POP POP POP JUMP JUMPDEST PUSH3 0x3A8 PUSH3 0x3BA JUMP JUMPDEST PUSH3 0x3B5 DUP4 DUP4 DUP4 PUSH3 0x3E1 JUMP JUMPDEST POP POP POP JUMP JUMPDEST PUSH1 0x5 SLOAD PUSH1 0xFF AND ISZERO PUSH3 0x3DF JUMPI PUSH1 0x40 MLOAD PUSH4 0xD93C0665 PUSH1 0xE0 SHL DUP2 MSTORE PUSH1 0x4 ADD PUSH1 0x40 MLOAD DUP1 SWAP2 SUB SWAP1 REVERT JUMPDEST JUMP JUMPDEST PUSH1 0x1 PUSH1 0x1 PUSH1 0xA0 SHL SUB DUP4 AND PUSH3 0x410 JUMPI DUP1 PUSH1 0x2 PUSH1 0x0 DUP3 DUP3 SLOAD PUSH3 0x404 SWAP2 SWAP1 PUSH3 0x83E JUMP JUMPDEST SWAP1 SWAP2 SSTORE POP PUSH3 0x484 SWAP1 POP JUMP JUMPDEST PUSH1 0x1 PUSH1 0x1 PUSH1 0xA0 SHL SUB DUP4 AND PUSH1 0x0 SWAP1 DUP2 MSTORE PUSH1 0x20 DUP2 SWAP1 MSTORE PUSH1 0x40 SWAP1 KECCAK256 SLOAD DUP2 DUP2 LT ISZERO PUSH3 0x465 JUMPI PUSH1 0x40 MLOAD PUSH4 0x391434E3 PUSH1 0xE2 SHL DUP2 MSTORE PUSH1 0x1 PUSH1 0x1 PUSH1 0xA0 SHL SUB DUP6 AND PUSH1 0x4 DUP3 ADD MSTORE PUSH1 0x24 DUP2 ADD DUP3 SWAP1 MSTORE PUSH1 0x44 DUP2 ADD DUP4 SWAP1 MSTORE PUSH1 0x64 ADD PUSH3 0x340 JUMP JUMPDEST PUSH1 0x1 PUSH1 0x1 PUSH1 0xA0 SHL SUB DUP5 AND PUSH1 0x0 SWAP1 DUP2 MSTORE PUSH1 0x20 DUP2 SWAP1 MSTORE PUSH1 0x40 SWAP1 KECCAK256 SWAP1 DUP3 SWAP1 SUB SWAP1 SSTORE JUMPDEST PUSH1 0x1 PUSH1 0x1 PUSH1 0xA0 SHL SUB DUP3 AND PUSH3 0x4A2 JUMPI PUSH1 0x2 DUP1 SLOAD DUP3 SWAP1 SUB SWAP1 SSTORE PUSH3 0x4C1 JUMP JUMPDEST PUSH1 0x1 PUSH1 0x1 PUSH1 0xA0 SHL SUB DUP3 AND PUSH1 0x0 SWAP1 DUP2 MSTORE PUSH1 0x20 DUP2 SWAP1 MSTORE PUSH1 0x40 SWAP1 KECCAK256 DUP1 SLOAD DUP3 ADD SWAP1 SSTORE JUMPDEST DUP2 PUSH1 0x1 PUSH1 0x1 PUSH1 0xA0 SHL SUB AND DUP4 PUSH1 0x1 PUSH1 0x1 PUSH1 0xA0 SHL SUB AND PUSH32 0xDDF252AD1BE2C89B69C2B068FC378DAA952BA7F163C4A11628F55A4DF523B3EF DUP4 PUSH1 0x40 MLOAD PUSH3 0x507 SWAP2 DUP2 MSTORE PUSH1 0x20 ADD SWAP1 JUMP JUMPDEST PUSH1 0x40 MLOAD DUP1 SWAP2 SUB SWAP1 LOG3 POP POP POP JUMP JUMPDEST PUSH4 0x4E487B71 PUSH1 0xE0 SHL PUSH1 0x0 MSTORE PUSH1 0x41 PUSH1 0x4 MSTORE PUSH1 0x24 PUSH1 0x0 REVERT JUMPDEST PUSH1 0x1 DUP2 DUP2 SHR SWAP1 DUP3 AND DUP1 PUSH3 0x53F JUMPI PUSH1 0x7F DUP3 AND SWAP2 POP JUMPDEST PUSH1 0x20 DUP3 LT DUP2 SUB PUSH3 0x560 JUMPI PUSH4 0x4E487B71 PUSH1 0xE0 SHL PUSH1 0x0 MSTORE PUSH1 0x22 PUSH1 0x4 MSTORE PUSH1 0x24 PUSH1 0x0 REVERT JUMPDEST POP SWAP2 SWAP1 POP JUMP JUMPDEST PUSH1 0x1F DUP3 GT ISZERO PUSH3 0x3B5 JUMPI PUSH1 0x0 DUP2 DUP2 MSTORE PUSH1 0x20 DUP2 KECCAK256 PUSH1 0x1F DUP6 ADD PUSH1 0x5 SHR DUP2 ADD PUSH1 0x20 DUP7 LT ISZERO PUSH3 0x58F JUMPI POP DUP1 JUMPDEST PUSH1 0x1F DUP6 ADD PUSH1 0x5 SHR DUP3 ADD SWAP2 POP JUMPDEST DUP2 DUP2 LT ISZERO PUSH3 0x5B0 JUMPI DUP3 DUP2 SSTORE PUSH1 0x1 ADD PUSH3 0x59B JUMP JUMPDEST POP POP POP POP POP POP JUMP JUMPDEST DUP2 MLOAD PUSH1 0x1 PUSH1 0x1 PUSH1 0x40 SHL SUB DUP2 GT ISZERO PUSH3 0x5D4 JUMPI PUSH3 0x5D4 PUSH3 0x514 JUMP JUMPDEST PUSH3 0x5EC DUP2 PUSH3 0x5E5 DUP5 SLOAD PUSH3 0x52A JUMP JUMPDEST DUP5 PUSH3 0x566 JUMP JUMPDEST PUSH1 0x20 DUP1 PUSH1 0x1F DUP4 GT PUSH1 0x1 DUP2 EQ PUSH3 0x624 JUMPI PUSH1 0x0 DUP5 ISZERO PUSH3 0x60B JUMPI POP DUP6 DUP4 ADD MLOAD JUMPDEST PUSH1 0x0 NOT PUSH1 0x3 DUP7 SWAP1 SHL SHR NOT AND PUSH1 0x1 DUP6 SWAP1 SHL OR DUP6 SSTORE PUSH3 0x5B0 JUMP JUMPDEST PUSH1 0x0 DUP6 DUP2 MSTORE PUSH1 0x20 DUP2 KECCAK256 PUSH1 0x1F NOT DUP7 AND SWAP2 JUMPDEST DUP3 DUP2 LT ISZERO PUSH3 0x655 JUMPI DUP9 DUP7 ADD MLOAD DUP3 SSTORE SWAP5 DUP5 ADD SWAP5 PUSH1 0x1 SWAP1 SWAP2 ADD SWAP1 DUP5 ADD PUSH3 0x634 JUMP JUMPDEST POP DUP6 DUP3 LT ISZERO PUSH3 0x674 JUMPI DUP8 DUP6 ADD MLOAD PUSH1 0x0 NOT PUSH1 0x3 DUP9 SWAP1 SHL PUSH1 0xF8 AND SHR NOT AND DUP2 SSTORE JUMPDEST POP POP POP POP POP PUSH1 0x1 SWAP1 DUP2 SHL ADD SWAP1 SSTORE POP JUMP JUMPDEST PUSH4 0x4E487B71 PUSH1 0xE0 SHL PUSH1 0x0 MSTORE PUSH1 0x11 PUSH1 0x4 MSTORE PUSH1 0x24 PUSH1 0x0 REVERT JUMPDEST PUSH1 0x1 DUP2 DUP2 JUMPDEST DUP1 DUP6 GT ISZERO PUSH3 0x6DB JUMPI DUP2 PUSH1 0x0 NOT DIV DUP3 GT ISZERO PUSH3 0x6BF JUMPI PUSH3 0x6BF PUSH3 0x684 JUMP JUMPDEST DUP1 DUP6 AND ISZERO PUSH3 0x6CD JUMPI SWAP2 DUP2 MUL SWAP2 JUMPDEST SWAP4 DUP5 SHR SWAP4 SWAP1 DUP1 MUL SWAP1 PUSH3 0x69F JUMP JUMPDEST POP SWAP3 POP SWAP3 SWAP1 POP JUMP JUMPDEST PUSH1 0x0 DUP3 PUSH3 0x6F4 JUMPI POP PUSH1 0x1 PUSH3 0x261 JUMP JUMPDEST DUP2 PUSH3 0x703 JUMPI POP PUSH1 0x0 PUSH3 0x261 JUMP JUMPDEST DUP2 PUSH1 0x1 DUP2 EQ PUSH3 0x71C JUMPI PUSH1 0x2 DUP2 EQ PUSH3 0x727 JUMPI PUSH3 0x747 JUMP JUMPDEST PUSH1 0x1 SWAP2 POP POP PUSH3 0x261 JUMP JUMPDEST PUSH1 0xFF DUP5 GT ISZERO PUSH3 0x73B JUMPI PUSH3 0x73B PUSH3 0x684 JUMP JUMPDEST POP POP PUSH1 0x1 DUP3 SHL PUSH3 0x261 JUMP JUMPDEST POP PUSH1 0x20 DUP4 LT PUSH2 0x133 DUP4 LT AND PUSH1 0x4E DUP5 LT PUSH1 0xB DUP5 LT AND OR ISZERO PUSH3 0x76C JUMPI POP DUP2 DUP2 EXP PUSH3 0x261 JUMP JUMPDEST PUSH3 0x778 DUP4 DUP4 PUSH3 0x69A JUMP JUMPDEST DUP1 PUSH1 0x0 NOT DIV DUP3 GT ISZERO PUSH3 0x78F JUMPI PUSH3 0x78F PUSH3 0x684 JUMP JUMPDEST MUL SWAP4 SWAP3 POP POP POP JUMP JUMPDEST PUSH1 0x0 PUSH3 0x7A8 PUSH1 0xFF DUP5 AND DUP4 PUSH3 0x6E3 JUMP JUMPDEST SWAP4 SWAP3 POP POP POP JUMP JUMPDEST DUP1 DUP3 MUL DUP2 ISZERO DUP3 DUP3 DIV DUP5 EQ OR PUSH3 0x261 JUMPI PUSH3 0x261 PUSH3 0x684 JUMP JUMPDEST PUSH1 0x0 PUSH1 0x20 DUP1 DUP4 MSTORE DUP4 MLOAD DUP1 DUP3 DUP6 ADD MSTORE PUSH1 0x0 JUMPDEST DUP2 DUP2 LT ISZERO PUSH3 0x7F8 JUMPI DUP6 DUP2 ADD DUP4 ADD MLOAD DUP6 DUP3 ADD PUSH1 0x40 ADD MSTORE DUP3 ADD PUSH3 0x7DA JUMP JUMPDEST POP PUSH1 0x0 PUSH1 0x40 DUP3 DUP7 ADD ADD MSTORE PUSH1 0x40 PUSH1 0x1F NOT PUSH1 0x1F DUP4 ADD AND DUP6 ADD ADD SWAP3 POP POP POP SWAP3 SWAP2 POP POP JUMP JUMPDEST DUP1 MLOAD PUSH1 0x20 DUP1 DUP4 ADD MLOAD SWAP2 SWAP1 DUP2 LT ISZERO PUSH3 0x560 JUMPI PUSH1 0x0 NOT PUSH1 0x20 SWAP2 SWAP1 SWAP2 SUB PUSH1 0x3 SHL SHL AND SWAP2 SWAP1 POP JUMP JUMPDEST DUP1 DUP3 ADD DUP1 DUP3 GT ISZERO PUSH3 0x261 JUMPI PUSH3 0x261 PUSH3 0x684 JUMP JUMPDEST PUSH1 0x80 MLOAD PUSH1 0xA0 MLOAD PUSH1 0xC0 MLOAD PUSH1 0xE0 MLOAD PUSH2 0x100 MLOAD PUSH2 0x120 MLOAD PUSH2 0x140 MLOAD PUSH2 0x23B0 PUSH3 0x8AF PUSH1 0x0 CODECOPY PUSH1 0x0 PUSH2 0x1838 ADD MSTORE PUSH1 0x0 PUSH2 0x180B ADD MSTORE PUSH1 0x0 PUSH2 0x1681 ADD MSTORE PUSH1 0x0 PUSH2 0x1659 ADD MSTORE PUSH1 0x0 PUSH2 0x15B4 ADD MSTORE PUSH1 0x0 PUSH2 0x15DE ADD MSTORE PUSH1 0x0 PUSH2 0x1608 ADD MSTORE PUSH2 0x23B0 PUSH1 0x0 RETURN INVALID PUSH1 0x80 PUSH1 0x40 MSTORE CALLVALUE DUP1 ISZERO PUSH2 0x10 JUMPI PUSH1 0x0 DUP1 REVERT JUMPDEST POP PUSH1 0x4 CALLDATASIZE LT PUSH2 0x269 JUMPI PUSH1 0x0 CALLDATALOAD PUSH1 0xE0 SHR DUP1 PUSH4 0x79CC6790 GT PUSH2 0x151 JUMPI DUP1 PUSH4 0xA217FDDF GT PUSH2 0xC3 JUMPI DUP1 PUSH4 0xD5391393 GT PUSH2 0x87 JUMPI DUP1 PUSH4 0xD5391393 EQ PUSH2 0x677 JUMPI DUP1 PUSH4 0xD547741F EQ PUSH2 0x69E JUMPI DUP1 PUSH4 0xDD62ED3E EQ PUSH2 0x6B1 JUMPI DUP1 PUSH4 0xE63AB1E9 EQ PUSH2 0x6EA JUMPI DUP1 PUSH4 0xF8D8AA72 EQ PUSH2 0x711 JUMPI DUP1 PUSH4 0xFA52C7D8 EQ PUSH2 0x76B JUMPI PUSH1 0x0 DUP1 REVERT JUMPDEST DUP1 PUSH4 0xA217FDDF EQ PUSH2 0x621 JUMPI DUP1 PUSH4 0xA8A09AC3 EQ PUSH2 0x629 JUMPI DUP1 PUSH4 0xA9059CBB EQ PUSH2 0x63C JUMPI DUP1 PUSH4 0xB7AB4DB5 EQ PUSH2 0x64F JUMPI DUP1 PUSH4 0xD505ACCF EQ PUSH2 0x664 JUMPI PUSH1 0x0 DUP1 REVERT JUMPDEST DUP1 PUSH4 0x84B0196E GT PUSH2 0x115 JUMPI DUP1 PUSH4 0x84B0196E EQ PUSH2 0x530 JUMPI DUP1 PUSH4 0x88FE2BE8 EQ PUSH2 0x54B JUMPI DUP1 PUSH4 0x8A11D7C9 EQ PUSH2 0x55E JUMPI DUP1 PUSH4 0x91052816 EQ PUSH2 0x5DF JUMPI DUP1 PUSH4 0x91D14854 EQ PUSH2 0x606 JUMPI DUP1 PUSH4 0x95D89B41 EQ PUSH2 0x619 JUMPI PUSH1 0x0 DUP1 REVERT JUMPDEST DUP1 PUSH4 0x79CC6790 EQ PUSH2 0x4DE JUMPI DUP1 PUSH4 0x7A6EEA37 EQ PUSH2 0x4F1 JUMPI DUP1 PUSH4 0x7ECEBE00 EQ PUSH2 0x502 JUMPI DUP1 PUSH4 0x817B1CD2 EQ PUSH2 0x515 JUMPI DUP1 PUSH4 0x8456CB59 EQ PUSH2 0x528 JUMPI PUSH1 0x0 DUP1 REVERT JUMPDEST DUP1 PUSH4 0x248A9CA3 GT PUSH2 0x1EA JUMPI DUP1 PUSH4 0x3644E515 GT PUSH2 0x1AE JUMPI DUP1 PUSH4 0x3644E515 EQ PUSH2 0x474 JUMPI DUP1 PUSH4 0x36568ABE EQ PUSH2 0x47C JUMPI DUP1 PUSH4 0x3F4BA83A EQ PUSH2 0x48F JUMPI DUP1 PUSH4 0x42966C68 EQ PUSH2 0x497 JUMPI DUP1 PUSH4 0x5C975ABB EQ PUSH2 0x4AA JUMPI DUP1 PUSH4 0x70A08231 EQ PUSH2 0x4B5 JUMPI PUSH1 0x0 DUP1 REVERT JUMPDEST DUP1 PUSH4 0x248A9CA3 EQ PUSH2 0x412 JUMPI DUP1 PUSH4 0x2DEF6620 EQ PUSH2 0x435 JUMPI DUP1 PUSH4 0x2F2FF15D EQ PUSH2 0x43F JUMPI DUP1 PUSH4 0x313CE567 EQ PUSH2 0x452 JUMPI DUP1 PUSH4 0x34D87341 EQ PUSH2 0x461 JUMPI PUSH1 0x0 DUP1 REVERT JUMPDEST DUP1 PUSH4 0xF43A677 GT PUSH2 0x231 JUMPI DUP1 PUSH4 0xF43A677 EQ PUSH2 0x348 JUMPI DUP1 PUSH4 0x16934FC4 EQ PUSH2 0x35F JUMPI DUP1 PUSH4 0x18160DDD EQ PUSH2 0x3D4 JUMPI DUP1 PUSH4 0x1932526D EQ PUSH2 0x3DC JUMPI DUP1 PUSH4 0x23B872DD EQ PUSH2 0x3FF JUMPI PUSH1 0x0 DUP1 REVERT JUMPDEST DUP1 PUSH4 0x1FFC9A7 EQ PUSH2 0x26E JUMPI DUP1 PUSH4 0x6FDDE03 EQ PUSH2 0x296 JUMPI DUP1 PUSH4 0x8DBBB03 EQ PUSH2 0x2AB JUMPI DUP1 PUSH4 0x933BAA9 EQ PUSH2 0x2D3 JUMPI DUP1 PUSH4 0x95EA7B3 EQ PUSH2 0x335 JUMPI JUMPDEST PUSH1 0x0 DUP1 REVERT JUMPDEST PUSH2 0x281 PUSH2 0x27C CALLDATASIZE PUSH1 0x4 PUSH2 0x1EF2 JUMP JUMPDEST PUSH2 0x804 JUMP JUMPDEST PUSH1 0x40 MLOAD SWAP1 ISZERO ISZERO DUP2 MSTORE PUSH1 0x20 ADD JUMPDEST PUSH1 0x40 MLOAD DUP1 SWAP2 SUB SWAP1 RETURN JUMPDEST PUSH2 0x29E PUSH2 0x83B JUMP JUMPDEST PUSH1 0x40 MLOAD PUSH2 0x28D SWAP2 SWAP1 PUSH2 0x1F69 JUMP JUMPDEST PUSH2 0x2BB PUSH9 0x3635C9ADC5DEA00000 DUP2 JUMP JUMPDEST PUSH1 0x40 MLOAD PUSH1 0x1 PUSH1 0x1 PUSH1 0x80 SHL SUB SWAP1 SWAP2 AND DUP2 MSTORE PUSH1 0x20 ADD PUSH2 0x28D JUMP JUMPDEST PUSH2 0x30E PUSH2 0x2E1 CALLDATASIZE PUSH1 0x4 PUSH2 0x1F98 JUMP JUMPDEST PUSH1 0xF PUSH1 0x20 MSTORE PUSH1 0x0 SWAP1 DUP2 MSTORE PUSH1 0x40 SWAP1 KECCAK256 SLOAD PUSH1 0x1 PUSH1 0x1 PUSH1 0x80 SHL SUB DUP2 AND SWAP1 PUSH1 0x1 PUSH1 0x80 SHL SWAP1 DIV PUSH1 0x1 PUSH1 0x1 PUSH1 0x40 SHL SUB AND DUP3 JUMP JUMPDEST PUSH1 0x40 DUP1 MLOAD PUSH1 0x1 PUSH1 0x1 PUSH1 0x80 SHL SUB SWAP1 SWAP4 AND DUP4 MSTORE PUSH1 0x1 PUSH1 0x1 PUSH1 0x40 SHL SUB SWAP1 SWAP2 AND PUSH1 0x20 DUP4 ADD MSTORE ADD PUSH2 0x28D JUMP JUMPDEST PUSH2 0x281 PUSH2 0x343 CALLDATASIZE PUSH1 0x4 PUSH2 0x1FB3 JUMP JUMPDEST PUSH2 0x8CD JUMP JUMPDEST PUSH2 0x351 PUSH1 0xD SLOAD DUP2 JUMP JUMPDEST PUSH1 0x40 MLOAD SWAP1 DUP2 MSTORE PUSH1 0x20 ADD PUSH2 0x28D JUMP JUMPDEST PUSH2 0x3A5 PUSH2 0x36D CALLDATASIZE PUSH1 0x4 PUSH2 0x1F98 JUMP JUMPDEST PUSH1 0xA PUSH1 0x20 MSTORE PUSH1 0x0 SWAP1 DUP2 MSTORE PUSH1 0x40 SWAP1 KECCAK256 SLOAD PUSH1 0x1 PUSH1 0x1 PUSH1 0x80 SHL SUB DUP2 AND SWAP1 PUSH1 0x1 PUSH1 0x80 SHL DUP2 DIV PUSH1 0x1 PUSH1 0x1 PUSH1 0x40 SHL SUB AND SWAP1 PUSH1 0x1 PUSH1 0xC0 SHL SWAP1 DIV PUSH1 0xFF AND DUP4 JUMP JUMPDEST PUSH1 0x40 DUP1 MLOAD PUSH1 0x1 PUSH1 0x1 PUSH1 0x80 SHL SUB SWAP1 SWAP5 AND DUP5 MSTORE PUSH1 0x1 PUSH1 0x1 PUSH1 0x40 SHL SUB SWAP1 SWAP3 AND PUSH1 0x20 DUP5 ADD MSTORE ISZERO ISZERO SWAP1 DUP3 ADD MSTORE PUSH1 0x60 ADD PUSH2 0x28D JUMP JUMPDEST PUSH1 0x2 SLOAD PUSH2 0x351 JUMP JUMPDEST PUSH2 0x3E7 PUSH4 0x1E13380 DUP2 JUMP JUMPDEST PUSH1 0x40 MLOAD PUSH1 0x1 PUSH1 0x1 PUSH1 0x40 SHL SUB SWAP1 SWAP2 AND DUP2 MSTORE PUSH1 0x20 ADD PUSH2 0x28D JUMP JUMPDEST PUSH2 0x281 PUSH2 0x40D CALLDATASIZE PUSH1 0x4 PUSH2 0x1FDD JUMP JUMPDEST PUSH2 0x8E5 JUMP JUMPDEST PUSH2 0x351 PUSH2 0x420 CALLDATASIZE PUSH1 0x4 PUSH2 0x2019 JUMP JUMPDEST PUSH1 0x0 SWAP1 DUP2 MSTORE PUSH1 0x6 PUSH1 0x20 MSTORE PUSH1 0x40 SWAP1 KECCAK256 PUSH1 0x1 ADD SLOAD SWAP1 JUMP JUMPDEST PUSH2 0x43D PUSH2 0x909 JUMP JUMPDEST STOP JUMPDEST PUSH2 0x43D PUSH2 0x44D CALLDATASIZE PUSH1 0x4 PUSH2 0x2032 JUMP JUMPDEST PUSH2 0xA9F JUMP JUMPDEST PUSH1 0x40 MLOAD PUSH1 0x12 DUP2 MSTORE PUSH1 0x20 ADD PUSH2 0x28D JUMP JUMPDEST PUSH2 0x43D PUSH2 0x46F CALLDATASIZE PUSH1 0x4 PUSH2 0x2075 JUMP JUMPDEST PUSH2 0xACA JUMP JUMPDEST PUSH2 0x351 PUSH2 0xC48 JUMP JUMPDEST PUSH2 0x43D PUSH2 0x48A CALLDATASIZE PUSH1 0x4 PUSH2 0x2032 JUMP JUMPDEST PUSH2 0xC57 JUMP JUMPDEST PUSH2 0x43D PUSH2 0xC8F JUMP JUMPDEST PUSH2 0x43D PUSH2 0x4A5 CALLDATASIZE PUSH1 0x4 PUSH2 0x2019 JUMP JUMPDEST PUSH2 0xCC4 JUMP JUMPDEST PUSH1 0x5 SLOAD PUSH1 0xFF AND PUSH2 0x281 JUMP JUMPDEST PUSH2 0x351 PUSH2 0x4C3 CALLDATASIZE PUSH1 0x4 PUSH2 0x1F98 JUMP JUMPDEST PUSH1 0x1 PUSH1 0x1 PUSH1 0xA0 SHL SUB AND PUSH1 0x0 SWAP1 DUP2 MSTORE PUSH1 0x20 DUP2 SWAP1 MSTORE PUSH1 0x40 SWAP1 KECCAK256 SLOAD SWAP1 JUMP JUMPDEST PUSH2 0x43D PUSH2 0x4EC CALLDATASIZE PUSH1 0x4 PUSH2 0x1FB3 JUMP JUMPDEST PUSH2 0xCCE JUMP JUMPDEST PUSH2 0x2BB PUSH10 0x21E19E0C9BAB2400000 DUP2 JUMP JUMPDEST PUSH2 0x351 PUSH2 0x510 CALLDATASIZE PUSH1 0x4 PUSH2 0x1F98 JUMP JUMPDEST PUSH2 0xCE7 JUMP JUMPDEST PUSH1 0xE SLOAD PUSH2 0x2BB SWAP1 PUSH1 0x1 PUSH1 0x1 PUSH1 0x80 SHL SUB AND DUP2 JUMP JUMPDEST PUSH2 0x43D PUSH2 0xD05 JUMP JUMPDEST PUSH2 0x538 PUSH2 0xD37 JUMP JUMPDEST PUSH1 0x40 MLOAD PUSH2 0x28D SWAP8 SWAP7 SWAP6 SWAP5 SWAP4 SWAP3 SWAP2 SWAP1 PUSH2 0x20C8 JUMP JUMPDEST PUSH2 0x43D PUSH2 0x559 CALLDATASIZE PUSH1 0x4 PUSH2 0x215E JUMP JUMPDEST PUSH2 0xD7D JUMP JUMPDEST PUSH2 0x3A5 PUSH2 0x56C CALLDATASIZE PUSH1 0x4 PUSH2 0x1F98 JUMP JUMPDEST PUSH1 0x1 PUSH1 0x1 PUSH1 0xA0 SHL SUB SWAP1 DUP2 AND PUSH1 0x0 SWAP1 DUP2 MSTORE PUSH1 0xB PUSH1 0x20 SWAP1 DUP2 MSTORE PUSH1 0x40 SWAP2 DUP3 SWAP1 KECCAK256 DUP3 MLOAD PUSH1 0x80 DUP2 ADD DUP5 MSTORE DUP2 SLOAD PUSH1 0x1 PUSH1 0x1 PUSH1 0x80 SHL SUB DUP2 AND DUP1 DUP4 MSTORE PUSH1 0x1 PUSH1 0x80 SHL DUP3 DIV PUSH1 0x1 PUSH1 0x1 PUSH1 0x40 SHL SUB AND SWAP5 DUP4 ADD DUP6 SWAP1 MSTORE PUSH1 0x1 PUSH1 0xC0 SHL SWAP1 SWAP2 DIV PUSH1 0xFF AND ISZERO ISZERO SWAP5 DUP3 ADD DUP6 SWAP1 MSTORE PUSH1 0x1 SWAP1 SWAP3 ADD SLOAD SWAP1 SWAP5 AND PUSH1 0x60 SWAP1 SWAP5 ADD SWAP4 SWAP1 SWAP4 MSTORE SWAP2 SWAP3 JUMP JUMPDEST PUSH2 0x351 PUSH32 0xF18246D2E788C2A885EC6AEEE43FC7C89077B8B7A1E52E99F27F5889E429E2F5 DUP2 JUMP JUMPDEST PUSH2 0x281 PUSH2 0x614 CALLDATASIZE PUSH1 0x4 PUSH2 0x2032 JUMP JUMPDEST PUSH2 0xF97 JUMP JUMPDEST PUSH2 0x29E PUSH2 0xFC2 JUMP JUMPDEST PUSH2 0x351 PUSH1 0x0 DUP2 JUMP JUMPDEST PUSH2 0x43D PUSH2 0x637 CALLDATASIZE PUSH1 0x4 PUSH2 0x2179 JUMP JUMPDEST PUSH2 0xFD1 JUMP JUMPDEST PUSH2 0x281 PUSH2 0x64A CALLDATASIZE PUSH1 0x4 PUSH2 0x1FB3 JUMP JUMPDEST PUSH2 0x10C8 JUMP JUMPDEST PUSH2 0x657 PUSH2 0x10D6 JUMP JUMPDEST PUSH1 0x40 MLOAD PUSH2 0x28D SWAP2 SWAP1 PUSH2 0x21A3 JUMP JUMPDEST PUSH2 0x43D PUSH2 0x672 CALLDATASIZE PUSH1 0x4 PUSH2 0x21E4 JUMP JUMPDEST PUSH2 0x1182 JUMP JUMPDEST PUSH2 0x351 PUSH32 0x9F2DF0FED2C77648DE5860A4CC508CD0818C85B8B8A1AB4CEEEF8D981C8956A6 DUP2 JUMP JUMPDEST PUSH2 0x43D PUSH2 0x6AC CALLDATASIZE PUSH1 0x4 PUSH2 0x2032 JUMP JUMPDEST PUSH2 0x12BC JUMP JUMPDEST PUSH2 0x351 PUSH2 0x6BF CALLDATASIZE PUSH1 0x4 PUSH2 0x2257 JUMP JUMPDEST PUSH1 0x1 PUSH1 0x1 PUSH1 0xA0 SHL SUB SWAP2 DUP3 AND PUSH1 0x0 SWAP1 DUP2 MSTORE PUSH1 0x1 PUSH1 0x20 SWAP1 DUP2 MSTORE PUSH1 0x40 DUP1 DUP4 KECCAK256 SWAP4 SWAP1 SWAP5 AND DUP3 MSTORE SWAP2 SWAP1 SWAP2 MSTORE KECCAK256 SLOAD SWAP1 JUMP JUMPDEST PUSH2 0x351 PUSH32 0x65D7A28E3265B37A6474929F336521B332C1681B933F6CB9F3376673440D862A DUP2 JUMP JUMPDEST PUSH2 0x30E PUSH2 0x71F CALLDATASIZE PUSH1 0x4 PUSH2 0x1F98 JUMP JUMPDEST PUSH1 0x1 PUSH1 0x1 PUSH1 0xA0 SHL SUB AND PUSH1 0x0 SWAP1 DUP2 MSTORE PUSH1 0xF PUSH1 0x20 SWAP1 DUP2 MSTORE PUSH1 0x40 SWAP2 DUP3 SWAP1 KECCAK256 DUP3 MLOAD DUP1 DUP5 ADD SWAP1 SWAP4 MSTORE SLOAD PUSH1 0x1 PUSH1 0x1 PUSH1 0x80 SHL SUB DUP2 AND DUP1 DUP5 MSTORE PUSH1 0x1 PUSH1 0x80 SHL SWAP1 SWAP2 DIV PUSH1 0x1 PUSH1 0x1 PUSH1 0x40 SHL SUB AND SWAP3 SWAP1 SWAP2 ADD DUP3 SWAP1 MSTORE SWAP2 JUMP JUMPDEST PUSH2 0x7C3 PUSH2 0x779 CALLDATASIZE PUSH1 0x4 PUSH2 0x1F98 JUMP JUMPDEST PUSH1 0xB PUSH1 0x20 MSTORE PUSH1 0x0 SWAP1 DUP2 MSTORE PUSH1 0x40 SWAP1 KECCAK256 DUP1 SLOAD PUSH1 0x1 SWAP1 SWAP2 ADD SLOAD PUSH1 0x1 PUSH1 0x1 PUSH1 0x80 SHL SUB DUP3 AND SWAP2 PUSH1 0x1 PUSH1 0x80 SHL DUP2 DIV PUSH1 0x1 PUSH1 0x1 PUSH1 0x40 SHL SUB AND SWAP2 PUSH1 0x1 PUSH1 0xC0 SHL SWAP1 SWAP2 DIV PUSH1 0xFF AND SWAP1 PUSH1 0x1 PUSH1 0x1 PUSH1 0xA0 SHL SUB AND DUP5 JUMP JUMPDEST PUSH1 0x40 DUP1 MLOAD PUSH1 0x1 PUSH1 0x1 PUSH1 0x80 SHL SUB SWAP1 SWAP6 AND DUP6 MSTORE PUSH1 0x1 PUSH1 0x1 PUSH1 0x40 SHL SUB SWAP1 SWAP4 AND PUSH1 0x20 DUP6 ADD MSTORE SWAP1 ISZERO ISZERO SWAP2 DUP4 ADD SWAP2 SWAP1 SWAP2 MSTORE PUSH1 0x1 PUSH1 0x1 PUSH1 0xA0 SHL SUB AND PUSH1 0x60 DUP3 ADD MSTORE PUSH1 0x80 ADD PUSH2 0x28D JUMP JUMPDEST PUSH1 0x0 PUSH1 0x1 PUSH1 0x1 PUSH1 0xE0 SHL SUB NOT DUP3 AND PUSH4 0x7965DB0B PUSH1 0xE0 SHL EQ DUP1 PUSH2 0x835 JUMPI POP PUSH4 0x1FFC9A7 PUSH1 0xE0 SHL PUSH1 0x1 PUSH1 0x1 PUSH1 0xE0 SHL SUB NOT DUP4 AND EQ JUMPDEST SWAP3 SWAP2 POP POP JUMP JUMPDEST PUSH1 0x60 PUSH1 0x3 DUP1 SLOAD PUSH2 0x84A SWAP1 PUSH2 0x2281 JUMP JUMPDEST DUP1 PUSH1 0x1F ADD PUSH1 0x20 DUP1 SWAP2 DIV MUL PUSH1 0x20 ADD PUSH1 0x40 MLOAD SWAP1 DUP2 ADD PUSH1 0x40 MSTORE DUP1 SWAP3 SWAP2 SWAP1 DUP2 DUP2 MSTORE PUSH1 0x20 ADD DUP3 DUP1 SLOAD PUSH2 0x876 SWAP1 PUSH2 0x2281 JUMP JUMPDEST DUP1 ISZERO PUSH2 0x8C3 JUMPI DUP1 PUSH1 0x1F LT PUSH2 0x898 JUMPI PUSH2 0x100 DUP1 DUP4 SLOAD DIV MUL DUP4 MSTORE SWAP2 PUSH1 0x20 ADD SWAP2 PUSH2 0x8C3 JUMP JUMPDEST DUP3 ADD SWAP2 SWAP1 PUSH1 0x0 MSTORE PUSH1 0x20 PUSH1 0x0 KECCAK256 SWAP1 JUMPDEST DUP2 SLOAD DUP2 MSTORE SWAP1 PUSH1 0x1 ADD SWAP1 PUSH1 0x20 ADD DUP1 DUP4 GT PUSH2 0x8A6 JUMPI DUP3 SWAP1 SUB PUSH1 0x1F AND DUP3 ADD SWAP2 JUMPDEST POP POP POP POP POP SWAP1 POP SWAP1 JUMP JUMPDEST PUSH1 0x0 CALLER PUSH2 0x8DB DUP2 DUP6 DUP6 PUSH2 0x12E1 JUMP JUMPDEST POP PUSH1 0x1 SWAP4 SWAP3 POP POP POP JUMP JUMPDEST PUSH1 0x0 CALLER PUSH2 0x8F3 DUP6 DUP3 DUP6 PUSH2 0x12EE JUMP JUMPDEST PUSH2 0x8FE DUP6 DUP6 DUP6 PUSH2 0x1366 JUMP JUMPDEST POP PUSH1 0x1 SWAP5 SWAP4 POP POP POP POP JUMP JUMPDEST CALLER PUSH1 0x0 SWAP1 DUP2 MSTORE PUSH1 0xA PUSH1 0x20 MSTORE PUSH1 0x40 SWAP1 KECCAK256 DUP1 SLOAD PUSH1 0x1 PUSH1 0xC0 SHL SWAP1 DIV PUSH1 0xFF AND PUSH2 0x967 JUMPI PUSH1 0x40 MLOAD PUSH3 0x461BCD PUSH1 0xE5 SHL DUP2 MSTORE PUSH1 0x20 PUSH1 0x4 DUP3 ADD MSTORE PUSH1 0xF PUSH1 0x24 DUP3 ADD MSTORE PUSH15 0x4E6F20616374697665207374616B65 PUSH1 0x88 SHL PUSH1 0x44 DUP3 ADD MSTORE PUSH1 0x64 ADD JUMPDEST PUSH1 0x40 MLOAD DUP1 SWAP2 SUB SWAP1 REVERT JUMPDEST DUP1 SLOAD PUSH2 0x988 SWAP1 PUSH4 0x1E13380 SWAP1 PUSH1 0x1 PUSH1 0x80 SHL SWAP1 DIV PUSH1 0x1 PUSH1 0x1 PUSH1 0x40 SHL SUB AND PUSH2 0x22CB JUMP JUMPDEST PUSH1 0x1 PUSH1 0x1 PUSH1 0x40 SHL SUB AND TIMESTAMP PUSH1 0x1 PUSH1 0x1 PUSH1 0x40 SHL SUB AND LT ISZERO PUSH2 0x9D8 JUMPI PUSH1 0x40 MLOAD PUSH3 0x461BCD PUSH1 0xE5 SHL DUP2 MSTORE PUSH1 0x20 PUSH1 0x4 DUP3 ADD MSTORE PUSH1 0xC PUSH1 0x24 DUP3 ADD MSTORE PUSH12 0x14DD185AD9481B1BD8DAD959 PUSH1 0xA2 SHL PUSH1 0x44 DUP3 ADD MSTORE PUSH1 0x64 ADD PUSH2 0x95E JUMP JUMPDEST DUP1 SLOAD PUSH25 0xFF0000000000000000FFFFFFFFFFFFFFFFFFFFFFFFFFFFFFFF NOT DUP2 AND DUP3 SSTORE PUSH1 0xE DUP1 SLOAD PUSH1 0x1 PUSH1 0x1 PUSH1 0x80 SHL SUB SWAP3 DUP4 AND DUP2 DUP5 AND DUP2 SWAP1 SUB SWAP1 SWAP4 AND PUSH1 0x1 PUSH1 0x1 PUSH1 0x80 SHL SUB NOT SWAP2 SWAP1 SWAP2 AND OR SWAP1 SSTORE CALLER PUSH1 0x0 SWAP1 DUP2 MSTORE PUSH1 0xB PUSH1 0x20 MSTORE PUSH1 0x40 SWAP1 KECCAK256 SLOAD PUSH1 0x1 PUSH1 0xC0 SHL SWAP1 DIV PUSH1 0xFF AND ISZERO PUSH2 0xA49 JUMPI PUSH2 0xA49 CALLER PUSH2 0x13C5 JUMP JUMPDEST PUSH2 0xA5D ADDRESS CALLER DUP4 PUSH1 0x1 PUSH1 0x1 PUSH1 0x80 SHL SUB AND PUSH2 0x1366 JUMP JUMPDEST PUSH1 0x40 MLOAD PUSH1 0x1 PUSH1 0x1 PUSH1 0x80 SHL SUB DUP3 AND DUP2 MSTORE CALLER SWAP1 PUSH32 0x23EB338ED2DF691870BC931BF6328C55B2708178ECF1F1B3E889AFCA4418ADEA SWAP1 PUSH1 0x20 ADD PUSH1 0x40 MLOAD DUP1 SWAP2 SUB SWAP1 LOG2 POP POP JUMP JUMPDEST PUSH1 0x0 DUP3 DUP2 MSTORE PUSH1 0x6 PUSH1 0x20 MSTORE PUSH1 0x40 SWAP1 KECCAK256 PUSH1 0x1 ADD SLOAD PUSH2 0xABA DUP2 PUSH2 0x14E3 JUMP JUMPDEST PUSH2 0xAC4 DUP4 DUP4 PUSH2 0x14ED JUMP JUMPDEST POP POP POP POP JUMP JUMPDEST PUSH32 0xF18246D2E788C2A885EC6AEEE43FC7C89077B8B7A1E52E99F27F5889E429E2F5 PUSH2 0xAF4 DUP2 PUSH2 0x14E3 JUMP JUMPDEST PUSH2 0xAFC PUSH2 0x1581 JUMP JUMPDEST PUSH1 0x0 DUP4 PUSH1 0x1 PUSH1 0x1 PUSH1 0x80 SHL SUB AND GT PUSH2 0xB46 JUMPI PUSH1 0x40 MLOAD PUSH3 0x461BCD PUSH1 0xE5 SHL DUP2 MSTORE PUSH1 0x20 PUSH1 0x4 DUP3 ADD MSTORE PUSH1 0xE PUSH1 0x24 DUP3 ADD MSTORE PUSH14 0x125B9D985B1A5908185B5BDD5B9D PUSH1 0x92 SHL PUSH1 0x44 DUP3 ADD MSTORE PUSH1 0x64 ADD PUSH2 0x95E JUMP JUMPDEST PUSH1 0x0 DUP3 PUSH1 0x1 PUSH1 0x1 PUSH1 0x40 SHL SUB AND GT PUSH2 0xB92 JUMPI PUSH1 0x40 MLOAD PUSH3 0x461BCD PUSH1 0xE5 SHL DUP2 MSTORE PUSH1 0x20 PUSH1 0x4 DUP3 ADD MSTORE PUSH1 0x10 PUSH1 0x24 DUP3 ADD MSTORE PUSH16 0x24B73B30B634B210323AB930BA34B7B7 PUSH1 0x81 SHL PUSH1 0x44 DUP3 ADD MSTORE PUSH1 0x64 ADD PUSH2 0x95E JUMP JUMPDEST PUSH1 0x0 PUSH2 0xB9E DUP4 TIMESTAMP PUSH2 0x22CB JUMP JUMPDEST PUSH1 0x40 DUP1 MLOAD DUP1 DUP3 ADD DUP3 MSTORE PUSH1 0x1 PUSH1 0x1 PUSH1 0x80 SHL SUB DUP8 DUP2 AND DUP1 DUP4 MSTORE PUSH1 0x1 PUSH1 0x1 PUSH1 0x40 SHL SUB DUP6 DUP2 AND PUSH1 0x20 DUP1 DUP7 ADD DUP3 DUP2 MSTORE PUSH1 0x1 PUSH1 0x1 PUSH1 0xA0 SHL SUB DUP15 AND PUSH1 0x0 DUP2 DUP2 MSTORE PUSH1 0xF DUP5 MSTORE DUP10 SWAP1 KECCAK256 SWAP8 MLOAD DUP9 SLOAD SWAP3 MLOAD SWAP1 SWAP6 AND PUSH1 0x1 PUSH1 0x80 SHL MUL PUSH1 0x1 PUSH1 0x1 PUSH1 0xC0 SHL SUB NOT SWAP1 SWAP3 AND SWAP5 SWAP1 SWAP7 AND SWAP4 SWAP1 SWAP4 OR SWAP3 SWAP1 SWAP3 OR SWAP1 SWAP5 SSTORE DUP5 MLOAD SWAP2 DUP3 MSTORE DUP2 ADD SWAP3 SWAP1 SWAP3 MSTORE SWAP3 SWAP4 POP PUSH32 0xEA99FCBDF778191EE2BC9D4BFD39B57B3B6794AD3C3A2A8EEEC68B475C3E8BF9 SWAP2 ADD PUSH1 0x40 MLOAD DUP1 SWAP2 SUB SWAP1 LOG2 POP POP POP POP POP JUMP JUMPDEST PUSH1 0x0 PUSH2 0xC52 PUSH2 0x15A7 JUMP JUMPDEST SWAP1 POP SWAP1 JUMP JUMPDEST PUSH1 0x1 PUSH1 0x1 PUSH1 0xA0 SHL SUB DUP2 AND CALLER EQ PUSH2 0xC80 JUMPI PUSH1 0x40 MLOAD PUSH4 0x334BD919 PUSH1 0xE1 SHL DUP2 MSTORE PUSH1 0x4 ADD PUSH1 0x40 MLOAD DUP1 SWAP2 SUB SWAP1 REVERT JUMPDEST PUSH2 0xC8A DUP3 DUP3 PUSH2 0x16D2 JUMP JUMPDEST POP POP POP JUMP JUMPDEST PUSH32 0x65D7A28E3265B37A6474929F336521B332C1681B933F6CB9F3376673440D862A PUSH2 0xCB9 DUP2 PUSH2 0x14E3 JUMP JUMPDEST PUSH2 0xCC1 PUSH2 0x173F JUMP JUMPDEST POP JUMP JUMPDEST PUSH2 0xCC1 CALLER DUP3 PUSH2 0x1791 JUMP JUMPDEST PUSH2 0xCD9 DUP3 CALLER DUP4 PUSH2 0x12EE JUMP JUMPDEST PUSH2 0xCE3 DUP3 DUP3 PUSH2 0x1791 JUMP JUMPDEST POP POP JUMP JUMPDEST PUSH1 0x1 PUSH1 0x1 PUSH1 0xA0 SHL SUB DUP2 AND PUSH1 0x0 SWAP1 DUP2 MSTORE PUSH1 0x9 PUSH1 0x20 MSTORE PUSH1 0x40 DUP2 KECCAK256 SLOAD PUSH2 0x835 JUMP JUMPDEST PUSH32 0x65D7A28E3265B37A6474929F336521B332C1681B933F6CB9F3376673440D862A PUSH2 0xD2F DUP2 PUSH2 0x14E3 JUMP JUMPDEST PUSH2 0xCC1 PUSH2 0x17C7 JUMP JUMPDEST PUSH1 0x0 PUSH1 0x60 DUP1 PUSH1 0x0 DUP1 PUSH1 0x0 PUSH1 0x60 PUSH2 0xD4B PUSH2 0x1804 JUMP JUMPDEST PUSH2 0xD53 PUSH2 0x1831 JUMP JUMPDEST PUSH1 0x40 DUP1 MLOAD PUSH1 0x0 DUP1 DUP3 MSTORE PUSH1 0x20 DUP3 ADD SWAP1 SWAP3 MSTORE PUSH1 0xF PUSH1 0xF8 SHL SWAP12 SWAP4 SWAP11 POP SWAP2 SWAP9 POP CHAINID SWAP8 POP ADDRESS SWAP7 POP SWAP5 POP SWAP3 POP SWAP1 POP JUMP JUMPDEST PUSH2 0xD85 PUSH2 0x1581 JUMP JUMPDEST PUSH9 0x3635C9ADC5DEA00000 PUSH1 0x1 PUSH1 0x1 PUSH1 0x80 SHL SUB DUP3 AND LT ISZERO PUSH2 0xDDD JUMPI PUSH1 0x40 MLOAD PUSH3 0x461BCD PUSH1 0xE5 SHL DUP2 MSTORE PUSH1 0x20 PUSH1 0x4 DUP3 ADD MSTORE PUSH1 0x13 PUSH1 0x24 DUP3 ADD MSTORE PUSH19 0x42656C6F77206D696E696D756D207374616B65 PUSH1 0x68 SHL PUSH1 0x44 DUP3 ADD MSTORE PUSH1 0x64 ADD PUSH2 0x95E JUMP JUMPDEST CALLER PUSH1 0x0 SWAP1 DUP2 MSTORE PUSH1 0x20 DUP2 SWAP1 MSTORE PUSH1 0x40 SWAP1 KECCAK256 SLOAD PUSH1 0x1 PUSH1 0x1 PUSH1 0x80 SHL SUB DUP3 AND GT ISZERO PUSH2 0xE3C JUMPI PUSH1 0x40 MLOAD PUSH3 0x461BCD PUSH1 0xE5 SHL DUP2 MSTORE PUSH1 0x20 PUSH1 0x4 DUP3 ADD MSTORE PUSH1 0x14 PUSH1 0x24 DUP3 ADD MSTORE PUSH20 0x496E73756666696369656E742062616C616E6365 PUSH1 0x60 SHL PUSH1 0x44 DUP3 ADD MSTORE PUSH1 0x64 ADD PUSH2 0x95E JUMP JUMPDEST PUSH2 0xE50 CALLER ADDRESS DUP4 PUSH1 0x1 PUSH1 0x1 PUSH1 0x80 SHL SUB AND PUSH2 0x1366 JUMP JUMPDEST CALLER PUSH1 0x0 SWAP1 DUP2 MSTORE PUSH1 0xA PUSH1 0x20 MSTORE PUSH1 0x40 SWAP1 KECCAK256 DUP1 SLOAD PUSH1 0x1 PUSH1 0xC0 SHL SWAP1 DIV PUSH1 0xFF AND ISZERO PUSH2 0xEB6 JUMPI DUP1 SLOAD DUP3 SWAP1 DUP3 SWAP1 PUSH1 0x0 SWAP1 PUSH2 0xE8D SWAP1 DUP5 SWAP1 PUSH1 0x1 PUSH1 0x1 PUSH1 0x80 SHL SUB AND PUSH2 0x2308 JUMP JUMPDEST SWAP3 POP PUSH2 0x100 EXP DUP2 SLOAD DUP2 PUSH1 0x1 PUSH1 0x1 PUSH1 0x80 SHL SUB MUL NOT AND SWAP1 DUP4 PUSH1 0x1 PUSH1 0x1 PUSH1 0x80 SHL SUB AND MUL OR SWAP1 SSTORE POP PUSH2 0xEF3 JUMP JUMPDEST DUP1 SLOAD PUSH1 0xFF PUSH1 0xC0 SHL NOT PUSH1 0x1 PUSH1 0x1 PUSH1 0x40 SHL SUB TIMESTAMP AND PUSH1 0x1 PUSH1 0x80 SHL MUL PUSH1 0x1 PUSH1 0x1 PUSH1 0xC0 SHL SUB NOT SWAP1 SWAP3 AND PUSH1 0x1 PUSH1 0x1 PUSH1 0x80 SHL SUB DUP6 AND OR SWAP2 SWAP1 SWAP2 OR AND PUSH1 0x1 PUSH1 0xC0 SHL OR DUP2 SSTORE JUMPDEST PUSH1 0xE DUP1 SLOAD PUSH1 0x1 PUSH1 0x1 PUSH1 0x80 SHL SUB NOT DUP2 AND PUSH1 0x1 PUSH1 0x1 PUSH1 0x80 SHL SUB SWAP2 DUP3 AND DUP6 ADD DUP3 AND OR SWAP1 SWAP2 SSTORE PUSH1 0x40 MLOAD SWAP1 DUP4 AND DUP2 MSTORE CALLER SWAP1 PUSH32 0x2EEFBCC6809174727CB788BE082C392BE6C822829C56AB5EB44D528E9D9F37F9 SWAP1 PUSH1 0x20 ADD PUSH1 0x40 MLOAD DUP1 SWAP2 SUB SWAP1 LOG2 DUP1 SLOAD PUSH10 0x21E19E0C9BAB2400000 PUSH1 0x1 PUSH1 0x1 PUSH1 0x80 SHL SUB SWAP1 SWAP2 AND LT DUP1 ISZERO SWAP1 PUSH2 0xF89 JUMPI POP CALLER PUSH1 0x0 SWAP1 DUP2 MSTORE PUSH1 0xB PUSH1 0x20 MSTORE PUSH1 0x40 SWAP1 KECCAK256 SLOAD PUSH1 0x1 PUSH1 0xC0 SHL SWAP1 DIV PUSH1 0xFF AND ISZERO JUMPDEST ISZERO PUSH2 0xCE3 JUMPI PUSH2 0xCE3 CALLER PUSH2 0x185E JUMP JUMPDEST PUSH1 0x0 SWAP2 DUP3 MSTORE PUSH1 0x6 PUSH1 0x20 SWAP1 DUP2 MSTORE PUSH1 0x40 DUP1 DUP5 KECCAK256 PUSH1 0x1 PUSH1 0x1 PUSH1 0xA0 SHL SUB SWAP4 SWAP1 SWAP4 AND DUP5 MSTORE SWAP2 SWAP1 MSTORE SWAP1 KECCAK256 SLOAD PUSH1 0xFF AND SWAP1 JUMP JUMPDEST PUSH1 0x60 PUSH1 0x4 DUP1 SLOAD PUSH2 0x84A SWAP1 PUSH2 0x2281 JUMP JUMPDEST PUSH32 0xF18246D2E788C2A885EC6AEEE43FC7C89077B8B7A1E52E99F27F5889E429E2F5 PUSH2 0xFFB DUP2 PUSH2 0x14E3 JUMP JUMPDEST PUSH2 0x1003 PUSH2 0x1581 JUMP JUMPDEST PUSH1 0x1 PUSH1 0x1 PUSH1 0xA0 SHL SUB DUP4 AND PUSH1 0x0 SWAP1 DUP2 MSTORE PUSH1 0xB PUSH1 0x20 MSTORE PUSH1 0x40 SWAP1 KECCAK256 SLOAD PUSH1 0x1 PUSH1 0xC0 SHL SWAP1 DIV PUSH1 0xFF AND PUSH2 0x1069 JUMPI PUSH1 0x40 MLOAD PUSH3 0x461BCD PUSH1 0xE5 SHL DUP2 MSTORE PUSH1 0x20 PUSH1 0x4 DUP3 ADD MSTORE PUSH1 0x14 PUSH1 0x24 DUP3 ADD MSTORE PUSH20 0x2737BA1030B1BA34BB32903B30B634B230BA37B9 PUSH1 0x61 SHL PUSH1 0x44 DUP3 ADD MSTORE PUSH1 0x64 ADD PUSH2 0x95E JUMP JUMPDEST PUSH2 0x107C DUP4 DUP4 PUSH1 0x1 PUSH1 0x1 PUSH1 0x80 SHL SUB AND PUSH2 0x1959 JUMP JUMPDEST PUSH1 0x40 MLOAD PUSH1 0x1 PUSH1 0x1 PUSH1 0x80 SHL SUB DUP4 AND DUP2 MSTORE PUSH1 0x1 PUSH1 0x1 PUSH1 0xA0 SHL SUB DUP5 AND SWAP1 PUSH32 0xF77751A151636203DCB1527A92B63CD167DBD6E61F35882B08D51188B59BA26B SWAP1 PUSH1 0x20 ADD PUSH1 0x40 MLOAD DUP1 SWAP2 SUB SWAP1 LOG2 POP POP POP JUMP JUMPDEST PUSH1 0x0 CALLER PUSH2 0x8DB DUP2 DUP6 DUP6 PUSH2 0x1366 JUMP JUMPDEST PUSH1 0x60 PUSH1 0x0 PUSH1 0xD SLOAD PUSH1 0x1 PUSH1 0x1 PUSH1 0x40 SHL SUB DUP2 GT ISZERO PUSH2 0x10F4 JUMPI PUSH2 0x10F4 PUSH2 0x22F2 JUMP JUMPDEST PUSH1 0x40 MLOAD SWAP1 DUP1 DUP3 MSTORE DUP1 PUSH1 0x20 MUL PUSH1 0x20 ADD DUP3 ADD PUSH1 0x40 MSTORE DUP1 ISZERO PUSH2 0x111D JUMPI DUP2 PUSH1 0x20 ADD PUSH1 0x20 DUP3 MUL DUP1 CALLDATASIZE DUP4 CALLDATACOPY ADD SWAP1 POP JUMPDEST POP SWAP1 POP PUSH1 0x0 JUMPDEST PUSH1 0xD SLOAD DUP2 LT ISZERO PUSH2 0x117C JUMPI PUSH1 0x0 DUP2 DUP2 MSTORE PUSH1 0xC PUSH1 0x20 MSTORE PUSH1 0x40 SWAP1 KECCAK256 SLOAD DUP3 MLOAD PUSH1 0x1 PUSH1 0x1 PUSH1 0xA0 SHL SUB SWAP1 SWAP2 AND SWAP1 DUP4 SWAP1 DUP4 SWAP1 DUP2 LT PUSH2 0x115C JUMPI PUSH2 0x115C PUSH2 0x2328 JUMP JUMPDEST PUSH1 0x1 PUSH1 0x1 PUSH1 0xA0 SHL SUB SWAP1 SWAP3 AND PUSH1 0x20 SWAP3 DUP4 MUL SWAP2 SWAP1 SWAP2 ADD SWAP1 SWAP2 ADD MSTORE PUSH1 0x1 ADD PUSH2 0x1123 JUMP JUMPDEST POP SWAP2 SWAP1 POP JUMP JUMPDEST DUP4 TIMESTAMP GT ISZERO PUSH2 0x11A6 JUMPI PUSH1 0x40 MLOAD PUSH4 0x313C8981 PUSH1 0xE1 SHL DUP2 MSTORE PUSH1 0x4 DUP2 ADD DUP6 SWAP1 MSTORE PUSH1 0x24 ADD PUSH2 0x95E JUMP JUMPDEST PUSH1 0x0 PUSH32 0x6E71EDAE12B1B97F4D1F60370FEF10105FA2FAAE0126114A169C64845D6126C9 DUP9 DUP9 DUP9 PUSH2 0x11F3 DUP13 PUSH1 0x1 PUSH1 0x1 PUSH1 0xA0 SHL SUB AND PUSH1 0x0 SWAP1 DUP2 MSTORE PUSH1 0x9 PUSH1 0x20 MSTORE PUSH1 0x40 SWAP1 KECCAK256 DUP1 SLOAD PUSH1 0x1 DUP2 ADD SWAP1 SWAP2 SSTORE SWAP1 JUMP JUMPDEST PUSH1 0x40 DUP1 MLOAD PUSH1 0x20 DUP2 ADD SWAP7 SWAP1 SWAP7 MSTORE PUSH1 0x1 PUSH1 0x1 PUSH1 0xA0 SHL SUB SWAP5 DUP6 AND SWAP1 DUP7 ADD MSTORE SWAP3 SWAP1 SWAP2 AND PUSH1 0x60 DUP5 ADD MSTORE PUSH1 0x80 DUP4 ADD MSTORE PUSH1 0xA0 DUP3 ADD MSTORE PUSH1 0xC0 DUP2 ADD DUP7 SWAP1 MSTORE PUSH1 0xE0 ADD PUSH1 0x40 MLOAD PUSH1 0x20 DUP2 DUP4 SUB SUB DUP2 MSTORE SWAP1 PUSH1 0x40 MSTORE DUP1 MLOAD SWAP1 PUSH1 0x20 ADD KECCAK256 SWAP1 POP PUSH1 0x0 PUSH2 0x124E DUP3 PUSH2 0x198F JUMP JUMPDEST SWAP1 POP PUSH1 0x0 PUSH2 0x125E DUP3 DUP8 DUP8 DUP8 PUSH2 0x19BC JUMP JUMPDEST SWAP1 POP DUP10 PUSH1 0x1 PUSH1 0x1 PUSH1 0xA0 SHL SUB AND DUP2 PUSH1 0x1 PUSH1 0x1 PUSH1 0xA0 SHL SUB AND EQ PUSH2 0x12A5 JUMPI PUSH1 0x40 MLOAD PUSH4 0x25C00723 PUSH1 0xE1 SHL DUP2 MSTORE PUSH1 0x1 PUSH1 0x1 PUSH1 0xA0 SHL SUB DUP1 DUP4 AND PUSH1 0x4 DUP4 ADD MSTORE DUP12 AND PUSH1 0x24 DUP3 ADD MSTORE PUSH1 0x44 ADD PUSH2 0x95E JUMP JUMPDEST PUSH2 0x12B0 DUP11 DUP11 DUP11 PUSH2 0x12E1 JUMP JUMPDEST POP POP POP POP POP POP POP POP POP POP JUMP JUMPDEST PUSH1 0x0 DUP3 DUP2 MSTORE PUSH1 0x6 PUSH1 0x20 MSTORE PUSH1 0x40 SWAP1 KECCAK256 PUSH1 0x1 ADD SLOAD PUSH2 0x12D7 DUP2 PUSH2 0x14E3 JUMP JUMPDEST PUSH2 0xAC4 DUP4 DUP4 PUSH2 0x16D2 JUMP JUMPDEST PUSH2 0xC8A DUP4 DUP4 DUP4 PUSH1 0x1 PUSH2 0x19EA JUMP JUMPDEST PUSH1 0x1 PUSH1 0x1 PUSH1 0xA0 SHL SUB DUP4 DUP2 AND PUSH1 0x0 SWAP1 DUP2 MSTORE PUSH1 0x1 PUSH1 0x20 SWAP1 DUP2 MSTORE PUSH1 0x40 DUP1 DUP4 KECCAK256 SWAP4 DUP7 AND DUP4 MSTORE SWAP3 SWAP1 MSTORE KECCAK256 SLOAD PUSH1 0x0 NOT DUP2 EQ PUSH2 0xAC4 JUMPI DUP2 DUP2 LT ISZERO PUSH2 0x1357 JUMPI PUSH1 0x40 MLOAD PUSH4 0x7DC7A0D9 PUSH1 0xE1 SHL DUP2 MSTORE PUSH1 0x1 PUSH1 0x1 PUSH1 0xA0 SHL SUB DUP5 AND PUSH1 0x4 DUP3 ADD MSTORE PUSH1 0x24 DUP2 ADD DUP3 SWAP1 MSTORE PUSH1 0x44 DUP2 ADD DUP4 SWAP1 MSTORE PUSH1 0x64 ADD PUSH2 0x95E JUMP JUMPDEST PUSH2 0xAC4 DUP5 DUP5 DUP5 DUP5 SUB PUSH1 0x0 PUSH2 0x19EA JUMP JUMPDEST PUSH1 0x1 PUSH1 0x1 PUSH1 0xA0 SHL SUB DUP4 AND PUSH2 0x1390 JUMPI PUSH1 0x40 MLOAD PUSH4 0x4B637E8F PUSH1 0xE1 SHL DUP2 MSTORE PUSH1 0x0 PUSH1 0x4 DUP3 ADD MSTORE PUSH1 0x24 ADD PUSH2 0x95E JUMP JUMPDEST PUSH1 0x1 PUSH1 0x1 PUSH1 0xA0 SHL SUB DUP3 AND PUSH2 0x13BA JUMPI PUSH1 0x40 MLOAD PUSH4 0xEC442F05 PUSH1 0xE0 SHL DUP2 MSTORE PUSH1 0x0 PUSH1 0x4 DUP3 ADD MSTORE PUSH1 0x24 ADD PUSH2 0x95E JUMP JUMPDEST PUSH2 0xC8A DUP4 DUP4 DUP4 PUSH2 0x1ABF JUMP JUMPDEST PUSH1 0x1 PUSH1 0x1 PUSH1 0xA0 SHL SUB DUP2 AND PUSH1 0x0 SWAP1 DUP2 MSTORE PUSH1 0xB PUSH1 0x20 MSTORE PUSH1 0x40 DUP2 KECCAK256 DUP1 SLOAD PUSH1 0xFF PUSH1 0xC0 SHL NOT AND SWAP1 SSTORE JUMPDEST PUSH1 0xD SLOAD DUP2 LT ISZERO PUSH2 0x14AB JUMPI PUSH1 0x0 DUP2 DUP2 MSTORE PUSH1 0xC PUSH1 0x20 MSTORE PUSH1 0x40 SWAP1 KECCAK256 SLOAD PUSH1 0x1 PUSH1 0x1 PUSH1 0xA0 SHL SUB DUP1 DUP5 AND SWAP2 AND SUB PUSH2 0x14A3 JUMPI PUSH1 0xC PUSH1 0x0 PUSH1 0x1 PUSH1 0xD SLOAD PUSH2 0x1427 SWAP2 SWAP1 PUSH2 0x233E JUMP JUMPDEST DUP2 MSTORE PUSH1 0x20 DUP1 DUP3 ADD SWAP3 SWAP1 SWAP3 MSTORE PUSH1 0x40 SWAP1 DUP2 ADD PUSH1 0x0 SWAP1 DUP2 KECCAK256 SLOAD DUP5 DUP3 MSTORE PUSH1 0xC SWAP4 DUP5 SWAP1 MSTORE SWAP2 DUP2 KECCAK256 DUP1 SLOAD PUSH1 0x1 PUSH1 0x1 PUSH1 0xA0 SHL SUB NOT AND PUSH1 0x1 PUSH1 0x1 PUSH1 0xA0 SHL SUB SWAP1 SWAP4 AND SWAP3 SWAP1 SWAP3 OR SWAP1 SWAP2 SSTORE PUSH1 0xD SLOAD PUSH2 0x1476 SWAP1 PUSH1 0x1 SWAP1 PUSH2 0x233E JUMP JUMPDEST DUP2 MSTORE PUSH1 0x20 DUP2 ADD SWAP2 SWAP1 SWAP2 MSTORE PUSH1 0x40 ADD PUSH1 0x0 KECCAK256 DUP1 SLOAD PUSH1 0x1 PUSH1 0x1 PUSH1 0xA0 SHL SUB NOT AND SWAP1 SSTORE PUSH1 0xD DUP1 SLOAD PUSH1 0x0 NOT ADD SWAP1 SSTORE PUSH2 0x14AB JUMP JUMPDEST PUSH1 0x1 ADD PUSH2 0x13E9 JUMP JUMPDEST POP PUSH1 0x40 MLOAD PUSH1 0x1 PUSH1 0x1 PUSH1 0xA0 SHL SUB DUP3 AND SWAP1 PUSH32 0xE1434E25D6611E0DB941968FDC97811C982AC1602E951637D206F5FDDA9DD8F1 SWAP1 PUSH1 0x0 SWAP1 LOG2 POP JUMP JUMPDEST PUSH2 0xCC1 DUP2 CALLER PUSH2 0x1AD2 JUMP JUMPDEST PUSH1 0x0 PUSH2 0x14F9 DUP4 DUP4 PUSH2 0xF97 JUMP JUMPDEST PUSH2 0x1579 JUMPI PUSH1 0x0 DUP4 DUP2 MSTORE PUSH1 0x6 PUSH1 0x20 SWAP1 DUP2 MSTORE PUSH1 0x40 DUP1 DUP4 KECCAK256 PUSH1 0x1 PUSH1 0x1 PUSH1 0xA0 SHL SUB DUP7 AND DUP5 MSTORE SWAP1 SWAP2 MSTORE SWAP1 KECCAK256 DUP1 SLOAD PUSH1 0xFF NOT AND PUSH1 0x1 OR SWAP1 SSTORE PUSH2 0x1531 CALLER SWAP1 JUMP JUMPDEST PUSH1 0x1 PUSH1 0x1 PUSH1 0xA0 SHL SUB AND DUP3 PUSH1 0x1 PUSH1 0x1 PUSH1 0xA0 SHL SUB AND DUP5 PUSH32 0x2F8788117E7EFF1D82E926EC794901D17C78024A50270940304540A733656F0D PUSH1 0x40 MLOAD PUSH1 0x40 MLOAD DUP1 SWAP2 SUB SWAP1 LOG4 POP PUSH1 0x1 PUSH2 0x835 JUMP JUMPDEST POP PUSH1 0x0 PUSH2 0x835 JUMP JUMPDEST PUSH1 0x5 SLOAD PUSH1 0xFF AND ISZERO PUSH2 0x15A5 JUMPI PUSH1 0x40 MLOAD PUSH4 0xD93C0665 PUSH1 0xE0 SHL DUP2 MSTORE PUSH1 0x4 ADD PUSH1 0x40 MLOAD DUP1 SWAP2 SUB SWAP1 REVERT JUMPDEST JUMP JUMPDEST PUSH1 0x0 ADDRESS PUSH1 0x1 PUSH1 0x1 PUSH1 0xA0 SHL SUB PUSH32 0x0 AND EQ DUP1 ISZERO PUSH2 0x1600 JUMPI POP PUSH32 0x0 CHAINID EQ JUMPDEST ISZERO PUSH2 0x162A JUMPI POP PUSH32 0x0 SWAP1 JUMP JUMPDEST PUSH2 0xC52 PUSH1 0x40 DUP1 MLOAD PUSH32 0x8B73C3C69BB8FE3D512ECC4CF759CC79239F7B179B0FFACAA9A75D522B39400F PUSH1 0x20 DUP3 ADD MSTORE PUSH32 0x0 SWAP2 DUP2 ADD SWAP2 SWAP1 SWAP2 MSTORE PUSH32 0x0 PUSH1 0x60 DUP3 ADD MSTORE CHAINID PUSH1 0x80 DUP3 ADD MSTORE ADDRESS PUSH1 0xA0 DUP3 ADD MSTORE PUSH1 0x0 SWAP1 PUSH1 0xC0 ADD PUSH1 0x40 MLOAD PUSH1 0x20 DUP2 DUP4 SUB SUB DUP2 MSTORE SWAP1 PUSH1 0x40 MSTORE DUP1 MLOAD SWAP1 PUSH1 0x20 ADD KECCAK256 SWAP1 POP SWAP1 JUMP JUMPDEST PUSH1 0x0 PUSH2 0x16DE DUP4 DUP4 PUSH2 0xF97 JUMP JUMPDEST ISZERO PUSH2 0x1579 JUMPI PUSH1 0x0 DUP4 DUP2 MSTORE PUSH1 0x6 PUSH1 0x20 SWAP1 DUP2 MSTORE PUSH1 0x40 DUP1 DUP4 KECCAK256 PUSH1 0x1 PUSH1 0x1 PUSH1 0xA0 SHL SUB DUP7 AND DUP1 DUP6 MSTORE SWAP3 MSTORE DUP1 DUP4 KECCAK256 DUP1 SLOAD PUSH1 0xFF NOT AND SWAP1 SSTORE MLOAD CALLER SWAP3 DUP7 SWAP2 PUSH32 0xF6391F5C32D9C69D2A47EA670B442974B53935D1EDC7FD64EB21E047A839171B SWAP2 SWAP1 LOG4 POP PUSH1 0x1 PUSH2 0x835 JUMP JUMPDEST PUSH2 0x1747 PUSH2 0x1B0B JUMP JUMPDEST PUSH1 0x5 DUP1 SLOAD PUSH1 0xFF NOT AND SWAP1 SSTORE PUSH32 0x5DB9EE0A495BF2E6FF9C91A7834C1BA4FDD244A5E8AA4E537BD38AEAE4B073AA CALLER JUMPDEST PUSH1 0x40 MLOAD PUSH1 0x1 PUSH1 0x1 PUSH1 0xA0 SHL SUB SWAP1 SWAP2 AND DUP2 MSTORE PUSH1 0x20 ADD PUSH1 0x40 MLOAD DUP1 SWAP2 SUB SWAP1 LOG1 JUMP JUMPDEST PUSH1 0x1 PUSH1 0x1 PUSH1 0xA0 SHL SUB DUP3 AND PUSH2 0x17BB JUMPI PUSH1 0x40 MLOAD PUSH4 0x4B637E8F PUSH1 0xE1 SHL DUP2 MSTORE PUSH1 0x0 PUSH1 0x4 DUP3 ADD MSTORE PUSH1 0x24 ADD PUSH2 0x95E JUMP JUMPDEST PUSH2 0xCE3 DUP3 PUSH1 0x0 DUP4 PUSH2 0x1ABF JUMP JUMPDEST PUSH2 0x17CF PUSH2 0x1581 JUMP JUMPDEST PUSH1 0x5 DUP1 SLOAD PUSH1 0xFF NOT AND PUSH1 0x1 OR SWAP1 SSTORE PUSH32 0x62E78CEA01BEE320CD4E420270B5EA74000D11B0C9F74754EBDBFC544B05A258 PUSH2 0x1774 CALLER SWAP1 JUMP JUMPDEST PUSH1 0x60 PUSH2 0xC52 PUSH32 0x0 PUSH1 0x7 PUSH2 0x1B2E JUMP JUMPDEST PUSH1 0x60 PUSH2 0xC52 PUSH32 0x0 PUSH1 0x8 PUSH2 0x1B2E JUMP JUMPDEST PUSH1 0x40 DUP1 MLOAD PUSH1 0x80 DUP2 ADD DUP3 MSTORE PUSH1 0x1 PUSH1 0x1 PUSH1 0xA0 SHL SUB DUP1 DUP5 AND PUSH1 0x0 DUP2 DUP2 MSTORE PUSH1 0xA PUSH1 0x20 SWAP1 DUP2 MSTORE DUP6 DUP3 KECCAK256 SLOAD PUSH1 0x1 PUSH1 0x1 PUSH1 0x80 SHL SUB SWAP1 DUP2 AND DUP7 MSTORE PUSH1 0x64 DUP3 DUP8 ADD SWAP1 DUP2 MSTORE PUSH1 0x1 DUP8 DUP10 ADD DUP2 DUP2 MSTORE PUSH1 0x60 DUP10 ADD DUP8 DUP2 MSTORE DUP8 DUP8 MSTORE PUSH1 0xB DUP7 MSTORE DUP11 DUP8 KECCAK256 SWAP10 MLOAD DUP11 SLOAD SWAP5 MLOAD SWAP3 MLOAD ISZERO ISZERO PUSH1 0x1 PUSH1 0xC0 SHL MUL PUSH1 0xFF PUSH1 0xC0 SHL NOT PUSH1 0x1 PUSH1 0x1 PUSH1 0x40 SHL SUB SWAP5 SWAP1 SWAP5 AND PUSH1 0x1 PUSH1 0x80 SHL MUL PUSH1 0x1 PUSH1 0x1 PUSH1 0xC0 SHL SUB NOT SWAP1 SWAP7 AND SWAP2 SWAP1 SWAP7 AND OR SWAP4 SWAP1 SWAP4 OR AND SWAP3 SWAP1 SWAP3 OR DUP8 SSTORE MLOAD SWAP6 DUP2 ADD DUP1 SLOAD SWAP7 SWAP1 SWAP6 AND PUSH1 0x1 PUSH1 0x1 PUSH1 0xA0 SHL SUB NOT SWAP7 DUP8 AND OR SWAP1 SWAP5 SSTORE PUSH1 0xD DUP1 SLOAD DUP4 MSTORE PUSH1 0xC SWAP1 SWAP2 MSTORE DUP6 DUP3 KECCAK256 DUP1 SLOAD SWAP1 SWAP6 AND DUP4 OR SWAP1 SWAP5 SSTORE DUP4 SLOAD SWAP1 SWAP3 ADD SWAP1 SWAP3 SSTORE SWAP2 MLOAD SWAP1 SWAP2 PUSH32 0xD09501348473474A20C772C79C653E1FD7E8B437E418FE235D277D2C88853251 SWAP2 LOG2 POP JUMP JUMPDEST PUSH1 0x1 PUSH1 0x1 PUSH1 0xA0 SHL SUB DUP3 AND PUSH2 0x1983 JUMPI PUSH1 0x40 MLOAD PUSH4 0xEC442F05 PUSH1 0xE0 SHL DUP2 MSTORE PUSH1 0x0 PUSH1 0x4 DUP3 ADD MSTORE PUSH1 0x24 ADD PUSH2 0x95E JUMP JUMPDEST PUSH2 0xCE3 PUSH1 0x0 DUP4 DUP4 PUSH2 0x1ABF JUMP JUMPDEST PUSH1 0x0 PUSH2 0x835 PUSH2 0x199C PUSH2 0x15A7 JUMP JUMPDEST DUP4 PUSH1 0x40 MLOAD PUSH2 0x1901 PUSH1 0xF0 SHL DUP2 MSTORE PUSH1 0x2 DUP2 ADD SWAP3 SWAP1 SWAP3 MSTORE PUSH1 0x22 DUP3 ADD MSTORE PUSH1 0x42 SWAP1 KECCAK256 SWAP1 JUMP JUMPDEST PUSH1 0x0 DUP1 PUSH1 0x0 DUP1 PUSH2 0x19CE DUP9 DUP9 DUP9 DUP9 PUSH2 0x1BD9 JUMP JUMPDEST SWAP3 POP SWAP3 POP SWAP3 POP PUSH2 0x19DE DUP3 DUP3 PUSH2 0x1CA8 JUMP JUMPDEST POP SWAP1 SWAP7 SWAP6 POP POP POP POP POP POP JUMP JUMPDEST PUSH1 0x1 PUSH1 0x1 PUSH1 0xA0 SHL SUB DUP5 AND PUSH2 0x1A14 JUMPI PUSH1 0x40 MLOAD PUSH4 0xE602DF05 PUSH1 0xE0 SHL DUP2 MSTORE PUSH1 0x0 PUSH1 0x4 DUP3 ADD MSTORE PUSH1 0x24 ADD PUSH2 0x95E JUMP JUMPDEST PUSH1 0x1 PUSH1 0x1 PUSH1 0xA0 SHL SUB DUP4 AND PUSH2 0x1A3E JUMPI PUSH1 0x40 MLOAD PUSH4 0x4A1406B1 PUSH1 0xE1 SHL DUP2 MSTORE PUSH1 0x0 PUSH1 0x4 DUP3 ADD MSTORE PUSH1 0x24 ADD PUSH2 0x95E JUMP JUMPDEST PUSH1 0x1 PUSH1 0x1 PUSH1 0xA0 SHL SUB DUP1 DUP6 AND PUSH1 0x0 SWAP1 DUP2 MSTORE PUSH1 0x1 PUSH1 0x20 SWAP1 DUP2 MSTORE PUSH1 0x40 DUP1 DUP4 KECCAK256 SWAP4 DUP8 AND DUP4 MSTORE SWAP3 SWAP1 MSTORE KECCAK256 DUP3 SWAP1 SSTORE DUP1 ISZERO PUSH2 0xAC4 JUMPI DUP3 PUSH1 0x1 PUSH1 0x1 PUSH1 0xA0 SHL SUB AND DUP5 PUSH1 0x1 PUSH1 0x1 PUSH1 0xA0 SHL SUB AND PUSH32 0x8C5BE1E5EBEC7D5BD14F71427D1E84F3DD0314C0F7B2291E5B200AC8C7C3B925 DUP5 PUSH1 0x40 MLOAD PUSH2 0x1AB1 SWAP2 DUP2 MSTORE PUSH1 0x20 ADD SWAP1 JUMP JUMPDEST PUSH1 0x40 MLOAD DUP1 SWAP2 SUB SWAP1 LOG3 POP POP POP POP JUMP JUMPDEST PUSH2 0x1AC7 PUSH2 0x1581 JUMP JUMPDEST PUSH2 0xC8A DUP4 DUP4 DUP4 PUSH2 0x1D61 JUMP JUMPDEST PUSH2 0x1ADC DUP3 DUP3 PUSH2 0xF97 JUMP JUMPDEST PUSH2 0xCE3 JUMPI PUSH1 0x40 MLOAD PUSH4 0xE2517D3F PUSH1 0xE0 SHL DUP2 MSTORE PUSH1 0x1 PUSH1 0x1 PUSH1 0xA0 SHL SUB DUP3 AND PUSH1 0x4 DUP3 ADD MSTORE PUSH1 0x24 DUP2 ADD DUP4 SWAP1 MSTORE PUSH1 0x44 ADD PUSH2 0x95E JUMP JUMPDEST PUSH1 0x5 SLOAD PUSH1 0xFF AND PUSH2 0x15A5 JUMPI PUSH1 0x40 MLOAD PUSH4 0x8DFC202B PUSH1 0xE0 SHL DUP2 MSTORE PUSH1 0x4 ADD PUSH1 0x40 MLOAD DUP1 SWAP2 SUB SWAP1 REVERT JUMPDEST PUSH1 0x60 PUSH1 0xFF DUP4 EQ PUSH2 0x1B48 JUMPI PUSH2 0x1B41 DUP4 PUSH2 0x1E8B JUMP JUMPDEST SWAP1 POP PUSH2 0x835 JUMP JUMPDEST DUP2 DUP1 SLOAD PUSH2 0x1B54 SWAP1 PUSH2 0x2281 JUMP JUMPDEST DUP1 PUSH1 0x1F ADD PUSH1 0x20 DUP1 SWAP2 DIV MUL PUSH1 0x20 ADD PUSH1 0x40 MLOAD SWAP1 DUP2 ADD PUSH1 0x40 MSTORE DUP1 SWAP3 SWAP2 SWAP1 DUP2 DUP2 MSTORE PUSH1 0x20 ADD DUP3 DUP1 SLOAD PUSH2 0x1B80 SWAP1 PUSH2 0x2281 JUMP JUMPDEST DUP1 ISZERO PUSH2 0x1BCD JUMPI DUP1 PUSH1 0x1F LT PUSH2 0x1BA2 JUMPI PUSH2 0x100 DUP1 DUP4 SLOAD DIV MUL DUP4 MSTORE SWAP2 PUSH1 0x20 ADD SWAP2 PUSH2 0x1BCD JUMP JUMPDEST DUP3 ADD SWAP2 SWAP1 PUSH1 0x0 MSTORE PUSH1 0x20 PUSH1 0x0 KECCAK256 SWAP1 JUMPDEST DUP2 SLOAD DUP2 MSTORE SWAP1 PUSH1 0x1 ADD SWAP1 PUSH1 0x20 ADD DUP1 DUP4 GT PUSH2 0x1BB0 JUMPI DUP3 SWAP1 SUB PUSH1 0x1F AND DUP3 ADD SWAP2 JUMPDEST POP POP POP POP POP SWAP1 POP PUSH2 0x835 JUMP JUMPDEST PUSH1 0x0 DUP1 DUP1 PUSH32 0x7FFFFFFFFFFFFFFFFFFFFFFFFFFFFFFF5D576E7357A4501DDFE92F46681B20A0 DUP5 GT ISZERO PUSH2 0x1C14 JUMPI POP PUSH1 0x0 SWAP2 POP PUSH1 0x3 SWAP1 POP DUP3 PUSH2 0x1C9E JUMP JUMPDEST PUSH1 0x40 DUP1 MLOAD PUSH1 0x0 DUP1 DUP3 MSTORE PUSH1 0x20 DUP3 ADD DUP1 DUP5 MSTORE DUP11 SWAP1 MSTORE PUSH1 0xFF DUP10 AND SWAP3 DUP3 ADD SWAP3 SWAP1 SWAP3 MSTORE PUSH1 0x60 DUP2 ADD DUP8 SWAP1 MSTORE PUSH1 0x80 DUP2 ADD DUP7 SWAP1 MSTORE PUSH1 0x1 SWAP1 PUSH1 0xA0 ADD PUSH1 0x20 PUSH1 0x40 MLOAD PUSH1 0x20 DUP2 SUB SWAP1 DUP1 DUP5 SUB SWAP1 DUP6 GAS STATICCALL ISZERO DUP1 ISZERO PUSH2 0x1C68 JUMPI RETURNDATASIZE PUSH1 0x0 DUP1 RETURNDATACOPY RETURNDATASIZE PUSH1 0x0 REVERT JUMPDEST POP POP PUSH1 0x40 MLOAD PUSH1 0x1F NOT ADD MLOAD SWAP2 POP POP PUSH1 0x1 PUSH1 0x1 PUSH1 0xA0 SHL SUB DUP2 AND PUSH2 0x1C94 JUMPI POP PUSH1 0x0 SWAP3 POP PUSH1 0x1 SWAP2 POP DUP3 SWAP1 POP PUSH2 0x1C9E JUMP JUMPDEST SWAP3 POP PUSH1 0x0 SWAP2 POP DUP2 SWAP1 POP JUMPDEST SWAP5 POP SWAP5 POP SWAP5 SWAP2 POP POP JUMP JUMPDEST PUSH1 0x0 DUP3 PUSH1 0x3 DUP2 GT ISZERO PUSH2 0x1CBC JUMPI PUSH2 0x1CBC PUSH2 0x2351 JUMP JUMPDEST SUB PUSH2 0x1CC5 JUMPI POP POP JUMP JUMPDEST PUSH1 0x1 DUP3 PUSH1 0x3 DUP2 GT ISZERO PUSH2 0x1CD9 JUMPI PUSH2 0x1CD9 PUSH2 0x2351 JUMP JUMPDEST SUB PUSH2 0x1CF7 JUMPI PUSH1 0x40 MLOAD PUSH4 0xF645EEDF PUSH1 0xE0 SHL DUP2 MSTORE PUSH1 0x4 ADD PUSH1 0x40 MLOAD DUP1 SWAP2 SUB SWAP1 REVERT JUMPDEST PUSH1 0x2 DUP3 PUSH1 0x3 DUP2 GT ISZERO PUSH2 0x1D0B JUMPI PUSH2 0x1D0B PUSH2 0x2351 JUMP JUMPDEST SUB PUSH2 0x1D2C JUMPI PUSH1 0x40 MLOAD PUSH4 0xFCE698F7 PUSH1 0xE0 SHL DUP2 MSTORE PUSH1 0x4 DUP2 ADD DUP3 SWAP1 MSTORE PUSH1 0x24 ADD PUSH2 0x95E JUMP JUMPDEST PUSH1 0x3 DUP3 PUSH1 0x3 DUP2 GT ISZERO PUSH2 0x1D40 JUMPI PUSH2 0x1D40 PUSH2 0x2351 JUMP JUMPDEST SUB PUSH2 0xCE3 JUMPI PUSH1 0x40 MLOAD PUSH4 0x35E2F383 PUSH1 0xE2 SHL DUP2 MSTORE PUSH1 0x4 DUP2 ADD DUP3 SWAP1 MSTORE PUSH1 0x24 ADD PUSH2 0x95E JUMP JUMPDEST PUSH1 0x1 PUSH1 0x1 PUSH1 0xA0 SHL SUB DUP4 AND PUSH2 0x1D8C JUMPI DUP1 PUSH1 0x2 PUSH1 0x0 DUP3 DUP3 SLOAD PUSH2 0x1D81 SWAP2 SWAP1 PUSH2 0x2367 JUMP JUMPDEST SWAP1 SWAP2 SSTORE POP PUSH2 0x1DFE SWAP1 POP JUMP JUMPDEST PUSH1 0x1 PUSH1 0x1 PUSH1 0xA0 SHL SUB DUP4 AND PUSH1 0x0 SWAP1 DUP2 MSTORE PUSH1 0x20 DUP2 SWAP1 MSTORE PUSH1 0x40 SWAP1 KECCAK256 SLOAD DUP2 DUP2 LT ISZERO PUSH2 0x1DDF JUMPI PUSH1 0x40 MLOAD PUSH4 0x391434E3 PUSH1 0xE2 SHL DUP2 MSTORE PUSH1 0x1 PUSH1 0x1 PUSH1 0xA0 SHL SUB DUP6 AND PUSH1 0x4 DUP3 ADD MSTORE PUSH1 0x24 DUP2 ADD DUP3 SWAP1 MSTORE PUSH1 0x44 DUP2 ADD DUP4 SWAP1 MSTORE PUSH1 0x64 ADD PUSH2 0x95E JUMP JUMPDEST PUSH1 0x1 PUSH1 0x1 PUSH1 0xA0 SHL SUB DUP5 AND PUSH1 0x0 SWAP1 DUP2 MSTORE PUSH1 0x20 DUP2 SWAP1 MSTORE PUSH1 0x40 SWAP1 KECCAK256 SWAP1 DUP3 SWAP1 SUB SWAP1 SSTORE JUMPDEST PUSH1 0x1 PUSH1 0x1 PUSH1 0xA0 SHL SUB DUP3 AND PUSH2 0x1E1A JUMPI PUSH1 0x2 DUP1 SLOAD DUP3 SWAP1 SUB SWAP1 SSTORE PUSH2 0x1E39 JUMP JUMPDEST PUSH1 0x1 PUSH1 0x1 PUSH1 0xA0 SHL SUB DUP3 AND PUSH1 0x0 SWAP1 DUP2 MSTORE PUSH1 0x20 DUP2 SWAP1 MSTORE PUSH1 0x40 SWAP1 KECCAK256 DUP1 SLOAD DUP3 ADD SWAP1 SSTORE JUMPDEST DUP2 PUSH1 0x1 PUSH1 0x1 PUSH1 0xA0 SHL SUB AND DUP4 PUSH1 0x1 PUSH1 0x1 PUSH1 0xA0 SHL SUB AND PUSH32 0xDDF252AD1BE2C89B69C2B068FC378DAA952BA7F163C4A11628F55A4DF523B3EF DUP4 PUSH1 0x40 MLOAD PUSH2 0x1E7E SWAP2 DUP2 MSTORE PUSH1 0x20 ADD SWAP1 JUMP JUMPDEST PUSH1 0x40 MLOAD DUP1 SWAP2 SUB SWAP1 LOG3 POP POP POP JUMP JUMPDEST PUSH1 0x60 PUSH1 0x0 PUSH2 0x1E98 DUP4 PUSH2 0x1ECA JUMP JUMPDEST PUSH1 0x40 DUP1 MLOAD PUSH1 0x20 DUP1 DUP3 MSTORE DUP2 DUP4 ADD SWAP1 SWAP3 MSTORE SWAP2 SWAP3 POP PUSH1 0x0 SWAP2 SWAP1 PUSH1 0x20 DUP3 ADD DUP2 DUP1 CALLDATASIZE DUP4 CALLDATACOPY POP POP POP SWAP2 DUP3 MSTORE POP PUSH1 0x20 DUP2 ADD SWAP3 SWAP1 SWAP3 MSTORE POP SWAP1 JUMP JUMPDEST PUSH1 0x0 PUSH1 0xFF DUP3 AND PUSH1 0x1F DUP2 GT ISZERO PUSH2 0x835 JUMPI PUSH1 0x40 MLOAD PUSH4 0x2CD44AC3 PUSH1 0xE2 SHL DUP2 MSTORE PUSH1 0x4 ADD PUSH1 0x40 MLOAD DUP1 SWAP2 SUB SWAP1 REVERT JUMPDEST PUSH1 0x0 PUSH1 0x20 DUP3 DUP5 SUB SLT ISZERO PUSH2 0x1F04 JUMPI PUSH1 0x0 DUP1 REVERT JUMPDEST DUP2 CALLDATALOAD PUSH1 0x1 PUSH1 0x1 PUSH1 0xE0 SHL SUB NOT DUP2 AND DUP2 EQ PUSH2 0x1F1C JUMPI PUSH1 0x0 DUP1 REVERT JUMPDEST SWAP4 SWAP3 POP POP POP JUMP JUMPDEST PUSH1 0x0 DUP2 MLOAD DUP1 DUP5 MSTORE PUSH1 0x0 JUMPDEST DUP2 DUP2 LT ISZERO PUSH2 0x1F49 JUMPI PUSH1 0x20 DUP2 DUP6 ADD DUP2 ADD MLOAD DUP7 DUP4 ADD DUP3 ADD MSTORE ADD PUSH2 0x1F2D JUMP JUMPDEST POP PUSH1 0x0 PUSH1 0x20 DUP3 DUP7 ADD ADD MSTORE PUSH1 0x20 PUSH1 0x1F NOT PUSH1 0x1F DUP4 ADD AND DUP6 ADD ADD SWAP2 POP POP SWAP3 SWAP2 POP POP JUMP JUMPDEST PUSH1 0x20 DUP2 MSTORE PUSH1 0x0 PUSH2 0x1F1C PUSH1 0x20 DUP4 ADD DUP5 PUSH2 0x1F23 JUMP JUMPDEST DUP1 CALLDATALOAD PUSH1 0x1 PUSH1 0x1 PUSH1 0xA0 SHL SUB DUP2 AND DUP2 EQ PUSH2 0x1F93 JUMPI PUSH1 0x0 DUP1 REVERT JUMPDEST SWAP2 SWAP1 POP JUMP JUMPDEST PUSH1 0x0 PUSH1 0x20 DUP3 DUP5 SUB SLT ISZERO PUSH2 0x1FAA JUMPI PUSH1 0x0 DUP1 REVERT JUMPDEST PUSH2 0x1F1C DUP3 PUSH2 0x1F7C JUMP JUMPDEST PUSH1 0x0 DUP1 PUSH1 0x40 DUP4 DUP6 SUB SLT ISZERO PUSH2 0x1FC6 JUMPI PUSH1 0x0 DUP1 REVERT JUMPDEST PUSH2 0x1FCF DUP4 PUSH2 0x1F7C JUMP JUMPDEST SWAP5 PUSH1 0x20 SWAP4 SWAP1 SWAP4 ADD CALLDATALOAD SWAP4 POP POP POP JUMP JUMPDEST PUSH1 0x0 DUP1 PUSH1 0x0 PUSH1 0x60 DUP5 DUP7 SUB SLT ISZERO PUSH2 0x1FF2 JUMPI PUSH1 0x0 DUP1 REVERT JUMPDEST PUSH2 0x1FFB DUP5 PUSH2 0x1F7C JUMP JUMPDEST SWAP3 POP PUSH2 0x2009 PUSH1 0x20 DUP6 ADD PUSH2 0x1F7C JUMP JUMPDEST SWAP2 POP PUSH1 0x40 DUP5 ADD CALLDATALOAD SWAP1 POP SWAP3 POP SWAP3 POP SWAP3 JUMP JUMPDEST PUSH1 0x0 PUSH1 0x20 DUP3 DUP5 SUB SLT ISZERO PUSH2 0x202B JUMPI PUSH1 0x0 DUP1 REVERT JUMPDEST POP CALLDATALOAD SWAP2 SWAP1 POP JUMP JUMPDEST PUSH1 0x0 DUP1 PUSH1 0x40 DUP4 DUP6 SUB SLT ISZERO PUSH2 0x2045 JUMPI PUSH1 0x0 DUP1 REVERT JUMPDEST DUP3 CALLDATALOAD SWAP2 POP PUSH2 0x2055 PUSH1 0x20 DUP5 ADD PUSH2 0x1F7C JUMP JUMPDEST SWAP1 POP SWAP3 POP SWAP3 SWAP1 POP JUMP JUMPDEST DUP1 CALLDATALOAD PUSH1 0x1 PUSH1 0x1 PUSH1 0x80 SHL SUB DUP2 AND DUP2 EQ PUSH2 0x1F93 JUMPI PUSH1 0x0 DUP1 REVERT JUMPDEST PUSH1 0x0 DUP1 PUSH1 0x0 PUSH1 0x60 DUP5 DUP7 SUB SLT ISZERO PUSH2 0x208A JUMPI PUSH1 0x0 DUP1 REVERT JUMPDEST PUSH2 0x2093 DUP5 PUSH2 0x1F7C JUMP JUMPDEST SWAP3 POP PUSH2 0x20A1 PUSH1 0x20 DUP6 ADD PUSH2 0x205E JUMP JUMPDEST SWAP2 POP PUSH1 0x40 DUP5 ADD CALLDATALOAD PUSH1 0x1 PUSH1 0x1 PUSH1 0x40 SHL SUB DUP2 AND DUP2 EQ PUSH2 0x20BD JUMPI PUSH1 0x0 DUP1 REVERT JUMPDEST DUP1 SWAP2 POP POP SWAP3 POP SWAP3 POP SWAP3 JUMP JUMPDEST PUSH1 0xFF PUSH1 0xF8 SHL DUP9 AND DUP2 MSTORE PUSH1 0x0 PUSH1 0x20 PUSH1 0xE0 DUP2 DUP5 ADD MSTORE PUSH2 0x20E8 PUSH1 0xE0 DUP5 ADD DUP11 PUSH2 0x1F23 JUMP JUMPDEST DUP4 DUP2 SUB PUSH1 0x40 DUP6 ADD MSTORE PUSH2 0x20FA DUP2 DUP11 PUSH2 0x1F23 JUMP JUMPDEST PUSH1 0x60 DUP6 ADD DUP10 SWAP1 MSTORE PUSH1 0x1 PUSH1 0x1 PUSH1 0xA0 SHL SUB DUP9 AND PUSH1 0x80 DUP7 ADD MSTORE PUSH1 0xA0 DUP6 ADD DUP8 SWAP1 MSTORE DUP5 DUP2 SUB PUSH1 0xC0 DUP7 ADD MSTORE DUP6 MLOAD DUP1 DUP3 MSTORE DUP4 DUP8 ADD SWAP3 POP SWAP1 DUP4 ADD SWAP1 PUSH1 0x0 JUMPDEST DUP2 DUP2 LT ISZERO PUSH2 0x214C JUMPI DUP4 MLOAD DUP4 MSTORE SWAP3 DUP5 ADD SWAP3 SWAP2 DUP5 ADD SWAP2 PUSH1 0x1 ADD PUSH2 0x2130 JUMP JUMPDEST POP SWAP1 SWAP13 SWAP12 POP POP POP POP POP POP POP POP POP POP POP POP JUMP JUMPDEST PUSH1 0x0 PUSH1 0x20 DUP3 DUP5 SUB SLT ISZERO PUSH2 0x2170 JUMPI PUSH1 0x0 DUP1 REVERT JUMPDEST PUSH2 0x1F1C DUP3 PUSH2 0x205E JUMP JUMPDEST PUSH1 0x0 DUP1 PUSH1 0x40 DUP4 DUP6 SUB SLT ISZERO PUSH2 0x218C JUMPI PUSH1 0x0 DUP1 REVERT JUMPDEST PUSH2 0x2195 DUP4 PUSH2 0x1F7C JUMP JUMPDEST SWAP2 POP PUSH2 0x2055 PUSH1 0x20 DUP5 ADD PUSH2 0x205E JUMP JUMPDEST PUSH1 0x20 DUP1 DUP3 MSTORE DUP3 MLOAD DUP3 DUP3 ADD DUP2 SWAP1 MSTORE PUSH1 0x0 SWAP2 SWAP1 DUP5 DUP3 ADD SWAP1 PUSH1 0x40 DUP6 ADD SWAP1 DUP5 JUMPDEST DUP2 DUP2 LT ISZERO PUSH2 0x19DE JUMPI DUP4 MLOAD PUSH1 0x1 PUSH1 0x1 PUSH1 0xA0 SHL SUB AND DUP4 MSTORE SWAP3 DUP5 ADD SWAP3 SWAP2 DUP5 ADD SWAP2 PUSH1 0x1 ADD PUSH2 0x21BF JUMP JUMPDEST PUSH1 0x0 DUP1 PUSH1 0x0 DUP1 PUSH1 0x0 DUP1 PUSH1 0x0 PUSH1 0xE0 DUP9 DUP11 SUB SLT ISZERO PUSH2 0x21FF JUMPI PUSH1 0x0 DUP1 REVERT JUMPDEST PUSH2 0x2208 DUP9 PUSH2 0x1F7C JUMP JUMPDEST SWAP7 POP PUSH2 0x2216 PUSH1 0x20 DUP10 ADD PUSH2 0x1F7C JUMP JUMPDEST SWAP6 POP PUSH1 0x40 DUP9 ADD CALLDATALOAD SWAP5 POP PUSH1 0x60 DUP9 ADD CALLDATALOAD SWAP4 POP PUSH1 0x80 DUP9 ADD CALLDATALOAD PUSH1 0xFF DUP2 AND DUP2 EQ PUSH2 0x223A JUMPI PUSH1 0x0 DUP1 REVERT JUMPDEST SWAP7 SWAP10 SWAP6 SWAP9 POP SWAP4 SWAP7 SWAP3 SWAP6 SWAP5 PUSH1 0xA0 DUP5 ADD CALLDATALOAD SWAP5 POP PUSH1 0xC0 SWAP1 SWAP4 ADD CALLDATALOAD SWAP3 SWAP2 POP POP JUMP JUMPDEST PUSH1 0x0 DUP1 PUSH1 0x40 DUP4 DUP6 SUB SLT ISZERO PUSH2 0x226A JUMPI PUSH1 0x0 DUP1 REVERT JUMPDEST PUSH2 0x2273 DUP4 PUSH2 0x1F7C JUMP JUMPDEST SWAP2 POP PUSH2 0x2055 PUSH1 0x20 DUP5 ADD PUSH2 0x1F7C JUMP JUMPDEST PUSH1 0x1 DUP2 DUP2 SHR SWAP1 DUP3 AND DUP1 PUSH2 0x2295 JUMPI PUSH1 0x7F DUP3 AND SWAP2 POP JUMPDEST PUSH1 0x20 DUP3 LT DUP2 SUB PUSH2 0x117C JUMPI PUSH4 0x4E487B71 PUSH1 0xE0 SHL PUSH1 0x0 MSTORE PUSH1 0x22 PUSH1 0x4 MSTORE PUSH1 0x24 PUSH1 0x0 REVERT JUMPDEST PUSH4 0x4E487B71 PUSH1 0xE0 SHL PUSH1 0x0 MSTORE PUSH1 0x11 PUSH1 0x4 MSTORE PUSH1 0x24 PUSH1 0x0 REVERT JUMPDEST PUSH1 0x1 PUSH1 0x1 PUSH1 0x40 SHL SUB DUP2 DUP2 AND DUP4 DUP3 AND ADD SWAP1 DUP1 DUP3 GT ISZERO PUSH2 0x22EB JUMPI PUSH2 0x22EB PUSH2 0x22B5 JUMP JUMPDEST POP SWAP3 SWAP2 POP POP JUMP JUMPDEST PUSH4 0x4E487B71 PUSH1 0xE0 SHL PUSH1 0x0 MSTORE PUSH1 0x41 PUSH1 0x4 MSTORE PUSH1 0x24 PUSH1 0x0 REVERT JUMPDEST PUSH1 0x1 PUSH1 0x1 PUSH1 0x80 SHL SUB DUP2 DUP2 AND DUP4 DUP3 AND ADD SWAP1 DUP1 DUP3 GT ISZERO PUSH2 0x22EB JUMPI PUSH2 0x22EB PUSH2 0x22B5 JUMP JUMPDEST PUSH4 0x4E487B71 PUSH1 0xE0 SHL PUSH1 0x0 MSTORE PUSH1 0x32 PUSH1 0x4 MSTORE PUSH1 0x24 PUSH1 0x0 REVERT JUMPDEST DUP2 DUP2 SUB DUP2 DUP2 GT ISZERO PUSH2 0x835 JUMPI PUSH2 0x835 PUSH2 0x22B5 JUMP JUMPDEST PUSH4 0x4E487B71 PUSH1 0xE0 SHL PUSH1 0x0 MSTORE PUSH1 0x21 PUSH1 0x4 MSTORE PUSH1 0x24 PUSH1 0x0 REVERT JUMPDEST DUP1 DUP3 ADD DUP1 DUP3 GT ISZERO PUSH2 0x835 JUMPI PUSH2 0x835 PUSH2 0x22B5 JUMP INVALID LOG2 PUSH5 0x6970667358 0x22 SLT KECCAK256 0xDB 0xC3 0x25 0xCC 0xD9 0xEF NOT 0xC6 SWAP3 BASEFEE DUP14 SWAP9 PUSH25 0x1192F5882931873D91DD3BF7D476266084590764736F6C6343 STOP ADDMOD EQ STOP CALLER "},"methodIdentifiers":{"DEFAULT_ADMIN_ROLE()":"a217fddf","DOMAIN_SEPARATOR()":"3644e515","MINIMUM_STAKE()":"08dbbb03","MINTER_ROLE()":"d5391393","PAUSER_ROLE()":"e63ab1e9","STAKE_LOCK_PERIOD()":"1932526d","STAKING_ROLE()":"91052816","VALIDATOR_THRESHOLD()":"7a6eea37","allocateBandwidth(address,uint128,uint64)":"34d87341","allowance(address,address)":"dd62ed3e","approve(address,uint256)":"095ea7b3","balanceOf(address)":"70a08231","bandwidthAllocations(address)":"0933baa9","burn(uint256)":"42966c68","burnFrom(address,uint256)":"79cc6790","decimals()":"313ce567","distributeRewards(address,uint128)":"a8a09ac3","eip712Domain()":"84b0196e","getBandwidthAllocation(address)":"f8d8aa72","getRoleAdmin(bytes32)":"248a9ca3","getValidatorInfo(address)":"8a11d7c9","getValidators()":"b7ab4db5","grantRole(bytes32,address)":"2f2ff15d","hasRole(bytes32,address)":"91d14854","name()":"06fdde03","nonces(address)":"7ecebe00","pause()":"8456cb59","paused()":"5c975abb","permit(address,address,uint256,uint256,uint8,bytes32,bytes32)":"d505accf","renounceRole(bytes32,address)":"36568abe","revokeRole(bytes32,address)":"d547741f","stake(uint128)":"88fe2be8","stakes(address)":"16934fc4","supportsInterface(bytes4)":"01ffc9a7","symbol()":"95d89b41","totalStaked()":"817b1cd2","totalSupply()":"18160ddd","transfer(address,uint256)":"a9059cbb","transferFrom(address,address,uint256)":"23b872dd","unpause()":"3f4ba83a","unstake()":"2def6620","validatorCount()":"0f43a677","validators(address)":"fa52c7d8"}}}}}