{
  "_format": "hh-sol-artifact-1",
  "contractName": "BandwidthMarket",
  "sourceName": "contracts/BandwidthMarket.sol",
  "abi": [
    {
      "inputs": [
        {
          "internalType": "address",
          "name": "_scoinAddress",
          "type": "address"
        }
      ],
      "stateMutability": "nonpayable",
      "type": "constructor"
    },
    {
      "inputs": [],
      "name": "AccessControlBadConfirmation",
      "type": "error"
    },
    {
      "inputs": [
        {
          "internalType": "address",
          "name": "account",
          "type": "address"
        },
        {
          "internalType": "bytes32",
          "name": "neededRole",
          "type": "bytes32"
        }
      ],
      "name": "AccessControlUnauthorizedAccount",
      "type": "error"
    },
    {
      "inputs": [],
      "name": "ReentrancyGuardReentrantCall",
      "type": "error"
    },
    {
      "anonymous": false,
      "inputs": [
        {
          "indexed": true,
          "internalType": "address",
          "name": "consumer",
          "type": "address"
        },
        {
          "indexed": true,
          "internalType": "address",
          "name": "provider",
          "type": "address"
        },
        {
          "indexed": false,
          "internalType": "uint256",
          "name": "amount",
          "type": "uint256"
        },
        {
          "indexed": false,
          "internalType": "uint256",
          "name": "price",
          "type": "uint256"
        }
      ],
      "name": "BandwidthPurchased",
      "type": "event"
    },
    {
      "anonymous": false,
      "inputs": [
        {
          "indexed": true,
          "internalType": "address",
          "name": "consumer",
          "type": "address"
        }
      ],
      "name": "ConsumerRegistered",
      "type": "event"
    },
    {
      "anonymous": false,
      "inputs": [
        {
          "indexed": true,
          "internalType": "address",
          "name": "provider",
          "type": "address"
        },
        {
          "indexed": false,
          "internalType": "string",
          "name": "ipfsNodeId",
          "type": "string"
        },
        {
          "indexed": false,
          "internalType": "uint256",
          "name": "bandwidth",
          "type": "uint256"
        },
        {
          "indexed": false,
          "internalType": "uint256",
          "name": "price",
          "type": "uint256"
        }
      ],
      "name": "ProviderRegistered",
      "type": "event"
    },
    {
      "anonymous": false,
      "inputs": [
        {
          "indexed": true,
          "internalType": "address",
          "name": "provider",
          "type": "address"
        },
        {
          "indexed": false,
          "internalType": "uint256",
          "name": "newReputation",
          "type": "uint256"
        }
      ],
      "name": "ReputationUpdated",
      "type": "event"
    },
    {
      "anonymous": false,
      "inputs": [
        {
          "indexed": true,
          "internalType": "bytes32",
          "name": "role",
          "type": "bytes32"
        },
        {
          "indexed": true,
          "internalType": "bytes32",
          "name": "previousAdminRole",
          "type": "bytes32"
        },
        {
          "indexed": true,
          "internalType": "bytes32",
          "name": "newAdminRole",
          "type": "bytes32"
        }
      ],
      "name": "RoleAdminChanged",
      "type": "event"
    },
    {
      "anonymous": false,
      "inputs": [
        {
          "indexed": true,
          "internalType": "bytes32",
          "name": "role",
          "type": "bytes32"
        },
        {
          "indexed": true,
          "internalType": "address",
          "name": "account",
          "type": "address"
        },
        {
          "indexed": true,
          "internalType": "address",
          "name": "sender",
          "type": "address"
        }
      ],
      "name": "RoleGranted",
      "type": "event"
    },
    {
      "anonymous": false,
      "inputs": [
        {
          "indexed": true,
          "internalType": "bytes32",
          "name": "role",
          "type": "bytes32"
        },
        {
          "indexed": true,
          "internalType": "address",
          "name": "account",
          "type": "address"
        },
        {
          "indexed": true,
          "internalType": "address",
          "name": "sender",
          "type": "address"
        }
      ],
      "name": "RoleRevoked",
      "type": "event"
    },
    {
      "inputs": [],
      "name": "ADMIN_ROLE",
      "outputs": [
        {
          "internalType": "bytes32",
          "name": "",
          "type": "bytes32"
        }
      ],
      "stateMutability": "view",
      "type": "function"
    },
    {
      "inputs": [],
      "name": "DEFAULT_ADMIN_ROLE",
      "outputs": [
        {
          "internalType": "bytes32",
          "name": "",
          "type": "bytes32"
        }
      ],
      "stateMutability": "view",
      "type": "function"
    },
    {
      "inputs": [
        {
          "internalType": "address",
          "name": "",
          "type": "address"
        }
      ],
      "name": "consumers",
      "outputs": [
        {
          "internalType": "bool",
          "name": "isRegistered",
          "type": "bool"
        },
        {
          "internalType": "uint256",
          "name": "totalSpent",
          "type": "uint256"
        }
      ],
      "stateMutability": "view",
      "type": "function"
    },
    {
      "inputs": [
        {
          "internalType": "address",
          "name": "consumer",
          "type": "address"
        },
        {
          "internalType": "address",
          "name": "provider",
          "type": "address"
        }
      ],
      "name": "getConsumerAllocation",
      "outputs": [
        {
          "internalType": "uint256",
          "name": "",
          "type": "uint256"
        }
      ],
      "stateMutability": "view",
      "type": "function"
    },
    {
      "inputs": [
        {
          "internalType": "address",
          "name": "provider",
          "type": "address"
        }
      ],
      "name": "getProvider",
      "outputs": [
        {
          "internalType": "bool",
          "name": "isRegistered",
          "type": "bool"
        },
        {
          "internalType": "uint256",
          "name": "bandwidth",
          "type": "uint256"
        },
        {
          "internalType": "uint256",
          "name": "price",
          "type": "uint256"
        },
        {
          "internalType": "string",
          "name": "ipfsNodeId",
          "type": "string"
        },
        {
          "internalType": "uint256",
          "name": "totalEarned",
          "type": "uint256"
        },
        {
          "internalType": "uint128",
          "name": "reputation",
          "type": "uint128"
        }
      ],
      "stateMutability": "view",
      "type": "function"
    },
    {
      "inputs": [
        {
          "internalType": "bytes32",
          "name": "role",
          "type": "bytes32"
        }
      ],
      "name": "getRoleAdmin",
      "outputs": [
        {
          "internalType": "bytes32",
          "name": "",
          "type": "bytes32"
        }
      ],
      "stateMutability": "view",
      "type": "function"
    },
    {
      "inputs": [
        {
          "internalType": "bytes32",
          "name": "role",
          "type": "bytes32"
        },
        {
          "internalType": "address",
          "name": "account",
          "type": "address"
        }
      ],
      "name": "grantRole",
      "outputs": [],
      "stateMutability": "nonpayable",
      "type": "function"
    },
    {
      "inputs": [
        {
          "internalType": "bytes32",
          "name": "role",
          "type": "bytes32"
        },
        {
          "internalType": "address",
          "name": "account",
          "type": "address"
        }
      ],
      "name": "hasRole",
      "outputs": [
        {
          "internalType": "bool",
          "name": "",
          "type": "bool"
        }
      ],
      "stateMutability": "view",
      "type": "function"
    },
    {
      "inputs": [
        {
          "internalType": "address",
          "name": "",
          "type": "address"
        }
      ],
      "name": "providers",
      "outputs": [
        {
          "internalType": "string",
          "name": "ipfsNodeId",
          "type": "string"
        },
        {
          "internalType": "uint256",
          "name": "bandwidth",
          "type": "uint256"
        },
        {
          "internalType": "uint256",
          "name": "price",
          "type": "uint256"
        },
        {
          "internalType": "uint256",
          "name": "totalEarned",
          "type": "uint256"
        },
        {
          "internalType": "uint128",
          "name": "reputation",
          "type": "uint128"
        },
        {
          "internalType": "bool",
          "name": "isRegistered",
          "type": "bool"
        }
      ],
      "stateMutability": "view",
      "type": "function"
    },
    {
      "inputs": [
        {
          "internalType": "address",
          "name": "provider",
          "type": "address"
        },
        {
          "internalType": "uint256",
          "name": "amount",
          "type": "uint256"
        }
      ],
      "name": "purchaseBandwidth",
      "outputs": [],
      "stateMutability": "nonpayable",
      "type": "function"
    },
    {
      "inputs": [],
      "name": "registerConsumer",
      "outputs": [],
      "stateMutability": "nonpayable",
      "type": "function"
    },
    {
      "inputs": [
        {
          "internalType": "string",
          "name": "_ipfsNodeId",
          "type": "string"
        },
        {
          "internalType": "uint256",
          "name": "_bandwidth",
          "type": "uint256"
        },
        {
          "internalType": "uint256",
          "name": "_price",
          "type": "uint256"
        }
      ],
      "name": "registerProvider",
      "outputs": [],
      "stateMutability": "nonpayable",
      "type": "function"
    },
    {
      "inputs": [
        {
          "internalType": "bytes32",
          "name": "role",
          "type": "bytes32"
        },
        {
          "internalType": "address",
          "name": "callerConfirmation",
          "type": "address"
        }
      ],
      "name": "renounceRole",
      "outputs": [],
      "stateMutability": "nonpayable",
      "type": "function"
    },
    {
      "inputs": [
        {
          "internalType": "bytes32",
          "name": "role",
          "type": "bytes32"
        },
        {
          "internalType": "address",
          "name": "account",
          "type": "address"
        }
      ],
      "name": "revokeRole",
      "outputs": [],
      "stateMutability": "nonpayable",
      "type": "function"
    },
    {
      "inputs": [],
      "name": "scoin",
      "outputs": [
        {
          "internalType": "contract Scoin",
          "name": "",
          "type": "address"
        }
      ],
      "stateMutability": "view",
      "type": "function"
    },
    {
      "inputs": [
        {
          "internalType": "bytes4",
          "name": "interfaceId",
          "type": "bytes4"
        }
      ],
      "name": "supportsInterface",
      "outputs": [
        {
          "internalType": "bool",
          "name": "",
          "type": "bool"
        }
      ],
      "stateMutability": "view",
      "type": "function"
    },
    {
      "inputs": [
        {
          "internalType": "address",
          "name": "provider",
          "type": "address"
        },
        {
          "internalType": "uint128",
          "name": "newReputation",
          "type": "uint128"
        }
      ],
      "name": "updateProviderReputation",
      "outputs": [],
      "stateMutability": "nonpayable",
      "type": "function"
    }
  ],
  "bytecode": "0x60a06040523480156200001157600080fd5b506040516200140b3803806200140b833981016040819052620000349162000136565b600180556001600160a01b0381166080526200005260003362000087565b506200007f7fa49807205ce4d355092ef5a8a18f56e8913cf4a201fbe287825b095693c217753362000087565b505062000168565b6000828152602081815260408083206001600160a01b038516845290915281205460ff166200012c576000838152602081815260408083206001600160a01b03861684529091529020805460ff19166001179055620000e33390565b6001600160a01b0316826001600160a01b0316847f2f8788117e7eff1d82e926ec794901d17c78024a50270940304540a733656f0d60405160405180910390a450600162000130565b5060005b92915050565b6000602082840312156200014957600080fd5b81516001600160a01b03811681146200016157600080fd5b9392505050565b6080516112806200018b6000396000818161021101526108d701526112806000f3fe608060405234801561001057600080fd5b506004361061010a5760003560e01c806346e3201a116100a257806391d148541161007157806391d14854146102bd5780639eac7ab1146102d0578063a217fddf146102e3578063b46506de146102eb578063d547741f146102f357600080fd5b806346e3201a1461024b57806355f21eb71461025e5780636585bda31461028357806375b238fc1461029657600080fd5b8063248a9ca3116100de578063248a9ca3146101c15780632f2ff15d146101e457806336568abe146101f95780633ccc3ec81461020c57600080fd5b8062b4ffee1461010f57806301ffc9a7146101355780630787bc27146101585780630bf536681461017d575b600080fd5b61012261011d366004610de8565b610306565b6040519081526020015b60405180910390f35b610148610143366004610e1b565b610337565b604051901515815260200161012c565b61016b610166366004610e4c565b61036c565b60405161012c96959493929190610ead565b6101aa61018b366004610e4c565b6003602052600090815260409020805460019091015460ff9091169082565b60408051921515835260208301919091520161012c565b6101226101cf366004610ef4565b60009081526020819052604090206001015490565b6101f76101f2366004610f0d565b610438565b005b6101f7610207366004610f0d565b610463565b6102337f000000000000000000000000000000000000000000000000000000000000000081565b6040516001600160a01b03909116815260200161012c565b6101f7610259366004610f30565b61049b565b61027161026c366004610e4c565b61067b565b60405161012c96959493929190610faf565b6101f7610291366004610ff8565b610775565b6101227fa49807205ce4d355092ef5a8a18f56e8913cf4a201fbe287825b095693c2177581565b6101486102cb366004610f0d565b610a11565b6101f76102de366004611022565b610a3a565b610122600081565b6101f7610ba3565b6101f7610301366004610f0d565b610c3a565b6001600160a01b03808316600090815260036020908152604080832093851683526002909301905220545b92915050565b60006001600160e01b03198216637965db0b60e01b148061033157506301ffc9a760e01b6001600160e01b0319831614610331565b60026020526000908152604090208054819061038790611065565b80601f01602080910402602001604051908101604052809291908181526020018280546103b390611065565b80156104005780601f106103d557610100808354040283529160200191610400565b820191906000526020600020905b8154815290600101906020018083116103e357829003601f168201915b50505050600183015460028401546003850154600490950154939491939092506001600160801b03811690600160801b900460ff1686565b60008281526020819052604090206001015461045381610c5f565b61045d8383610c6c565b50505050565b6001600160a01b038116331461048c5760405163334bd91960e11b815260040160405180910390fd5b6104968282610cfe565b505050565b33600090815260026020526040902060040154600160801b900460ff16156104ff5760405162461bcd60e51b8152602060048201526012602482015271105b1c9958591e481c9959da5cdd195c995960721b60448201526064015b60405180910390fd5b60008211801561050f5750600081115b6105505760405162461bcd60e51b8152602060048201526012602482015271496e76616c696420706172616d657465727360701b60448201526064016104f6565b6040518060c0016040528085858080601f0160208091040260200160405190810160405280939291908181526020018383808284376000920182905250938552505050602080830186905260408084018690526060840183905260646080850152600160a0909401939093523382526002905220815181906105d29082611103565b506020820151600182015560408083015160028301556060830151600383015560808301516004909201805460a0909401511515600160801b0270ffffffffffffffffffffffffffffffffff199094166001600160801b03909316929092179290921790555133907f8f4e408b761b09adb21138e3ea4177944738112b3b1182e631e75084faf4c03b9061066d9087908790879087906111c3565b60405180910390a250505050565b6001600160a01b038116600090815260026020819052604082206004810154600182015492820154600383015483548695869560609587958695929460ff600160801b840416949391928692916001600160801b039091169083906106df90611065565b80601f016020809104026020016040519081016040528092919081815260200182805461070b90611065565b80156107585780601f1061072d57610100808354040283529160200191610758565b820191906000526020600020905b81548152906001019060200180831161073b57829003601f168201915b505050505092509650965096509650965096505091939550919395565b61077d610d69565b6001600160a01b03821660009081526002602090815260408083203384526003909252909120805460ff166107f45760405162461bcd60e51b815260206004820152601760248201527f436f6e73756d6572206e6f74207265676973746572656400000000000000000060448201526064016104f6565b6004820154600160801b900460ff166108495760405162461bcd60e51b8152602060048201526017602482015276141c9bdd9a59195c881b9bdd081c9959da5cdd195c9959604a1b60448201526064016104f6565b81600101548311156108965760405162461bcd60e51b8152602060048201526016602482015275092dce6eaccccd2c6d2cadce840c4c2dcc8eed2c8e8d60531b60448201526064016104f6565b60008260020154846108a89190611203565b6040516323b872dd60e01b81523360048201526001600160a01b038781166024830152604482018390529192507f0000000000000000000000000000000000000000000000000000000000000000909116906323b872dd906064016020604051808303816000875af1158015610922573d6000803e3d6000fd5b505050506040513d601f19601f820116820180604052508101906109469190611228565b6109845760405162461bcd60e51b815260206004820152600f60248201526e151c985b9cd9995c8819985a5b1959608a1b60448201526064016104f6565b6001838101805486900390556001600160a01b0386166000818152600285016020908152604091829020805489019055928501805485019055600386018054850190558051878152928301849052909133917fff7f7d17c5282a54971fd24e3d267ba353ddf6579fbc7a2bf35afb4357f32d44910160405180910390a3505050610a0d60018055565b5050565b6000918252602082815260408084206001600160a01b0393909316845291905290205460ff1690565b7fa49807205ce4d355092ef5a8a18f56e8913cf4a201fbe287825b095693c21775610a6481610c5f565b6001600160a01b038316600090815260026020526040902060040154600160801b900460ff16610ad05760405162461bcd60e51b8152602060048201526017602482015276141c9bdd9a59195c881b9bdd081c9959da5cdd195c9959604a1b60448201526064016104f6565b6064826001600160801b03161115610b2a5760405162461bcd60e51b815260206004820152601860248201527f496e76616c69642072657075746174696f6e2073636f7265000000000000000060448201526064016104f6565b6001600160a01b03831660008181526002602090815260409182902060040180546fffffffffffffffffffffffffffffffff19166001600160801b03871690811790915591519182527ffc577563f1b9a0461e24abef1e1fcc0d33d3d881f20b5df6dda59de4aae2c821910160405180910390a2505050565b3360009081526003602052604090205460ff1615610bf85760405162461bcd60e51b8152602060048201526012602482015271105b1c9958591e481c9959da5cdd195c995960721b60448201526064016104f6565b33600081815260036020526040808220805460ff19166001179055517f20f06cf92183fb3bd87d074ec788beb83367293faf2388c274b4bad9aecae7259190a2565b600082815260208190526040902060010154610c5581610c5f565b61045d8383610cfe565b610c698133610d93565b50565b6000610c788383610a11565b610cf6576000838152602081815260408083206001600160a01b03861684529091529020805460ff19166001179055610cae3390565b6001600160a01b0316826001600160a01b0316847f2f8788117e7eff1d82e926ec794901d17c78024a50270940304540a733656f0d60405160405180910390a4506001610331565b506000610331565b6000610d0a8383610a11565b15610cf6576000838152602081815260408083206001600160a01b0386168085529252808320805460ff1916905551339286917ff6391f5c32d9c69d2a47ea670b442974b53935d1edc7fd64eb21e047a839171b9190a4506001610331565b600260015403610d8c57604051633ee5aeb560e01b815260040160405180910390fd5b6002600155565b610d9d8282610a11565b610a0d5760405163e2517d3f60e01b81526001600160a01b0382166004820152602481018390526044016104f6565b80356001600160a01b0381168114610de357600080fd5b919050565b60008060408385031215610dfb57600080fd5b610e0483610dcc565b9150610e1260208401610dcc565b90509250929050565b600060208284031215610e2d57600080fd5b81356001600160e01b031981168114610e4557600080fd5b9392505050565b600060208284031215610e5e57600080fd5b610e4582610dcc565b6000815180845260005b81811015610e8d57602081850181015186830182015201610e71565b506000602082860101526020601f19601f83011685010191505092915050565b60c081526000610ec060c0830189610e67565b602083019790975250604081019490945260608401929092526001600160801b03166080830152151560a090910152919050565b600060208284031215610f0657600080fd5b5035919050565b60008060408385031215610f2057600080fd5b82359150610e1260208401610dcc565b60008060008060608587031215610f4657600080fd5b843567ffffffffffffffff80821115610f5e57600080fd5b818701915087601f830112610f7257600080fd5b813581811115610f8157600080fd5b886020828501011115610f9357600080fd5b6020928301999098509187013596604001359550909350505050565b861515815285602082015284604082015260c060608201526000610fd660c0830186610e67565b90508360808301526001600160801b03831660a0830152979650505050505050565b6000806040838503121561100b57600080fd5b61101483610dcc565b946020939093013593505050565b6000806040838503121561103557600080fd5b61103e83610dcc565b915060208301356001600160801b038116811461105a57600080fd5b809150509250929050565b600181811c9082168061107957607f821691505b60208210810361109957634e487b7160e01b600052602260045260246000fd5b50919050565b634e487b7160e01b600052604160045260246000fd5b601f82111561049657600081815260208120601f850160051c810160208610156110dc5750805b601f850160051c820191505b818110156110fb578281556001016110e8565b505050505050565b815167ffffffffffffffff81111561111d5761111d61109f565b6111318161112b8454611065565b846110b5565b602080601f831160018114611166576000841561114e5750858301515b600019600386901b1c1916600185901b1785556110fb565b600085815260208120601f198616915b8281101561119557888601518255948401946001909101908401611176565b50858210156111b35787850151600019600388901b60f8161c191681555b5050505050600190811b01905550565b606081528360608201528385608083013760006080858301015260006080601f19601f870116830101905083602083015282604083015295945050505050565b808202811582820484141761033157634e487b7160e01b600052601160045260246000fd5b60006020828403121561123a57600080fd5b81518015158114610e4557600080fdfea2646970667358221220bdc9ea6ece875236eedae10b1d45cb7251695976b64ce595d03c496c20144f4f64736f6c63430008140033",
  "linkReferences": {},
  "deployedLinkReferences": {}
}