{"contracts/Scoin.sol":{"Scoin":{"abi":[{"inputs":[],"stateMutability":"nonpayable","type":"constructor"},{"inputs":[],"name":"ECDSAInvalidSignature","type":"error"},{"inputs":[{"internalType":"uint256","name":"length","type":"uint256"}],"name":"ECDSAInvalidSignatureLength","type":"error"},{"inputs":[{"internalType":"bytes32","name":"s","type":"bytes32"}],"name":"ECDSAInvalidSignatureS","type":"error"},{"inputs":[{"internalType":"address","name":"spender","type":"address"},{"internalType":"uint256","name":"allowance","type":"uint256"},{"internalType":"uint256","name":"needed","type":"uint256"}],"name":"ERC20InsufficientAllowance","type":"error"},{"inputs":[{"internalType":"address","name":"sender","type":"address"},{"internalType":"uint256","name":"balance","type":"uint256"},{"internalType":"uint256","name":"needed","type":"uint256"}],"name":"ERC20InsufficientBalance","type":"error"},{"inputs":[{"internalType":"address","name":"approver","type":"address"}],"name":"ERC20InvalidApprover","type":"error"},{"inputs":[{"internalType":"address","name":"receiver","type":"address"}],"name":"ERC20InvalidReceiver","type":"error"},{"inputs":[{"internalType":"address","name":"sender","type":"address"}],"name":"ERC20InvalidSender","type":"error"},{"inputs":[{"internalType":"address","name":"spender","type":"address"}],"name":"ERC20InvalidSpender","type":"error"},{"inputs":[{"internalType":"uint256","name":"deadline","type":"uint256"}],"name":"ERC2612ExpiredSignature","type":"error"},{"inputs":[{"internalType":"address","name":"signer","type":"address"},{"internalType":"address","name":"owner","type":"address"}],"name":"ERC2612InvalidSigner","type":"error"},{"inputs":[{"internalType":"address","name":"account","type":"address"},{"internalType":"uint256","name":"currentNonce","type":"uint256"}],"name":"InvalidAccountNonce","type":"error"},{"inputs":[],"name":"InvalidShortString","type":"error"},{"inputs":[{"internalType":"address","name":"owner","type":"address"}],"name":"OwnableInvalidOwner","type":"error"},{"inputs":[{"internalType":"address","name":"account","type":"address"}],"name":"OwnableUnauthorizedAccount","type":"error"},{"inputs":[{"internalType":"string","name":"str","type":"string"}],"name":"StringTooLong","type":"error"},{"anonymous":false,"inputs":[{"indexed":true,"internalType":"address","name":"owner","type":"address"},{"indexed":true,"internalType":"address","name":"spender","type":"address"},{"indexed":false,"internalType":"uint256","name":"value","type":"uint256"}],"name":"Approval","type":"event"},{"anonymous":false,"inputs":[],"name":"EIP712DomainChanged","type":"event"},{"anonymous":false,"inputs":[{"indexed":true,"internalType":"address","name":"previousOwner","type":"address"},{"indexed":true,"internalType":"address","name":"newOwner","type":"address"}],"name":"OwnershipTransferred","type":"event"},{"anonymous":false,"inputs":[{"indexed":true,"internalType":"address","name":"from","type":"address"},{"indexed":true,"internalType":"address","name":"to","type":"address"},{"indexed":false,"internalType":"uint256","name":"value","type":"uint256"}],"name":"Transfer","type":"event"},{"inputs":[],"name":"DOMAIN_SEPARATOR","outputs":[{"internalType":"bytes32","name":"","type":"bytes32"}],"stateMutability":"view","type":"function"},{"inputs":[],"name":"INITIAL_SUPPLY","outputs":[{"internalType":"uint256","name":"","type":"uint256"}],"stateMutability":"view","type":"function"},{"inputs":[{"internalType":"address","name":"owner","type":"address"},{"internalType":"address","name":"spender","type":"address"}],"name":"allowance","outputs":[{"internalType":"uint256","name":"","type":"uint256"}],"stateMutability":"view","type":"function"},{"inputs":[{"internalType":"address","name":"spender","type":"address"},{"internalType":"uint256","name":"value","type":"uint256"}],"name":"approve","outputs":[{"internalType":"bool","name":"","type":"bool"}],"stateMutability":"nonpayable","type":"function"},{"inputs":[{"internalType":"address","name":"account","type":"address"}],"name":"balanceOf","outputs":[{"internalType":"uint256","name":"","type":"uint256"}],"stateMutability":"view","type":"function"},{"inputs":[],"name":"claimReward","outputs":[],"stateMutability":"nonpayable","type":"function"},{"inputs":[],"name":"decimals","outputs":[{"internalType":"uint8","name":"","type":"uint8"}],"stateMutability":"view","type":"function"},{"inputs":[],"name":"eip712Domain","outputs":[{"internalType":"bytes1","name":"fields","type":"bytes1"},{"internalType":"string","name":"name","type":"string"},{"internalType":"string","name":"version","type":"string"},{"internalType":"uint256","name":"chainId","type":"uint256"},{"internalType":"address","name":"verifyingContract","type":"address"},{"internalType":"bytes32","name":"salt","type":"bytes32"},{"internalType":"uint256[]","name":"extensions","type":"uint256[]"}],"stateMutability":"view","type":"function"},{"inputs":[{"internalType":"address","name":"user","type":"address"}],"name":"getClaimableLevel","outputs":[{"internalType":"uint8","name":"level","type":"uint8"},{"internalType":"uint256","name":"amount","type":"uint256"}],"stateMutability":"view","type":"function"},{"inputs":[],"name":"name","outputs":[{"internalType":"string","name":"","type":"string"}],"stateMutability":"view","type":"function"},{"inputs":[{"internalType":"address","name":"owner","type":"address"}],"name":"nonces","outputs":[{"internalType":"uint256","name":"","type":"uint256"}],"stateMutability":"view","type":"function"},{"inputs":[],"name":"owner","outputs":[{"internalType":"address","name":"","type":"address"}],"stateMutability":"view","type":"function"},{"inputs":[{"internalType":"address","name":"owner","type":"address"},{"internalType":"address","name":"spender","type":"address"},{"internalType":"uint256","name":"value","type":"uint256"},{"internalType":"uint256","name":"deadline","type":"uint256"},{"internalType":"uint8","name":"v","type":"uint8"},{"internalType":"bytes32","name":"r","type":"bytes32"},{"internalType":"bytes32","name":"s","type":"bytes32"}],"name":"permit","outputs":[],"stateMutability":"nonpayable","type":"function"},{"inputs":[{"internalType":"address","name":"user","type":"address"}],"name":"recordLike","outputs":[],"stateMutability":"nonpayable","type":"function"},{"inputs":[],"name":"renounceOwnership","outputs":[],"stateMutability":"nonpayable","type":"function"},{"inputs":[{"internalType":"uint256","name":"","type":"uint256"}],"name":"rewardTiers","outputs":[{"internalType":"uint256","name":"minLikes","type":"uint256"},{"internalType":"uint256","name":"rewardAmount","type":"uint256"}],"stateMutability":"view","type":"function"},{"inputs":[],"name":"symbol","outputs":[{"internalType":"string","name":"","type":"string"}],"stateMutability":"view","type":"function"},{"inputs":[],"name":"totalSupply","outputs":[{"internalType":"uint256","name":"","type":"uint256"}],"stateMutability":"view","type":"function"},{"inputs":[{"internalType":"address","name":"to","type":"address"},{"internalType":"uint256","name":"value","type":"uint256"}],"name":"transfer","outputs":[{"internalType":"bool","name":"","type":"bool"}],"stateMutability":"nonpayable","type":"function"},{"inputs":[{"internalType":"address","name":"from","type":"address"},{"internalType":"address","name":"to","type":"address"},{"internalType":"uint256","name":"value","type":"uint256"}],"name":"transferFrom","outputs":[{"internalType":"bool","name":"","type":"bool"}],"stateMutability":"nonpayable","type":"function"},{"inputs":[{"internalType":"address","name":"newOwner","type":"address"}],"name":"transferOwnership","outputs":[],"stateMutability":"nonpayable","type":"function"},{"inputs":[{"internalType":"address","name":"user","type":"address"},{"internalType":"uint256","name":"score","type":"uint256"}],"name":"updateModerationScore","outputs":[],"stateMutability":"nonpayable","type":"function"},{"inputs":[{"internalType":"address","name":"","type":"address"}],"name":"userData","outputs":[{"internalType":"uint256","name":"likeCount","type":"uint256"},{"internalType":"uint256","name":"moderationScore","type":"uint256"},{"internalType":"uint256","name":"firstLikeTimestamp","type":"uint256"},{"internalType":"uint8","name":"rewardClaimedLevel","type":"uint8"}],"stateMutability":"view","type":"function"}],"evm":{"bytecode":{"linkReferences":{},"object":"6101606040523480156200001257600080fd5b50336040518060400160405280600581526020016429b1b7b4b760d91b81525080604051806040016040528060018152602001603160f81b8152506040518060400160405280600581526020016429b1b7b4b760d91b8152506040518060400160405280600381526020016229a1a760e91b8152508160039081620000989190620005c2565b506004620000a78282620005c2565b50620000b991508390506005620002dc565b61012052620000ca816006620002dc565b61014052815160208084019190912060e052815190820120610100524660a0526200015860e05161010051604080517f8b73c3c69bb8fe3d512ecc4cf759cc79239f7b179b0ffacaa9a75d522b39400f60208201529081019290925260608201524660808201523060a082015260009060c00160405160208183030381529060405280519060200120905090565b60805250503060c052506001600160a01b0381166200019257604051631e4fbdf760e01b8152600060048201526024015b60405180910390fd5b6200019d8162000315565b5069d3c21bcecceda10000006009819055620001bb90339062000367565b600b60405180604001604052806103e8815260200160646009546001620001e39190620006a4565b620001ef9190620006be565b905281546001818101845560009384526020938490208351600293840290910190815592840151920191909155604080518082019091526113888152600954600b939192918301916064916200024591620006a4565b620002519190620006be565b90528154600181810184556000938452602093849020835160029093020191825591830151910155604080518082019091526127108152600954600b92820190606490620002a1906003620006a4565b620002ad9190620006be565b90528154600181810184556000938452602093849020835160029093020191825592909101519101556200076d565b6000602083511015620002fc57620002f483620003a5565b90506200030f565b81620003098482620005c2565b5060ff90505b92915050565b600880546001600160a01b038381166001600160a01b0319831681179093556040519116919082907f8be0079c531659141344cd1fd0a4f28419497f9722a3daafe3b4186f6b6457e090600090a35050565b6001600160a01b038216620003935760405163ec442f0560e01b81526000600482015260240162000189565b620003a160008383620003e8565b5050565b600080829050601f81511115620003d3578260405163305a27a960e01b8152600401620001899190620006e1565b8051620003e08262000732565b179392505050565b6001600160a01b038316620004175780600260008282546200040b919062000757565b909155506200048b9050565b6001600160a01b038316600090815260208190526040902054818110156200046c5760405163391434e360e21b81526001600160a01b0385166004820152602481018290526044810183905260640162000189565b6001600160a01b03841660009081526020819052604090209082900390555b6001600160a01b038216620004a957600280548290039055620004c8565b6001600160a01b03821660009081526020819052604090208054820190555b816001600160a01b0316836001600160a01b03167fddf252ad1be2c89b69c2b068fc378daa952ba7f163c4a11628f55a4df523b3ef836040516200050e91815260200190565b60405180910390a3505050565b634e487b7160e01b600052604160045260246000fd5b600181811c908216806200054657607f821691505b6020821081036200056757634e487b7160e01b600052602260045260246000fd5b50919050565b601f821115620005bd576000816000526020600020601f850160051c81016020861015620005985750805b601f850160051c820191505b81811015620005b957828155600101620005a4565b5050505b505050565b81516001600160401b03811115620005de57620005de6200051b565b620005f681620005ef845462000531565b846200056d565b602080601f8311600181146200062e5760008415620006155750858301515b600019600386901b1c1916600185901b178555620005b9565b600085815260208120601f198616915b828110156200065f578886015182559484019460019091019084016200063e565b50858210156200067e5787850151600019600388901b60f8161c191681555b5050505050600190811b01905550565b634e487b7160e01b600052601160045260246000fd5b80820281158282048414176200030f576200030f6200068e565b600082620006dc57634e487b7160e01b600052601260045260246000fd5b500490565b60006020808352835180602085015260005b818110156200071157858101830151858201604001528201620006f3565b506000604082860101526040601f19601f8301168501019250505092915050565b80516020808301519190811015620005675760001960209190910360031b1b16919050565b808201808211156200030f576200030f6200068e565b60805160a05160c05160e05161010051610120516101405161161e620007c86000396000610db001526000610d8301526000610cac01526000610c8401526000610bdf01526000610c0901526000610c33015261161e6000f3fe608060405234801561001057600080fd5b506004361061014d5760003560e01c8063755ea794116100c3578063b88a802f1161007c578063b88a802f146102c1578063c8910913146102c9578063d505accf14610324578063dd62ed3e14610337578063f2fde38b14610370578063ff2011141461038357600080fd5b8063755ea794146102315780637ecebe001461025d57806384b0196e146102705780638da5cb5b1461028b57806395d89b41146102a6578063a9059cbb146102ae57600080fd5b8063313ce56711610115578063313ce567146101c15780633644e515146101d05780635d48edef146101d8578063698fcdfc146101ed57806370a0823114610200578063715018a61461022957600080fd5b806306fdde0314610152578063095ea7b31461017057806318160ddd1461019357806323b872dd146101a55780632ff2e9dc146101b8575b600080fd5b61015a6103ab565b6040516101679190611314565b60405180910390f35b61018361017e36600461134a565b61043d565b6040519015158152602001610167565b6002545b604051908152602001610167565b6101836101b3366004611374565b610457565b61019760095481565b60405160128152602001610167565b61019761047b565b6101eb6101e636600461134a565b61048a565b005b6101eb6101fb3660046113b0565b610503565b61019761020e3660046113b0565b6001600160a01b031660009081526020819052604090205490565b6101eb610551565b61024461023f3660046113b0565b610565565b6040805160ff9093168352602083019190915201610167565b61019761026b3660046113b0565b61069b565b6102786106b9565b60405161016797969594939291906113cb565b6008546040516001600160a01b039091168152602001610167565b61015a6106ff565b6101836102bc36600461134a565b61070e565b6101eb61071c565b6103016102d73660046113b0565b600a6020526000908152604090208054600182015460028301546003909301549192909160ff1684565b6040805194855260208501939093529183015260ff166060820152608001610167565b6101eb610332366004611464565b610941565b6101976103453660046114d7565b6001600160a01b03918216600090815260016020908152604080832093909416825291909152205490565b6101eb61037e3660046113b0565b610a7b565b61039661039136600461150a565b610ab9565b60408051928352602083019190915201610167565b6060600380546103ba90611523565b80601f01602080910402602001604051908101604052809291908181526020018280546103e690611523565b80156104335780601f1061040857610100808354040283529160200191610433565b820191906000526020600020905b81548152906001019060200180831161041657829003601f168201915b5050505050905090565b60003361044b818585610ae7565b60019150505b92915050565b600033610465858285610af4565b610470858585610b73565b506001949350505050565b6000610485610bd2565b905090565b610492610cfd565b670de0b6b3a76400008111156104e45760405162461bcd60e51b815260206004820152601260248201527153636f7265206f7574206f662072616e676560701b60448201526064015b60405180910390fd5b6001600160a01b039091166000908152600a6020526040902060010155565b61050b610cfd565b6001600160a01b0381166000908152600a602052604081208054909103610533574260028201555b60018160000160008282546105489190611573565b90915550505050565b610559610cfd565b6105636000610d2a565b565b6001600160a01b0381166000908152600a602090815260408083208151608081018352815481526001820154938101939093526002810154918301919091526003015460ff16606082018190528291901515806105cd57506706f05b59d3b200008160200151105b806105e8575060408101516105e59062278d00611573565b42115b156105f95750600093849350915050565b600b545b60ff81161561068e57600b610613600183611586565b60ff16815481106106265761062661159f565b600091825260209091206002909102015482511061067c5780600b61064c600183611586565b60ff168154811061065f5761065f61159f565b906000526020600020906002020160010154935093505050915091565b80610686816115b5565b9150506105fd565b5060009485945092505050565b6001600160a01b038116600090815260076020526040812054610451565b6000606080600080600060606106cd610d7c565b6106d5610da9565b60408051600080825260208201909252600f60f81b9b939a50919850469750309650945092509050565b6060600480546103ba90611523565b60003361044b818585610b73565b336000908152600a60205260409020600381015460ff16156107805760405162461bcd60e51b815260206004820152601e60248201527f416c726561647920636c61696d6564206120726577617264206c6576656c000060448201526064016104db565b6706f05b59d3b20000816001015410156107dc5760405162461bcd60e51b815260206004820152601860248201527f4d6f6465726174696f6e2073636f726520746f6f206c6f77000000000000000060448201526064016104db565b60028101546107ee9062278d00611573565b4211156108345760405162461bcd60e51b815260206004820152601460248201527310db185a5b481c195c9a5bd908195e1c1a5c995960621b60448201526064016104db565b600b5460009081905b60ff8116156108cc57600b610853600183611586565b60ff16815481106108665761086661159f565b60009182526020909120600290910201548454106108ba57915081600b61088e600183611586565b60ff16815481106108a1576108a161159f565b90600052602060002090600202016001015491506108cc565b806108c4816115b5565b91505061083d565b5060008260ff16116109205760405162461bcd60e51b815260206004820152601f60248201527f4e6f7420656e6f756768206c696b657320666f7220616e79207265776172640060448201526064016104db565b60038301805460ff191660ff841617905561093c303383610b73565b505050565b834211156109655760405163313c898160e11b8152600481018590526024016104db565b60007f6e71edae12b1b97f4d1f60370fef10105fa2faae0126114a169c64845d6126c98888886109b28c6001600160a01b0316600090815260076020526040902080546001810190915590565b6040805160208101969096526001600160a01b0394851690860152929091166060840152608083015260a082015260c0810186905260e0016040516020818303038152906040528051906020012090506000610a0d82610dd6565b90506000610a1d82878787610e03565b9050896001600160a01b0316816001600160a01b031614610a64576040516325c0072360e11b81526001600160a01b0380831660048301528b1660248201526044016104db565b610a6f8a8a8a610ae7565b50505050505050505050565b610a83610cfd565b6001600160a01b038116610aad57604051631e4fbdf760e01b8152600060048201526024016104db565b610ab681610d2a565b50565b600b8181548110610ac957600080fd5b60009182526020909120600290910201805460019091015490915082565b61093c8383836001610e31565b6001600160a01b03838116600090815260016020908152604080832093861683529290522054600019811015610b6d5781811015610b5e57604051637dc7a0d960e11b81526001600160a01b038416600482015260248101829052604481018390526064016104db565b610b6d84848484036000610e31565b50505050565b6001600160a01b038316610b9d57604051634b637e8f60e11b8152600060048201526024016104db565b6001600160a01b038216610bc75760405163ec442f0560e01b8152600060048201526024016104db565b61093c838383610f06565b6000306001600160a01b037f000000000000000000000000000000000000000000000000000000000000000016148015610c2b57507f000000000000000000000000000000000000000000000000000000000000000046145b15610c5557507f000000000000000000000000000000000000000000000000000000000000000090565b610485604080517f8b73c3c69bb8fe3d512ecc4cf759cc79239f7b179b0ffacaa9a75d522b39400f60208201527f0000000000000000000000000000000000000000000000000000000000000000918101919091527f000000000000000000000000000000000000000000000000000000000000000060608201524660808201523060a082015260009060c00160405160208183030381529060405280519060200120905090565b6008546001600160a01b031633146105635760405163118cdaa760e01b81523360048201526024016104db565b600880546001600160a01b038381166001600160a01b0319831681179093556040519116919082907f8be0079c531659141344cd1fd0a4f28419497f9722a3daafe3b4186f6b6457e090600090a35050565b60606104857f00000000000000000000000000000000000000000000000000000000000000006005611030565b60606104857f00000000000000000000000000000000000000000000000000000000000000006006611030565b6000610451610de3610bd2565b8360405161190160f01b8152600281019290925260228201526042902090565b600080600080610e15888888886110db565b925092509250610e2582826111aa565b50909695505050505050565b6001600160a01b038416610e5b5760405163e602df0560e01b8152600060048201526024016104db565b6001600160a01b038316610e8557604051634a1406b160e11b8152600060048201526024016104db565b6001600160a01b0380851660009081526001602090815260408083209387168352929052208290558015610b6d57826001600160a01b0316846001600160a01b03167f8c5be1e5ebec7d5bd14f71427d1e84f3dd0314c0f7b2291e5b200ac8c7c3b92584604051610ef891815260200190565b60405180910390a350505050565b6001600160a01b038316610f31578060026000828254610f269190611573565b90915550610fa39050565b6001600160a01b03831660009081526020819052604090205481811015610f845760405163391434e360e21b81526001600160a01b038516600482015260248101829052604481018390526064016104db565b6001600160a01b03841660009081526020819052604090209082900390555b6001600160a01b038216610fbf57600280548290039055610fde565b6001600160a01b03821660009081526020819052604090208054820190555b816001600160a01b0316836001600160a01b03167fddf252ad1be2c89b69c2b068fc378daa952ba7f163c4a11628f55a4df523b3ef8360405161102391815260200190565b60405180910390a3505050565b606060ff831461104a5761104383611267565b9050610451565b81805461105690611523565b80601f016020809104026020016040519081016040528092919081815260200182805461108290611523565b80156110cf5780601f106110a4576101008083540402835291602001916110cf565b820191906000526020600020905b8154815290600101906020018083116110b257829003601f168201915b50505050509050610451565b600080807f7fffffffffffffffffffffffffffffff5d576e7357a4501ddfe92f46681b20a084111561111657506000915060039050826111a0565b604080516000808252602082018084528a905260ff891692820192909252606081018790526080810186905260019060a0016020604051602081039080840390855afa15801561116a573d6000803e3d6000fd5b5050604051601f1901519150506001600160a01b038116611196575060009250600191508290506111a0565b9250600091508190505b9450945094915050565b60008260038111156111be576111be6115d2565b036111c7575050565b60018260038111156111db576111db6115d2565b036111f95760405163f645eedf60e01b815260040160405180910390fd5b600282600381111561120d5761120d6115d2565b0361122e5760405163fce698f760e01b8152600481018290526024016104db565b6003826003811115611242576112426115d2565b03611263576040516335e2f38360e21b8152600481018290526024016104db565b5050565b60606000611274836112a6565b604080516020808252818301909252919250600091906020820181803683375050509182525060208101929092525090565b600060ff8216601f81111561045157604051632cd44ac360e21b815260040160405180910390fd5b6000815180845260005b818110156112f4576020818501810151868301820152016112d8565b506000602082860101526020601f19601f83011685010191505092915050565b60208152600061132760208301846112ce565b9392505050565b80356001600160a01b038116811461134557600080fd5b919050565b6000806040838503121561135d57600080fd5b6113668361132e565b946020939093013593505050565b60008060006060848603121561138957600080fd5b6113928461132e565b92506113a06020850161132e565b9150604084013590509250925092565b6000602082840312156113c257600080fd5b6113278261132e565b60ff60f81b881681526000602060e060208401526113ec60e084018a6112ce565b83810360408501526113fe818a6112ce565b606085018990526001600160a01b038816608086015260a0850187905284810360c08601528551808252602080880193509091019060005b8181101561145257835183529284019291840191600101611436565b50909c9b505050505050505050505050565b600080600080600080600060e0888a03121561147f57600080fd5b6114888861132e565b96506114966020890161132e565b95506040880135945060608801359350608088013560ff811681146114ba57600080fd5b9699959850939692959460a0840135945060c09093013592915050565b600080604083850312156114ea57600080fd5b6114f38361132e565b91506115016020840161132e565b90509250929050565b60006020828403121561151c57600080fd5b5035919050565b600181811c9082168061153757607f821691505b60208210810361155757634e487b7160e01b600052602260045260246000fd5b50919050565b634e487b7160e01b600052601160045260246000fd5b808201808211156104515761045161155d565b60ff82811682821603908111156104515761045161155d565b634e487b7160e01b600052603260045260246000fd5b600060ff8216806115c8576115c861155d565b6000190192915050565b634e487b7160e01b600052602160045260246000fdfea2646970667358221220a255b563d5bd4b493b69fed57f471cc9af657d307abcb016adf283fec0760f4964736f6c63430008180033","opcodes":"PUSH2 0x160 PUSH1 0x40 MSTORE CALLVALUE DUP1 ISZERO PUSH3 0x12 JUMPI PUSH1 0x0 DUP1 REVERT JUMPDEST POP CALLER PUSH1 0x40 MLOAD DUP1 PUSH1 0x40 ADD PUSH1 0x40 MSTORE DUP1 PUSH1 0x5 DUP2 MSTORE PUSH1 0x20 ADD PUSH5 0x29B1B7B4B7 PUSH1 0xD9 SHL DUP2 MSTORE POP DUP1 PUSH1 0x40 MLOAD DUP1 PUSH1 0x40 ADD PUSH1 0x40 MSTORE DUP1 PUSH1 0x1 DUP2 MSTORE PUSH1 0x20 ADD PUSH1 0x31 PUSH1 0xF8 SHL DUP2 MSTORE POP PUSH1 0x40 MLOAD DUP1 PUSH1 0x40 ADD PUSH1 0x40 MSTORE DUP1 PUSH1 0x5 DUP2 MSTORE PUSH1 0x20 ADD PUSH5 0x29B1B7B4B7 PUSH1 0xD9 SHL DUP2 MSTORE POP PUSH1 0x40 MLOAD DUP1 PUSH1 0x40 ADD PUSH1 0x40 MSTORE DUP1 PUSH1 0x3 DUP2 MSTORE PUSH1 0x20 ADD PUSH3 0x29A1A7 PUSH1 0xE9 SHL DUP2 MSTORE POP DUP2 PUSH1 0x3 SWAP1 DUP2 PUSH3 0x98 SWAP2 SWAP1 PUSH3 0x5C2 JUMP JUMPDEST POP PUSH1 0x4 PUSH3 0xA7 DUP3 DUP3 PUSH3 0x5C2 JUMP JUMPDEST POP PUSH3 0xB9 SWAP2 POP DUP4 SWAP1 POP PUSH1 0x5 PUSH3 0x2DC JUMP JUMPDEST PUSH2 0x120 MSTORE PUSH3 0xCA DUP2 PUSH1 0x6 PUSH3 0x2DC JUMP JUMPDEST PUSH2 0x140 MSTORE DUP2 MLOAD PUSH1 0x20 DUP1 DUP5 ADD SWAP2 SWAP1 SWAP2 KECCAK256 PUSH1 0xE0 MSTORE DUP2 MLOAD SWAP1 DUP3 ADD KECCAK256 PUSH2 0x100 MSTORE CHAINID PUSH1 0xA0 MSTORE PUSH3 0x158 PUSH1 0xE0 MLOAD PUSH2 0x100 MLOAD PUSH1 0x40 DUP1 MLOAD PUSH32 0x8B73C3C69BB8FE3D512ECC4CF759CC79239F7B179B0FFACAA9A75D522B39400F PUSH1 0x20 DUP3 ADD MSTORE SWAP1 DUP2 ADD SWAP3 SWAP1 SWAP3 MSTORE PUSH1 0x60 DUP3 ADD MSTORE CHAINID PUSH1 0x80 DUP3 ADD MSTORE ADDRESS PUSH1 0xA0 DUP3 ADD MSTORE PUSH1 0x0 SWAP1 PUSH1 0xC0 ADD PUSH1 0x40 MLOAD PUSH1 0x20 DUP2 DUP4 SUB SUB DUP2 MSTORE SWAP1 PUSH1 0x40 MSTORE DUP1 MLOAD SWAP1 PUSH1 0x20 ADD KECCAK256 SWAP1 POP SWAP1 JUMP JUMPDEST PUSH1 0x80 MSTORE POP POP ADDRESS PUSH1 0xC0 MSTORE POP PUSH1 0x1 PUSH1 0x1 PUSH1 0xA0 SHL SUB DUP2 AND PUSH3 0x192 JUMPI PUSH1 0x40 MLOAD PUSH4 0x1E4FBDF7 PUSH1 0xE0 SHL DUP2 MSTORE PUSH1 0x0 PUSH1 0x4 DUP3 ADD MSTORE PUSH1 0x24 ADD JUMPDEST PUSH1 0x40 MLOAD DUP1 SWAP2 SUB SWAP1 REVERT JUMPDEST PUSH3 0x19D DUP2 PUSH3 0x315 JUMP JUMPDEST POP PUSH10 0xD3C21BCECCEDA1000000 PUSH1 0x9 DUP2 SWAP1 SSTORE PUSH3 0x1BB SWAP1 CALLER SWAP1 PUSH3 0x367 JUMP JUMPDEST PUSH1 0xB PUSH1 0x40 MLOAD DUP1 PUSH1 0x40 ADD PUSH1 0x40 MSTORE DUP1 PUSH2 0x3E8 DUP2 MSTORE PUSH1 0x20 ADD PUSH1 0x64 PUSH1 0x9 SLOAD PUSH1 0x1 PUSH3 0x1E3 SWAP2 SWAP1 PUSH3 0x6A4 JUMP JUMPDEST PUSH3 0x1EF SWAP2 SWAP1 PUSH3 0x6BE JUMP JUMPDEST SWAP1 MSTORE DUP2 SLOAD PUSH1 0x1 DUP2 DUP2 ADD DUP5 SSTORE PUSH1 0x0 SWAP4 DUP5 MSTORE PUSH1 0x20 SWAP4 DUP5 SWAP1 KECCAK256 DUP4 MLOAD PUSH1 0x2 SWAP4 DUP5 MUL SWAP1 SWAP2 ADD SWAP1 DUP2 SSTORE SWAP3 DUP5 ADD MLOAD SWAP3 ADD SWAP2 SWAP1 SWAP2 SSTORE PUSH1 0x40 DUP1 MLOAD DUP1 DUP3 ADD SWAP1 SWAP2 MSTORE PUSH2 0x1388 DUP2 MSTORE PUSH1 0x9 SLOAD PUSH1 0xB SWAP4 SWAP2 SWAP3 SWAP2 DUP4 ADD SWAP2 PUSH1 0x64 SWAP2 PUSH3 0x245 SWAP2 PUSH3 0x6A4 JUMP JUMPDEST PUSH3 0x251 SWAP2 SWAP1 PUSH3 0x6BE JUMP JUMPDEST SWAP1 MSTORE DUP2 SLOAD PUSH1 0x1 DUP2 DUP2 ADD DUP5 SSTORE PUSH1 0x0 SWAP4 DUP5 MSTORE PUSH1 0x20 SWAP4 DUP5 SWAP1 KECCAK256 DUP4 MLOAD PUSH1 0x2 SWAP1 SWAP4 MUL ADD SWAP2 DUP3 SSTORE SWAP2 DUP4 ADD MLOAD SWAP2 ADD SSTORE PUSH1 0x40 DUP1 MLOAD DUP1 DUP3 ADD SWAP1 SWAP2 MSTORE PUSH2 0x2710 DUP2 MSTORE PUSH1 0x9 SLOAD PUSH1 0xB SWAP3 DUP3 ADD SWAP1 PUSH1 0x64 SWAP1 PUSH3 0x2A1 SWAP1 PUSH1 0x3 PUSH3 0x6A4 JUMP JUMPDEST PUSH3 0x2AD SWAP2 SWAP1 PUSH3 0x6BE JUMP JUMPDEST SWAP1 MSTORE DUP2 SLOAD PUSH1 0x1 DUP2 DUP2 ADD DUP5 SSTORE PUSH1 0x0 SWAP4 DUP5 MSTORE PUSH1 0x20 SWAP4 DUP5 SWAP1 KECCAK256 DUP4 MLOAD PUSH1 0x2 SWAP1 SWAP4 MUL ADD SWAP2 DUP3 SSTORE SWAP3 SWAP1 SWAP2 ADD MLOAD SWAP2 ADD SSTORE PUSH3 0x76D JUMP JUMPDEST PUSH1 0x0 PUSH1 0x20 DUP4 MLOAD LT ISZERO PUSH3 0x2FC JUMPI PUSH3 0x2F4 DUP4 PUSH3 0x3A5 JUMP JUMPDEST SWAP1 POP PUSH3 0x30F JUMP JUMPDEST DUP2 PUSH3 0x309 DUP5 DUP3 PUSH3 0x5C2 JUMP JUMPDEST POP PUSH1 0xFF SWAP1 POP JUMPDEST SWAP3 SWAP2 POP POP JUMP JUMPDEST PUSH1 0x8 DUP1 SLOAD PUSH1 0x1 PUSH1 0x1 PUSH1 0xA0 SHL SUB DUP4 DUP2 AND PUSH1 0x1 PUSH1 0x1 PUSH1 0xA0 SHL SUB NOT DUP4 AND DUP2 OR SWAP1 SWAP4 SSTORE PUSH1 0x40 MLOAD SWAP2 AND SWAP2 SWAP1 DUP3 SWAP1 PUSH32 0x8BE0079C531659141344CD1FD0A4F28419497F9722A3DAAFE3B4186F6B6457E0 SWAP1 PUSH1 0x0 SWAP1 LOG3 POP POP JUMP JUMPDEST PUSH1 0x1 PUSH1 0x1 PUSH1 0xA0 SHL SUB DUP3 AND PUSH3 0x393 JUMPI PUSH1 0x40 MLOAD PUSH4 0xEC442F05 PUSH1 0xE0 SHL DUP2 MSTORE PUSH1 0x0 PUSH1 0x4 DUP3 ADD MSTORE PUSH1 0x24 ADD PUSH3 0x189 JUMP JUMPDEST PUSH3 0x3A1 PUSH1 0x0 DUP4 DUP4 PUSH3 0x3E8 JUMP JUMPDEST POP POP JUMP JUMPDEST PUSH1 0x0 DUP1 DUP3 SWAP1 POP PUSH1 0x1F DUP2 MLOAD GT ISZERO PUSH3 0x3D3 JUMPI DUP3 PUSH1 0x40 MLOAD PUSH4 0x305A27A9 PUSH1 0xE0 SHL DUP2 MSTORE PUSH1 0x4 ADD PUSH3 0x189 SWAP2 SWAP1 PUSH3 0x6E1 JUMP JUMPDEST DUP1 MLOAD PUSH3 0x3E0 DUP3 PUSH3 0x732 JUMP JUMPDEST OR SWAP4 SWAP3 POP POP POP JUMP JUMPDEST PUSH1 0x1 PUSH1 0x1 PUSH1 0xA0 SHL SUB DUP4 AND PUSH3 0x417 JUMPI DUP1 PUSH1 0x2 PUSH1 0x0 DUP3 DUP3 SLOAD PUSH3 0x40B SWAP2 SWAP1 PUSH3 0x757 JUMP JUMPDEST SWAP1 SWAP2 SSTORE POP PUSH3 0x48B SWAP1 POP JUMP JUMPDEST PUSH1 0x1 PUSH1 0x1 PUSH1 0xA0 SHL SUB DUP4 AND PUSH1 0x0 SWAP1 DUP2 MSTORE PUSH1 0x20 DUP2 SWAP1 MSTORE PUSH1 0x40 SWAP1 KECCAK256 SLOAD DUP2 DUP2 LT ISZERO PUSH3 0x46C JUMPI PUSH1 0x40 MLOAD PUSH4 0x391434E3 PUSH1 0xE2 SHL DUP2 MSTORE PUSH1 0x1 PUSH1 0x1 PUSH1 0xA0 SHL SUB DUP6 AND PUSH1 0x4 DUP3 ADD MSTORE PUSH1 0x24 DUP2 ADD DUP3 SWAP1 MSTORE PUSH1 0x44 DUP2 ADD DUP4 SWAP1 MSTORE PUSH1 0x64 ADD PUSH3 0x189 JUMP JUMPDEST PUSH1 0x1 PUSH1 0x1 PUSH1 0xA0 SHL SUB DUP5 AND PUSH1 0x0 SWAP1 DUP2 MSTORE PUSH1 0x20 DUP2 SWAP1 MSTORE PUSH1 0x40 SWAP1 KECCAK256 SWAP1 DUP3 SWAP1 SUB SWAP1 SSTORE JUMPDEST PUSH1 0x1 PUSH1 0x1 PUSH1 0xA0 SHL SUB DUP3 AND PUSH3 0x4A9 JUMPI PUSH1 0x2 DUP1 SLOAD DUP3 SWAP1 SUB SWAP1 SSTORE PUSH3 0x4C8 JUMP JUMPDEST PUSH1 0x1 PUSH1 0x1 PUSH1 0xA0 SHL SUB DUP3 AND PUSH1 0x0 SWAP1 DUP2 MSTORE PUSH1 0x20 DUP2 SWAP1 MSTORE PUSH1 0x40 SWAP1 KECCAK256 DUP1 SLOAD DUP3 ADD SWAP1 SSTORE JUMPDEST DUP2 PUSH1 0x1 PUSH1 0x1 PUSH1 0xA0 SHL SUB AND DUP4 PUSH1 0x1 PUSH1 0x1 PUSH1 0xA0 SHL SUB AND PUSH32 0xDDF252AD1BE2C89B69C2B068FC378DAA952BA7F163C4A11628F55A4DF523B3EF DUP4 PUSH1 0x40 MLOAD PUSH3 0x50E SWAP2 DUP2 MSTORE PUSH1 0x20 ADD SWAP1 JUMP JUMPDEST PUSH1 0x40 MLOAD DUP1 SWAP2 SUB SWAP1 LOG3 POP POP POP JUMP JUMPDEST PUSH4 0x4E487B71 PUSH1 0xE0 SHL PUSH1 0x0 MSTORE PUSH1 0x41 PUSH1 0x4 MSTORE PUSH1 0x24 PUSH1 0x0 REVERT JUMPDEST PUSH1 0x1 DUP2 DUP2 SHR SWAP1 DUP3 AND DUP1 PUSH3 0x546 JUMPI PUSH1 0x7F DUP3 AND SWAP2 POP JUMPDEST PUSH1 0x20 DUP3 LT DUP2 SUB PUSH3 0x567 JUMPI PUSH4 0x4E487B71 PUSH1 0xE0 SHL PUSH1 0x0 MSTORE PUSH1 0x22 PUSH1 0x4 MSTORE PUSH1 0x24 PUSH1 0x0 REVERT JUMPDEST POP SWAP2 SWAP1 POP JUMP JUMPDEST PUSH1 0x1F DUP3 GT ISZERO PUSH3 0x5BD JUMPI PUSH1 0x0 DUP2 PUSH1 0x0 MSTORE PUSH1 0x20 PUSH1 0x0 KECCAK256 PUSH1 0x1F DUP6 ADD PUSH1 0x5 SHR DUP2 ADD PUSH1 0x20 DUP7 LT ISZERO PUSH3 0x598 JUMPI POP DUP1 JUMPDEST PUSH1 0x1F DUP6 ADD PUSH1 0x5 SHR DUP3 ADD SWAP2 POP JUMPDEST DUP2 DUP2 LT ISZERO PUSH3 0x5B9 JUMPI DUP3 DUP2 SSTORE PUSH1 0x1 ADD PUSH3 0x5A4 JUMP JUMPDEST POP POP POP JUMPDEST POP POP POP JUMP JUMPDEST DUP2 MLOAD PUSH1 0x1 PUSH1 0x1 PUSH1 0x40 SHL SUB DUP2 GT ISZERO PUSH3 0x5DE JUMPI PUSH3 0x5DE PUSH3 0x51B JUMP JUMPDEST PUSH3 0x5F6 DUP2 PUSH3 0x5EF DUP5 SLOAD PUSH3 0x531 JUMP JUMPDEST DUP5 PUSH3 0x56D JUMP JUMPDEST PUSH1 0x20 DUP1 PUSH1 0x1F DUP4 GT PUSH1 0x1 DUP2 EQ PUSH3 0x62E JUMPI PUSH1 0x0 DUP5 ISZERO PUSH3 0x615 JUMPI POP DUP6 DUP4 ADD MLOAD JUMPDEST PUSH1 0x0 NOT PUSH1 0x3 DUP7 SWAP1 SHL SHR NOT AND PUSH1 0x1 DUP6 SWAP1 SHL OR DUP6 SSTORE PUSH3 0x5B9 JUMP JUMPDEST PUSH1 0x0 DUP6 DUP2 MSTORE PUSH1 0x20 DUP2 KECCAK256 PUSH1 0x1F NOT DUP7 AND SWAP2 JUMPDEST DUP3 DUP2 LT ISZERO PUSH3 0x65F JUMPI DUP9 DUP7 ADD MLOAD DUP3 SSTORE SWAP5 DUP5 ADD SWAP5 PUSH1 0x1 SWAP1 SWAP2 ADD SWAP1 DUP5 ADD PUSH3 0x63E JUMP JUMPDEST POP DUP6 DUP3 LT ISZERO PUSH3 0x67E JUMPI DUP8 DUP6 ADD MLOAD PUSH1 0x0 NOT PUSH1 0x3 DUP9 SWAP1 SHL PUSH1 0xF8 AND SHR NOT AND DUP2 SSTORE JUMPDEST POP POP POP POP POP PUSH1 0x1 SWAP1 DUP2 SHL ADD SWAP1 SSTORE POP JUMP JUMPDEST PUSH4 0x4E487B71 PUSH1 0xE0 SHL PUSH1 0x0 MSTORE PUSH1 0x11 PUSH1 0x4 MSTORE PUSH1 0x24 PUSH1 0x0 REVERT JUMPDEST DUP1 DUP3 MUL DUP2 ISZERO DUP3 DUP3 DIV DUP5 EQ OR PUSH3 0x30F JUMPI PUSH3 0x30F PUSH3 0x68E JUMP JUMPDEST PUSH1 0x0 DUP3 PUSH3 0x6DC JUMPI PUSH4 0x4E487B71 PUSH1 0xE0 SHL PUSH1 0x0 MSTORE PUSH1 0x12 PUSH1 0x4 MSTORE PUSH1 0x24 PUSH1 0x0 REVERT JUMPDEST POP DIV SWAP1 JUMP JUMPDEST PUSH1 0x0 PUSH1 0x20 DUP1 DUP4 MSTORE DUP4 MLOAD DUP1 PUSH1 0x20 DUP6 ADD MSTORE PUSH1 0x0 JUMPDEST DUP2 DUP2 LT ISZERO PUSH3 0x711 JUMPI DUP6 DUP2 ADD DUP4 ADD MLOAD DUP6 DUP3 ADD PUSH1 0x40 ADD MSTORE DUP3 ADD PUSH3 0x6F3 JUMP JUMPDEST POP PUSH1 0x0 PUSH1 0x40 DUP3 DUP7 ADD ADD MSTORE PUSH1 0x40 PUSH1 0x1F NOT PUSH1 0x1F DUP4 ADD AND DUP6 ADD ADD SWAP3 POP POP POP SWAP3 SWAP2 POP POP JUMP JUMPDEST DUP1 MLOAD PUSH1 0x20 DUP1 DUP4 ADD MLOAD SWAP2 SWAP1 DUP2 LT ISZERO PUSH3 0x567 JUMPI PUSH1 0x0 NOT PUSH1 0x20 SWAP2 SWAP1 SWAP2 SUB PUSH1 0x3 SHL SHL AND SWAP2 SWAP1 POP JUMP JUMPDEST DUP1 DUP3 ADD DUP1 DUP3 GT ISZERO PUSH3 0x30F JUMPI PUSH3 0x30F PUSH3 0x68E JUMP JUMPDEST PUSH1 0x80 MLOAD PUSH1 0xA0 MLOAD PUSH1 0xC0 MLOAD PUSH1 0xE0 MLOAD PUSH2 0x100 MLOAD PUSH2 0x120 MLOAD PUSH2 0x140 MLOAD PUSH2 0x161E PUSH3 0x7C8 PUSH1 0x0 CODECOPY PUSH1 0x0 PUSH2 0xDB0 ADD MSTORE PUSH1 0x0 PUSH2 0xD83 ADD MSTORE PUSH1 0x0 PUSH2 0xCAC ADD MSTORE PUSH1 0x0 PUSH2 0xC84 ADD MSTORE PUSH1 0x0 PUSH2 0xBDF ADD MSTORE PUSH1 0x0 PUSH2 0xC09 ADD MSTORE PUSH1 0x0 PUSH2 0xC33 ADD MSTORE PUSH2 0x161E PUSH1 0x0 RETURN INVALID PUSH1 0x80 PUSH1 0x40 MSTORE CALLVALUE DUP1 ISZERO PUSH2 0x10 JUMPI PUSH1 0x0 DUP1 REVERT JUMPDEST POP PUSH1 0x4 CALLDATASIZE LT PUSH2 0x14D JUMPI PUSH1 0x0 CALLDATALOAD PUSH1 0xE0 SHR DUP1 PUSH4 0x755EA794 GT PUSH2 0xC3 JUMPI DUP1 PUSH4 0xB88A802F GT PUSH2 0x7C JUMPI DUP1 PUSH4 0xB88A802F EQ PUSH2 0x2C1 JUMPI DUP1 PUSH4 0xC8910913 EQ PUSH2 0x2C9 JUMPI DUP1 PUSH4 0xD505ACCF EQ PUSH2 0x324 JUMPI DUP1 PUSH4 0xDD62ED3E EQ PUSH2 0x337 JUMPI DUP1 PUSH4 0xF2FDE38B EQ PUSH2 0x370 JUMPI DUP1 PUSH4 0xFF201114 EQ PUSH2 0x383 JUMPI PUSH1 0x0 DUP1 REVERT JUMPDEST DUP1 PUSH4 0x755EA794 EQ PUSH2 0x231 JUMPI DUP1 PUSH4 0x7ECEBE00 EQ PUSH2 0x25D JUMPI DUP1 PUSH4 0x84B0196E EQ PUSH2 0x270 JUMPI DUP1 PUSH4 0x8DA5CB5B EQ PUSH2 0x28B JUMPI DUP1 PUSH4 0x95D89B41 EQ PUSH2 0x2A6 JUMPI DUP1 PUSH4 0xA9059CBB EQ PUSH2 0x2AE JUMPI PUSH1 0x0 DUP1 REVERT JUMPDEST DUP1 PUSH4 0x313CE567 GT PUSH2 0x115 JUMPI DUP1 PUSH4 0x313CE567 EQ PUSH2 0x1C1 JUMPI DUP1 PUSH4 0x3644E515 EQ PUSH2 0x1D0 JUMPI DUP1 PUSH4 0x5D48EDEF EQ PUSH2 0x1D8 JUMPI DUP1 PUSH4 0x698FCDFC EQ PUSH2 0x1ED JUMPI DUP1 PUSH4 0x70A08231 EQ PUSH2 0x200 JUMPI DUP1 PUSH4 0x715018A6 EQ PUSH2 0x229 JUMPI PUSH1 0x0 DUP1 REVERT JUMPDEST DUP1 PUSH4 0x6FDDE03 EQ PUSH2 0x152 JUMPI DUP1 PUSH4 0x95EA7B3 EQ PUSH2 0x170 JUMPI DUP1 PUSH4 0x18160DDD EQ PUSH2 0x193 JUMPI DUP1 PUSH4 0x23B872DD EQ PUSH2 0x1A5 JUMPI DUP1 PUSH4 0x2FF2E9DC EQ PUSH2 0x1B8 JUMPI JUMPDEST PUSH1 0x0 DUP1 REVERT JUMPDEST PUSH2 0x15A PUSH2 0x3AB JUMP JUMPDEST PUSH1 0x40 MLOAD PUSH2 0x167 SWAP2 SWAP1 PUSH2 0x1314 JUMP JUMPDEST PUSH1 0x40 MLOAD DUP1 SWAP2 SUB SWAP1 RETURN JUMPDEST PUSH2 0x183 PUSH2 0x17E CALLDATASIZE PUSH1 0x4 PUSH2 0x134A JUMP JUMPDEST PUSH2 0x43D JUMP JUMPDEST PUSH1 0x40 MLOAD SWAP1 ISZERO ISZERO DUP2 MSTORE PUSH1 0x20 ADD PUSH2 0x167 JUMP JUMPDEST PUSH1 0x2 SLOAD JUMPDEST PUSH1 0x40 MLOAD SWAP1 DUP2 MSTORE PUSH1 0x20 ADD PUSH2 0x167 JUMP JUMPDEST PUSH2 0x183 PUSH2 0x1B3 CALLDATASIZE PUSH1 0x4 PUSH2 0x1374 JUMP JUMPDEST PUSH2 0x457 JUMP JUMPDEST PUSH2 0x197 PUSH1 0x9 SLOAD DUP2 JUMP JUMPDEST PUSH1 0x40 MLOAD PUSH1 0x12 DUP2 MSTORE PUSH1 0x20 ADD PUSH2 0x167 JUMP JUMPDEST PUSH2 0x197 PUSH2 0x47B JUMP JUMPDEST PUSH2 0x1EB PUSH2 0x1E6 CALLDATASIZE PUSH1 0x4 PUSH2 0x134A JUMP JUMPDEST PUSH2 0x48A JUMP JUMPDEST STOP JUMPDEST PUSH2 0x1EB PUSH2 0x1FB CALLDATASIZE PUSH1 0x4 PUSH2 0x13B0 JUMP JUMPDEST PUSH2 0x503 JUMP JUMPDEST PUSH2 0x197 PUSH2 0x20E CALLDATASIZE PUSH1 0x4 PUSH2 0x13B0 JUMP JUMPDEST PUSH1 0x1 PUSH1 0x1 PUSH1 0xA0 SHL SUB AND PUSH1 0x0 SWAP1 DUP2 MSTORE PUSH1 0x20 DUP2 SWAP1 MSTORE PUSH1 0x40 SWAP1 KECCAK256 SLOAD SWAP1 JUMP JUMPDEST PUSH2 0x1EB PUSH2 0x551 JUMP JUMPDEST PUSH2 0x244 PUSH2 0x23F CALLDATASIZE PUSH1 0x4 PUSH2 0x13B0 JUMP JUMPDEST PUSH2 0x565 JUMP JUMPDEST PUSH1 0x40 DUP1 MLOAD PUSH1 0xFF SWAP1 SWAP4 AND DUP4 MSTORE PUSH1 0x20 DUP4 ADD SWAP2 SWAP1 SWAP2 MSTORE ADD PUSH2 0x167 JUMP JUMPDEST PUSH2 0x197 PUSH2 0x26B CALLDATASIZE PUSH1 0x4 PUSH2 0x13B0 JUMP JUMPDEST PUSH2 0x69B JUMP JUMPDEST PUSH2 0x278 PUSH2 0x6B9 JUMP JUMPDEST PUSH1 0x40 MLOAD PUSH2 0x167 SWAP8 SWAP7 SWAP6 SWAP5 SWAP4 SWAP3 SWAP2 SWAP1 PUSH2 0x13CB JUMP JUMPDEST PUSH1 0x8 SLOAD PUSH1 0x40 MLOAD PUSH1 0x1 PUSH1 0x1 PUSH1 0xA0 SHL SUB SWAP1 SWAP2 AND DUP2 MSTORE PUSH1 0x20 ADD PUSH2 0x167 JUMP JUMPDEST PUSH2 0x15A PUSH2 0x6FF JUMP JUMPDEST PUSH2 0x183 PUSH2 0x2BC CALLDATASIZE PUSH1 0x4 PUSH2 0x134A JUMP JUMPDEST PUSH2 0x70E JUMP JUMPDEST PUSH2 0x1EB PUSH2 0x71C JUMP JUMPDEST PUSH2 0x301 PUSH2 0x2D7 CALLDATASIZE PUSH1 0x4 PUSH2 0x13B0 JUMP JUMPDEST PUSH1 0xA PUSH1 0x20 MSTORE PUSH1 0x0 SWAP1 DUP2 MSTORE PUSH1 0x40 SWAP1 KECCAK256 DUP1 SLOAD PUSH1 0x1 DUP3 ADD SLOAD PUSH1 0x2 DUP4 ADD SLOAD PUSH1 0x3 SWAP1 SWAP4 ADD SLOAD SWAP2 SWAP3 SWAP1 SWAP2 PUSH1 0xFF AND DUP5 JUMP JUMPDEST PUSH1 0x40 DUP1 MLOAD SWAP5 DUP6 MSTORE PUSH1 0x20 DUP6 ADD SWAP4 SWAP1 SWAP4 MSTORE SWAP2 DUP4 ADD MSTORE PUSH1 0xFF AND PUSH1 0x60 DUP3 ADD MSTORE PUSH1 0x80 ADD PUSH2 0x167 JUMP JUMPDEST PUSH2 0x1EB PUSH2 0x332 CALLDATASIZE PUSH1 0x4 PUSH2 0x1464 JUMP JUMPDEST PUSH2 0x941 JUMP JUMPDEST PUSH2 0x197 PUSH2 0x345 CALLDATASIZE PUSH1 0x4 PUSH2 0x14D7 JUMP JUMPDEST PUSH1 0x1 PUSH1 0x1 PUSH1 0xA0 SHL SUB SWAP2 DUP3 AND PUSH1 0x0 SWAP1 DUP2 MSTORE PUSH1 0x1 PUSH1 0x20 SWAP1 DUP2 MSTORE PUSH1 0x40 DUP1 DUP4 KECCAK256 SWAP4 SWAP1 SWAP5 AND DUP3 MSTORE SWAP2 SWAP1 SWAP2 MSTORE KECCAK256 SLOAD SWAP1 JUMP JUMPDEST PUSH2 0x1EB PUSH2 0x37E CALLDATASIZE PUSH1 0x4 PUSH2 0x13B0 JUMP JUMPDEST PUSH2 0xA7B JUMP JUMPDEST PUSH2 0x396 PUSH2 0x391 CALLDATASIZE PUSH1 0x4 PUSH2 0x150A JUMP JUMPDEST PUSH2 0xAB9 JUMP JUMPDEST PUSH1 0x40 DUP1 MLOAD SWAP3 DUP4 MSTORE PUSH1 0x20 DUP4 ADD SWAP2 SWAP1 SWAP2 MSTORE ADD PUSH2 0x167 JUMP JUMPDEST PUSH1 0x60 PUSH1 0x3 DUP1 SLOAD PUSH2 0x3BA SWAP1 PUSH2 0x1523 JUMP JUMPDEST DUP1 PUSH1 0x1F ADD PUSH1 0x20 DUP1 SWAP2 DIV MUL PUSH1 0x20 ADD PUSH1 0x40 MLOAD SWAP1 DUP2 ADD PUSH1 0x40 MSTORE DUP1 SWAP3 SWAP2 SWAP1 DUP2 DUP2 MSTORE PUSH1 0x20 ADD DUP3 DUP1 SLOAD PUSH2 0x3E6 SWAP1 PUSH2 0x1523 JUMP JUMPDEST DUP1 ISZERO PUSH2 0x433 JUMPI DUP1 PUSH1 0x1F LT PUSH2 0x408 JUMPI PUSH2 0x100 DUP1 DUP4 SLOAD DIV MUL DUP4 MSTORE SWAP2 PUSH1 0x20 ADD SWAP2 PUSH2 0x433 JUMP JUMPDEST DUP3 ADD SWAP2 SWAP1 PUSH1 0x0 MSTORE PUSH1 0x20 PUSH1 0x0 KECCAK256 SWAP1 JUMPDEST DUP2 SLOAD DUP2 MSTORE SWAP1 PUSH1 0x1 ADD SWAP1 PUSH1 0x20 ADD DUP1 DUP4 GT PUSH2 0x416 JUMPI DUP3 SWAP1 SUB PUSH1 0x1F AND DUP3 ADD SWAP2 JUMPDEST POP POP POP POP POP SWAP1 POP SWAP1 JUMP JUMPDEST PUSH1 0x0 CALLER PUSH2 0x44B DUP2 DUP6 DUP6 PUSH2 0xAE7 JUMP JUMPDEST PUSH1 0x1 SWAP2 POP POP JUMPDEST SWAP3 SWAP2 POP POP JUMP JUMPDEST PUSH1 0x0 CALLER PUSH2 0x465 DUP6 DUP3 DUP6 PUSH2 0xAF4 JUMP JUMPDEST PUSH2 0x470 DUP6 DUP6 DUP6 PUSH2 0xB73 JUMP JUMPDEST POP PUSH1 0x1 SWAP5 SWAP4 POP POP POP POP JUMP JUMPDEST PUSH1 0x0 PUSH2 0x485 PUSH2 0xBD2 JUMP JUMPDEST SWAP1 POP SWAP1 JUMP JUMPDEST PUSH2 0x492 PUSH2 0xCFD JUMP JUMPDEST PUSH8 0xDE0B6B3A7640000 DUP2 GT ISZERO PUSH2 0x4E4 JUMPI PUSH1 0x40 MLOAD PUSH3 0x461BCD PUSH1 0xE5 SHL DUP2 MSTORE PUSH1 0x20 PUSH1 0x4 DUP3 ADD MSTORE PUSH1 0x12 PUSH1 0x24 DUP3 ADD MSTORE PUSH18 0x53636F7265206F7574206F662072616E6765 PUSH1 0x70 SHL PUSH1 0x44 DUP3 ADD MSTORE PUSH1 0x64 ADD JUMPDEST PUSH1 0x40 MLOAD DUP1 SWAP2 SUB SWAP1 REVERT JUMPDEST PUSH1 0x1 PUSH1 0x1 PUSH1 0xA0 SHL SUB SWAP1 SWAP2 AND PUSH1 0x0 SWAP1 DUP2 MSTORE PUSH1 0xA PUSH1 0x20 MSTORE PUSH1 0x40 SWAP1 KECCAK256 PUSH1 0x1 ADD SSTORE JUMP JUMPDEST PUSH2 0x50B PUSH2 0xCFD JUMP JUMPDEST PUSH1 0x1 PUSH1 0x1 PUSH1 0xA0 SHL SUB DUP2 AND PUSH1 0x0 SWAP1 DUP2 MSTORE PUSH1 0xA PUSH1 0x20 MSTORE PUSH1 0x40 DUP2 KECCAK256 DUP1 SLOAD SWAP1 SWAP2 SUB PUSH2 0x533 JUMPI TIMESTAMP PUSH1 0x2 DUP3 ADD SSTORE JUMPDEST PUSH1 0x1 DUP2 PUSH1 0x0 ADD PUSH1 0x0 DUP3 DUP3 SLOAD PUSH2 0x548 SWAP2 SWAP1 PUSH2 0x1573 JUMP JUMPDEST SWAP1 SWAP2 SSTORE POP POP POP POP JUMP JUMPDEST PUSH2 0x559 PUSH2 0xCFD JUMP JUMPDEST PUSH2 0x563 PUSH1 0x0 PUSH2 0xD2A JUMP JUMPDEST JUMP JUMPDEST PUSH1 0x1 PUSH1 0x1 PUSH1 0xA0 SHL SUB DUP2 AND PUSH1 0x0 SWAP1 DUP2 MSTORE PUSH1 0xA PUSH1 0x20 SWAP1 DUP2 MSTORE PUSH1 0x40 DUP1 DUP4 KECCAK256 DUP2 MLOAD PUSH1 0x80 DUP2 ADD DUP4 MSTORE DUP2 SLOAD DUP2 MSTORE PUSH1 0x1 DUP3 ADD SLOAD SWAP4 DUP2 ADD SWAP4 SWAP1 SWAP4 MSTORE PUSH1 0x2 DUP2 ADD SLOAD SWAP2 DUP4 ADD SWAP2 SWAP1 SWAP2 MSTORE PUSH1 0x3 ADD SLOAD PUSH1 0xFF AND PUSH1 0x60 DUP3 ADD DUP2 SWAP1 MSTORE DUP3 SWAP2 SWAP1 ISZERO ISZERO DUP1 PUSH2 0x5CD JUMPI POP PUSH8 0x6F05B59D3B20000 DUP2 PUSH1 0x20 ADD MLOAD LT JUMPDEST DUP1 PUSH2 0x5E8 JUMPI POP PUSH1 0x40 DUP2 ADD MLOAD PUSH2 0x5E5 SWAP1 PUSH3 0x278D00 PUSH2 0x1573 JUMP JUMPDEST TIMESTAMP GT JUMPDEST ISZERO PUSH2 0x5F9 JUMPI POP PUSH1 0x0 SWAP4 DUP5 SWAP4 POP SWAP2 POP POP JUMP JUMPDEST PUSH1 0xB SLOAD JUMPDEST PUSH1 0xFF DUP2 AND ISZERO PUSH2 0x68E JUMPI PUSH1 0xB PUSH2 0x613 PUSH1 0x1 DUP4 PUSH2 0x1586 JUMP JUMPDEST PUSH1 0xFF AND DUP2 SLOAD DUP2 LT PUSH2 0x626 JUMPI PUSH2 0x626 PUSH2 0x159F JUMP JUMPDEST PUSH1 0x0 SWAP2 DUP3 MSTORE PUSH1 0x20 SWAP1 SWAP2 KECCAK256 PUSH1 0x2 SWAP1 SWAP2 MUL ADD SLOAD DUP3 MLOAD LT PUSH2 0x67C JUMPI DUP1 PUSH1 0xB PUSH2 0x64C PUSH1 0x1 DUP4 PUSH2 0x1586 JUMP JUMPDEST PUSH1 0xFF AND DUP2 SLOAD DUP2 LT PUSH2 0x65F JUMPI PUSH2 0x65F PUSH2 0x159F JUMP JUMPDEST SWAP1 PUSH1 0x0 MSTORE PUSH1 0x20 PUSH1 0x0 KECCAK256 SWAP1 PUSH1 0x2 MUL ADD PUSH1 0x1 ADD SLOAD SWAP4 POP SWAP4 POP POP POP SWAP2 POP SWAP2 JUMP JUMPDEST DUP1 PUSH2 0x686 DUP2 PUSH2 0x15B5 JUMP JUMPDEST SWAP2 POP POP PUSH2 0x5FD JUMP JUMPDEST POP PUSH1 0x0 SWAP5 DUP6 SWAP5 POP SWAP3 POP POP POP JUMP JUMPDEST PUSH1 0x1 PUSH1 0x1 PUSH1 0xA0 SHL SUB DUP2 AND PUSH1 0x0 SWAP1 DUP2 MSTORE PUSH1 0x7 PUSH1 0x20 MSTORE PUSH1 0x40 DUP2 KECCAK256 SLOAD PUSH2 0x451 JUMP JUMPDEST PUSH1 0x0 PUSH1 0x60 DUP1 PUSH1 0x0 DUP1 PUSH1 0x0 PUSH1 0x60 PUSH2 0x6CD PUSH2 0xD7C JUMP JUMPDEST PUSH2 0x6D5 PUSH2 0xDA9 JUMP JUMPDEST PUSH1 0x40 DUP1 MLOAD PUSH1 0x0 DUP1 DUP3 MSTORE PUSH1 0x20 DUP3 ADD SWAP1 SWAP3 MSTORE PUSH1 0xF PUSH1 0xF8 SHL SWAP12 SWAP4 SWAP11 POP SWAP2 SWAP9 POP CHAINID SWAP8 POP ADDRESS SWAP7 POP SWAP5 POP SWAP3 POP SWAP1 POP JUMP JUMPDEST PUSH1 0x60 PUSH1 0x4 DUP1 SLOAD PUSH2 0x3BA SWAP1 PUSH2 0x1523 JUMP JUMPDEST PUSH1 0x0 CALLER PUSH2 0x44B DUP2 DUP6 DUP6 PUSH2 0xB73 JUMP JUMPDEST CALLER PUSH1 0x0 SWAP1 DUP2 MSTORE PUSH1 0xA PUSH1 0x20 MSTORE PUSH1 0x40 SWAP1 KECCAK256 PUSH1 0x3 DUP2 ADD SLOAD PUSH1 0xFF AND ISZERO PUSH2 0x780 JUMPI PUSH1 0x40 MLOAD PUSH3 0x461BCD PUSH1 0xE5 SHL DUP2 MSTORE PUSH1 0x20 PUSH1 0x4 DUP3 ADD MSTORE PUSH1 0x1E PUSH1 0x24 DUP3 ADD MSTORE PUSH32 0x416C726561647920636C61696D6564206120726577617264206C6576656C0000 PUSH1 0x44 DUP3 ADD MSTORE PUSH1 0x64 ADD PUSH2 0x4DB JUMP JUMPDEST PUSH8 0x6F05B59D3B20000 DUP2 PUSH1 0x1 ADD SLOAD LT ISZERO PUSH2 0x7DC JUMPI PUSH1 0x40 MLOAD PUSH3 0x461BCD PUSH1 0xE5 SHL DUP2 MSTORE PUSH1 0x20 PUSH1 0x4 DUP3 ADD MSTORE PUSH1 0x18 PUSH1 0x24 DUP3 ADD MSTORE PUSH32 0x4D6F6465726174696F6E2073636F726520746F6F206C6F770000000000000000 PUSH1 0x44 DUP3 ADD MSTORE PUSH1 0x64 ADD PUSH2 0x4DB JUMP JUMPDEST PUSH1 0x2 DUP2 ADD SLOAD PUSH2 0x7EE SWAP1 PUSH3 0x278D00 PUSH2 0x1573 JUMP JUMPDEST TIMESTAMP GT ISZERO PUSH2 0x834 JUMPI PUSH1 0x40 MLOAD PUSH3 0x461BCD PUSH1 0xE5 SHL DUP2 MSTORE PUSH1 0x20 PUSH1 0x4 DUP3 ADD MSTORE PUSH1 0x14 PUSH1 0x24 DUP3 ADD MSTORE PUSH20 0x10DB185A5B481C195C9A5BD908195E1C1A5C9959 PUSH1 0x62 SHL PUSH1 0x44 DUP3 ADD MSTORE PUSH1 0x64 ADD PUSH2 0x4DB JUMP JUMPDEST PUSH1 0xB SLOAD PUSH1 0x0 SWAP1 DUP2 SWAP1 JUMPDEST PUSH1 0xFF DUP2 AND ISZERO PUSH2 0x8CC JUMPI PUSH1 0xB PUSH2 0x853 PUSH1 0x1 DUP4 PUSH2 0x1586 JUMP JUMPDEST PUSH1 0xFF AND DUP2 SLOAD DUP2 LT PUSH2 0x866 JUMPI PUSH2 0x866 PUSH2 0x159F JUMP JUMPDEST PUSH1 0x0 SWAP2 DUP3 MSTORE PUSH1 0x20 SWAP1 SWAP2 KECCAK256 PUSH1 0x2 SWAP1 SWAP2 MUL ADD SLOAD DUP5 SLOAD LT PUSH2 0x8BA JUMPI SWAP2 POP DUP2 PUSH1 0xB PUSH2 0x88E PUSH1 0x1 DUP4 PUSH2 0x1586 JUMP JUMPDEST PUSH1 0xFF AND DUP2 SLOAD DUP2 LT PUSH2 0x8A1 JUMPI PUSH2 0x8A1 PUSH2 0x159F JUMP JUMPDEST SWAP1 PUSH1 0x0 MSTORE PUSH1 0x20 PUSH1 0x0 KECCAK256 SWAP1 PUSH1 0x2 MUL ADD PUSH1 0x1 ADD SLOAD SWAP2 POP PUSH2 0x8CC JUMP JUMPDEST DUP1 PUSH2 0x8C4 DUP2 PUSH2 0x15B5 JUMP JUMPDEST SWAP2 POP POP PUSH2 0x83D JUMP JUMPDEST POP PUSH1 0x0 DUP3 PUSH1 0xFF AND GT PUSH2 0x920 JUMPI PUSH1 0x40 MLOAD PUSH3 0x461BCD PUSH1 0xE5 SHL DUP2 MSTORE PUSH1 0x20 PUSH1 0x4 DUP3 ADD MSTORE PUSH1 0x1F PUSH1 0x24 DUP3 ADD MSTORE PUSH32 0x4E6F7420656E6F756768206C696B657320666F7220616E792072657761726400 PUSH1 0x44 DUP3 ADD MSTORE PUSH1 0x64 ADD PUSH2 0x4DB JUMP JUMPDEST PUSH1 0x3 DUP4 ADD DUP1 SLOAD PUSH1 0xFF NOT AND PUSH1 0xFF DUP5 AND OR SWAP1 SSTORE PUSH2 0x93C ADDRESS CALLER DUP4 PUSH2 0xB73 JUMP JUMPDEST POP POP POP JUMP JUMPDEST DUP4 TIMESTAMP GT ISZERO PUSH2 0x965 JUMPI PUSH1 0x40 MLOAD PUSH4 0x313C8981 PUSH1 0xE1 SHL DUP2 MSTORE PUSH1 0x4 DUP2 ADD DUP6 SWAP1 MSTORE PUSH1 0x24 ADD PUSH2 0x4DB JUMP JUMPDEST PUSH1 0x0 PUSH32 0x6E71EDAE12B1B97F4D1F60370FEF10105FA2FAAE0126114A169C64845D6126C9 DUP9 DUP9 DUP9 PUSH2 0x9B2 DUP13 PUSH1 0x1 PUSH1 0x1 PUSH1 0xA0 SHL SUB AND PUSH1 0x0 SWAP1 DUP2 MSTORE PUSH1 0x7 PUSH1 0x20 MSTORE PUSH1 0x40 SWAP1 KECCAK256 DUP1 SLOAD PUSH1 0x1 DUP2 ADD SWAP1 SWAP2 SSTORE SWAP1 JUMP JUMPDEST PUSH1 0x40 DUP1 MLOAD PUSH1 0x20 DUP2 ADD SWAP7 SWAP1 SWAP7 MSTORE PUSH1 0x1 PUSH1 0x1 PUSH1 0xA0 SHL SUB SWAP5 DUP6 AND SWAP1 DUP7 ADD MSTORE SWAP3 SWAP1 SWAP2 AND PUSH1 0x60 DUP5 ADD MSTORE PUSH1 0x80 DUP4 ADD MSTORE PUSH1 0xA0 DUP3 ADD MSTORE PUSH1 0xC0 DUP2 ADD DUP7 SWAP1 MSTORE PUSH1 0xE0 ADD PUSH1 0x40 MLOAD PUSH1 0x20 DUP2 DUP4 SUB SUB DUP2 MSTORE SWAP1 PUSH1 0x40 MSTORE DUP1 MLOAD SWAP1 PUSH1 0x20 ADD KECCAK256 SWAP1 POP PUSH1 0x0 PUSH2 0xA0D DUP3 PUSH2 0xDD6 JUMP JUMPDEST SWAP1 POP PUSH1 0x0 PUSH2 0xA1D DUP3 DUP8 DUP8 DUP8 PUSH2 0xE03 JUMP JUMPDEST SWAP1 POP DUP10 PUSH1 0x1 PUSH1 0x1 PUSH1 0xA0 SHL SUB AND DUP2 PUSH1 0x1 PUSH1 0x1 PUSH1 0xA0 SHL SUB AND EQ PUSH2 0xA64 JUMPI PUSH1 0x40 MLOAD PUSH4 0x25C00723 PUSH1 0xE1 SHL DUP2 MSTORE PUSH1 0x1 PUSH1 0x1 PUSH1 0xA0 SHL SUB DUP1 DUP4 AND PUSH1 0x4 DUP4 ADD MSTORE DUP12 AND PUSH1 0x24 DUP3 ADD MSTORE PUSH1 0x44 ADD PUSH2 0x4DB JUMP JUMPDEST PUSH2 0xA6F DUP11 DUP11 DUP11 PUSH2 0xAE7 JUMP JUMPDEST POP POP POP POP POP POP POP POP POP POP JUMP JUMPDEST PUSH2 0xA83 PUSH2 0xCFD JUMP JUMPDEST PUSH1 0x1 PUSH1 0x1 PUSH1 0xA0 SHL SUB DUP2 AND PUSH2 0xAAD JUMPI PUSH1 0x40 MLOAD PUSH4 0x1E4FBDF7 PUSH1 0xE0 SHL DUP2 MSTORE PUSH1 0x0 PUSH1 0x4 DUP3 ADD MSTORE PUSH1 0x24 ADD PUSH2 0x4DB JUMP JUMPDEST PUSH2 0xAB6 DUP2 PUSH2 0xD2A JUMP JUMPDEST POP JUMP JUMPDEST PUSH1 0xB DUP2 DUP2 SLOAD DUP2 LT PUSH2 0xAC9 JUMPI PUSH1 0x0 DUP1 REVERT JUMPDEST PUSH1 0x0 SWAP2 DUP3 MSTORE PUSH1 0x20 SWAP1 SWAP2 KECCAK256 PUSH1 0x2 SWAP1 SWAP2 MUL ADD DUP1 SLOAD PUSH1 0x1 SWAP1 SWAP2 ADD SLOAD SWAP1 SWAP2 POP DUP3 JUMP JUMPDEST PUSH2 0x93C DUP4 DUP4 DUP4 PUSH1 0x1 PUSH2 0xE31 JUMP JUMPDEST PUSH1 0x1 PUSH1 0x1 PUSH1 0xA0 SHL SUB DUP4 DUP2 AND PUSH1 0x0 SWAP1 DUP2 MSTORE PUSH1 0x1 PUSH1 0x20 SWAP1 DUP2 MSTORE PUSH1 0x40 DUP1 DUP4 KECCAK256 SWAP4 DUP7 AND DUP4 MSTORE SWAP3 SWAP1 MSTORE KECCAK256 SLOAD PUSH1 0x0 NOT DUP2 LT ISZERO PUSH2 0xB6D JUMPI DUP2 DUP2 LT ISZERO PUSH2 0xB5E JUMPI PUSH1 0x40 MLOAD PUSH4 0x7DC7A0D9 PUSH1 0xE1 SHL DUP2 MSTORE PUSH1 0x1 PUSH1 0x1 PUSH1 0xA0 SHL SUB DUP5 AND PUSH1 0x4 DUP3 ADD MSTORE PUSH1 0x24 DUP2 ADD DUP3 SWAP1 MSTORE PUSH1 0x44 DUP2 ADD DUP4 SWAP1 MSTORE PUSH1 0x64 ADD PUSH2 0x4DB JUMP JUMPDEST PUSH2 0xB6D DUP5 DUP5 DUP5 DUP5 SUB PUSH1 0x0 PUSH2 0xE31 JUMP JUMPDEST POP POP POP POP JUMP JUMPDEST PUSH1 0x1 PUSH1 0x1 PUSH1 0xA0 SHL SUB DUP4 AND PUSH2 0xB9D JUMPI PUSH1 0x40 MLOAD PUSH4 0x4B637E8F PUSH1 0xE1 SHL DUP2 MSTORE PUSH1 0x0 PUSH1 0x4 DUP3 ADD MSTORE PUSH1 0x24 ADD PUSH2 0x4DB JUMP JUMPDEST PUSH1 0x1 PUSH1 0x1 PUSH1 0xA0 SHL SUB DUP3 AND PUSH2 0xBC7 JUMPI PUSH1 0x40 MLOAD PUSH4 0xEC442F05 PUSH1 0xE0 SHL DUP2 MSTORE PUSH1 0x0 PUSH1 0x4 DUP3 ADD MSTORE PUSH1 0x24 ADD PUSH2 0x4DB JUMP JUMPDEST PUSH2 0x93C DUP4 DUP4 DUP4 PUSH2 0xF06 JUMP JUMPDEST PUSH1 0x0 ADDRESS PUSH1 0x1 PUSH1 0x1 PUSH1 0xA0 SHL SUB PUSH32 0x0 AND EQ DUP1 ISZERO PUSH2 0xC2B JUMPI POP PUSH32 0x0 CHAINID EQ JUMPDEST ISZERO PUSH2 0xC55 JUMPI POP PUSH32 0x0 SWAP1 JUMP JUMPDEST PUSH2 0x485 PUSH1 0x40 DUP1 MLOAD PUSH32 0x8B73C3C69BB8FE3D512ECC4CF759CC79239F7B179B0FFACAA9A75D522B39400F PUSH1 0x20 DUP3 ADD MSTORE PUSH32 0x0 SWAP2 DUP2 ADD SWAP2 SWAP1 SWAP2 MSTORE PUSH32 0x0 PUSH1 0x60 DUP3 ADD MSTORE CHAINID PUSH1 0x80 DUP3 ADD MSTORE ADDRESS PUSH1 0xA0 DUP3 ADD MSTORE PUSH1 0x0 SWAP1 PUSH1 0xC0 ADD PUSH1 0x40 MLOAD PUSH1 0x20 DUP2 DUP4 SUB SUB DUP2 MSTORE SWAP1 PUSH1 0x40 MSTORE DUP1 MLOAD SWAP1 PUSH1 0x20 ADD KECCAK256 SWAP1 POP SWAP1 JUMP JUMPDEST PUSH1 0x8 SLOAD PUSH1 0x1 PUSH1 0x1 PUSH1 0xA0 SHL SUB AND CALLER EQ PUSH2 0x563 JUMPI PUSH1 0x40 MLOAD PUSH4 0x118CDAA7 PUSH1 0xE0 SHL DUP2 MSTORE CALLER PUSH1 0x4 DUP3 ADD MSTORE PUSH1 0x24 ADD PUSH2 0x4DB JUMP JUMPDEST PUSH1 0x8 DUP1 SLOAD PUSH1 0x1 PUSH1 0x1 PUSH1 0xA0 SHL SUB DUP4 DUP2 AND PUSH1 0x1 PUSH1 0x1 PUSH1 0xA0 SHL SUB NOT DUP4 AND DUP2 OR SWAP1 SWAP4 SSTORE PUSH1 0x40 MLOAD SWAP2 AND SWAP2 SWAP1 DUP3 SWAP1 PUSH32 0x8BE0079C531659141344CD1FD0A4F28419497F9722A3DAAFE3B4186F6B6457E0 SWAP1 PUSH1 0x0 SWAP1 LOG3 POP POP JUMP JUMPDEST PUSH1 0x60 PUSH2 0x485 PUSH32 0x0 PUSH1 0x5 PUSH2 0x1030 JUMP JUMPDEST PUSH1 0x60 PUSH2 0x485 PUSH32 0x0 PUSH1 0x6 PUSH2 0x1030 JUMP JUMPDEST PUSH1 0x0 PUSH2 0x451 PUSH2 0xDE3 PUSH2 0xBD2 JUMP JUMPDEST DUP4 PUSH1 0x40 MLOAD PUSH2 0x1901 PUSH1 0xF0 SHL DUP2 MSTORE PUSH1 0x2 DUP2 ADD SWAP3 SWAP1 SWAP3 MSTORE PUSH1 0x22 DUP3 ADD MSTORE PUSH1 0x42 SWAP1 KECCAK256 SWAP1 JUMP JUMPDEST PUSH1 0x0 DUP1 PUSH1 0x0 DUP1 PUSH2 0xE15 DUP9 DUP9 DUP9 DUP9 PUSH2 0x10DB JUMP JUMPDEST SWAP3 POP SWAP3 POP SWAP3 POP PUSH2 0xE25 DUP3 DUP3 PUSH2 0x11AA JUMP JUMPDEST POP SWAP1 SWAP7 SWAP6 POP POP POP POP POP POP JUMP JUMPDEST PUSH1 0x1 PUSH1 0x1 PUSH1 0xA0 SHL SUB DUP5 AND PUSH2 0xE5B JUMPI PUSH1 0x40 MLOAD PUSH4 0xE602DF05 PUSH1 0xE0 SHL DUP2 MSTORE PUSH1 0x0 PUSH1 0x4 DUP3 ADD MSTORE PUSH1 0x24 ADD PUSH2 0x4DB JUMP JUMPDEST PUSH1 0x1 PUSH1 0x1 PUSH1 0xA0 SHL SUB DUP4 AND PUSH2 0xE85 JUMPI PUSH1 0x40 MLOAD PUSH4 0x4A1406B1 PUSH1 0xE1 SHL DUP2 MSTORE PUSH1 0x0 PUSH1 0x4 DUP3 ADD MSTORE PUSH1 0x24 ADD PUSH2 0x4DB JUMP JUMPDEST PUSH1 0x1 PUSH1 0x1 PUSH1 0xA0 SHL SUB DUP1 DUP6 AND PUSH1 0x0 SWAP1 DUP2 MSTORE PUSH1 0x1 PUSH1 0x20 SWAP1 DUP2 MSTORE PUSH1 0x40 DUP1 DUP4 KECCAK256 SWAP4 DUP8 AND DUP4 MSTORE SWAP3 SWAP1 MSTORE KECCAK256 DUP3 SWAP1 SSTORE DUP1 ISZERO PUSH2 0xB6D JUMPI DUP3 PUSH1 0x1 PUSH1 0x1 PUSH1 0xA0 SHL SUB AND DUP5 PUSH1 0x1 PUSH1 0x1 PUSH1 0xA0 SHL SUB AND PUSH32 0x8C5BE1E5EBEC7D5BD14F71427D1E84F3DD0314C0F7B2291E5B200AC8C7C3B925 DUP5 PUSH1 0x40 MLOAD PUSH2 0xEF8 SWAP2 DUP2 MSTORE PUSH1 0x20 ADD SWAP1 JUMP JUMPDEST PUSH1 0x40 MLOAD DUP1 SWAP2 SUB SWAP1 LOG3 POP POP POP POP JUMP JUMPDEST PUSH1 0x1 PUSH1 0x1 PUSH1 0xA0 SHL SUB DUP4 AND PUSH2 0xF31 JUMPI DUP1 PUSH1 0x2 PUSH1 0x0 DUP3 DUP3 SLOAD PUSH2 0xF26 SWAP2 SWAP1 PUSH2 0x1573 JUMP JUMPDEST SWAP1 SWAP2 SSTORE POP PUSH2 0xFA3 SWAP1 POP JUMP JUMPDEST PUSH1 0x1 PUSH1 0x1 PUSH1 0xA0 SHL SUB DUP4 AND PUSH1 0x0 SWAP1 DUP2 MSTORE PUSH1 0x20 DUP2 SWAP1 MSTORE PUSH1 0x40 SWAP1 KECCAK256 SLOAD DUP2 DUP2 LT ISZERO PUSH2 0xF84 JUMPI PUSH1 0x40 MLOAD PUSH4 0x391434E3 PUSH1 0xE2 SHL DUP2 MSTORE PUSH1 0x1 PUSH1 0x1 PUSH1 0xA0 SHL SUB DUP6 AND PUSH1 0x4 DUP3 ADD MSTORE PUSH1 0x24 DUP2 ADD DUP3 SWAP1 MSTORE PUSH1 0x44 DUP2 ADD DUP4 SWAP1 MSTORE PUSH1 0x64 ADD PUSH2 0x4DB JUMP JUMPDEST PUSH1 0x1 PUSH1 0x1 PUSH1 0xA0 SHL SUB DUP5 AND PUSH1 0x0 SWAP1 DUP2 MSTORE PUSH1 0x20 DUP2 SWAP1 MSTORE PUSH1 0x40 SWAP1 KECCAK256 SWAP1 DUP3 SWAP1 SUB SWAP1 SSTORE JUMPDEST PUSH1 0x1 PUSH1 0x1 PUSH1 0xA0 SHL SUB DUP3 AND PUSH2 0xFBF JUMPI PUSH1 0x2 DUP1 SLOAD DUP3 SWAP1 SUB SWAP1 SSTORE PUSH2 0xFDE JUMP JUMPDEST PUSH1 0x1 PUSH1 0x1 PUSH1 0xA0 SHL SUB DUP3 AND PUSH1 0x0 SWAP1 DUP2 MSTORE PUSH1 0x20 DUP2 SWAP1 MSTORE PUSH1 0x40 SWAP1 KECCAK256 DUP1 SLOAD DUP3 ADD SWAP1 SSTORE JUMPDEST DUP2 PUSH1 0x1 PUSH1 0x1 PUSH1 0xA0 SHL SUB AND DUP4 PUSH1 0x1 PUSH1 0x1 PUSH1 0xA0 SHL SUB AND PUSH32 0xDDF252AD1BE2C89B69C2B068FC378DAA952BA7F163C4A11628F55A4DF523B3EF DUP4 PUSH1 0x40 MLOAD PUSH2 0x1023 SWAP2 DUP2 MSTORE PUSH1 0x20 ADD SWAP1 JUMP JUMPDEST PUSH1 0x40 MLOAD DUP1 SWAP2 SUB SWAP1 LOG3 POP POP POP JUMP JUMPDEST PUSH1 0x60 PUSH1 0xFF DUP4 EQ PUSH2 0x104A JUMPI PUSH2 0x1043 DUP4 PUSH2 0x1267 JUMP JUMPDEST SWAP1 POP PUSH2 0x451 JUMP JUMPDEST DUP2 DUP1 SLOAD PUSH2 0x1056 SWAP1 PUSH2 0x1523 JUMP JUMPDEST DUP1 PUSH1 0x1F ADD PUSH1 0x20 DUP1 SWAP2 DIV MUL PUSH1 0x20 ADD PUSH1 0x40 MLOAD SWAP1 DUP2 ADD PUSH1 0x40 MSTORE DUP1 SWAP3 SWAP2 SWAP1 DUP2 DUP2 MSTORE PUSH1 0x20 ADD DUP3 DUP1 SLOAD PUSH2 0x1082 SWAP1 PUSH2 0x1523 JUMP JUMPDEST DUP1 ISZERO PUSH2 0x10CF JUMPI DUP1 PUSH1 0x1F LT PUSH2 0x10A4 JUMPI PUSH2 0x100 DUP1 DUP4 SLOAD DIV MUL DUP4 MSTORE SWAP2 PUSH1 0x20 ADD SWAP2 PUSH2 0x10CF JUMP JUMPDEST DUP3 ADD SWAP2 SWAP1 PUSH1 0x0 MSTORE PUSH1 0x20 PUSH1 0x0 KECCAK256 SWAP1 JUMPDEST DUP2 SLOAD DUP2 MSTORE SWAP1 PUSH1 0x1 ADD SWAP1 PUSH1 0x20 ADD DUP1 DUP4 GT PUSH2 0x10B2 JUMPI DUP3 SWAP1 SUB PUSH1 0x1F AND DUP3 ADD SWAP2 JUMPDEST POP POP POP POP POP SWAP1 POP PUSH2 0x451 JUMP JUMPDEST PUSH1 0x0 DUP1 DUP1 PUSH32 0x7FFFFFFFFFFFFFFFFFFFFFFFFFFFFFFF5D576E7357A4501DDFE92F46681B20A0 DUP5 GT ISZERO PUSH2 0x1116 JUMPI POP PUSH1 0x0 SWAP2 POP PUSH1 0x3 SWAP1 POP DUP3 PUSH2 0x11A0 JUMP JUMPDEST PUSH1 0x40 DUP1 MLOAD PUSH1 0x0 DUP1 DUP3 MSTORE PUSH1 0x20 DUP3 ADD DUP1 DUP5 MSTORE DUP11 SWAP1 MSTORE PUSH1 0xFF DUP10 AND SWAP3 DUP3 ADD SWAP3 SWAP1 SWAP3 MSTORE PUSH1 0x60 DUP2 ADD DUP8 SWAP1 MSTORE PUSH1 0x80 DUP2 ADD DUP7 SWAP1 MSTORE PUSH1 0x1 SWAP1 PUSH1 0xA0 ADD PUSH1 0x20 PUSH1 0x40 MLOAD PUSH1 0x20 DUP2 SUB SWAP1 DUP1 DUP5 SUB SWAP1 DUP6 GAS STATICCALL ISZERO DUP1 ISZERO PUSH2 0x116A JUMPI RETURNDATASIZE PUSH1 0x0 DUP1 RETURNDATACOPY RETURNDATASIZE PUSH1 0x0 REVERT JUMPDEST POP POP PUSH1 0x40 MLOAD PUSH1 0x1F NOT ADD MLOAD SWAP2 POP POP PUSH1 0x1 PUSH1 0x1 PUSH1 0xA0 SHL SUB DUP2 AND PUSH2 0x1196 JUMPI POP PUSH1 0x0 SWAP3 POP PUSH1 0x1 SWAP2 POP DUP3 SWAP1 POP PUSH2 0x11A0 JUMP JUMPDEST SWAP3 POP PUSH1 0x0 SWAP2 POP DUP2 SWAP1 POP JUMPDEST SWAP5 POP SWAP5 POP SWAP5 SWAP2 POP POP JUMP JUMPDEST PUSH1 0x0 DUP3 PUSH1 0x3 DUP2 GT ISZERO PUSH2 0x11BE JUMPI PUSH2 0x11BE PUSH2 0x15D2 JUMP JUMPDEST SUB PUSH2 0x11C7 JUMPI POP POP JUMP JUMPDEST PUSH1 0x1 DUP3 PUSH1 0x3 DUP2 GT ISZERO PUSH2 0x11DB JUMPI PUSH2 0x11DB PUSH2 0x15D2 JUMP JUMPDEST SUB PUSH2 0x11F9 JUMPI PUSH1 0x40 MLOAD PUSH4 0xF645EEDF PUSH1 0xE0 SHL DUP2 MSTORE PUSH1 0x4 ADD PUSH1 0x40 MLOAD DUP1 SWAP2 SUB SWAP1 REVERT JUMPDEST PUSH1 0x2 DUP3 PUSH1 0x3 DUP2 GT ISZERO PUSH2 0x120D JUMPI PUSH2 0x120D PUSH2 0x15D2 JUMP JUMPDEST SUB PUSH2 0x122E JUMPI PUSH1 0x40 MLOAD PUSH4 0xFCE698F7 PUSH1 0xE0 SHL DUP2 MSTORE PUSH1 0x4 DUP2 ADD DUP3 SWAP1 MSTORE PUSH1 0x24 ADD PUSH2 0x4DB JUMP JUMPDEST PUSH1 0x3 DUP3 PUSH1 0x3 DUP2 GT ISZERO PUSH2 0x1242 JUMPI PUSH2 0x1242 PUSH2 0x15D2 JUMP JUMPDEST SUB PUSH2 0x1263 JUMPI PUSH1 0x40 MLOAD PUSH4 0x35E2F383 PUSH1 0xE2 SHL DUP2 MSTORE PUSH1 0x4 DUP2 ADD DUP3 SWAP1 MSTORE PUSH1 0x24 ADD PUSH2 0x4DB JUMP JUMPDEST POP POP JUMP JUMPDEST PUSH1 0x60 PUSH1 0x0 PUSH2 0x1274 DUP4 PUSH2 0x12A6 JUMP JUMPDEST PUSH1 0x40 DUP1 MLOAD PUSH1 0x20 DUP1 DUP3 MSTORE DUP2 DUP4 ADD SWAP1 SWAP3 MSTORE SWAP2 SWAP3 POP PUSH1 0x0 SWAP2 SWAP1 PUSH1 0x20 DUP3 ADD DUP2 DUP1 CALLDATASIZE DUP4 CALLDATACOPY POP POP POP SWAP2 DUP3 MSTORE POP PUSH1 0x20 DUP2 ADD SWAP3 SWAP1 SWAP3 MSTORE POP SWAP1 JUMP JUMPDEST PUSH1 0x0 PUSH1 0xFF DUP3 AND PUSH1 0x1F DUP2 GT ISZERO PUSH2 0x451 JUMPI PUSH1 0x40 MLOAD PUSH4 0x2CD44AC3 PUSH1 0xE2 SHL DUP2 MSTORE PUSH1 0x4 ADD PUSH1 0x40 MLOAD DUP1 SWAP2 SUB SWAP1 REVERT JUMPDEST PUSH1 0x0 DUP2 MLOAD DUP1 DUP5 MSTORE PUSH1 0x0 JUMPDEST DUP2 DUP2 LT ISZERO PUSH2 0x12F4 JUMPI PUSH1 0x20 DUP2 DUP6 ADD DUP2 ADD MLOAD DUP7 DUP4 ADD DUP3 ADD MSTORE ADD PUSH2 0x12D8 JUMP JUMPDEST POP PUSH1 0x0 PUSH1 0x20 DUP3 DUP7 ADD ADD MSTORE PUSH1 0x20 PUSH1 0x1F NOT PUSH1 0x1F DUP4 ADD AND DUP6 ADD ADD SWAP2 POP POP SWAP3 SWAP2 POP POP JUMP JUMPDEST PUSH1 0x20 DUP2 MSTORE PUSH1 0x0 PUSH2 0x1327 PUSH1 0x20 DUP4 ADD DUP5 PUSH2 0x12CE JUMP JUMPDEST SWAP4 SWAP3 POP POP POP JUMP JUMPDEST DUP1 CALLDATALOAD PUSH1 0x1 PUSH1 0x1 PUSH1 0xA0 SHL SUB DUP2 AND DUP2 EQ PUSH2 0x1345 JUMPI PUSH1 0x0 DUP1 REVERT JUMPDEST SWAP2 SWAP1 POP JUMP JUMPDEST PUSH1 0x0 DUP1 PUSH1 0x40 DUP4 DUP6 SUB SLT ISZERO PUSH2 0x135D JUMPI PUSH1 0x0 DUP1 REVERT JUMPDEST PUSH2 0x1366 DUP4 PUSH2 0x132E JUMP JUMPDEST SWAP5 PUSH1 0x20 SWAP4 SWAP1 SWAP4 ADD CALLDATALOAD SWAP4 POP POP POP JUMP JUMPDEST PUSH1 0x0 DUP1 PUSH1 0x0 PUSH1 0x60 DUP5 DUP7 SUB SLT ISZERO PUSH2 0x1389 JUMPI PUSH1 0x0 DUP1 REVERT JUMPDEST PUSH2 0x1392 DUP5 PUSH2 0x132E JUMP JUMPDEST SWAP3 POP PUSH2 0x13A0 PUSH1 0x20 DUP6 ADD PUSH2 0x132E JUMP JUMPDEST SWAP2 POP PUSH1 0x40 DUP5 ADD CALLDATALOAD SWAP1 POP SWAP3 POP SWAP3 POP SWAP3 JUMP JUMPDEST PUSH1 0x0 PUSH1 0x20 DUP3 DUP5 SUB SLT ISZERO PUSH2 0x13C2 JUMPI PUSH1 0x0 DUP1 REVERT JUMPDEST PUSH2 0x1327 DUP3 PUSH2 0x132E JUMP JUMPDEST PUSH1 0xFF PUSH1 0xF8 SHL DUP9 AND DUP2 MSTORE PUSH1 0x0 PUSH1 0x20 PUSH1 0xE0 PUSH1 0x20 DUP5 ADD MSTORE PUSH2 0x13EC PUSH1 0xE0 DUP5 ADD DUP11 PUSH2 0x12CE JUMP JUMPDEST DUP4 DUP2 SUB PUSH1 0x40 DUP6 ADD MSTORE PUSH2 0x13FE DUP2 DUP11 PUSH2 0x12CE JUMP JUMPDEST PUSH1 0x60 DUP6 ADD DUP10 SWAP1 MSTORE PUSH1 0x1 PUSH1 0x1 PUSH1 0xA0 SHL SUB DUP9 AND PUSH1 0x80 DUP7 ADD MSTORE PUSH1 0xA0 DUP6 ADD DUP8 SWAP1 MSTORE DUP5 DUP2 SUB PUSH1 0xC0 DUP7 ADD MSTORE DUP6 MLOAD DUP1 DUP3 MSTORE PUSH1 0x20 DUP1 DUP9 ADD SWAP4 POP SWAP1 SWAP2 ADD SWAP1 PUSH1 0x0 JUMPDEST DUP2 DUP2 LT ISZERO PUSH2 0x1452 JUMPI DUP4 MLOAD DUP4 MSTORE SWAP3 DUP5 ADD SWAP3 SWAP2 DUP5 ADD SWAP2 PUSH1 0x1 ADD PUSH2 0x1436 JUMP JUMPDEST POP SWAP1 SWAP13 SWAP12 POP POP POP POP POP POP POP POP POP POP POP POP JUMP JUMPDEST PUSH1 0x0 DUP1 PUSH1 0x0 DUP1 PUSH1 0x0 DUP1 PUSH1 0x0 PUSH1 0xE0 DUP9 DUP11 SUB SLT ISZERO PUSH2 0x147F JUMPI PUSH1 0x0 DUP1 REVERT JUMPDEST PUSH2 0x1488 DUP9 PUSH2 0x132E JUMP JUMPDEST SWAP7 POP PUSH2 0x1496 PUSH1 0x20 DUP10 ADD PUSH2 0x132E JUMP JUMPDEST SWAP6 POP PUSH1 0x40 DUP9 ADD CALLDATALOAD SWAP5 POP PUSH1 0x60 DUP9 ADD CALLDATALOAD SWAP4 POP PUSH1 0x80 DUP9 ADD CALLDATALOAD PUSH1 0xFF DUP2 AND DUP2 EQ PUSH2 0x14BA JUMPI PUSH1 0x0 DUP1 REVERT JUMPDEST SWAP7 SWAP10 SWAP6 SWAP9 POP SWAP4 SWAP7 SWAP3 SWAP6 SWAP5 PUSH1 0xA0 DUP5 ADD CALLDATALOAD SWAP5 POP PUSH1 0xC0 SWAP1 SWAP4 ADD CALLDATALOAD SWAP3 SWAP2 POP POP JUMP JUMPDEST PUSH1 0x0 DUP1 PUSH1 0x40 DUP4 DUP6 SUB SLT ISZERO PUSH2 0x14EA JUMPI PUSH1 0x0 DUP1 REVERT JUMPDEST PUSH2 0x14F3 DUP4 PUSH2 0x132E JUMP JUMPDEST SWAP2 POP PUSH2 0x1501 PUSH1 0x20 DUP5 ADD PUSH2 0x132E JUMP JUMPDEST SWAP1 POP SWAP3 POP SWAP3 SWAP1 POP JUMP JUMPDEST PUSH1 0x0 PUSH1 0x20 DUP3 DUP5 SUB SLT ISZERO PUSH2 0x151C JUMPI PUSH1 0x0 DUP1 REVERT JUMPDEST POP CALLDATALOAD SWAP2 SWAP1 POP JUMP JUMPDEST PUSH1 0x1 DUP2 DUP2 SHR SWAP1 DUP3 AND DUP1 PUSH2 0x1537 JUMPI PUSH1 0x7F DUP3 AND SWAP2 POP JUMPDEST PUSH1 0x20 DUP3 LT DUP2 SUB PUSH2 0x1557 JUMPI PUSH4 0x4E487B71 PUSH1 0xE0 SHL PUSH1 0x0 MSTORE PUSH1 0x22 PUSH1 0x4 MSTORE PUSH1 0x24 PUSH1 0x0 REVERT JUMPDEST POP SWAP2 SWAP1 POP JUMP JUMPDEST PUSH4 0x4E487B71 PUSH1 0xE0 SHL PUSH1 0x0 MSTORE PUSH1 0x11 PUSH1 0x4 MSTORE PUSH1 0x24 PUSH1 0x0 REVERT JUMPDEST DUP1 DUP3 ADD DUP1 DUP3 GT ISZERO PUSH2 0x451 JUMPI PUSH2 0x451 PUSH2 0x155D JUMP JUMPDEST PUSH1 0xFF DUP3 DUP2 AND DUP3 DUP3 AND SUB SWAP1 DUP2 GT ISZERO PUSH2 0x451 JUMPI PUSH2 0x451 PUSH2 0x155D JUMP JUMPDEST PUSH4 0x4E487B71 PUSH1 0xE0 SHL PUSH1 0x0 MSTORE PUSH1 0x32 PUSH1 0x4 MSTORE PUSH1 0x24 PUSH1 0x0 REVERT JUMPDEST PUSH1 0x0 PUSH1 0xFF DUP3 AND DUP1 PUSH2 0x15C8 JUMPI PUSH2 0x15C8 PUSH2 0x155D JUMP JUMPDEST PUSH1 0x0 NOT ADD SWAP3 SWAP2 POP POP JUMP JUMPDEST PUSH4 0x4E487B71 PUSH1 0xE0 SHL PUSH1 0x0 MSTORE PUSH1 0x21 PUSH1 0x4 MSTORE PUSH1 0x24 PUSH1 0x0 REVERT INVALID LOG2 PUSH5 0x6970667358 0x22 SLT KECCAK256 LOG2 SSTORE 0xB5 PUSH4 0xD5BD4B49 EXTCODESIZE PUSH10 0xFED57F471CC9AF657D30 PUSH27 0xBCB016ADF283FEC0760F4964736F6C634300081800330000000000 "},"methodIdentifiers":{"DOMAIN_SEPARATOR()":"3644e515","INITIAL_SUPPLY()":"2ff2e9dc","allowance(address,address)":"dd62ed3e","approve(address,uint256)":"095ea7b3","balanceOf(address)":"70a08231","claimReward()":"b88a802f","decimals()":"313ce567","eip712Domain()":"84b0196e","getClaimableLevel(address)":"755ea794","name()":"06fdde03","nonces(address)":"7ecebe00","owner()":"8da5cb5b","permit(address,address,uint256,uint256,uint8,bytes32,bytes32)":"d505accf","recordLike(address)":"698fcdfc","renounceOwnership()":"715018a6","rewardTiers(uint256)":"ff201114","symbol()":"95d89b41","totalSupply()":"18160ddd","transfer(address,uint256)":"a9059cbb","transferFrom(address,address,uint256)":"23b872dd","transferOwnership(address)":"f2fde38b","updateModerationScore(address,uint256)":"5d48edef","userData(address)":"c8910913"}}}}}