{
  "_format": "hh-sol-artifact-1",
  "contractName": "ContentQuery",
  "sourceName": "contracts/ContentQuery.sol",
  "abi": [
    {
      "inputs": [
        {
          "internalType": "address",
          "name": "_contentManager",
          "type": "address"
        }
      ],
      "stateMutability": "nonpayable",
      "type": "constructor"
    },
    {
      "inputs": [],
      "name": "AccessControlBadConfirmation",
      "type": "error"
    },
    {
      "inputs": [
        {
          "internalType": "address",
          "name": "account",
          "type": "address"
        },
        {
          "internalType": "bytes32",
          "name": "neededRole",
          "type": "bytes32"
        }
      ],
      "name": "AccessControlUnauthorizedAccount",
      "type": "error"
    },
    {
      "anonymous": false,
      "inputs": [
        {
          "indexed": true,
          "internalType": "string",
          "name": "cid",
          "type": "string"
        },
        {
          "indexed": true,
          "internalType": "address",
          "name": "owner",
          "type": "address"
        },
        {
          "indexed": false,
          "internalType": "uint256",
          "name": "timestamp",
          "type": "uint256"
        }
      ],
      "name": "ContentIndexed",
      "type": "event"
    },
    {
      "anonymous": false,
      "inputs": [
        {
          "indexed": true,
          "internalType": "string",
          "name": "indexType",
          "type": "string"
        }
      ],
      "name": "IndexCleared",
      "type": "event"
    },
    {
      "anonymous": false,
      "inputs": [
        {
          "indexed": true,
          "internalType": "bytes32",
          "name": "role",
          "type": "bytes32"
        },
        {
          "indexed": true,
          "internalType": "bytes32",
          "name": "previousAdminRole",
          "type": "bytes32"
        },
        {
          "indexed": true,
          "internalType": "bytes32",
          "name": "newAdminRole",
          "type": "bytes32"
        }
      ],
      "name": "RoleAdminChanged",
      "type": "event"
    },
    {
      "anonymous": false,
      "inputs": [
        {
          "indexed": true,
          "internalType": "bytes32",
          "name": "role",
          "type": "bytes32"
        },
        {
          "indexed": true,
          "internalType": "address",
          "name": "account",
          "type": "address"
        },
        {
          "indexed": true,
          "internalType": "address",
          "name": "sender",
          "type": "address"
        }
      ],
      "name": "RoleGranted",
      "type": "event"
    },
    {
      "anonymous": false,
      "inputs": [
        {
          "indexed": true,
          "internalType": "bytes32",
          "name": "role",
          "type": "bytes32"
        },
        {
          "indexed": true,
          "internalType": "address",
          "name": "account",
          "type": "address"
        },
        {
          "indexed": true,
          "internalType": "address",
          "name": "sender",
          "type": "address"
        }
      ],
      "name": "RoleRevoked",
      "type": "event"
    },
    {
      "inputs": [],
      "name": "DEFAULT_ADMIN_ROLE",
      "outputs": [
        {
          "internalType": "bytes32",
          "name": "",
          "type": "bytes32"
        }
      ],
      "stateMutability": "view",
      "type": "function"
    },
    {
      "inputs": [
        {
          "internalType": "string",
          "name": "indexType",
          "type": "string"
        }
      ],
      "name": "clearIndex",
      "outputs": [],
      "stateMutability": "nonpayable",
      "type": "function"
    },
    {
      "inputs": [
        {
          "internalType": "bool",
          "name": "",
          "type": "bool"
        },
        {
          "internalType": "uint256",
          "name": "",
          "type": "uint256"
        }
      ],
      "name": "contentByApprovalStatus",
      "outputs": [
        {
          "internalType": "string",
          "name": "",
          "type": "string"
        }
      ],
      "stateMutability": "view",
      "type": "function"
    },
    {
      "inputs": [
        {
          "internalType": "address",
          "name": "",
          "type": "address"
        },
        {
          "internalType": "uint256",
          "name": "",
          "type": "uint256"
        }
      ],
      "name": "contentByOwner",
      "outputs": [
        {
          "internalType": "string",
          "name": "",
          "type": "string"
        }
      ],
      "stateMutability": "view",
      "type": "function"
    },
    {
      "inputs": [
        {
          "internalType": "uint256",
          "name": "",
          "type": "uint256"
        },
        {
          "internalType": "uint256",
          "name": "",
          "type": "uint256"
        }
      ],
      "name": "contentByReputation",
      "outputs": [
        {
          "internalType": "string",
          "name": "",
          "type": "string"
        }
      ],
      "stateMutability": "view",
      "type": "function"
    },
    {
      "inputs": [
        {
          "internalType": "uint256",
          "name": "",
          "type": "uint256"
        },
        {
          "internalType": "uint256",
          "name": "",
          "type": "uint256"
        }
      ],
      "name": "contentByTimestamp",
      "outputs": [
        {
          "internalType": "string",
          "name": "",
          "type": "string"
        }
      ],
      "stateMutability": "view",
      "type": "function"
    },
    {
      "inputs": [],
      "name": "contentManager",
      "outputs": [
        {
          "internalType": "contract ContentManager",
          "name": "",
          "type": "address"
        }
      ],
      "stateMutability": "view",
      "type": "function"
    },
    {
      "inputs": [
        {
          "internalType": "bytes32",
          "name": "role",
          "type": "bytes32"
        }
      ],
      "name": "getRoleAdmin",
      "outputs": [
        {
          "internalType": "bytes32",
          "name": "",
          "type": "bytes32"
        }
      ],
      "stateMutability": "view",
      "type": "function"
    },
    {
      "inputs": [
        {
          "internalType": "bytes32",
          "name": "role",
          "type": "bytes32"
        },
        {
          "internalType": "address",
          "name": "account",
          "type": "address"
        }
      ],
      "name": "grantRole",
      "outputs": [],
      "stateMutability": "nonpayable",
      "type": "function"
    },
    {
      "inputs": [
        {
          "internalType": "bytes32",
          "name": "role",
          "type": "bytes32"
        },
        {
          "internalType": "address",
          "name": "account",
          "type": "address"
        }
      ],
      "name": "hasRole",
      "outputs": [
        {
          "internalType": "bool",
          "name": "",
          "type": "bool"
        }
      ],
      "stateMutability": "view",
      "type": "function"
    },
    {
      "inputs": [
        {
          "internalType": "string",
          "name": "cid",
          "type": "string"
        }
      ],
      "name": "indexContent",
      "outputs": [],
      "stateMutability": "nonpayable",
      "type": "function"
    },
    {
      "inputs": [
        {
          "internalType": "bool",
          "name": "approved",
          "type": "bool"
        }
      ],
      "name": "queryContentByApproval",
      "outputs": [
        {
          "internalType": "string[]",
          "name": "",
          "type": "string[]"
        }
      ],
      "stateMutability": "view",
      "type": "function"
    },
    {
      "inputs": [
        {
          "internalType": "address",
          "name": "owner",
          "type": "address"
        }
      ],
      "name": "queryContentByOwner",
      "outputs": [
        {
          "internalType": "string[]",
          "name": "",
          "type": "string[]"
        }
      ],
      "stateMutability": "view",
      "type": "function"
    },
    {
      "inputs": [
        {
          "internalType": "uint256",
          "name": "minReputation",
          "type": "uint256"
        },
        {
          "internalType": "uint256",
          "name": "maxReputation",
          "type": "uint256"
        }
      ],
      "name": "queryContentByReputationRange",
      "outputs": [
        {
          "internalType": "string[]",
          "name": "",
          "type": "string[]"
        }
      ],
      "stateMutability": "view",
      "type": "function"
    },
    {
      "inputs": [
        {
          "internalType": "uint256",
          "name": "startTime",
          "type": "uint256"
        },
        {
          "internalType": "uint256",
          "name": "endTime",
          "type": "uint256"
        },
        {
          "internalType": "bool",
          "name": "onlyApproved",
          "type": "bool"
        }
      ],
      "name": "queryContentByTimeRange",
      "outputs": [
        {
          "internalType": "string[]",
          "name": "",
          "type": "string[]"
        }
      ],
      "stateMutability": "view",
      "type": "function"
    },
    {
      "inputs": [
        {
          "internalType": "bytes32",
          "name": "role",
          "type": "bytes32"
        },
        {
          "internalType": "address",
          "name": "callerConfirmation",
          "type": "address"
        }
      ],
      "name": "renounceRole",
      "outputs": [],
      "stateMutability": "nonpayable",
      "type": "function"
    },
    {
      "inputs": [
        {
          "internalType": "bytes32",
          "name": "role",
          "type": "bytes32"
        },
        {
          "internalType": "address",
          "name": "account",
          "type": "address"
        }
      ],
      "name": "revokeRole",
      "outputs": [],
      "stateMutability": "nonpayable",
      "type": "function"
    },
    {
      "inputs": [
        {
          "internalType": "bytes4",
          "name": "interfaceId",
          "type": "bytes4"
        }
      ],
      "name": "supportsInterface",
      "outputs": [
        {
          "internalType": "bool",
          "name": "",
          "type": "bool"
        }
      ],
      "stateMutability": "view",
      "type": "function"
    }
  ],
  "bytecode": "0x60a06040523480156200001157600080fd5b506040516200179238038062001792833981016040819052620000349162000105565b6001600160a01b0381166080526200004e60003362000056565b505062000137565b6000828152602081815260408083206001600160a01b038516845290915281205460ff16620000fb576000838152602081815260408083206001600160a01b03861684529091529020805460ff19166001179055620000b23390565b6001600160a01b0316826001600160a01b0316847f2f8788117e7eff1d82e926ec794901d17c78024a50270940304540a733656f0d60405160405180910390a4506001620000ff565b5060005b92915050565b6000602082840312156200011857600080fd5b81516001600160a01b03811681146200013057600080fd5b9392505050565b60805161162a620001686000396000818161026e01528181610b1a01528181610b91015261100a015261162a6000f3fe608060405234801561001057600080fd5b50600436106101165760003560e01c8063869dea39116100a2578063ba7dd0f311610071578063ba7dd0f314610256578063bb52879914610269578063d547741f146102a8578063deff8651146102bb578063ef2af9d2146102ce57600080fd5b8063869dea391461021557806391d1485414610228578063a05999391461023b578063a217fddf1461024e57600080fd5b80632f2ff15d116100e95780632f2ff15d146101b457806336568abe146101c957806344b71783146101dc5780636b878038146101ef57806381e1b1381461020257600080fd5b806301ffc9a71461011b5780631288115214610143578063248a9ca3146101635780632713b96d14610194575b600080fd5b61012e6101293660046110ec565b6102e1565b60405190151581526020015b60405180910390f35b61015661015136600461111d565b610318565b60405161013a9190611185565b610186610171366004611198565b60009081526020819052604090206001015490565b60405190815260200161013a565b6101a76101a236600461111d565b6103d1565b60405161013a91906111b1565b6101c76101c2366004611228565b61061f565b005b6101c76101d7366004611228565b61064a565b6101a76101ea366004611266565b610682565b6101a76101fd36600461129f565b610a04565b61015661021036600461111d565b610af3565b6101c76102233660046112bc565b610b0f565b61012e610236366004611228565b610d46565b61015661024936600461132e565b610d6f565b610186600081565b61015661026436600461135a565b610d8b565b6102907f000000000000000000000000000000000000000000000000000000000000000081565b6040516001600160a01b03909116815260200161013a565b6101c76102b6366004611228565b610da7565b6101c76102c93660046112bc565b610dcc565b6101a76102dc366004611378565b610e1c565b60006001600160e01b03198216637965db0b60e01b148061031257506301ffc9a760e01b6001600160e01b03198316145b92915050565b6001602052816000526040600020818154811061033457600080fd5b9060005260206000200160009150915050805461035090611395565b80601f016020809104026020016040519081016040528092919081815260200182805461037c90611395565b80156103c95780601f1061039e576101008083540402835291602001916103c9565b820191906000526020600020905b8154815290600101906020018083116103ac57829003601f168201915b505050505081565b6060818311156104285760405162461bcd60e51b815260206004820152601860248201527f496e76616c69642072657075746174696f6e2072616e6765000000000000000060448201526064015b60405180910390fd5b6000835b8381116104605760008181526002602052604090205461044c90836113e5565b915080610458816113f8565b91505061042c565b5060008167ffffffffffffffff81111561047c5761047c611411565b6040519080825280602002602001820160405280156104af57816020015b606081526020019060019003908161049a5790505b5090506000855b85811161061457600081815260026020908152604080832080548251818502810185019093528083529192909190849084015b8282101561059557838290600052602060002001805461050890611395565b80601f016020809104026020016040519081016040528092919081815260200182805461053490611395565b80156105815780601f1061055657610100808354040283529160200191610581565b820191906000526020600020905b81548152906001019060200180831161056457829003601f168201915b5050505050815260200190600101906104e9565b50505050905060005b81518110156105ff578181815181106105b9576105b9611427565b60200260200101518585815181106105d3576105d3611427565b602002602001018190525083806105e9906113f8565b94505080806105f7906113f8565b91505061059e565b5050808061060c906113f8565b9150506104b6565b509095945050505050565b60008281526020819052604090206001015461063a81610ef9565b6106448383610f06565b50505050565b6001600160a01b03811633146106735760405163334bd91960e11b815260040160405180910390fd5b61067d8282610f98565b505050565b6060828411156106c95760405162461bcd60e51b8152602060048201526012602482015271496e76616c69642074696d652072616e676560701b604482015260640161041f565b6000845b84811161082257600081815260016020908152604080832080548251818502810185019093528083529192909190849084015b828210156107ac57838290600052602060002001805461071f90611395565b80601f016020809104026020016040519081016040528092919081815260200182805461074b90611395565b80156107985780601f1061076d57610100808354040283529160200191610798565b820191906000526020600020905b81548152906001019060200180831161077b57829003601f168201915b505050505081526020019060010190610700565b50505050905060005b815181101561080d578515806107e857506107e88282815181106107db576107db611427565b6020026020010151611003565b156107fb57836107f7816113f8565b9450505b80610805816113f8565b9150506107b5565b5050808061081a906113f8565b9150506106cd565b5060008167ffffffffffffffff81111561083e5761083e611411565b60405190808252806020026020018201604052801561087157816020015b606081526020019060019003908161085c5790505b5090506000865b8681116109f857600081815260016020908152604080832080548251818502810185019093528083529192909190849084015b828210156109575783829060005260206000200180546108ca90611395565b80601f01602080910402602001604051908101604052809291908181526020018280546108f690611395565b80156109435780601f1061091857610100808354040283529160200191610943565b820191906000526020600020905b81548152906001019060200180831161092657829003601f168201915b5050505050815260200190600101906108ab565b50505050905060005b81518110156109e35787158061098657506109868282815181106107db576107db611427565b156109d15781818151811061099d5761099d611427565b60200260200101518585815181106109b7576109b7611427565b602002602001018190525083806109cd906113f8565b9450505b806109db816113f8565b915050610960565b505080806109f0906113f8565b915050610878565b50909695505050505050565b6001600160a01b0381166000908152600360209081526040808320805482518185028101850190935280835260609492939192909184015b82821015610ae8578382906000526020600020018054610a5b90611395565b80601f0160208091040260200160405190810160405280929190818152602001828054610a8790611395565b8015610ad45780601f10610aa957610100808354040283529160200191610ad4565b820191906000526020600020905b815481529060010190602001808311610ab757829003601f168201915b505050505081526020019060010190610a3c565b505050509050919050565b6002602052816000526040600020818154811061033457600080fd5b336001600160a01b037f00000000000000000000000000000000000000000000000000000000000000001614610b875760405162461bcd60e51b815260206004820152601d60248201527f4f6e6c7920436f6e74656e744d616e616765722063616e20696e646578000000604482015260640161041f565b60008060008060007f00000000000000000000000000000000000000000000000000000000000000006001600160a01b0316636b03022388886040518363ffffffff1660e01b8152600401610bdd92919061143d565b60c060405180830381865afa158015610bfa573d6000803e3d6000fd5b505050506040513d601f19601f82011682018060405250810190610c1e919061146c565b60008581526001602081815260408320805492830181558352909120969b509499509297509095509093505001610c56878983611523565b50600081815260026020908152604082208054600181018255908352912001610c80878983611523565b506001600160a01b038516600090815260036020908152604082208054600181018255908352912001610cb4878983611523565b508215610ce957811515600090815260046020908152604082208054600181018255908352912001610ce7878983611523565b505b846001600160a01b03168787604051610d039291906115e4565b604051908190038120868252907fdeca22c2e6eccae7f8f82beb5722cd3275a34a9501dbcfd950d0fd09a86655a49060200160405180910390a350505050505050565b6000918252602082815260408084206001600160a01b0393909316845291905290205460ff1690565b6003602052816000526040600020818154811061033457600080fd5b6004602052816000526040600020818154811061033457600080fd5b600082815260208190526040902060010154610dc281610ef9565b6106448383610f98565b6000610dd781610ef9565b8282604051610de79291906115e4565b604051908190038120907f453b7c4d89874008ab88515d1ea85c8af9899ad08b2f3012013a21810845447690600090a2505050565b8015156000908152600460209081526040808320805482518185028101850190935280835260609492939192909184015b82821015610ae8578382906000526020600020018054610e6c90611395565b80601f0160208091040260200160405190810160405280929190818152602001828054610e9890611395565b8015610ee55780601f10610eba57610100808354040283529160200191610ee5565b820191906000526020600020905b815481529060010190602001808311610ec857829003601f168201915b505050505081526020019060010190610e4d565b610f0381336110af565b50565b6000610f128383610d46565b610f90576000838152602081815260408083206001600160a01b03861684529091529020805460ff19166001179055610f483390565b6001600160a01b0316826001600160a01b0316847f2f8788117e7eff1d82e926ec794901d17c78024a50270940304540a733656f0d60405160405180910390a4506001610312565b506000610312565b6000610fa48383610d46565b15610f90576000838152602081815260408083206001600160a01b0386168085529252808320805460ff1916905551339286917ff6391f5c32d9c69d2a47ea670b442974b53935d1edc7fd64eb21e047a839171b9190a4506001610312565b60008060007f00000000000000000000000000000000000000000000000000000000000000006001600160a01b0316636b030223856040518263ffffffff1660e01b81526004016110549190611185565b60c060405180830381865afa158015611071573d6000803e3d6000fd5b505050506040513d601f19601f82011682018060405250810190611095919061146c565b50509350935050508180156110a75750805b949350505050565b6110b98282610d46565b6110e85760405163e2517d3f60e01b81526001600160a01b03821660048201526024810183905260440161041f565b5050565b6000602082840312156110fe57600080fd5b81356001600160e01b03198116811461111657600080fd5b9392505050565b6000806040838503121561113057600080fd5b50508035926020909101359150565b6000815180845260005b8181101561116557602081850181015186830182015201611149565b506000602082860101526020601f19601f83011685010191505092915050565b602081526000611116602083018461113f565b6000602082840312156111aa57600080fd5b5035919050565b6000602080830181845280855180835260408601915060408160051b870101925083870160005b8281101561120657603f198886030184526111f485835161113f565b945092850192908501906001016111d8565b5092979650505050505050565b6001600160a01b0381168114610f0357600080fd5b6000806040838503121561123b57600080fd5b82359150602083013561124d81611213565b809150509250929050565b8015158114610f0357600080fd5b60008060006060848603121561127b57600080fd5b8335925060208401359150604084013561129481611258565b809150509250925092565b6000602082840312156112b157600080fd5b813561111681611213565b600080602083850312156112cf57600080fd5b823567ffffffffffffffff808211156112e757600080fd5b818501915085601f8301126112fb57600080fd5b81358181111561130a57600080fd5b86602082850101111561131c57600080fd5b60209290920196919550909350505050565b6000806040838503121561134157600080fd5b823561134c81611213565b946020939093013593505050565b6000806040838503121561136d57600080fd5b823561134c81611258565b60006020828403121561138a57600080fd5b813561111681611258565b600181811c908216806113a957607f821691505b6020821081036113c957634e487b7160e01b600052602260045260246000fd5b50919050565b634e487b7160e01b600052601160045260246000fd5b80820180821115610312576103126113cf565b60006001820161140a5761140a6113cf565b5060010190565b634e487b7160e01b600052604160045260246000fd5b634e487b7160e01b600052603260045260246000fd5b60208152816020820152818360408301376000818301604090810191909152601f909201601f19160101919050565b60008060008060008060c0878903121561148557600080fd5b865161149081611213565b6020880151604089015191975095506114a881611258565b60608801519094506114b981611258565b809350506080870151915060a087015190509295509295509295565b601f82111561067d57600081815260208120601f850160051c810160208610156114fc5750805b601f850160051c820191505b8181101561151b57828155600101611508565b505050505050565b67ffffffffffffffff83111561153b5761153b611411565b61154f836115498354611395565b836114d5565b6000601f841160018114611583576000851561156b5750838201355b600019600387901b1c1916600186901b1783556115dd565b600083815260209020601f19861690835b828110156115b45786850135825560209485019460019092019101611594565b50868210156115d15760001960f88860031b161c19848701351681555b505060018560011b0183555b5050505050565b818382376000910190815291905056fea2646970667358221220be195d0e44a7fd256f88c3602435f93893a1199078573f1b1bb2b7f2dfbf819664736f6c63430008140033",
  "linkReferences": {},
  "deployedLinkReferences": {}
}