{
  "_format": "hh-sol-artifact-1",
  "contractName": "Scoin",
  "sourceName": "contracts/Scoin.sol",
  "abi": [
    {
      "inputs": [],
      "stateMutability": "nonpayable",
      "type": "constructor"
    },
    {
      "inputs": [],
      "name": "AccessControlBadConfirmation",
      "type": "error"
    },
    {
      "inputs": [
        {
          "internalType": "address",
          "name": "account",
          "type": "address"
        },
        {
          "internalType": "bytes32",
          "name": "neededRole",
          "type": "bytes32"
        }
      ],
      "name": "AccessControlUnauthorizedAccount",
      "type": "error"
    },
    {
      "inputs": [],
      "name": "ECDSAInvalidSignature",
      "type": "error"
    },
    {
      "inputs": [
        {
          "internalType": "uint256",
          "name": "length",
          "type": "uint256"
        }
      ],
      "name": "ECDSAInvalidSignatureLength",
      "type": "error"
    },
    {
      "inputs": [
        {
          "internalType": "bytes32",
          "name": "s",
          "type": "bytes32"
        }
      ],
      "name": "ECDSAInvalidSignatureS",
      "type": "error"
    },
    {
      "inputs": [
        {
          "internalType": "address",
          "name": "spender",
          "type": "address"
        },
        {
          "internalType": "uint256",
          "name": "allowance",
          "type": "uint256"
        },
        {
          "internalType": "uint256",
          "name": "needed",
          "type": "uint256"
        }
      ],
      "name": "ERC20InsufficientAllowance",
      "type": "error"
    },
    {
      "inputs": [
        {
          "internalType": "address",
          "name": "sender",
          "type": "address"
        },
        {
          "internalType": "uint256",
          "name": "balance",
          "type": "uint256"
        },
        {
          "internalType": "uint256",
          "name": "needed",
          "type": "uint256"
        }
      ],
      "name": "ERC20InsufficientBalance",
      "type": "error"
    },
    {
      "inputs": [
        {
          "internalType": "address",
          "name": "approver",
          "type": "address"
        }
      ],
      "name": "ERC20InvalidApprover",
      "type": "error"
    },
    {
      "inputs": [
        {
          "internalType": "address",
          "name": "receiver",
          "type": "address"
        }
      ],
      "name": "ERC20InvalidReceiver",
      "type": "error"
    },
    {
      "inputs": [
        {
          "internalType": "address",
          "name": "sender",
          "type": "address"
        }
      ],
      "name": "ERC20InvalidSender",
      "type": "error"
    },
    {
      "inputs": [
        {
          "internalType": "address",
          "name": "spender",
          "type": "address"
        }
      ],
      "name": "ERC20InvalidSpender",
      "type": "error"
    },
    {
      "inputs": [
        {
          "internalType": "uint256",
          "name": "deadline",
          "type": "uint256"
        }
      ],
      "name": "ERC2612ExpiredSignature",
      "type": "error"
    },
    {
      "inputs": [
        {
          "internalType": "address",
          "name": "signer",
          "type": "address"
        },
        {
          "internalType": "address",
          "name": "owner",
          "type": "address"
        }
      ],
      "name": "ERC2612InvalidSigner",
      "type": "error"
    },
    {
      "inputs": [],
      "name": "EnforcedPause",
      "type": "error"
    },
    {
      "inputs": [],
      "name": "ExpectedPause",
      "type": "error"
    },
    {
      "inputs": [
        {
          "internalType": "address",
          "name": "account",
          "type": "address"
        },
        {
          "internalType": "uint256",
          "name": "currentNonce",
          "type": "uint256"
        }
      ],
      "name": "InvalidAccountNonce",
      "type": "error"
    },
    {
      "inputs": [],
      "name": "InvalidShortString",
      "type": "error"
    },
    {
      "inputs": [
        {
          "internalType": "string",
          "name": "str",
          "type": "string"
        }
      ],
      "name": "StringTooLong",
      "type": "error"
    },
    {
      "anonymous": false,
      "inputs": [
        {
          "indexed": true,
          "internalType": "address",
          "name": "owner",
          "type": "address"
        },
        {
          "indexed": true,
          "internalType": "address",
          "name": "spender",
          "type": "address"
        },
        {
          "indexed": false,
          "internalType": "uint256",
          "name": "value",
          "type": "uint256"
        }
      ],
      "name": "Approval",
      "type": "event"
    },
    {
      "anonymous": false,
      "inputs": [
        {
          "indexed": true,
          "internalType": "address",
          "name": "user",
          "type": "address"
        },
        {
          "indexed": false,
          "internalType": "uint128",
          "name": "amount",
          "type": "uint128"
        },
        {
          "indexed": false,
          "internalType": "uint64",
          "name": "expiry",
          "type": "uint64"
        }
      ],
      "name": "BandwidthAllocated",
      "type": "event"
    },
    {
      "anonymous": false,
      "inputs": [],
      "name": "EIP712DomainChanged",
      "type": "event"
    },
    {
      "anonymous": false,
      "inputs": [
        {
          "indexed": false,
          "internalType": "address",
          "name": "account",
          "type": "address"
        }
      ],
      "name": "Paused",
      "type": "event"
    },
    {
      "anonymous": false,
      "inputs": [
        {
          "indexed": true,
          "internalType": "address",
          "name": "validator",
          "type": "address"
        },
        {
          "indexed": false,
          "internalType": "uint128",
          "name": "amount",
          "type": "uint128"
        }
      ],
      "name": "RewardDistributed",
      "type": "event"
    },
    {
      "anonymous": false,
      "inputs": [
        {
          "indexed": true,
          "internalType": "bytes32",
          "name": "role",
          "type": "bytes32"
        },
        {
          "indexed": true,
          "internalType": "bytes32",
          "name": "previousAdminRole",
          "type": "bytes32"
        },
        {
          "indexed": true,
          "internalType": "bytes32",
          "name": "newAdminRole",
          "type": "bytes32"
        }
      ],
      "name": "RoleAdminChanged",
      "type": "event"
    },
    {
      "anonymous": false,
      "inputs": [
        {
          "indexed": true,
          "internalType": "bytes32",
          "name": "role",
          "type": "bytes32"
        },
        {
          "indexed": true,
          "internalType": "address",
          "name": "account",
          "type": "address"
        },
        {
          "indexed": true,
          "internalType": "address",
          "name": "sender",
          "type": "address"
        }
      ],
      "name": "RoleGranted",
      "type": "event"
    },
    {
      "anonymous": false,
      "inputs": [
        {
          "indexed": true,
          "internalType": "bytes32",
          "name": "role",
          "type": "bytes32"
        },
        {
          "indexed": true,
          "internalType": "address",
          "name": "account",
          "type": "address"
        },
        {
          "indexed": true,
          "internalType": "address",
          "name": "sender",
          "type": "address"
        }
      ],
      "name": "RoleRevoked",
      "type": "event"
    },
    {
      "anonymous": false,
      "inputs": [
        {
          "indexed": true,
          "internalType": "address",
          "name": "user",
          "type": "address"
        },
        {
          "indexed": false,
          "internalType": "uint128",
          "name": "amount",
          "type": "uint128"
        }
      ],
      "name": "Staked",
      "type": "event"
    },
    {
      "anonymous": false,
      "inputs": [
        {
          "indexed": true,
          "internalType": "address",
          "name": "from",
          "type": "address"
        },
        {
          "indexed": true,
          "internalType": "address",
          "name": "to",
          "type": "address"
        },
        {
          "indexed": false,
          "internalType": "uint256",
          "name": "value",
          "type": "uint256"
        }
      ],
      "name": "Transfer",
      "type": "event"
    },
    {
      "anonymous": false,
      "inputs": [
        {
          "indexed": false,
          "internalType": "address",
          "name": "account",
          "type": "address"
        }
      ],
      "name": "Unpaused",
      "type": "event"
    },
    {
      "anonymous": false,
      "inputs": [
        {
          "indexed": true,
          "internalType": "address",
          "name": "user",
          "type": "address"
        },
        {
          "indexed": false,
          "internalType": "uint128",
          "name": "amount",
          "type": "uint128"
        }
      ],
      "name": "Unstaked",
      "type": "event"
    },
    {
      "anonymous": false,
      "inputs": [
        {
          "indexed": true,
          "internalType": "address",
          "name": "validator",
          "type": "address"
        }
      ],
      "name": "ValidatorRegistered",
      "type": "event"
    },
    {
      "anonymous": false,
      "inputs": [
        {
          "indexed": true,
          "internalType": "address",
          "name": "validator",
          "type": "address"
        }
      ],
      "name": "ValidatorRemoved",
      "type": "event"
    },
    {
      "inputs": [],
      "name": "DEFAULT_ADMIN_ROLE",
      "outputs": [
        {
          "internalType": "bytes32",
          "name": "",
          "type": "bytes32"
        }
      ],
      "stateMutability": "view",
      "type": "function"
    },
    {
      "inputs": [],
      "name": "DOMAIN_SEPARATOR",
      "outputs": [
        {
          "internalType": "bytes32",
          "name": "",
          "type": "bytes32"
        }
      ],
      "stateMutability": "view",
      "type": "function"
    },
    {
      "inputs": [],
      "name": "MINIMUM_STAKE",
      "outputs": [
        {
          "internalType": "uint128",
          "name": "",
          "type": "uint128"
        }
      ],
      "stateMutability": "view",
      "type": "function"
    },
    {
      "inputs": [],
      "name": "MINTER_ROLE",
      "outputs": [
        {
          "internalType": "bytes32",
          "name": "",
          "type": "bytes32"
        }
      ],
      "stateMutability": "view",
      "type": "function"
    },
    {
      "inputs": [],
      "name": "PAUSER_ROLE",
      "outputs": [
        {
          "internalType": "bytes32",
          "name": "",
          "type": "bytes32"
        }
      ],
      "stateMutability": "view",
      "type": "function"
    },
    {
      "inputs": [],
      "name": "STAKE_LOCK_PERIOD",
      "outputs": [
        {
          "internalType": "uint64",
          "name": "",
          "type": "uint64"
        }
      ],
      "stateMutability": "view",
      "type": "function"
    },
    {
      "inputs": [],
      "name": "STAKING_ROLE",
      "outputs": [
        {
          "internalType": "bytes32",
          "name": "",
          "type": "bytes32"
        }
      ],
      "stateMutability": "view",
      "type": "function"
    },
    {
      "inputs": [],
      "name": "VALIDATOR_THRESHOLD",
      "outputs": [
        {
          "internalType": "uint128",
          "name": "",
          "type": "uint128"
        }
      ],
      "stateMutability": "view",
      "type": "function"
    },
    {
      "inputs": [
        {
          "internalType": "address",
          "name": "user",
          "type": "address"
        },
        {
          "internalType": "uint128",
          "name": "amount",
          "type": "uint128"
        },
        {
          "internalType": "uint64",
          "name": "duration",
          "type": "uint64"
        }
      ],
      "name": "allocateBandwidth",
      "outputs": [],
      "stateMutability": "nonpayable",
      "type": "function"
    },
    {
      "inputs": [
        {
          "internalType": "address",
          "name": "owner",
          "type": "address"
        },
        {
          "internalType": "address",
          "name": "spender",
          "type": "address"
        }
      ],
      "name": "allowance",
      "outputs": [
        {
          "internalType": "uint256",
          "name": "",
          "type": "uint256"
        }
      ],
      "stateMutability": "view",
      "type": "function"
    },
    {
      "inputs": [
        {
          "internalType": "address",
          "name": "spender",
          "type": "address"
        },
        {
          "internalType": "uint256",
          "name": "value",
          "type": "uint256"
        }
      ],
      "name": "approve",
      "outputs": [
        {
          "internalType": "bool",
          "name": "",
          "type": "bool"
        }
      ],
      "stateMutability": "nonpayable",
      "type": "function"
    },
    {
      "inputs": [
        {
          "internalType": "address",
          "name": "account",
          "type": "address"
        }
      ],
      "name": "balanceOf",
      "outputs": [
        {
          "internalType": "uint256",
          "name": "",
          "type": "uint256"
        }
      ],
      "stateMutability": "view",
      "type": "function"
    },
    {
      "inputs": [
        {
          "internalType": "address",
          "name": "",
          "type": "address"
        }
      ],
      "name": "bandwidthAllocations",
      "outputs": [
        {
          "internalType": "uint128",
          "name": "amount",
          "type": "uint128"
        },
        {
          "internalType": "uint64",
          "name": "expiry",
          "type": "uint64"
        }
      ],
      "stateMutability": "view",
      "type": "function"
    },
    {
      "inputs": [
        {
          "internalType": "uint256",
          "name": "value",
          "type": "uint256"
        }
      ],
      "name": "burn",
      "outputs": [],
      "stateMutability": "nonpayable",
      "type": "function"
    },
    {
      "inputs": [
        {
          "internalType": "address",
          "name": "account",
          "type": "address"
        },
        {
          "internalType": "uint256",
          "name": "value",
          "type": "uint256"
        }
      ],
      "name": "burnFrom",
      "outputs": [],
      "stateMutability": "nonpayable",
      "type": "function"
    },
    {
      "inputs": [],
      "name": "decimals",
      "outputs": [
        {
          "internalType": "uint8",
          "name": "",
          "type": "uint8"
        }
      ],
      "stateMutability": "view",
      "type": "function"
    },
    {
      "inputs": [
        {
          "internalType": "address",
          "name": "validator",
          "type": "address"
        },
        {
          "internalType": "uint128",
          "name": "amount",
          "type": "uint128"
        }
      ],
      "name": "distributeRewards",
      "outputs": [],
      "stateMutability": "nonpayable",
      "type": "function"
    },
    {
      "inputs": [],
      "name": "eip712Domain",
      "outputs": [
        {
          "internalType": "bytes1",
          "name": "fields",
          "type": "bytes1"
        },
        {
          "internalType": "string",
          "name": "name",
          "type": "string"
        },
        {
          "internalType": "string",
          "name": "version",
          "type": "string"
        },
        {
          "internalType": "uint256",
          "name": "chainId",
          "type": "uint256"
        },
        {
          "internalType": "address",
          "name": "verifyingContract",
          "type": "address"
        },
        {
          "internalType": "bytes32",
          "name": "salt",
          "type": "bytes32"
        },
        {
          "internalType": "uint256[]",
          "name": "extensions",
          "type": "uint256[]"
        }
      ],
      "stateMutability": "view",
      "type": "function"
    },
    {
      "inputs": [
        {
          "internalType": "address",
          "name": "user",
          "type": "address"
        }
      ],
      "name": "getBandwidthAllocation",
      "outputs": [
        {
          "internalType": "uint128",
          "name": "amount",
          "type": "uint128"
        },
        {
          "internalType": "uint64",
          "name": "expiry",
          "type": "uint64"
        }
      ],
      "stateMutability": "view",
      "type": "function"
    },
    {
      "inputs": [
        {
          "internalType": "bytes32",
          "name": "role",
          "type": "bytes32"
        }
      ],
      "name": "getRoleAdmin",
      "outputs": [
        {
          "internalType": "bytes32",
          "name": "",
          "type": "bytes32"
        }
      ],
      "stateMutability": "view",
      "type": "function"
    },
    {
      "inputs": [
        {
          "internalType": "address",
          "name": "validator",
          "type": "address"
        }
      ],
      "name": "getValidatorInfo",
      "outputs": [
        {
          "internalType": "uint128",
          "name": "stakedAmount",
          "type": "uint128"
        },
        {
          "internalType": "uint64",
          "name": "reputationScore",
          "type": "uint64"
        },
        {
          "internalType": "bool",
          "name": "isActive",
          "type": "bool"
        }
      ],
      "stateMutability": "view",
      "type": "function"
    },
    {
      "inputs": [],
      "name": "getValidators",
      "outputs": [
        {
          "internalType": "address[]",
          "name": "",
          "type": "address[]"
        }
      ],
      "stateMutability": "view",
      "type": "function"
    },
    {
      "inputs": [
        {
          "internalType": "bytes32",
          "name": "role",
          "type": "bytes32"
        },
        {
          "internalType": "address",
          "name": "account",
          "type": "address"
        }
      ],
      "name": "grantRole",
      "outputs": [],
      "stateMutability": "nonpayable",
      "type": "function"
    },
    {
      "inputs": [
        {
          "internalType": "bytes32",
          "name": "role",
          "type": "bytes32"
        },
        {
          "internalType": "address",
          "name": "account",
          "type": "address"
        }
      ],
      "name": "hasRole",
      "outputs": [
        {
          "internalType": "bool",
          "name": "",
          "type": "bool"
        }
      ],
      "stateMutability": "view",
      "type": "function"
    },
    {
      "inputs": [],
      "name": "name",
      "outputs": [
        {
          "internalType": "string",
          "name": "",
          "type": "string"
        }
      ],
      "stateMutability": "view",
      "type": "function"
    },
    {
      "inputs": [
        {
          "internalType": "address",
          "name": "owner",
          "type": "address"
        }
      ],
      "name": "nonces",
      "outputs": [
        {
          "internalType": "uint256",
          "name": "",
          "type": "uint256"
        }
      ],
      "stateMutability": "view",
      "type": "function"
    },
    {
      "inputs": [],
      "name": "pause",
      "outputs": [],
      "stateMutability": "nonpayable",
      "type": "function"
    },
    {
      "inputs": [],
      "name": "paused",
      "outputs": [
        {
          "internalType": "bool",
          "name": "",
          "type": "bool"
        }
      ],
      "stateMutability": "view",
      "type": "function"
    },
    {
      "inputs": [
        {
          "internalType": "address",
          "name": "owner",
          "type": "address"
        },
        {
          "internalType": "address",
          "name": "spender",
          "type": "address"
        },
        {
          "internalType": "uint256",
          "name": "value",
          "type": "uint256"
        },
        {
          "internalType": "uint256",
          "name": "deadline",
          "type": "uint256"
        },
        {
          "internalType": "uint8",
          "name": "v",
          "type": "uint8"
        },
        {
          "internalType": "bytes32",
          "name": "r",
          "type": "bytes32"
        },
        {
          "internalType": "bytes32",
          "name": "s",
          "type": "bytes32"
        }
      ],
      "name": "permit",
      "outputs": [],
      "stateMutability": "nonpayable",
      "type": "function"
    },
    {
      "inputs": [
        {
          "internalType": "bytes32",
          "name": "role",
          "type": "bytes32"
        },
        {
          "internalType": "address",
          "name": "callerConfirmation",
          "type": "address"
        }
      ],
      "name": "renounceRole",
      "outputs": [],
      "stateMutability": "nonpayable",
      "type": "function"
    },
    {
      "inputs": [
        {
          "internalType": "bytes32",
          "name": "role",
          "type": "bytes32"
        },
        {
          "internalType": "address",
          "name": "account",
          "type": "address"
        }
      ],
      "name": "revokeRole",
      "outputs": [],
      "stateMutability": "nonpayable",
      "type": "function"
    },
    {
      "inputs": [
        {
          "internalType": "uint128",
          "name": "amount",
          "type": "uint128"
        }
      ],
      "name": "stake",
      "outputs": [],
      "stateMutability": "nonpayable",
      "type": "function"
    },
    {
      "inputs": [
        {
          "internalType": "address",
          "name": "",
          "type": "address"
        }
      ],
      "name": "stakes",
      "outputs": [
        {
          "internalType": "uint128",
          "name": "amount",
          "type": "uint128"
        },
        {
          "internalType": "uint64",
          "name": "since",
          "type": "uint64"
        },
        {
          "internalType": "bool",
          "name": "isActive",
          "type": "bool"
        }
      ],
      "stateMutability": "view",
      "type": "function"
    },
    {
      "inputs": [
        {
          "internalType": "bytes4",
          "name": "interfaceId",
          "type": "bytes4"
        }
      ],
      "name": "supportsInterface",
      "outputs": [
        {
          "internalType": "bool",
          "name": "",
          "type": "bool"
        }
      ],
      "stateMutability": "view",
      "type": "function"
    },
    {
      "inputs": [],
      "name": "symbol",
      "outputs": [
        {
          "internalType": "string",
          "name": "",
          "type": "string"
        }
      ],
      "stateMutability": "view",
      "type": "function"
    },
    {
      "inputs": [],
      "name": "totalStaked",
      "outputs": [
        {
          "internalType": "uint128",
          "name": "",
          "type": "uint128"
        }
      ],
      "stateMutability": "view",
      "type": "function"
    },
    {
      "inputs": [],
      "name": "totalSupply",
      "outputs": [
        {
          "internalType": "uint256",
          "name": "",
          "type": "uint256"
        }
      ],
      "stateMutability": "view",
      "type": "function"
    },
    {
      "inputs": [
        {
          "internalType": "address",
          "name": "to",
          "type": "address"
        },
        {
          "internalType": "uint256",
          "name": "value",
          "type": "uint256"
        }
      ],
      "name": "transfer",
      "outputs": [
        {
          "internalType": "bool",
          "name": "",
          "type": "bool"
        }
      ],
      "stateMutability": "nonpayable",
      "type": "function"
    },
    {
      "inputs": [
        {
          "internalType": "address",
          "name": "from",
          "type": "address"
        },
        {
          "internalType": "address",
          "name": "to",
          "type": "address"
        },
        {
          "internalType": "uint256",
          "name": "value",
          "type": "uint256"
        }
      ],
      "name": "transferFrom",
      "outputs": [
        {
          "internalType": "bool",
          "name": "",
          "type": "bool"
        }
      ],
      "stateMutability": "nonpayable",
      "type": "function"
    },
    {
      "inputs": [],
      "name": "unpause",
      "outputs": [],
      "stateMutability": "nonpayable",
      "type": "function"
    },
    {
      "inputs": [],
      "name": "unstake",
      "outputs": [],
      "stateMutability": "nonpayable",
      "type": "function"
    },
    {
      "inputs": [],
      "name": "validatorCount",
      "outputs": [
        {
          "internalType": "uint256",
          "name": "",
          "type": "uint256"
        }
      ],
      "stateMutability": "view",
      "type": "function"
    },
    {
      "inputs": [
        {
          "internalType": "address",
          "name": "",
          "type": "address"
        }
      ],
      "name": "validators",
      "outputs": [
        {
          "internalType": "uint128",
          "name": "totalStaked",
          "type": "uint128"
        },
        {
          "internalType": "uint64",
          "name": "reputationScore",
          "type": "uint64"
        },
        {
          "internalType": "bool",
          "name": "isActive",
          "type": "bool"
        },
        {
          "internalType": "address",
          "name": "addr",
          "type": "address"
        }
      ],
      "stateMutability": "view",
      "type": "function"
    }
  ],
  "bytecode": "0x6101606040523480156200001257600080fd5b506040518060400160405280600581526020016429b1b7b4b760d91b81525080604051806040016040528060018152602001603160f81b8152506040518060400160405280600581526020016429b1b7b4b760d91b8152506040518060400160405280600581526020016429a1a7a4a760d91b8152508160039081620000999190620005b8565b506004620000a88282620005b8565b50506005805460ff1916905550620000c28260076200022e565b61012052620000d38160086200022e565b61014052815160208084019190912060e052815190820120610100524660a0526200016160e05161010051604080517f8b73c3c69bb8fe3d512ecc4cf759cc79239f7b179b0ffacaa9a75d522b39400f60208201529081019290925260608201524660808201523060a082015260009060c00160405160208183030381529060405280519060200120905090565b60805250503060c052506200017860003362000267565b50620001a57f65d7a28e3265b37a6474929f336521b332c1681b933f6cb9f3376673440d862a3362000267565b50620001d27f9f2df0fed2c77648de5860a4cc508cd0818c85b8b8a1ab4ceeef8d981c8956a63362000267565b50620001ff7ff18246d2e788c2a885ec6aeee43fc7c89077b8b7a1e52e99f27f5889e429e2f53362000267565b506200022833620002136012600a62000797565b6200022290620f4240620007af565b62000319565b62000854565b60006020835110156200024e5762000246836200035b565b905062000261565b816200025b8482620005b8565b5060ff90505b92915050565b60008281526006602090815260408083206001600160a01b038516845290915281205460ff16620003105760008381526006602090815260408083206001600160a01b03861684529091529020805460ff19166001179055620002c73390565b6001600160a01b0316826001600160a01b0316847f2f8788117e7eff1d82e926ec794901d17c78024a50270940304540a733656f0d60405160405180910390a450600162000261565b50600062000261565b6001600160a01b038216620003495760405163ec442f0560e01b8152600060048201526024015b60405180910390fd5b62000357600083836200039e565b5050565b600080829050601f8151111562000389578260405163305a27a960e01b8152600401620003409190620007c9565b8051620003968262000819565b179392505050565b620003a8620003ba565b620003b5838383620003e1565b505050565b60055460ff1615620003df5760405163d93c066560e01b815260040160405180910390fd5b565b6001600160a01b038316620004105780600260008282546200040491906200083e565b90915550620004849050565b6001600160a01b03831660009081526020819052604090205481811015620004655760405163391434e360e21b81526001600160a01b0385166004820152602481018290526044810183905260640162000340565b6001600160a01b03841660009081526020819052604090209082900390555b6001600160a01b038216620004a257600280548290039055620004c1565b6001600160a01b03821660009081526020819052604090208054820190555b816001600160a01b0316836001600160a01b03167fddf252ad1be2c89b69c2b068fc378daa952ba7f163c4a11628f55a4df523b3ef836040516200050791815260200190565b60405180910390a3505050565b634e487b7160e01b600052604160045260246000fd5b600181811c908216806200053f57607f821691505b6020821081036200056057634e487b7160e01b600052602260045260246000fd5b50919050565b601f821115620003b557600081815260208120601f850160051c810160208610156200058f5750805b601f850160051c820191505b81811015620005b0578281556001016200059b565b505050505050565b81516001600160401b03811115620005d457620005d462000514565b620005ec81620005e584546200052a565b8462000566565b602080601f8311600181146200062457600084156200060b5750858301515b600019600386901b1c1916600185901b178555620005b0565b600085815260208120601f198616915b82811015620006555788860151825594840194600190910190840162000634565b5085821015620006745787850151600019600388901b60f8161c191681555b5050505050600190811b01905550565b634e487b7160e01b600052601160045260246000fd5b600181815b80851115620006db578160001904821115620006bf57620006bf62000684565b80851615620006cd57918102915b93841c93908002906200069f565b509250929050565b600082620006f45750600162000261565b81620007035750600062000261565b81600181146200071c5760028114620007275762000747565b600191505062000261565b60ff8411156200073b576200073b62000684565b50506001821b62000261565b5060208310610133831016604e8410600b84101617156200076c575081810a62000261565b6200077883836200069a565b80600019048211156200078f576200078f62000684565b029392505050565b6000620007a860ff841683620006e3565b9392505050565b808202811582820484141762000261576200026162000684565b600060208083528351808285015260005b81811015620007f857858101830151858201604001528201620007da565b506000604082860101526040601f19601f8301168501019250505092915050565b80516020808301519190811015620005605760001960209190910360031b1b16919050565b8082018082111562000261576200026162000684565b60805160a05160c05160e0516101005161012051610140516123b0620008af60003960006118380152600061180b0152600061168101526000611659015260006115b4015260006115de0152600061160801526123b06000f3fe608060405234801561001057600080fd5b50600436106102695760003560e01c806379cc679011610151578063a217fddf116100c3578063d539139311610087578063d539139314610677578063d547741f1461069e578063dd62ed3e146106b1578063e63ab1e9146106ea578063f8d8aa7214610711578063fa52c7d81461076b57600080fd5b8063a217fddf14610621578063a8a09ac314610629578063a9059cbb1461063c578063b7ab4db51461064f578063d505accf1461066457600080fd5b806384b0196e1161011557806384b0196e1461053057806388fe2be81461054b5780638a11d7c91461055e57806391052816146105df57806391d148541461060657806395d89b411461061957600080fd5b806379cc6790146104de5780637a6eea37146104f15780637ecebe0014610502578063817b1cd2146105155780638456cb591461052857600080fd5b8063248a9ca3116101ea5780633644e515116101ae5780633644e5151461047457806336568abe1461047c5780633f4ba83a1461048f57806342966c68146104975780635c975abb146104aa57806370a08231146104b557600080fd5b8063248a9ca3146104125780632def6620146104355780632f2ff15d1461043f578063313ce5671461045257806334d873411461046157600080fd5b80630f43a677116102315780630f43a6771461034857806316934fc41461035f57806318160ddd146103d45780631932526d146103dc57806323b872dd146103ff57600080fd5b806301ffc9a71461026e57806306fdde031461029657806308dbbb03146102ab5780630933baa9146102d3578063095ea7b314610335575b600080fd5b61028161027c366004611ef2565b610804565b60405190151581526020015b60405180910390f35b61029e61083b565b60405161028d9190611f69565b6102bb683635c9adc5dea0000081565b6040516001600160801b03909116815260200161028d565b61030e6102e1366004611f98565b600f602052600090815260409020546001600160801b03811690600160801b90046001600160401b031682565b604080516001600160801b0390931683526001600160401b0390911660208301520161028d565b610281610343366004611fb3565b6108cd565b610351600d5481565b60405190815260200161028d565b6103a561036d366004611f98565b600a602052600090815260409020546001600160801b03811690600160801b81046001600160401b031690600160c01b900460ff1683565b604080516001600160801b0390941684526001600160401b03909216602084015215159082015260600161028d565b600254610351565b6103e76301e1338081565b6040516001600160401b03909116815260200161028d565b61028161040d366004611fdd565b6108e5565b610351610420366004612019565b60009081526006602052604090206001015490565b61043d610909565b005b61043d61044d366004612032565b610a9f565b6040516012815260200161028d565b61043d61046f366004612075565b610aca565b610351610c48565b61043d61048a366004612032565b610c57565b61043d610c8f565b61043d6104a5366004612019565b610cc4565b60055460ff16610281565b6103516104c3366004611f98565b6001600160a01b031660009081526020819052604090205490565b61043d6104ec366004611fb3565b610cce565b6102bb69021e19e0c9bab240000081565b610351610510366004611f98565b610ce7565b600e546102bb906001600160801b031681565b61043d610d05565b610538610d37565b60405161028d97969594939291906120c8565b61043d61055936600461215e565b610d7d565b6103a561056c366004611f98565b6001600160a01b039081166000908152600b6020908152604091829020825160808101845281546001600160801b038116808352600160801b82046001600160401b0316948301859052600160c01b90910460ff1615159482018590526001909201549094166060909401939093529192565b6103517ff18246d2e788c2a885ec6aeee43fc7c89077b8b7a1e52e99f27f5889e429e2f581565b610281610614366004612032565b610f97565b61029e610fc2565b610351600081565b61043d610637366004612179565b610fd1565b61028161064a366004611fb3565b6110c8565b6106576110d6565b60405161028d91906121a3565b61043d6106723660046121e4565b611182565b6103517f9f2df0fed2c77648de5860a4cc508cd0818c85b8b8a1ab4ceeef8d981c8956a681565b61043d6106ac366004612032565b6112bc565b6103516106bf366004612257565b6001600160a01b03918216600090815260016020908152604080832093909416825291909152205490565b6103517f65d7a28e3265b37a6474929f336521b332c1681b933f6cb9f3376673440d862a81565b61030e61071f366004611f98565b6001600160a01b03166000908152600f60209081526040918290208251808401909352546001600160801b038116808452600160801b9091046001600160401b03169290910182905291565b6107c3610779366004611f98565b600b60205260009081526040902080546001909101546001600160801b03821691600160801b81046001600160401b031691600160c01b90910460ff16906001600160a01b031684565b604080516001600160801b0390951685526001600160401b039093166020850152901515918301919091526001600160a01b0316606082015260800161028d565b60006001600160e01b03198216637965db0b60e01b148061083557506301ffc9a760e01b6001600160e01b03198316145b92915050565b60606003805461084a90612281565b80601f016020809104026020016040519081016040528092919081815260200182805461087690612281565b80156108c35780601f10610898576101008083540402835291602001916108c3565b820191906000526020600020905b8154815290600101906020018083116108a657829003601f168201915b5050505050905090565b6000336108db8185856112e1565b5060019392505050565b6000336108f38582856112ee565b6108fe858585611366565b506001949350505050565b336000908152600a602052604090208054600160c01b900460ff166109675760405162461bcd60e51b815260206004820152600f60248201526e4e6f20616374697665207374616b6560881b60448201526064015b60405180910390fd5b8054610988906301e1338090600160801b90046001600160401b03166122cb565b6001600160401b0316426001600160401b031610156109d85760405162461bcd60e51b815260206004820152600c60248201526b14dd185ad9481b1bd8dad95960a21b604482015260640161095e565b805478ff0000000000000000ffffffffffffffffffffffffffffffff1981168255600e80546001600160801b039283168184168190039093166001600160801b031991909116179055336000908152600b6020526040902054600160c01b900460ff1615610a4957610a49336113c5565b610a5d3033836001600160801b0316611366565b6040516001600160801b038216815233907f23eb338ed2df691870bc931bf6328c55b2708178ecf1f1b3e889afca4418adea9060200160405180910390a25050565b600082815260066020526040902060010154610aba816114e3565b610ac483836114ed565b50505050565b7ff18246d2e788c2a885ec6aeee43fc7c89077b8b7a1e52e99f27f5889e429e2f5610af4816114e3565b610afc611581565b6000836001600160801b031611610b465760405162461bcd60e51b815260206004820152600e60248201526d125b9d985b1a5908185b5bdd5b9d60921b604482015260640161095e565b6000826001600160401b031611610b925760405162461bcd60e51b815260206004820152601060248201526f24b73b30b634b210323ab930ba34b7b760811b604482015260640161095e565b6000610b9e83426122cb565b6040805180820182526001600160801b038781168083526001600160401b0385811660208086018281526001600160a01b038e166000818152600f8452899020975188549251909516600160801b026001600160c01b031990921694909616939093179290921790945584519182528101929092529293507fea99fcbdf778191ee2bc9d4bfd39b57b3b6794ad3c3a2a8eeec68b475c3e8bf9910160405180910390a25050505050565b6000610c526115a7565b905090565b6001600160a01b0381163314610c805760405163334bd91960e11b815260040160405180910390fd5b610c8a82826116d2565b505050565b7f65d7a28e3265b37a6474929f336521b332c1681b933f6cb9f3376673440d862a610cb9816114e3565b610cc161173f565b50565b610cc13382611791565b610cd98233836112ee565b610ce38282611791565b5050565b6001600160a01b038116600090815260096020526040812054610835565b7f65d7a28e3265b37a6474929f336521b332c1681b933f6cb9f3376673440d862a610d2f816114e3565b610cc16117c7565b600060608060008060006060610d4b611804565b610d53611831565b60408051600080825260208201909252600f60f81b9b939a50919850469750309650945092509050565b610d85611581565b683635c9adc5dea000006001600160801b0382161015610ddd5760405162461bcd60e51b815260206004820152601360248201527242656c6f77206d696e696d756d207374616b6560681b604482015260640161095e565b336000908152602081905260409020546001600160801b0382161115610e3c5760405162461bcd60e51b8152602060048201526014602482015273496e73756666696369656e742062616c616e636560601b604482015260640161095e565b610e503330836001600160801b0316611366565b336000908152600a602052604090208054600160c01b900460ff1615610eb657805482908290600090610e8d9084906001600160801b0316612308565b92506101000a8154816001600160801b0302191690836001600160801b03160217905550610ef3565b805460ff60c01b196001600160401b034216600160801b026001600160c01b03199092166001600160801b038516179190911716600160c01b1781555b600e80546001600160801b031981166001600160801b039182168501821617909155604051908316815233907f2eefbcc6809174727cb788be082c392be6c822829c56ab5eb44d528e9d9f37f99060200160405180910390a2805469021e19e0c9bab24000006001600160801b0390911610801590610f895750336000908152600b6020526040902054600160c01b900460ff16155b15610ce357610ce33361185e565b60009182526006602090815260408084206001600160a01b0393909316845291905290205460ff1690565b60606004805461084a90612281565b7ff18246d2e788c2a885ec6aeee43fc7c89077b8b7a1e52e99f27f5889e429e2f5610ffb816114e3565b611003611581565b6001600160a01b0383166000908152600b6020526040902054600160c01b900460ff166110695760405162461bcd60e51b81526020600482015260146024820152732737ba1030b1ba34bb32903b30b634b230ba37b960611b604482015260640161095e565b61107c83836001600160801b0316611959565b6040516001600160801b03831681526001600160a01b038416907ff77751a151636203dcb1527a92b63cd167dbd6e61f35882b08d51188b59ba26b9060200160405180910390a2505050565b6000336108db818585611366565b60606000600d546001600160401b038111156110f4576110f46122f2565b60405190808252806020026020018201604052801561111d578160200160208202803683370190505b50905060005b600d5481101561117c576000818152600c602052604090205482516001600160a01b039091169083908390811061115c5761115c612328565b6001600160a01b0390921660209283029190910190910152600101611123565b50919050565b834211156111a65760405163313c898160e11b81526004810185905260240161095e565b60007f6e71edae12b1b97f4d1f60370fef10105fa2faae0126114a169c64845d6126c98888886111f38c6001600160a01b0316600090815260096020526040902080546001810190915590565b6040805160208101969096526001600160a01b0394851690860152929091166060840152608083015260a082015260c0810186905260e001604051602081830303815290604052805190602001209050600061124e8261198f565b9050600061125e828787876119bc565b9050896001600160a01b0316816001600160a01b0316146112a5576040516325c0072360e11b81526001600160a01b0380831660048301528b16602482015260440161095e565b6112b08a8a8a6112e1565b50505050505050505050565b6000828152600660205260409020600101546112d7816114e3565b610ac483836116d2565b610c8a83838360016119ea565b6001600160a01b038381166000908152600160209081526040808320938616835292905220546000198114610ac4578181101561135757604051637dc7a0d960e11b81526001600160a01b0384166004820152602481018290526044810183905260640161095e565b610ac4848484840360006119ea565b6001600160a01b03831661139057604051634b637e8f60e11b81526000600482015260240161095e565b6001600160a01b0382166113ba5760405163ec442f0560e01b81526000600482015260240161095e565b610c8a838383611abf565b6001600160a01b0381166000908152600b60205260408120805460ff60c01b191690555b600d548110156114ab576000818152600c60205260409020546001600160a01b038084169116036114a357600c60006001600d54611427919061233e565b81526020808201929092526040908101600090812054848252600c9384905291812080546001600160a01b0319166001600160a01b0390931692909217909155600d546114769060019061233e565b8152602081019190915260400160002080546001600160a01b0319169055600d80546000190190556114ab565b6001016113e9565b506040516001600160a01b038216907fe1434e25d6611e0db941968fdc97811c982ac1602e951637d206f5fdda9dd8f190600090a250565b610cc18133611ad2565b60006114f98383610f97565b6115795760008381526006602090815260408083206001600160a01b03861684529091529020805460ff191660011790556115313390565b6001600160a01b0316826001600160a01b0316847f2f8788117e7eff1d82e926ec794901d17c78024a50270940304540a733656f0d60405160405180910390a4506001610835565b506000610835565b60055460ff16156115a55760405163d93c066560e01b815260040160405180910390fd5b565b6000306001600160a01b037f00000000000000000000000000000000000000000000000000000000000000001614801561160057507f000000000000000000000000000000000000000000000000000000000000000046145b1561162a57507f000000000000000000000000000000000000000000000000000000000000000090565b610c52604080517f8b73c3c69bb8fe3d512ecc4cf759cc79239f7b179b0ffacaa9a75d522b39400f60208201527f0000000000000000000000000000000000000000000000000000000000000000918101919091527f000000000000000000000000000000000000000000000000000000000000000060608201524660808201523060a082015260009060c00160405160208183030381529060405280519060200120905090565b60006116de8383610f97565b156115795760008381526006602090815260408083206001600160a01b0386168085529252808320805460ff1916905551339286917ff6391f5c32d9c69d2a47ea670b442974b53935d1edc7fd64eb21e047a839171b9190a4506001610835565b611747611b0b565b6005805460ff191690557f5db9ee0a495bf2e6ff9c91a7834c1ba4fdd244a5e8aa4e537bd38aeae4b073aa335b6040516001600160a01b03909116815260200160405180910390a1565b6001600160a01b0382166117bb57604051634b637e8f60e11b81526000600482015260240161095e565b610ce382600083611abf565b6117cf611581565b6005805460ff191660011790557f62e78cea01bee320cd4e420270b5ea74000d11b0c9f74754ebdbfc544b05a2586117743390565b6060610c527f00000000000000000000000000000000000000000000000000000000000000006007611b2e565b6060610c527f00000000000000000000000000000000000000000000000000000000000000006008611b2e565b604080516080810182526001600160a01b038084166000818152600a6020908152858220546001600160801b0390811686526064828701908152600187890181815260608901878152878752600b86528a872099518a54945192511515600160c01b0260ff60c01b196001600160401b0394909416600160801b026001600160c01b031990961691909616179390931716929092178755519581018054969095166001600160a01b031996871617909455600d80548352600c909152858220805490951683179094558354909201909255915190917fd09501348473474a20c772c79c653e1fd7e8b437e418fe235d277d2c8885325191a250565b6001600160a01b0382166119835760405163ec442f0560e01b81526000600482015260240161095e565b610ce360008383611abf565b600061083561199c6115a7565b8360405161190160f01b8152600281019290925260228201526042902090565b6000806000806119ce88888888611bd9565b9250925092506119de8282611ca8565b50909695505050505050565b6001600160a01b038416611a145760405163e602df0560e01b81526000600482015260240161095e565b6001600160a01b038316611a3e57604051634a1406b160e11b81526000600482015260240161095e565b6001600160a01b0380851660009081526001602090815260408083209387168352929052208290558015610ac457826001600160a01b0316846001600160a01b03167f8c5be1e5ebec7d5bd14f71427d1e84f3dd0314c0f7b2291e5b200ac8c7c3b92584604051611ab191815260200190565b60405180910390a350505050565b611ac7611581565b610c8a838383611d61565b611adc8282610f97565b610ce35760405163e2517d3f60e01b81526001600160a01b03821660048201526024810183905260440161095e565b60055460ff166115a557604051638dfc202b60e01b815260040160405180910390fd5b606060ff8314611b4857611b4183611e8b565b9050610835565b818054611b5490612281565b80601f0160208091040260200160405190810160405280929190818152602001828054611b8090612281565b8015611bcd5780601f10611ba257610100808354040283529160200191611bcd565b820191906000526020600020905b815481529060010190602001808311611bb057829003601f168201915b50505050509050610835565b600080807f7fffffffffffffffffffffffffffffff5d576e7357a4501ddfe92f46681b20a0841115611c145750600091506003905082611c9e565b604080516000808252602082018084528a905260ff891692820192909252606081018790526080810186905260019060a0016020604051602081039080840390855afa158015611c68573d6000803e3d6000fd5b5050604051601f1901519150506001600160a01b038116611c9457506000925060019150829050611c9e565b9250600091508190505b9450945094915050565b6000826003811115611cbc57611cbc612351565b03611cc5575050565b6001826003811115611cd957611cd9612351565b03611cf75760405163f645eedf60e01b815260040160405180910390fd5b6002826003811115611d0b57611d0b612351565b03611d2c5760405163fce698f760e01b81526004810182905260240161095e565b6003826003811115611d4057611d40612351565b03610ce3576040516335e2f38360e21b81526004810182905260240161095e565b6001600160a01b038316611d8c578060026000828254611d819190612367565b90915550611dfe9050565b6001600160a01b03831660009081526020819052604090205481811015611ddf5760405163391434e360e21b81526001600160a01b0385166004820152602481018290526044810183905260640161095e565b6001600160a01b03841660009081526020819052604090209082900390555b6001600160a01b038216611e1a57600280548290039055611e39565b6001600160a01b03821660009081526020819052604090208054820190555b816001600160a01b0316836001600160a01b03167fddf252ad1be2c89b69c2b068fc378daa952ba7f163c4a11628f55a4df523b3ef83604051611e7e91815260200190565b60405180910390a3505050565b60606000611e9883611eca565b604080516020808252818301909252919250600091906020820181803683375050509182525060208101929092525090565b600060ff8216601f81111561083557604051632cd44ac360e21b815260040160405180910390fd5b600060208284031215611f0457600080fd5b81356001600160e01b031981168114611f1c57600080fd5b9392505050565b6000815180845260005b81811015611f4957602081850181015186830182015201611f2d565b506000602082860101526020601f19601f83011685010191505092915050565b602081526000611f1c6020830184611f23565b80356001600160a01b0381168114611f9357600080fd5b919050565b600060208284031215611faa57600080fd5b611f1c82611f7c565b60008060408385031215611fc657600080fd5b611fcf83611f7c565b946020939093013593505050565b600080600060608486031215611ff257600080fd5b611ffb84611f7c565b925061200960208501611f7c565b9150604084013590509250925092565b60006020828403121561202b57600080fd5b5035919050565b6000806040838503121561204557600080fd5b8235915061205560208401611f7c565b90509250929050565b80356001600160801b0381168114611f9357600080fd5b60008060006060848603121561208a57600080fd5b61209384611f7c565b92506120a16020850161205e565b915060408401356001600160401b03811681146120bd57600080fd5b809150509250925092565b60ff60f81b881681526000602060e0818401526120e860e084018a611f23565b83810360408501526120fa818a611f23565b606085018990526001600160a01b038816608086015260a0850187905284810360c0860152855180825283870192509083019060005b8181101561214c57835183529284019291840191600101612130565b50909c9b505050505050505050505050565b60006020828403121561217057600080fd5b611f1c8261205e565b6000806040838503121561218c57600080fd5b61219583611f7c565b91506120556020840161205e565b6020808252825182820181905260009190848201906040850190845b818110156119de5783516001600160a01b0316835292840192918401916001016121bf565b600080600080600080600060e0888a0312156121ff57600080fd5b61220888611f7c565b965061221660208901611f7c565b95506040880135945060608801359350608088013560ff8116811461223a57600080fd5b9699959850939692959460a0840135945060c09093013592915050565b6000806040838503121561226a57600080fd5b61227383611f7c565b915061205560208401611f7c565b600181811c9082168061229557607f821691505b60208210810361117c57634e487b7160e01b600052602260045260246000fd5b634e487b7160e01b600052601160045260246000fd5b6001600160401b038181168382160190808211156122eb576122eb6122b5565b5092915050565b634e487b7160e01b600052604160045260246000fd5b6001600160801b038181168382160190808211156122eb576122eb6122b5565b634e487b7160e01b600052603260045260246000fd5b81810381811115610835576108356122b5565b634e487b7160e01b600052602160045260246000fd5b80820180821115610835576108356122b556fea2646970667358221220dbc325ccd9ef19c692488d98781192f5882931873d91dd3bf7d476266084590764736f6c63430008140033",
  "linkReferences": {},
  "deployedLinkReferences": {}
}