{
  "_format": "hh-sol-artifact-1",
  "contractName": "SmartWallet",
  "sourceName": "contracts/Smartwallet.sol",
  "abi": [
    {
      "inputs": [
        {
          "internalType": "address",
          "name": "_entryPoint",
          "type": "address"
        },
        {
          "internalType": "address",
          "name": "_owner",
          "type": "address"
        }
      ],
      "stateMutability": "nonpayable",
      "type": "constructor"
    },
    {
      "inputs": [],
      "name": "ECDSAInvalidSignature",
      "type": "error"
    },
    {
      "inputs": [
        {
          "internalType": "uint256",
          "name": "length",
          "type": "uint256"
        }
      ],
      "name": "ECDSAInvalidSignatureLength",
      "type": "error"
    },
    {
      "inputs": [
        {
          "internalType": "bytes32",
          "name": "s",
          "type": "bytes32"
        }
      ],
      "name": "ECDSAInvalidSignatureS",
      "type": "error"
    },
    {
      "inputs": [],
      "name": "FailedCall",
      "type": "error"
    },
    {
      "inputs": [
        {
          "internalType": "address",
          "name": "owner",
          "type": "address"
        }
      ],
      "name": "OwnableInvalidOwner",
      "type": "error"
    },
    {
      "inputs": [
        {
          "internalType": "address",
          "name": "account",
          "type": "address"
        }
      ],
      "name": "OwnableUnauthorizedAccount",
      "type": "error"
    },
    {
      "inputs": [
        {
          "internalType": "address",
          "name": "token",
          "type": "address"
        }
      ],
      "name": "SafeERC20FailedOperation",
      "type": "error"
    },
    {
      "anonymous": false,
      "inputs": [
        {
          "indexed": true,
          "internalType": "address",
          "name": "previousOwner",
          "type": "address"
        },
        {
          "indexed": true,
          "internalType": "address",
          "name": "newOwner",
          "type": "address"
        }
      ],
      "name": "OwnershipTransferred",
      "type": "event"
    },
    {
      "anonymous": false,
      "inputs": [
        {
          "indexed": true,
          "internalType": "address",
          "name": "_payee",
          "type": "address"
        },
        {
          "indexed": false,
          "internalType": "uint256",
          "name": "_amount",
          "type": "uint256"
        }
      ],
      "name": "PayPrefund",
      "type": "event"
    },
    {
      "anonymous": false,
      "inputs": [
        {
          "indexed": true,
          "internalType": "address",
          "name": "_newEntryPoint",
          "type": "address"
        },
        {
          "indexed": true,
          "internalType": "address",
          "name": "_oldEntryPoint",
          "type": "address"
        }
      ],
      "name": "UpdateEntryPoint",
      "type": "event"
    },
    {
      "anonymous": false,
      "inputs": [
        {
          "indexed": true,
          "internalType": "address",
          "name": "_to",
          "type": "address"
        },
        {
          "indexed": false,
          "internalType": "address",
          "name": "_token",
          "type": "address"
        },
        {
          "indexed": false,
          "internalType": "uint256",
          "name": "_amount",
          "type": "uint256"
        }
      ],
      "name": "WithdrawERC20",
      "type": "event"
    },
    {
      "inputs": [],
      "name": "entryPoint",
      "outputs": [
        {
          "internalType": "contract IEntryPoint",
          "name": "",
          "type": "address"
        }
      ],
      "stateMutability": "view",
      "type": "function"
    },
    {
      "inputs": [
        {
          "internalType": "address",
          "name": "target",
          "type": "address"
        },
        {
          "internalType": "uint256",
          "name": "value",
          "type": "uint256"
        },
        {
          "internalType": "bytes",
          "name": "payload",
          "type": "bytes"
        }
      ],
      "name": "executeFromEntryPoint",
      "outputs": [],
      "stateMutability": "nonpayable",
      "type": "function"
    },
    {
      "inputs": [],
      "name": "nonce",
      "outputs": [
        {
          "internalType": "uint256",
          "name": "",
          "type": "uint256"
        }
      ],
      "stateMutability": "view",
      "type": "function"
    },
    {
      "inputs": [],
      "name": "owner",
      "outputs": [
        {
          "internalType": "address",
          "name": "",
          "type": "address"
        }
      ],
      "stateMutability": "view",
      "type": "function"
    },
    {
      "inputs": [],
      "name": "renounceOwnership",
      "outputs": [],
      "stateMutability": "nonpayable",
      "type": "function"
    },
    {
      "inputs": [
        {
          "internalType": "address",
          "name": "_newEntryPoint",
          "type": "address"
        }
      ],
      "name": "setEntryPoint",
      "outputs": [],
      "stateMutability": "nonpayable",
      "type": "function"
    },
    {
      "inputs": [
        {
          "internalType": "address",
          "name": "newOwner",
          "type": "address"
        }
      ],
      "name": "transferOwnership",
      "outputs": [],
      "stateMutability": "nonpayable",
      "type": "function"
    },
    {
      "inputs": [
        {
          "components": [
            {
              "internalType": "address",
              "name": "sender",
              "type": "address"
            },
            {
              "internalType": "uint256",
              "name": "nonce",
              "type": "uint256"
            },
            {
              "internalType": "bytes",
              "name": "initCode",
              "type": "bytes"
            },
            {
              "internalType": "bytes",
              "name": "callData",
              "type": "bytes"
            },
            {
              "internalType": "uint256",
              "name": "callGasLimit",
              "type": "uint256"
            },
            {
              "internalType": "uint256",
              "name": "verificationGasLimit",
              "type": "uint256"
            },
            {
              "internalType": "uint256",
              "name": "preVerificationGas",
              "type": "uint256"
            },
            {
              "internalType": "uint256",
              "name": "maxFeePerGas",
              "type": "uint256"
            },
            {
              "internalType": "uint256",
              "name": "maxPriorityFeePerGas",
              "type": "uint256"
            },
            {
              "internalType": "bytes",
              "name": "paymasterAndData",
              "type": "bytes"
            },
            {
              "internalType": "bytes",
              "name": "signature",
              "type": "bytes"
            }
          ],
          "internalType": "struct UserOperation",
          "name": "userOp",
          "type": "tuple"
        },
        {
          "internalType": "bytes32",
          "name": "userOpHash",
          "type": "bytes32"
        },
        {
          "internalType": "address",
          "name": "",
          "type": "address"
        },
        {
          "internalType": "uint256",
          "name": "missingWalletFunds",
          "type": "uint256"
        }
      ],
      "name": "validateUserOp",
      "outputs": [
        {
          "internalType": "uint256",
          "name": "deadline",
          "type": "uint256"
        }
      ],
      "stateMutability": "nonpayable",
      "type": "function"
    },
    {
      "inputs": [
        {
          "internalType": "address",
          "name": "token",
          "type": "address"
        },
        {
          "internalType": "address",
          "name": "to",
          "type": "address"
        },
        {
          "internalType": "uint256",
          "name": "amount",
          "type": "uint256"
        }
      ],
      "name": "withdrawERC20",
      "outputs": [],
      "stateMutability": "nonpayable",
      "type": "function"
    },
    {
      "inputs": [],
      "name": "withdrawETH",
      "outputs": [],
      "stateMutability": "nonpayable",
      "type": "function"
    },
    {
      "stateMutability": "payable",
      "type": "receive"
    }
  ],
  "bytecode": "0x60806040523480156200001157600080fd5b5060405162000f0338038062000f03833981016040819052620000349162000178565b33806200005c57604051631e4fbdf760e01b8152600060048201526024015b60405180910390fd5b620000678162000096565b50600180546001600160a01b0319166001600160a01b0384161790556200008e81620000e6565b5050620001b0565b600080546001600160a01b038381166001600160a01b0319831681178455604051919092169283917f8be0079c531659141344cd1fd0a4f28419497f9722a3daafe3b4186f6b6457e09190a35050565b620000f06200012a565b6001600160a01b0381166200011c57604051631e4fbdf760e01b81526000600482015260240162000053565b620001278162000096565b50565b6000546001600160a01b03163314620001595760405163118cdaa760e01b815233600482015260240162000053565b565b80516001600160a01b03811681146200017357600080fd5b919050565b600080604083850312156200018c57600080fd5b62000197836200015b565b9150620001a7602084016200015b565b90509250929050565b610d4380620001c06000396000f3fe6080604052600436106100955760003560e01c80638da5cb5b116100595780638da5cb5b1461014b578063affed0e01461017d578063b0d691fe14610193578063e086e5ec146101b3578063f2fde38b146101c857600080fd5b80630825d1fc146100a157806344004cc1146100d4578063584465f2146100f6578063715018a61461011657806373a68f7a1461012b57600080fd5b3661009c57005b600080fd5b3480156100ad57600080fd5b506100c16100bc366004610ad7565b6101e8565b6040519081526020015b60405180910390f35b3480156100e057600080fd5b506100f46100ef366004610b3c565b6102b2565b005b34801561010257600080fd5b506100f4610111366004610b78565b610310565b34801561012257600080fd5b506100f4610375565b34801561013757600080fd5b506100f4610146366004610b9a565b610389565b34801561015757600080fd5b506000546001600160a01b03165b6040516001600160a01b0390911681526020016100cb565b34801561018957600080fd5b506100c160025481565b34801561019f57600080fd5b50600154610165906001600160a01b031681565b3480156101bf57600080fd5b506100f461045f565b3480156101d457600080fd5b506100f46101e3366004610b78565b6104a4565b6001546000906001600160a01b0316331461021e5760405162461bcd60e51b815260040161021590610c21565b60405180910390fd5b61022885856104df565b6102356040860186610c72565b905060000361029e57600254602086013581146102945760405162461bcd60e51b815260206004820152601a60248201527f536d61727457616c6c65743a20496e76616c6964206e6f6e63650000000000006044820152606401610215565b61029c6105f7565b505b6102a78261060e565b506000949350505050565b6102ba61072d565b6102c583838361075a565b604080516001600160a01b038581168252602082018490528416917f33c35f9541201e342d5e7467016e65a0a06182eb12a5f17103f71cec95b6cb29910160405180910390a2505050565b61031861072d565b6001546040516001600160a01b03918216918316907f3f2b7351b54f225a84c5c935a73f2a8c553dbcd5e4f0479f1e29aa663bd2c2c490600090a3600180546001600160a01b0319166001600160a01b0392909216919091179055565b61037d61072d565b61038760006107b1565b565b6001546001600160a01b031633146103b35760405162461bcd60e51b815260040161021590610c21565b6000846001600160a01b03168484846040516103d0929190610cc0565b60006040518083038185875af1925050503d806000811461040d576040519150601f19603f3d011682016040523d82523d6000602084013e610412565b606091505b50509050610457816000368080601f01602080910402602001604051908101604052809392919081815260200183838082843760009201919091525061080192505050565b505050505050565b61046761072d565b600080546040516001600160a01b03909116914780156108fc02929091818181858888f193505050501580156104a1573d6000803e3d6000fd5b50565b6104ac61072d565b6001600160a01b0381166104d657604051631e4fbdf760e01b815260006004820152602401610215565b6104a1816107b1565b6040517f19457468657265756d205369676e6564204d6573736167653a0a3332000000006020820152603c8101829052600090605c0160408051601f1981840301815291905280516020909101209050600061057d82610543610140870187610c72565b8080601f01602080910402602001604051908101604052809392919081815260200183838082843760009201919091525061081f92505050565b90506105916000546001600160a01b031690565b6001600160a01b0316816001600160a01b0316146105f15760405162461bcd60e51b815260206004820152601e60248201527f536d61727457616c6c65743a20496e76616c6964207369676e617475726500006044820152606401610215565b50505050565b6002805490600061060783610cd0565b9190505550565b6001546001600160a01b031633146106385760405162461bcd60e51b815260040161021590610c21565b80156104a1576001546040516000916001600160a01b03169083908381818185875af1925050503d806000811461068b576040519150601f19603f3d011682016040523d82523d6000602084013e610690565b606091505b50509050806106f45760405162461bcd60e51b815260206004820152602a60248201527f536d61727457616c6c65743a2045544820656e747279706f696e74207061796d604482015269195b9d0819985a5b195960b21b6064820152608401610215565b60405182815230907f643efa380f9cee2b01473ee121e4a5745a4cf0cc76f29aa69f763b1ebc14d8cc9060200160405180910390a25050565b6000546001600160a01b031633146103875760405163118cdaa760e01b8152336004820152602401610215565b604080516001600160a01b038416602482015260448082018490528251808303909101815260649091019091526020810180516001600160e01b031663a9059cbb60e01b1790526107ac908490610849565b505050565b600080546001600160a01b038381166001600160a01b0319831681178455604051919092169283917f8be0079c531659141344cd1fd0a4f28419497f9722a3daafe3b4186f6b6457e09190a35050565b60608261081657610811826108ba565b610819565b50805b92915050565b60008060008061082f86866108e2565b92509250925061083f828261092f565b5090949350505050565b600080602060008451602086016000885af18061086c576040513d6000823e3d81fd5b50506000513d91508115610884578060011415610891565b6001600160a01b0384163b155b156105f157604051635274afe760e01b81526001600160a01b0385166004820152602401610215565b8051156108c957805160208201fd5b60405163d6bda27560e01b815260040160405180910390fd5b6000806000835160410361091c5760208401516040850151606086015160001a61090e888285856109ec565b955095509550505050610928565b50508151600091506002905b9250925092565b600082600381111561094357610943610cf7565b0361094c575050565b600182600381111561096057610960610cf7565b0361097e5760405163f645eedf60e01b815260040160405180910390fd5b600282600381111561099257610992610cf7565b036109b35760405163fce698f760e01b815260048101829052602401610215565b60038260038111156109c7576109c7610cf7565b036109e8576040516335e2f38360e21b815260048101829052602401610215565b5050565b600080807f7fffffffffffffffffffffffffffffff5d576e7357a4501ddfe92f46681b20a0841115610a275750600091506003905082610ab1565b604080516000808252602082018084528a905260ff891692820192909252606081018790526080810186905260019060a0016020604051602081039080840390855afa158015610a7b573d6000803e3d6000fd5b5050604051601f1901519150506001600160a01b038116610aa757506000925060019150829050610ab1565b9250600091508190505b9450945094915050565b80356001600160a01b0381168114610ad257600080fd5b919050565b60008060008060808587031215610aed57600080fd5b843567ffffffffffffffff811115610b0457600080fd5b85016101608188031215610b1757600080fd5b935060208501359250610b2c60408601610abb565b9396929550929360600135925050565b600080600060608486031215610b5157600080fd5b610b5a84610abb565b9250610b6860208501610abb565b9150604084013590509250925092565b600060208284031215610b8a57600080fd5b610b9382610abb565b9392505050565b60008060008060608587031215610bb057600080fd5b610bb985610abb565b935060208501359250604085013567ffffffffffffffff80821115610bdd57600080fd5b818701915087601f830112610bf157600080fd5b813581811115610c0057600080fd5b886020828501011115610c1257600080fd5b95989497505060200194505050565b60208082526031908201527f536d61727457616c6c65743a204f6e6c7920656e747279506f696e742063616e6040820152700818d85b1b081d1a1a5cc81b595d1a1bd9607a1b606082015260800190565b6000808335601e19843603018112610c8957600080fd5b83018035915067ffffffffffffffff821115610ca457600080fd5b602001915036819003821315610cb957600080fd5b9250929050565b8183823760009101908152919050565b600060018201610cf057634e487b7160e01b600052601160045260246000fd5b5060010190565b634e487b7160e01b600052602160045260246000fdfea2646970667358221220bc88b1f41c9f1bbcb5b852789d1ea9c9dfb63374cbc81c5077fe4797b1abb83464736f6c63430008180033",
  "linkReferences": {},
  "deployedLinkReferences": {}
}