{
  "_format": "hh-sol-artifact-1",
  "contractName": "Paymaster",
  "sourceName": "contracts/Paymaster.sol",
  "abi": [
    {
      "inputs": [
        {
          "internalType": "address",
          "name": "_entryPoint",
          "type": "address"
        }
      ],
      "stateMutability": "nonpayable",
      "type": "constructor"
    },
    {
      "inputs": [
        {
          "internalType": "address",
          "name": "owner",
          "type": "address"
        }
      ],
      "name": "OwnableInvalidOwner",
      "type": "error"
    },
    {
      "inputs": [
        {
          "internalType": "address",
          "name": "account",
          "type": "address"
        }
      ],
      "name": "OwnableUnauthorizedAccount",
      "type": "error"
    },
    {
      "anonymous": false,
      "inputs": [
        {
          "indexed": true,
          "internalType": "address",
          "name": "previousOwner",
          "type": "address"
        },
        {
          "indexed": true,
          "internalType": "address",
          "name": "newOwner",
          "type": "address"
        }
      ],
      "name": "OwnershipTransferred",
      "type": "event"
    },
    {
      "anonymous": false,
      "inputs": [
        {
          "indexed": true,
          "internalType": "address",
          "name": "newEntryPoint",
          "type": "address"
        },
        {
          "indexed": true,
          "internalType": "address",
          "name": "oldEntryPoint",
          "type": "address"
        }
      ],
      "name": "UpdateEntryPoint",
      "type": "event"
    },
    {
      "anonymous": false,
      "inputs": [
        {
          "indexed": true,
          "internalType": "address",
          "name": "user",
          "type": "address"
        },
        {
          "indexed": false,
          "internalType": "uint256",
          "name": "callCount",
          "type": "uint256"
        }
      ],
      "name": "UserAccepted",
      "type": "event"
    },
    {
      "anonymous": false,
      "inputs": [
        {
          "indexed": true,
          "internalType": "address",
          "name": "user",
          "type": "address"
        },
        {
          "indexed": false,
          "internalType": "uint256",
          "name": "callCount",
          "type": "uint256"
        }
      ],
      "name": "UserRejected",
      "type": "event"
    },
    {
      "inputs": [],
      "name": "MAX_FREE_CALLS",
      "outputs": [
        {
          "internalType": "uint256",
          "name": "",
          "type": "uint256"
        }
      ],
      "stateMutability": "view",
      "type": "function"
    },
    {
      "inputs": [
        {
          "internalType": "uint32",
          "name": "_unstakeDelaySeconds",
          "type": "uint32"
        }
      ],
      "name": "addStake",
      "outputs": [],
      "stateMutability": "payable",
      "type": "function"
    },
    {
      "inputs": [],
      "name": "deposit",
      "outputs": [],
      "stateMutability": "payable",
      "type": "function"
    },
    {
      "inputs": [],
      "name": "entryPoint",
      "outputs": [
        {
          "internalType": "contract IEntryPoint",
          "name": "",
          "type": "address"
        }
      ],
      "stateMutability": "view",
      "type": "function"
    },
    {
      "inputs": [],
      "name": "getDeposit",
      "outputs": [
        {
          "internalType": "uint112",
          "name": "",
          "type": "uint112"
        }
      ],
      "stateMutability": "view",
      "type": "function"
    },
    {
      "inputs": [],
      "name": "owner",
      "outputs": [
        {
          "internalType": "address",
          "name": "",
          "type": "address"
        }
      ],
      "stateMutability": "view",
      "type": "function"
    },
    {
      "inputs": [
        {
          "internalType": "enum IPaymaster.PostOpMode",
          "name": "mode",
          "type": "uint8"
        },
        {
          "internalType": "bytes",
          "name": "context",
          "type": "bytes"
        },
        {
          "internalType": "uint256",
          "name": "actualGasCost",
          "type": "uint256"
        }
      ],
      "name": "postOp",
      "outputs": [],
      "stateMutability": "nonpayable",
      "type": "function"
    },
    {
      "inputs": [],
      "name": "renounceOwnership",
      "outputs": [],
      "stateMutability": "nonpayable",
      "type": "function"
    },
    {
      "inputs": [
        {
          "internalType": "address",
          "name": "_newEntryPoint",
          "type": "address"
        }
      ],
      "name": "setEntryPoint",
      "outputs": [],
      "stateMutability": "nonpayable",
      "type": "function"
    },
    {
      "inputs": [
        {
          "internalType": "address",
          "name": "newOwner",
          "type": "address"
        }
      ],
      "name": "transferOwnership",
      "outputs": [],
      "stateMutability": "nonpayable",
      "type": "function"
    },
    {
      "inputs": [],
      "name": "unlockStake",
      "outputs": [],
      "stateMutability": "nonpayable",
      "type": "function"
    },
    {
      "inputs": [
        {
          "internalType": "address",
          "name": "",
          "type": "address"
        }
      ],
      "name": "userCalls",
      "outputs": [
        {
          "internalType": "uint256",
          "name": "",
          "type": "uint256"
        }
      ],
      "stateMutability": "view",
      "type": "function"
    },
    {
      "inputs": [
        {
          "components": [
            {
              "internalType": "address",
              "name": "sender",
              "type": "address"
            },
            {
              "internalType": "uint256",
              "name": "nonce",
              "type": "uint256"
            },
            {
              "internalType": "bytes",
              "name": "initCode",
              "type": "bytes"
            },
            {
              "internalType": "bytes",
              "name": "callData",
              "type": "bytes"
            },
            {
              "internalType": "uint256",
              "name": "callGasLimit",
              "type": "uint256"
            },
            {
              "internalType": "uint256",
              "name": "verificationGasLimit",
              "type": "uint256"
            },
            {
              "internalType": "uint256",
              "name": "preVerificationGas",
              "type": "uint256"
            },
            {
              "internalType": "uint256",
              "name": "maxFeePerGas",
              "type": "uint256"
            },
            {
              "internalType": "uint256",
              "name": "maxPriorityFeePerGas",
              "type": "uint256"
            },
            {
              "internalType": "bytes",
              "name": "paymasterAndData",
              "type": "bytes"
            },
            {
              "internalType": "bytes",
              "name": "signature",
              "type": "bytes"
            }
          ],
          "internalType": "struct UserOperation",
          "name": "userOp",
          "type": "tuple"
        },
        {
          "internalType": "bytes32",
          "name": "",
          "type": "bytes32"
        },
        {
          "internalType": "uint256",
          "name": "",
          "type": "uint256"
        }
      ],
      "name": "validatePaymasterUserOp",
      "outputs": [
        {
          "internalType": "bytes",
          "name": "context",
          "type": "bytes"
        },
        {
          "internalType": "uint256",
          "name": "validationData",
          "type": "uint256"
        }
      ],
      "stateMutability": "view",
      "type": "function"
    },
    {
      "inputs": [
        {
          "internalType": "address payable",
          "name": "to",
          "type": "address"
        },
        {
          "internalType": "uint256",
          "name": "amount",
          "type": "uint256"
        }
      ],
      "name": "withdraw",
      "outputs": [],
      "stateMutability": "nonpayable",
      "type": "function"
    },
    {
      "inputs": [
        {
          "internalType": "address payable",
          "name": "to",
          "type": "address"
        }
      ],
      "name": "withdrawAll",
      "outputs": [],
      "stateMutability": "nonpayable",
      "type": "function"
    },
    {
      "inputs": [
        {
          "internalType": "address payable",
          "name": "to",
          "type": "address"
        }
      ],
      "name": "withdrawStake",
      "outputs": [],
      "stateMutability": "nonpayable",
      "type": "function"
    }
  ],
  "bytecode": "0x608060405234801561001057600080fd5b50604051610c02380380610c0283398101604081905261002f916100d4565b308061005557604051631e4fbdf760e01b81526000600482015260240160405180910390fd5b61005e81610084565b50600180546001600160a01b0319166001600160a01b0392909216919091179055610104565b600080546001600160a01b038381166001600160a01b0319831681178455604051919092169283917f8be0079c531659141344cd1fd0a4f28419497f9722a3daafe3b4186f6b6457e09190a35050565b6000602082840312156100e657600080fd5b81516001600160a01b03811681146100fd57600080fd5b9392505050565b610aef806101136000396000f3fe6080604052600436106100f35760003560e01c8063bb9fe6bf1161008a578063f2fde38b11610059578063f2fde38b14610273578063f3fef3a314610293578063f465c77e146102b3578063fa09e630146102e157600080fd5b8063bb9fe6bf14610209578063c23a5cea1461021e578063c399ec881461023e578063d0e30db01461026b57600080fd5b8063715018a6116100c6578063715018a6146101825780638da5cb5b14610197578063a9a23409146101c9578063b0d691fe146101e957600080fd5b80630396cb60146100f85780630f9f9a241461010d578063584465f21461013557806363fa7c1e14610155575b600080fd5b61010b61010636600461081d565b610301565b005b34801561011957600080fd5b50610122600381565b6040519081526020015b60405180910390f35b34801561014157600080fd5b5061010b610150366004610856565b610370565b34801561016157600080fd5b50610122610170366004610856565b60026020526000908152604090205481565b34801561018e57600080fd5b5061010b6103d5565b3480156101a357600080fd5b506000546001600160a01b03165b6040516001600160a01b03909116815260200161012c565b3480156101d557600080fd5b5061010b6101e4366004610873565b6103e9565b3480156101f557600080fd5b506001546101b1906001600160a01b031681565b34801561021557600080fd5b5061010b61044e565b34801561022a57600080fd5b5061010b610239366004610856565b6104ba565b34801561024a57600080fd5b50610253610525565b6040516001600160701b03909116815260200161012c565b61010b610598565b34801561027f57600080fd5b5061010b61028e366004610856565b6105de565b34801561029f57600080fd5b5061010b6102ae366004610902565b61061c565b3480156102bf57600080fd5b506102d36102ce36600461092e565b610672565b60405161012c929190610982565b3480156102ed57600080fd5b5061010b6102fc366004610856565b610732565b61030961078e565b600154604051621cb65b60e51b815263ffffffff831660048201526001600160a01b0390911690630396cb609034906024016000604051808303818588803b15801561035457600080fd5b505af1158015610368573d6000803e3d6000fd5b505050505050565b61037861078e565b6001546040516001600160a01b03918216918316907f3f2b7351b54f225a84c5c935a73f2a8c553dbcd5e4f0479f1e29aa663bd2c2c490600090a3600180546001600160a01b0319166001600160a01b0392909216919091179055565b6103dd61078e565b6103e760006107bb565b565b6001546001600160a01b031633146104485760405162461bcd60e51b815260206004820152601860248201527f4f6e6c7920456e747279506f696e742063616e2063616c6c000000000000000060448201526064015b60405180910390fd5b50505050565b61045661078e565b600160009054906101000a90046001600160a01b03166001600160a01b031663bb9fe6bf6040518163ffffffff1660e01b8152600401600060405180830381600087803b1580156104a657600080fd5b505af1158015610448573d6000803e3d6000fd5b6104c261078e565b60015460405163611d2e7560e11b81526001600160a01b0383811660048301529091169063c23a5cea906024015b600060405180830381600087803b15801561050a57600080fd5b505af115801561051e573d6000803e3d6000fd5b5050505050565b600154604051632943e70960e11b81523060048201526000916001600160a01b031690635287ce129060240160a060405180830381865afa15801561056e573d6000803e3d6000fd5b505050506040513d601f19601f820116820180604052508101906105929190610a16565b51919050565b60015460405163b760faf960e01b81523060048201526001600160a01b039091169063b760faf99034906024016000604051808303818588803b15801561050a57600080fd5b6105e661078e565b6001600160a01b03811661061057604051631e4fbdf760e01b81526000600482015260240161043f565b610619816107bb565b50565b61062461078e565b60015460405163040b850f60e31b81526001600160a01b038481166004830152602482018490529091169063205c287890604401600060405180830381600087803b15801561035457600080fd5b60606000806106846020870187610856565b6001600160a01b038116600090815260026020526040902054909150600381106107005760405162461bcd60e51b815260206004820152602760248201527f5061796d61737465723a2055736572206861732065786365656465642066726560448201526619481b1a5b5a5d60ca1b606482015260840161043f565b604080516001600160a01b03841660208201520160408051601f19818403018152919052976000975095505050505050565b61073a61078e565b6001546001600160a01b031663205c287882610754610525565b6040516001600160e01b031960e085901b1681526001600160a01b0390921660048301526001600160701b031660248201526044016104f0565b6000546001600160a01b031633146103e75760405163118cdaa760e01b815233600482015260240161043f565b600080546001600160a01b038381166001600160a01b0319831681178455604051919092169283917f8be0079c531659141344cd1fd0a4f28419497f9722a3daafe3b4186f6b6457e09190a35050565b63ffffffff8116811461061957600080fd5b60006020828403121561082f57600080fd5b813561083a8161080b565b9392505050565b6001600160a01b038116811461061957600080fd5b60006020828403121561086857600080fd5b813561083a81610841565b6000806000806060858703121561088957600080fd5b84356003811061089857600080fd5b9350602085013567ffffffffffffffff808211156108b557600080fd5b818701915087601f8301126108c957600080fd5b8135818111156108d857600080fd5b8860208285010111156108ea57600080fd5b95986020929092019750949560400135945092505050565b6000806040838503121561091557600080fd5b823561092081610841565b946020939093013593505050565b60008060006060848603121561094357600080fd5b833567ffffffffffffffff81111561095a57600080fd5b8401610160818703121561096d57600080fd5b95602085013595506040909401359392505050565b604081526000835180604084015260005b818110156109b05760208187018101516060868401015201610993565b506000606082850101526060601f19601f8301168401019150508260208301529392505050565b80516001600160701b03811681146109ee57600080fd5b919050565b80516109ee8161080b565b805167ffffffffffffffff811681146109ee57600080fd5b600060a08284031215610a2857600080fd5b60405160a0810181811067ffffffffffffffff82111715610a5957634e487b7160e01b600052604160045260246000fd5b604052610a65836109d7565b815260208301518015158114610a7a57600080fd5b6020820152610a8b604084016109d7565b6040820152610a9c606084016109f3565b6060820152610aad608084016109fe565b6080820152939250505056fea264697066735822122088a6b51186424929edd0d2af2c6eb2095c3c70ef8ecad4570963a3a1f196518b64736f6c63430008180033",
  "linkReferences": {},
  "deployedLinkReferences": {}
}